{
	"VestingContract.sol": {
		"_tokenVesting": {
			"abi": [
				{
					"inputs": [
						{
							"internalType": "address",
							"name": "token_",
							"type": "address"
						}
					],
					"stateMutability": "nonpayable",
					"type": "constructor"
				},
				{
					"anonymous": false,
					"inputs": [
						{
							"indexed": true,
							"internalType": "address",
							"name": "previousOwner",
							"type": "address"
						},
						{
							"indexed": true,
							"internalType": "address",
							"name": "newOwner",
							"type": "address"
						}
					],
					"name": "OwnershipTransferred",
					"type": "event"
				},
				{
					"anonymous": false,
					"inputs": [
						{
							"indexed": false,
							"internalType": "uint256",
							"name": "amount",
							"type": "uint256"
						}
					],
					"name": "Released",
					"type": "event"
				},
				{
					"anonymous": false,
					"inputs": [],
					"name": "Revoked",
					"type": "event"
				},
				{
					"inputs": [],
					"name": "beneficiary",
					"outputs": [
						{
							"internalType": "address",
							"name": "",
							"type": "address"
						}
					],
					"stateMutability": "view",
					"type": "function"
				},
				{
					"inputs": [],
					"name": "cliff",
					"outputs": [
						{
							"internalType": "uint256",
							"name": "",
							"type": "uint256"
						}
					],
					"stateMutability": "view",
					"type": "function"
				},
				{
					"inputs": [
						{
							"internalType": "address",
							"name": "_beneficiary",
							"type": "address"
						},
						{
							"internalType": "uint256",
							"name": "_start",
							"type": "uint256"
						},
						{
							"internalType": "uint256",
							"name": "_cliff",
							"type": "uint256"
						},
						{
							"internalType": "uint256",
							"name": "_duration",
							"type": "uint256"
						},
						{
							"internalType": "bool",
							"name": "_revocable",
							"type": "bool"
						}
					],
					"name": "createtokenVesting",
					"outputs": [],
					"stateMutability": "nonpayable",
					"type": "function"
				},
				{
					"inputs": [],
					"name": "duration",
					"outputs": [
						{
							"internalType": "uint256",
							"name": "",
							"type": "uint256"
						}
					],
					"stateMutability": "view",
					"type": "function"
				},
				{
					"inputs": [],
					"name": "owner",
					"outputs": [
						{
							"internalType": "address",
							"name": "",
							"type": "address"
						}
					],
					"stateMutability": "view",
					"type": "function"
				},
				{
					"inputs": [],
					"name": "releasableAmount",
					"outputs": [
						{
							"internalType": "uint256",
							"name": "",
							"type": "uint256"
						}
					],
					"stateMutability": "nonpayable",
					"type": "function"
				},
				{
					"inputs": [],
					"name": "release",
					"outputs": [],
					"stateMutability": "nonpayable",
					"type": "function"
				},
				{
					"inputs": [],
					"name": "released",
					"outputs": [
						{
							"internalType": "uint256",
							"name": "",
							"type": "uint256"
						}
					],
					"stateMutability": "view",
					"type": "function"
				},
				{
					"inputs": [],
					"name": "renounceOwnership",
					"outputs": [],
					"stateMutability": "nonpayable",
					"type": "function"
				},
				{
					"inputs": [],
					"name": "revocable",
					"outputs": [
						{
							"internalType": "bool",
							"name": "",
							"type": "bool"
						}
					],
					"stateMutability": "view",
					"type": "function"
				},
				{
					"inputs": [],
					"name": "revoke",
					"outputs": [],
					"stateMutability": "nonpayable",
					"type": "function"
				},
				{
					"inputs": [],
					"name": "revoked",
					"outputs": [
						{
							"internalType": "bool",
							"name": "",
							"type": "bool"
						}
					],
					"stateMutability": "view",
					"type": "function"
				},
				{
					"inputs": [],
					"name": "start",
					"outputs": [
						{
							"internalType": "uint256",
							"name": "",
							"type": "uint256"
						}
					],
					"stateMutability": "view",
					"type": "function"
				},
				{
					"inputs": [
						{
							"internalType": "address",
							"name": "newOwner",
							"type": "address"
						}
					],
					"name": "transferOwnership",
					"outputs": [],
					"stateMutability": "nonpayable",
					"type": "function"
				},
				{
					"inputs": [],
					"name": "vestedAmount",
					"outputs": [
						{
							"internalType": "uint256",
							"name": "",
							"type": "uint256"
						}
					],
					"stateMutability": "view",
					"type": "function"
				}
			],
			"devdoc": {
				"details": "A _token holder contract that can release its _token balance gradually like a typical vesting scheme, with a cliff and vesting period. Optionally revocable by the owner.",
				"kind": "dev",
				"methods": {
					"createtokenVesting(address,uint256,uint256,uint256,bool)": {
						"details": "Creates a vesting contract that vests its balance of any ERC20 _token to the _beneficiary, gradually in a linear fashion until _start + _duration. By then all of the balance will have vested.",
						"params": {
							"_beneficiary": "address of the beneficiary to whom vested _tokens are transferred",
							"_cliff": "duration in seconds of the cliff in which _tokens will begin to vest",
							"_duration": "duration in seconds of the period in which the _tokens will vest",
							"_revocable": "whether the vesting is revocable or not"
						}
					},
					"owner()": {
						"details": "Returns the address of the current owner."
					},
					"renounceOwnership()": {
						"details": "Leaves the contract without owner. It will not be possible to call `onlyOwner` functions anymore. Can only be called by the current owner. NOTE: Renouncing ownership will leave the contract without an owner, thereby removing any functionality that is only available to the owner."
					},
					"transferOwnership(address)": {
						"details": "Transfers ownership of the contract to a new account (`newOwner`). Can only be called by the current owner."
					}
				},
				"title": "_tokenVesting",
				"version": 1
			},
			"evm": {
				"assembly": "    /* \"VestingContract.sol\":639:3395  contract _tokenVesting is Ownable, ReentrancyGuard {\r... */\n  mstore(0x40, 0xa0)\n    /* \"VestingContract.sol\":1205:1305  constructor(address token_){\r... */\n  callvalue\n  dup1\n  iszero\n  tag_1\n  jumpi\n  0x00\n  dup1\n  revert\ntag_1:\n  pop\n  mload(0x40)\n  sub(codesize, bytecodeSize)\n  dup1\n  bytecodeSize\n  dup4\n  codecopy\n  dup2\n  dup2\n  add\n  0x40\n  mstore\n  dup2\n  add\n  swap1\n  tag_2\n  swap2\n  swap1\n  tag_3\n  jump\t// in\ntag_2:\n    /* \"@openzeppelin/contracts/access/Ownable.sol\":936:968  _transferOwnership(_msgSender()) */\n  tag_8\n    /* \"@openzeppelin/contracts/access/Ownable.sol\":955:967  _msgSender() */\n  tag_9\n    /* \"@openzeppelin/contracts/access/Ownable.sol\":955:965  _msgSender */\n  shl(0x20, tag_10)\n    /* \"@openzeppelin/contracts/access/Ownable.sol\":955:967  _msgSender() */\n  0x20\n  shr\n  jump\t// in\ntag_9:\n    /* \"@openzeppelin/contracts/access/Ownable.sol\":936:954  _transferOwnership */\n  shl(0x20, tag_11)\n    /* \"@openzeppelin/contracts/access/Ownable.sol\":936:968  _transferOwnership(_msgSender()) */\n  0x20\n  shr\n  jump\t// in\ntag_8:\n    /* \"@openzeppelin/contracts/security/ReentrancyGuard.sol\":1701:1702  1 */\n  0x01\n    /* \"@openzeppelin/contracts/security/ReentrancyGuard.sol\":1806:1813  _status */\n  dup1\n    /* \"@openzeppelin/contracts/security/ReentrancyGuard.sol\":1806:1828  _status = _NOT_ENTERED */\n  dup2\n  swap1\n  sstore\n  pop\n    /* \"VestingContract.sol\":1265:1268  0x0 */\n  0x00\n    /* \"VestingContract.sol\":1247:1269  token_ != address(0x0) */\n  0xffffffffffffffffffffffffffffffffffffffff\n  and\n    /* \"VestingContract.sol\":1247:1253  token_ */\n  dup2\n    /* \"VestingContract.sol\":1247:1269  token_ != address(0x0) */\n  0xffffffffffffffffffffffffffffffffffffffff\n  and\n  eq\n  iszero\n    /* \"VestingContract.sol\":1239:1270  require(token_ != address(0x0)) */\n  tag_14\n  jumpi\n  0x00\n  dup1\n  revert\ntag_14:\n    /* \"VestingContract.sol\":1293:1299  token_ */\n  dup1\n    /* \"VestingContract.sol\":1277:1300  _token = IERC20(token_) */\n  0xffffffffffffffffffffffffffffffffffffffff\n  and\n  0x80\n  dup2\n  0xffffffffffffffffffffffffffffffffffffffff\n  and\n  0x60\n  shl\n  dup2\n  mstore\n  pop\n  pop\n    /* \"VestingContract.sol\":1205:1305  constructor(address token_){\r... */\n  pop\n    /* \"VestingContract.sol\":639:3395  contract _tokenVesting is Ownable, ReentrancyGuard {\r... */\n  jump(tag_15)\n    /* \"@openzeppelin/contracts/utils/Context.sol\":640:736  function _msgSender() internal view virtual returns (address) {... */\ntag_10:\n    /* \"@openzeppelin/contracts/utils/Context.sol\":693:700  address */\n  0x00\n    /* \"@openzeppelin/contracts/utils/Context.sol\":719:729  msg.sender */\n  caller\n    /* \"@openzeppelin/contracts/utils/Context.sol\":712:729  return msg.sender */\n  swap1\n  pop\n    /* \"@openzeppelin/contracts/utils/Context.sol\":640:736  function _msgSender() internal view virtual returns (address) {... */\n  swap1\n  jump\t// out\n    /* \"@openzeppelin/contracts/access/Ownable.sol\":2433:2620  function _transferOwnership(address newOwner) internal virtual {... */\ntag_11:\n    /* \"@openzeppelin/contracts/access/Ownable.sol\":2506:2522  address oldOwner */\n  0x00\n    /* \"@openzeppelin/contracts/access/Ownable.sol\":2525:2531  _owner */\n  dup1\n  0x00\n  swap1\n  sload\n  swap1\n  0x0100\n  exp\n  swap1\n  div\n  0xffffffffffffffffffffffffffffffffffffffff\n  and\n    /* \"@openzeppelin/contracts/access/Ownable.sol\":2506:2531  address oldOwner = _owner */\n  swap1\n  pop\n    /* \"@openzeppelin/contracts/access/Ownable.sol\":2550:2558  newOwner */\n  dup2\n    /* \"@openzeppelin/contracts/access/Ownable.sol\":2541:2547  _owner */\n  0x00\n  dup1\n    /* \"@openzeppelin/contracts/access/Ownable.sol\":2541:2558  _owner = newOwner */\n  0x0100\n  exp\n  dup2\n  sload\n  dup2\n  0xffffffffffffffffffffffffffffffffffffffff\n  mul\n  not\n  and\n  swap1\n  dup4\n  0xffffffffffffffffffffffffffffffffffffffff\n  and\n  mul\n  or\n  swap1\n  sstore\n  pop\n    /* \"@openzeppelin/contracts/access/Ownable.sol\":2604:2612  newOwner */\n  dup2\n    /* \"@openzeppelin/contracts/access/Ownable.sol\":2573:2613  OwnershipTransferred(oldOwner, newOwner) */\n  0xffffffffffffffffffffffffffffffffffffffff\n  and\n    /* \"@openzeppelin/contracts/access/Ownable.sol\":2594:2602  oldOwner */\n  dup2\n    /* \"@openzeppelin/contracts/access/Ownable.sol\":2573:2613  OwnershipTransferred(oldOwner, newOwner) */\n  0xffffffffffffffffffffffffffffffffffffffff\n  and\n  0x8be0079c531659141344cd1fd0a4f28419497f9722a3daafe3b4186f6b6457e0\n  mload(0x40)\n  mload(0x40)\n  dup1\n  swap2\n  sub\n  swap1\n  log3\n    /* \"@openzeppelin/contracts/access/Ownable.sol\":2496:2620  {... */\n  pop\n    /* \"@openzeppelin/contracts/access/Ownable.sol\":2433:2620  function _transferOwnership(address newOwner) internal virtual {... */\n  pop\n  jump\t// out\n    /* \"#utility.yul\":7:150   */\ntag_19:\n    /* \"#utility.yul\":64:69   */\n  0x00\n    /* \"#utility.yul\":95:101   */\n  dup2\n    /* \"#utility.yul\":89:102   */\n  mload\n    /* \"#utility.yul\":80:102   */\n  swap1\n  pop\n    /* \"#utility.yul\":111:144   */\n  tag_21\n    /* \"#utility.yul\":138:143   */\n  dup2\n    /* \"#utility.yul\":111:144   */\n  tag_22\n  jump\t// in\ntag_21:\n    /* \"#utility.yul\":7:150   */\n  swap3\n  swap2\n  pop\n  pop\n  jump\t// out\n    /* \"#utility.yul\":156:507   */\ntag_3:\n    /* \"#utility.yul\":226:232   */\n  0x00\n    /* \"#utility.yul\":275:277   */\n  0x20\n    /* \"#utility.yul\":263:272   */\n  dup3\n    /* \"#utility.yul\":254:261   */\n  dup5\n    /* \"#utility.yul\":250:273   */\n  sub\n    /* \"#utility.yul\":246:278   */\n  slt\n    /* \"#utility.yul\":243:362   */\n  iszero\n  tag_24\n  jumpi\n    /* \"#utility.yul\":281:360   */\n  tag_25\n  tag_26\n  jump\t// in\ntag_25:\n    /* \"#utility.yul\":243:362   */\ntag_24:\n    /* \"#utility.yul\":401:402   */\n  0x00\n    /* \"#utility.yul\":426:490   */\n  tag_27\n    /* \"#utility.yul\":482:489   */\n  dup5\n    /* \"#utility.yul\":473:479   */\n  dup3\n    /* \"#utility.yul\":462:471   */\n  dup6\n    /* \"#utility.yul\":458:480   */\n  add\n    /* \"#utility.yul\":426:490   */\n  tag_19\n  jump\t// in\ntag_27:\n    /* \"#utility.yul\":416:490   */\n  swap2\n  pop\n    /* \"#utility.yul\":372:500   */\n  pop\n    /* \"#utility.yul\":156:507   */\n  swap3\n  swap2\n  pop\n  pop\n  jump\t// out\n    /* \"#utility.yul\":594:690   */\ntag_30:\n    /* \"#utility.yul\":631:638   */\n  0x00\n    /* \"#utility.yul\":660:684   */\n  tag_32\n    /* \"#utility.yul\":678:683   */\n  dup3\n    /* \"#utility.yul\":660:684   */\n  tag_33\n  jump\t// in\ntag_32:\n    /* \"#utility.yul\":649:684   */\n  swap1\n  pop\n    /* \"#utility.yul\":594:690   */\n  swap2\n  swap1\n  pop\n  jump\t// out\n    /* \"#utility.yul\":696:822   */\ntag_33:\n    /* \"#utility.yul\":733:740   */\n  0x00\n    /* \"#utility.yul\":773:815   */\n  0xffffffffffffffffffffffffffffffffffffffff\n    /* \"#utility.yul\":766:771   */\n  dup3\n    /* \"#utility.yul\":762:816   */\n  and\n    /* \"#utility.yul\":751:816   */\n  swap1\n  pop\n    /* \"#utility.yul\":696:822   */\n  swap2\n  swap1\n  pop\n  jump\t// out\n    /* \"#utility.yul\":951:1068   */\ntag_26:\n    /* \"#utility.yul\":1060:1061   */\n  0x00\n    /* \"#utility.yul\":1057:1058   */\n  dup1\n    /* \"#utility.yul\":1050:1062   */\n  revert\n    /* \"#utility.yul\":1074:1196   */\ntag_22:\n    /* \"#utility.yul\":1147:1171   */\n  tag_39\n    /* \"#utility.yul\":1165:1170   */\n  dup2\n    /* \"#utility.yul\":1147:1171   */\n  tag_30\n  jump\t// in\ntag_39:\n    /* \"#utility.yul\":1140:1145   */\n  dup2\n    /* \"#utility.yul\":1137:1172   */\n  eq\n    /* \"#utility.yul\":1127:1190   */\n  tag_40\n  jumpi\n    /* \"#utility.yul\":1186:1187   */\n  0x00\n    /* \"#utility.yul\":1183:1184   */\n  dup1\n    /* \"#utility.yul\":1176:1188   */\n  revert\n    /* \"#utility.yul\":1127:1190   */\ntag_40:\n    /* \"#utility.yul\":1074:1196   */\n  pop\n  jump\t// out\n    /* \"VestingContract.sol\":639:3395  contract _tokenVesting is Ownable, ReentrancyGuard {\r... */\ntag_15:\n  shr(0x60, mload(0x80))\n  codecopy(0x00, dataOffset(sub_0), dataSize(sub_0))\n  0x00\n  assignImmutable(\"0x6ce71ac1040743152ecf7179a25b3411d3d9b7f89be59fa4debd0ef0209f5d3c\")\n  return(0x00, dataSize(sub_0))\nstop\n\nsub_0: assembly {\n        /* \"VestingContract.sol\":639:3395  contract _tokenVesting is Ownable, ReentrancyGuard {\r... */\n      mstore(0x40, 0x80)\n      callvalue\n      dup1\n      iszero\n      tag_1\n      jumpi\n      0x00\n      dup1\n      revert\n    tag_1:\n      pop\n      jumpi(tag_2, lt(calldatasize, 0x04))\n      shr(0xe0, calldataload(0x00))\n      dup1\n      0x7c0b2b74\n      gt\n      tag_18\n      jumpi\n      dup1\n      0x96132521\n      gt\n      tag_19\n      jumpi\n      dup1\n      0x96132521\n      eq\n      tag_14\n      jumpi\n      dup1\n      0xb6549f75\n      eq\n      tag_15\n      jumpi\n      dup1\n      0xbe9a6555\n      eq\n      tag_16\n      jumpi\n      dup1\n      0xf2fde38b\n      eq\n      tag_17\n      jumpi\n      jump(tag_2)\n    tag_19:\n      dup1\n      0x7c0b2b74\n      eq\n      tag_10\n      jumpi\n      dup1\n      0x86d1a69f\n      eq\n      tag_11\n      jumpi\n      dup1\n      0x872a7810\n      eq\n      tag_12\n      jumpi\n      dup1\n      0x8da5cb5b\n      eq\n      tag_13\n      jumpi\n      jump(tag_2)\n    tag_18:\n      dup1\n      0x44b1231f\n      gt\n      tag_20\n      jumpi\n      dup1\n      0x44b1231f\n      eq\n      tag_6\n      jumpi\n      dup1\n      0x5b940081\n      eq\n      tag_7\n      jumpi\n      dup1\n      0x63d256ce\n      eq\n      tag_8\n      jumpi\n      dup1\n      0x715018a6\n      eq\n      tag_9\n      jumpi\n      jump(tag_2)\n    tag_20:\n      dup1\n      0x0fb5a6b4\n      eq\n      tag_3\n      jumpi\n      dup1\n      0x13d033c0\n      eq\n      tag_4\n      jumpi\n      dup1\n      0x38af3eed\n      eq\n      tag_5\n      jumpi\n    tag_2:\n      0x00\n      dup1\n      revert\n        /* \"VestingContract.sol\":952:975  uint256 public duration */\n    tag_3:\n      tag_21\n      tag_22\n      jump\t// in\n    tag_21:\n      mload(0x40)\n      tag_23\n      swap2\n      swap1\n      tag_24\n      jump\t// in\n    tag_23:\n      mload(0x40)\n      dup1\n      swap2\n      sub\n      swap1\n      return\n        /* \"VestingContract.sol\":902:922  uint256 public cliff */\n    tag_4:\n      tag_25\n      tag_26\n      jump\t// in\n    tag_25:\n      mload(0x40)\n      tag_27\n      swap2\n      swap1\n      tag_24\n      jump\t// in\n    tag_27:\n      mload(0x40)\n      dup1\n      swap2\n      sub\n      swap1\n      return\n        /* \"VestingContract.sol\":869:895  address public beneficiary */\n    tag_5:\n      tag_28\n      tag_29\n      jump\t// in\n    tag_28:\n      mload(0x40)\n      tag_30\n      swap2\n      swap1\n      tag_31\n      jump\t// in\n    tag_30:\n      mload(0x40)\n      dup1\n      swap2\n      sub\n      swap1\n      return\n        /* \"VestingContract.sol\":2964:3392  function vestedAmount() public view returns (uint256) {\r... */\n    tag_6:\n      tag_32\n      tag_33\n      jump\t// in\n    tag_32:\n      mload(0x40)\n      tag_34\n      swap2\n      swap1\n      tag_24\n      jump\t// in\n    tag_34:\n      mload(0x40)\n      dup1\n      swap2\n      sub\n      swap1\n      return\n        /* \"VestingContract.sol\":2854:2955  function releasableAmount() public returns (uint256) {\r... */\n    tag_7:\n      tag_35\n      tag_36\n      jump\t// in\n    tag_35:\n      mload(0x40)\n      tag_37\n      swap2\n      swap1\n      tag_24\n      jump\t// in\n    tag_37:\n      mload(0x40)\n      dup1\n      swap2\n      sub\n      swap1\n      return\n        /* \"VestingContract.sol\":1041:1060  bool public revoked */\n    tag_8:\n      tag_38\n      tag_39\n      jump\t// in\n    tag_38:\n      mload(0x40)\n      tag_40\n      swap2\n      swap1\n      tag_41\n      jump\t// in\n    tag_40:\n      mload(0x40)\n      dup1\n      swap2\n      sub\n      swap1\n      return\n        /* \"@openzeppelin/contracts/access/Ownable.sol\":1831:1932  function renounceOwnership() public virtual onlyOwner {... */\n    tag_9:\n      tag_42\n      tag_43\n      jump\t// in\n    tag_42:\n      stop\n        /* \"VestingContract.sol\":1873:2225  function createtokenVesting(address _beneficiary, uint256 _start, uint256 _cliff, uint256 _duration, bool _revocable) public{\r... */\n    tag_10:\n      tag_44\n      0x04\n      dup1\n      calldatasize\n      sub\n      dup2\n      add\n      swap1\n      tag_45\n      swap2\n      swap1\n      tag_46\n      jump\t// in\n    tag_45:\n      tag_47\n      jump\t// in\n    tag_44:\n      stop\n        /* \"VestingContract.sol\":2233:2460  function release() public {\r... */\n    tag_11:\n      tag_48\n      tag_49\n      jump\t// in\n    tag_48:\n      stop\n        /* \"VestingContract.sol\":987:1008  bool public revocable */\n    tag_12:\n      tag_50\n      tag_51\n      jump\t// in\n    tag_50:\n      mload(0x40)\n      tag_52\n      swap2\n      swap1\n      tag_41\n      jump\t// in\n    tag_52:\n      mload(0x40)\n      dup1\n      swap2\n      sub\n      swap1\n      return\n        /* \"@openzeppelin/contracts/access/Ownable.sol\":1201:1286  function owner() public view virtual returns (address) {... */\n    tag_13:\n      tag_53\n      tag_54\n      jump\t// in\n    tag_53:\n      mload(0x40)\n      tag_55\n      swap2\n      swap1\n      tag_31\n      jump\t// in\n    tag_55:\n      mload(0x40)\n      dup1\n      swap2\n      sub\n      swap1\n      return\n        /* \"VestingContract.sol\":1013:1036  uint256 public released */\n    tag_14:\n      tag_56\n      tag_57\n      jump\t// in\n    tag_56:\n      mload(0x40)\n      tag_58\n      swap2\n      swap1\n      tag_24\n      jump\t// in\n    tag_58:\n      mload(0x40)\n      dup1\n      swap2\n      sub\n      swap1\n      return\n        /* \"VestingContract.sol\":2468:2846  function revoke() public onlyOwner {\r... */\n    tag_15:\n      tag_59\n      tag_60\n      jump\t// in\n    tag_59:\n      stop\n        /* \"VestingContract.sol\":927:947  uint256 public start */\n    tag_16:\n      tag_61\n      tag_62\n      jump\t// in\n    tag_61:\n      mload(0x40)\n      tag_63\n      swap2\n      swap1\n      tag_24\n      jump\t// in\n    tag_63:\n      mload(0x40)\n      dup1\n      swap2\n      sub\n      swap1\n      return\n        /* \"@openzeppelin/contracts/access/Ownable.sol\":2081:2279  function transferOwnership(address newOwner) public virtual onlyOwner {... */\n    tag_17:\n      tag_64\n      0x04\n      dup1\n      calldatasize\n      sub\n      dup2\n      add\n      swap1\n      tag_65\n      swap2\n      swap1\n      tag_66\n      jump\t// in\n    tag_65:\n      tag_67\n      jump\t// in\n    tag_64:\n      stop\n        /* \"VestingContract.sol\":952:975  uint256 public duration */\n    tag_22:\n      sload(0x05)\n      dup2\n      jump\t// out\n        /* \"VestingContract.sol\":902:922  uint256 public cliff */\n    tag_26:\n      sload(0x03)\n      dup2\n      jump\t// out\n        /* \"VestingContract.sol\":869:895  address public beneficiary */\n    tag_29:\n      0x02\n      0x00\n      swap1\n      sload\n      swap1\n      0x0100\n      exp\n      swap1\n      div\n      0xffffffffffffffffffffffffffffffffffffffff\n      and\n      dup2\n      jump\t// out\n        /* \"VestingContract.sol\":2964:3392  function vestedAmount() public view returns (uint256) {\r... */\n    tag_33:\n        /* \"VestingContract.sol\":3009:3016  uint256 */\n      0x00\n        /* \"VestingContract.sol\":3025:3047  uint256 currentBalance */\n      dup1\n        /* \"VestingContract.sol\":3050:3056  _token */\n      immutable(\"0x6ce71ac1040743152ecf7179a25b3411d3d9b7f89be59fa4debd0ef0209f5d3c\")\n        /* \"VestingContract.sol\":3050:3066  _token.balanceOf */\n      0xffffffffffffffffffffffffffffffffffffffff\n      and\n      0x70a08231\n        /* \"VestingContract.sol\":3075:3079  this */\n      address\n        /* \"VestingContract.sol\":3050:3081  _token.balanceOf(address(this)) */\n      mload(0x40)\n      dup3\n      0xffffffff\n      and\n      0xe0\n      shl\n      dup2\n      mstore\n      0x04\n      add\n      tag_69\n      swap2\n      swap1\n      tag_31\n      jump\t// in\n    tag_69:\n      0x20\n      mload(0x40)\n      dup1\n      dup4\n      sub\n      dup2\n      dup7\n      dup1\n      extcodesize\n      iszero\n      dup1\n      iszero\n      tag_70\n      jumpi\n      0x00\n      dup1\n      revert\n    tag_70:\n      pop\n      gas\n      staticcall\n      iszero\n      dup1\n      iszero\n      tag_72\n      jumpi\n      returndatasize\n      0x00\n      dup1\n      returndatacopy\n      revert(0x00, returndatasize)\n    tag_72:\n      pop\n      pop\n      pop\n      pop\n      mload(0x40)\n      returndatasize\n      not(0x1f)\n      0x1f\n      dup3\n      add\n      and\n      dup3\n      add\n      dup1\n      0x40\n      mstore\n      pop\n      dup2\n      add\n      swap1\n      tag_73\n      swap2\n      swap1\n      tag_74\n      jump\t// in\n    tag_73:\n        /* \"VestingContract.sol\":3025:3081  uint256 currentBalance = _token.balanceOf(address(this)) */\n      swap1\n      pop\n        /* \"VestingContract.sol\":3088:3108  uint256 totalBalance */\n      0x00\n        /* \"VestingContract.sol\":3111:3139  currentBalance.add(released) */\n      tag_75\n        /* \"VestingContract.sol\":3130:3138  released */\n      sload(0x07)\n        /* \"VestingContract.sol\":3111:3125  currentBalance */\n      dup4\n        /* \"VestingContract.sol\":3111:3129  currentBalance.add */\n      tag_76\n      swap1\n        /* \"VestingContract.sol\":3111:3139  currentBalance.add(released) */\n      swap2\n      swap1\n      0xffffffff\n      and\n      jump\t// in\n    tag_75:\n        /* \"VestingContract.sol\":3088:3139  uint256 totalBalance = currentBalance.add(released) */\n      swap1\n      pop\n        /* \"VestingContract.sol\":3170:3175  cliff */\n      sload(0x03)\n        /* \"VestingContract.sol\":3152:3167  block.timestamp */\n      timestamp\n        /* \"VestingContract.sol\":3152:3175  block.timestamp < cliff */\n      lt\n        /* \"VestingContract.sol\":3148:3387  if (block.timestamp < cliff) {\r... */\n      iszero\n      tag_77\n      jumpi\n        /* \"VestingContract.sol\":3193:3194  0 */\n      0x00\n        /* \"VestingContract.sol\":3186:3194  return 0 */\n      swap3\n      pop\n      pop\n      pop\n      jump(tag_68)\n        /* \"VestingContract.sol\":3148:3387  if (block.timestamp < cliff) {\r... */\n    tag_77:\n        /* \"VestingContract.sol\":3231:3250  start.add(duration) */\n      tag_79\n        /* \"VestingContract.sol\":3241:3249  duration */\n      sload(0x05)\n        /* \"VestingContract.sol\":3231:3236  start */\n      sload(0x04)\n        /* \"VestingContract.sol\":3231:3240  start.add */\n      tag_76\n      swap1\n        /* \"VestingContract.sol\":3231:3250  start.add(duration) */\n      swap2\n      swap1\n      0xffffffff\n      and\n      jump\t// in\n    tag_79:\n        /* \"VestingContract.sol\":3212:3227  block.timestamp */\n      timestamp\n        /* \"VestingContract.sol\":3212:3250  block.timestamp >= start.add(duration) */\n      lt\n      iszero\n        /* \"VestingContract.sol\":3212:3261  block.timestamp >= start.add(duration) || revoked */\n      dup1\n      tag_80\n      jumpi\n      pop\n        /* \"VestingContract.sol\":3254:3261  revoked */\n      0x08\n      0x00\n      swap1\n      sload\n      swap1\n      0x0100\n      exp\n      swap1\n      div\n      0xff\n      and\n        /* \"VestingContract.sol\":3212:3261  block.timestamp >= start.add(duration) || revoked */\n    tag_80:\n        /* \"VestingContract.sol\":3208:3387  if (block.timestamp >= start.add(duration) || revoked) {\r... */\n      iszero\n      tag_81\n      jumpi\n        /* \"VestingContract.sol\":3279:3291  totalBalance */\n      dup1\n        /* \"VestingContract.sol\":3272:3291  return totalBalance */\n      swap3\n      pop\n      pop\n      pop\n      jump(tag_68)\n        /* \"VestingContract.sol\":3208:3387  if (block.timestamp >= start.add(duration) || revoked) {\r... */\n    tag_81:\n        /* \"VestingContract.sol\":3321:3379  totalBalance.mul(block.timestamp.sub(start)).div(duration) */\n      tag_83\n        /* \"VestingContract.sol\":3370:3378  duration */\n      sload(0x05)\n        /* \"VestingContract.sol\":3321:3365  totalBalance.mul(block.timestamp.sub(start)) */\n      tag_84\n        /* \"VestingContract.sol\":3338:3364  block.timestamp.sub(start) */\n      tag_85\n        /* \"VestingContract.sol\":3358:3363  start */\n      sload(0x04)\n        /* \"VestingContract.sol\":3338:3353  block.timestamp */\n      timestamp\n        /* \"VestingContract.sol\":3338:3357  block.timestamp.sub */\n      tag_86\n      swap1\n        /* \"VestingContract.sol\":3338:3364  block.timestamp.sub(start) */\n      swap2\n      swap1\n      0xffffffff\n      and\n      jump\t// in\n    tag_85:\n        /* \"VestingContract.sol\":3321:3333  totalBalance */\n      dup5\n        /* \"VestingContract.sol\":3321:3337  totalBalance.mul */\n      tag_87\n      swap1\n        /* \"VestingContract.sol\":3321:3365  totalBalance.mul(block.timestamp.sub(start)) */\n      swap2\n      swap1\n      0xffffffff\n      and\n      jump\t// in\n    tag_84:\n        /* \"VestingContract.sol\":3321:3369  totalBalance.mul(block.timestamp.sub(start)).div */\n      tag_88\n      swap1\n        /* \"VestingContract.sol\":3321:3379  totalBalance.mul(block.timestamp.sub(start)).div(duration) */\n      swap2\n      swap1\n      0xffffffff\n      and\n      jump\t// in\n    tag_83:\n        /* \"VestingContract.sol\":3314:3379  return totalBalance.mul(block.timestamp.sub(start)).div(duration) */\n      swap3\n      pop\n      pop\n      pop\n        /* \"VestingContract.sol\":2964:3392  function vestedAmount() public view returns (uint256) {\r... */\n    tag_68:\n      swap1\n      jump\t// out\n        /* \"VestingContract.sol\":2854:2955  function releasableAmount() public returns (uint256) {\r... */\n    tag_36:\n        /* \"VestingContract.sol\":2898:2905  uint256 */\n      0x00\n        /* \"VestingContract.sol\":2921:2949  vestedAmount().sub(released) */\n      tag_90\n        /* \"VestingContract.sol\":2940:2948  released */\n      sload(0x07)\n        /* \"VestingContract.sol\":2921:2935  vestedAmount() */\n      tag_91\n        /* \"VestingContract.sol\":2921:2933  vestedAmount */\n      tag_33\n        /* \"VestingContract.sol\":2921:2935  vestedAmount() */\n      jump\t// in\n    tag_91:\n        /* \"VestingContract.sol\":2921:2939  vestedAmount().sub */\n      tag_86\n      swap1\n        /* \"VestingContract.sol\":2921:2949  vestedAmount().sub(released) */\n      swap2\n      swap1\n      0xffffffff\n      and\n      jump\t// in\n    tag_90:\n        /* \"VestingContract.sol\":2914:2949  return vestedAmount().sub(released) */\n      swap1\n      pop\n        /* \"VestingContract.sol\":2854:2955  function releasableAmount() public returns (uint256) {\r... */\n      swap1\n      jump\t// out\n        /* \"VestingContract.sol\":1041:1060  bool public revoked */\n    tag_39:\n      0x08\n      0x00\n      swap1\n      sload\n      swap1\n      0x0100\n      exp\n      swap1\n      div\n      0xff\n      and\n      dup2\n      jump\t// out\n        /* \"@openzeppelin/contracts/access/Ownable.sol\":1831:1932  function renounceOwnership() public virtual onlyOwner {... */\n    tag_43:\n        /* \"@openzeppelin/contracts/access/Ownable.sol\":1094:1107  _checkOwner() */\n      tag_93\n        /* \"@openzeppelin/contracts/access/Ownable.sol\":1094:1105  _checkOwner */\n      tag_94\n        /* \"@openzeppelin/contracts/access/Ownable.sol\":1094:1107  _checkOwner() */\n      jump\t// in\n    tag_93:\n        /* \"@openzeppelin/contracts/access/Ownable.sol\":1895:1925  _transferOwnership(address(0)) */\n      tag_96\n        /* \"@openzeppelin/contracts/access/Ownable.sol\":1922:1923  0 */\n      0x00\n        /* \"@openzeppelin/contracts/access/Ownable.sol\":1895:1913  _transferOwnership */\n      tag_97\n        /* \"@openzeppelin/contracts/access/Ownable.sol\":1895:1925  _transferOwnership(address(0)) */\n      jump\t// in\n    tag_96:\n        /* \"@openzeppelin/contracts/access/Ownable.sol\":1831:1932  function renounceOwnership() public virtual onlyOwner {... */\n      jump\t// out\n        /* \"VestingContract.sol\":1873:2225  function createtokenVesting(address _beneficiary, uint256 _start, uint256 _cliff, uint256 _duration, bool _revocable) public{\r... */\n    tag_47:\n        /* \"VestingContract.sol\":2036:2037  0 */\n      0x00\n        /* \"VestingContract.sol\":2012:2038  _beneficiary != address(0) */\n      0xffffffffffffffffffffffffffffffffffffffff\n      and\n        /* \"VestingContract.sol\":2012:2024  _beneficiary */\n      dup6\n        /* \"VestingContract.sol\":2012:2038  _beneficiary != address(0) */\n      0xffffffffffffffffffffffffffffffffffffffff\n      and\n      eq\n      iszero\n        /* \"VestingContract.sol\":2004:2039  require(_beneficiary != address(0)) */\n      tag_99\n      jumpi\n      0x00\n      dup1\n      revert\n    tag_99:\n        /* \"VestingContract.sol\":2064:2073  _duration */\n      dup2\n        /* \"VestingContract.sol\":2054:2060  _cliff */\n      dup4\n        /* \"VestingContract.sol\":2054:2073  _cliff <= _duration */\n      gt\n      iszero\n        /* \"VestingContract.sol\":2046:2074  require(_cliff <= _duration) */\n      tag_100\n      jumpi\n      0x00\n      dup1\n      revert\n    tag_100:\n        /* \"VestingContract.sol\":2097:2109  _beneficiary */\n      dup5\n        /* \"VestingContract.sol\":2083:2094  beneficiary */\n      0x02\n      0x00\n        /* \"VestingContract.sol\":2083:2109  beneficiary = _beneficiary */\n      0x0100\n      exp\n      dup2\n      sload\n      dup2\n      0xffffffffffffffffffffffffffffffffffffffff\n      mul\n      not\n      and\n      swap1\n      dup4\n      0xffffffffffffffffffffffffffffffffffffffff\n      and\n      mul\n      or\n      swap1\n      sstore\n      pop\n        /* \"VestingContract.sol\":2128:2138  _revocable */\n      dup1\n        /* \"VestingContract.sol\":2116:2125  revocable */\n      0x06\n      0x00\n        /* \"VestingContract.sol\":2116:2138  revocable = _revocable */\n      0x0100\n      exp\n      dup2\n      sload\n      dup2\n      0xff\n      mul\n      not\n      and\n      swap1\n      dup4\n      iszero\n      iszero\n      mul\n      or\n      swap1\n      sstore\n      pop\n        /* \"VestingContract.sol\":2156:2165  _duration */\n      dup2\n        /* \"VestingContract.sol\":2145:2153  duration */\n      0x05\n        /* \"VestingContract.sol\":2145:2165  duration = _duration */\n      dup2\n      swap1\n      sstore\n      pop\n        /* \"VestingContract.sol\":2180:2198  _start.add(_cliff) */\n      tag_101\n        /* \"VestingContract.sol\":2191:2197  _cliff */\n      dup4\n        /* \"VestingContract.sol\":2180:2186  _start */\n      dup6\n        /* \"VestingContract.sol\":2180:2190  _start.add */\n      tag_76\n      swap1\n        /* \"VestingContract.sol\":2180:2198  _start.add(_cliff) */\n      swap2\n      swap1\n      0xffffffff\n      and\n      jump\t// in\n    tag_101:\n        /* \"VestingContract.sol\":2172:2177  cliff */\n      0x03\n        /* \"VestingContract.sol\":2172:2198  cliff = _start.add(_cliff) */\n      dup2\n      swap1\n      sstore\n      pop\n        /* \"VestingContract.sol\":2213:2219  _start */\n      dup4\n        /* \"VestingContract.sol\":2205:2210  start */\n      0x04\n        /* \"VestingContract.sol\":2205:2219  start = _start */\n      dup2\n      swap1\n      sstore\n      pop\n        /* \"VestingContract.sol\":1873:2225  function createtokenVesting(address _beneficiary, uint256 _start, uint256 _cliff, uint256 _duration, bool _revocable) public{\r... */\n      pop\n      pop\n      pop\n      pop\n      pop\n      jump\t// out\n        /* \"VestingContract.sol\":2233:2460  function release() public {\r... */\n    tag_49:\n        /* \"VestingContract.sol\":2266:2284  uint256 unreleased */\n      0x00\n        /* \"VestingContract.sol\":2287:2305  releasableAmount() */\n      tag_103\n        /* \"VestingContract.sol\":2287:2303  releasableAmount */\n      tag_36\n        /* \"VestingContract.sol\":2287:2305  releasableAmount() */\n      jump\t// in\n    tag_103:\n        /* \"VestingContract.sol\":2266:2305  uint256 unreleased = releasableAmount() */\n      swap1\n      pop\n        /* \"VestingContract.sol\":2335:2336  0 */\n      0x00\n        /* \"VestingContract.sol\":2322:2332  unreleased */\n      dup2\n        /* \"VestingContract.sol\":2322:2336  unreleased > 0 */\n      gt\n        /* \"VestingContract.sol\":2314:2337  require(unreleased > 0) */\n      tag_104\n      jumpi\n      0x00\n      dup1\n      revert\n    tag_104:\n        /* \"VestingContract.sol\":2357:2367  unreleased */\n      dup1\n        /* \"VestingContract.sol\":2346:2354  released */\n      0x07\n        /* \"VestingContract.sol\":2346:2367  released = unreleased */\n      dup2\n      swap1\n      sstore\n      pop\n        /* \"VestingContract.sol\":2376:2420  _token.safeTransfer(beneficiary, unreleased) */\n      tag_105\n        /* \"VestingContract.sol\":2396:2407  beneficiary */\n      0x02\n      0x00\n      swap1\n      sload\n      swap1\n      0x0100\n      exp\n      swap1\n      div\n      0xffffffffffffffffffffffffffffffffffffffff\n      and\n        /* \"VestingContract.sol\":2409:2419  unreleased */\n      dup3\n        /* \"VestingContract.sol\":2376:2382  _token */\n      immutable(\"0x6ce71ac1040743152ecf7179a25b3411d3d9b7f89be59fa4debd0ef0209f5d3c\")\n        /* \"VestingContract.sol\":2376:2395  _token.safeTransfer */\n      0xffffffffffffffffffffffffffffffffffffffff\n      and\n      tag_106\n      swap1\n        /* \"VestingContract.sol\":2376:2420  _token.safeTransfer(beneficiary, unreleased) */\n      swap3\n      swap2\n      swap1\n      0xffffffff\n      and\n      jump\t// in\n    tag_105:\n        /* \"VestingContract.sol\":2434:2454  Released(unreleased) */\n      0xfb81f9b30d73d830c3544b34d827c08142579ee75710b490bab0b3995468c565\n        /* \"VestingContract.sol\":2443:2453  unreleased */\n      dup2\n        /* \"VestingContract.sol\":2434:2454  Released(unreleased) */\n      mload(0x40)\n      tag_107\n      swap2\n      swap1\n      tag_24\n      jump\t// in\n    tag_107:\n      mload(0x40)\n      dup1\n      swap2\n      sub\n      swap1\n      log1\n        /* \"VestingContract.sol\":2259:2460  {\r... */\n      pop\n        /* \"VestingContract.sol\":2233:2460  function release() public {\r... */\n      jump\t// out\n        /* \"VestingContract.sol\":987:1008  bool public revocable */\n    tag_51:\n      0x06\n      0x00\n      swap1\n      sload\n      swap1\n      0x0100\n      exp\n      swap1\n      div\n      0xff\n      and\n      dup2\n      jump\t// out\n        /* \"@openzeppelin/contracts/access/Ownable.sol\":1201:1286  function owner() public view virtual returns (address) {... */\n    tag_54:\n        /* \"@openzeppelin/contracts/access/Ownable.sol\":1247:1254  address */\n      0x00\n        /* \"@openzeppelin/contracts/access/Ownable.sol\":1273:1279  _owner */\n      dup1\n      0x00\n      swap1\n      sload\n      swap1\n      0x0100\n      exp\n      swap1\n      div\n      0xffffffffffffffffffffffffffffffffffffffff\n      and\n        /* \"@openzeppelin/contracts/access/Ownable.sol\":1266:1279  return _owner */\n      swap1\n      pop\n        /* \"@openzeppelin/contracts/access/Ownable.sol\":1201:1286  function owner() public view virtual returns (address) {... */\n      swap1\n      jump\t// out\n        /* \"VestingContract.sol\":1013:1036  uint256 public released */\n    tag_57:\n      sload(0x07)\n      dup2\n      jump\t// out\n        /* \"VestingContract.sol\":2468:2846  function revoke() public onlyOwner {\r... */\n    tag_60:\n        /* \"@openzeppelin/contracts/access/Ownable.sol\":1094:1107  _checkOwner() */\n      tag_110\n        /* \"@openzeppelin/contracts/access/Ownable.sol\":1094:1105  _checkOwner */\n      tag_94\n        /* \"@openzeppelin/contracts/access/Ownable.sol\":1094:1107  _checkOwner() */\n      jump\t// in\n    tag_110:\n        /* \"VestingContract.sol\":2518:2527  revocable */\n      0x06\n      0x00\n      swap1\n      sload\n      swap1\n      0x0100\n      exp\n      swap1\n      div\n      0xff\n      and\n        /* \"VestingContract.sol\":2510:2528  require(revocable) */\n      tag_112\n      jumpi\n      0x00\n      dup1\n      revert\n    tag_112:\n        /* \"VestingContract.sol\":2544:2551  revoked */\n      0x08\n      0x00\n      swap1\n      sload\n      swap1\n      0x0100\n      exp\n      swap1\n      div\n      0xff\n      and\n        /* \"VestingContract.sol\":2543:2551  !revoked */\n      iszero\n        /* \"VestingContract.sol\":2535:2552  require(!revoked) */\n      tag_113\n      jumpi\n      0x00\n      dup1\n      revert\n    tag_113:\n        /* \"VestingContract.sol\":2561:2576  uint256 balance */\n      0x00\n        /* \"VestingContract.sol\":2579:2585  _token */\n      immutable(\"0x6ce71ac1040743152ecf7179a25b3411d3d9b7f89be59fa4debd0ef0209f5d3c\")\n        /* \"VestingContract.sol\":2579:2595  _token.balanceOf */\n      0xffffffffffffffffffffffffffffffffffffffff\n      and\n      0x70a08231\n        /* \"VestingContract.sol\":2604:2608  this */\n      address\n        /* \"VestingContract.sol\":2579:2610  _token.balanceOf(address(this)) */\n      mload(0x40)\n      dup3\n      0xffffffff\n      and\n      0xe0\n      shl\n      dup2\n      mstore\n      0x04\n      add\n      tag_114\n      swap2\n      swap1\n      tag_31\n      jump\t// in\n    tag_114:\n      0x20\n      mload(0x40)\n      dup1\n      dup4\n      sub\n      dup2\n      dup7\n      dup1\n      extcodesize\n      iszero\n      dup1\n      iszero\n      tag_115\n      jumpi\n      0x00\n      dup1\n      revert\n    tag_115:\n      pop\n      gas\n      staticcall\n      iszero\n      dup1\n      iszero\n      tag_117\n      jumpi\n      returndatasize\n      0x00\n      dup1\n      returndatacopy\n      revert(0x00, returndatasize)\n    tag_117:\n      pop\n      pop\n      pop\n      pop\n      mload(0x40)\n      returndatasize\n      not(0x1f)\n      0x1f\n      dup3\n      add\n      and\n      dup3\n      add\n      dup1\n      0x40\n      mstore\n      pop\n      dup2\n      add\n      swap1\n      tag_118\n      swap2\n      swap1\n      tag_74\n      jump\t// in\n    tag_118:\n        /* \"VestingContract.sol\":2561:2610  uint256 balance = _token.balanceOf(address(this)) */\n      swap1\n      pop\n        /* \"VestingContract.sol\":2619:2637  uint256 unreleased */\n      0x00\n        /* \"VestingContract.sol\":2640:2658  releasableAmount() */\n      tag_119\n        /* \"VestingContract.sol\":2640:2656  releasableAmount */\n      tag_36\n        /* \"VestingContract.sol\":2640:2658  releasableAmount() */\n      jump\t// in\n    tag_119:\n        /* \"VestingContract.sol\":2619:2658  uint256 unreleased = releasableAmount() */\n      swap1\n      pop\n        /* \"VestingContract.sol\":2665:2679  uint256 refund */\n      0x00\n        /* \"VestingContract.sol\":2682:2705  balance.sub(unreleased) */\n      tag_120\n        /* \"VestingContract.sol\":2694:2704  unreleased */\n      dup3\n        /* \"VestingContract.sol\":2682:2689  balance */\n      dup5\n        /* \"VestingContract.sol\":2682:2693  balance.sub */\n      tag_86\n      swap1\n        /* \"VestingContract.sol\":2682:2705  balance.sub(unreleased) */\n      swap2\n      swap1\n      0xffffffff\n      and\n      jump\t// in\n    tag_120:\n        /* \"VestingContract.sol\":2665:2705  uint256 refund = balance.sub(unreleased) */\n      swap1\n      pop\n        /* \"VestingContract.sol\":2724:2728  true */\n      0x01\n        /* \"VestingContract.sol\":2714:2721  revoked */\n      0x08\n      0x00\n        /* \"VestingContract.sol\":2714:2728  revoked = true */\n      0x0100\n      exp\n      dup2\n      sload\n      dup2\n      0xff\n      mul\n      not\n      and\n      swap1\n      dup4\n      iszero\n      iszero\n      mul\n      or\n      swap1\n      sstore\n      pop\n        /* \"VestingContract.sol\":2741:2762  address contractOwner */\n      0x00\n        /* \"VestingContract.sol\":2765:2772  owner() */\n      tag_121\n        /* \"VestingContract.sol\":2765:2770  owner */\n      tag_54\n        /* \"VestingContract.sol\":2765:2772  owner() */\n      jump\t// in\n    tag_121:\n        /* \"VestingContract.sol\":2741:2772  address contractOwner = owner() */\n      swap1\n      pop\n        /* \"VestingContract.sol\":2779:2785  _token */\n      immutable(\"0x6ce71ac1040743152ecf7179a25b3411d3d9b7f89be59fa4debd0ef0209f5d3c\")\n        /* \"VestingContract.sol\":2779:2794  _token.transfer */\n      0xffffffffffffffffffffffffffffffffffffffff\n      and\n      0xa9059cbb\n        /* \"VestingContract.sol\":2795:2808  contractOwner */\n      dup3\n        /* \"VestingContract.sol\":2810:2816  refund */\n      dup5\n        /* \"VestingContract.sol\":2779:2817  _token.transfer(contractOwner, refund) */\n      mload(0x40)\n      dup4\n      0xffffffff\n      and\n      0xe0\n      shl\n      dup2\n      mstore\n      0x04\n      add\n      tag_122\n      swap3\n      swap2\n      swap1\n      tag_123\n      jump\t// in\n    tag_122:\n      0x20\n      mload(0x40)\n      dup1\n      dup4\n      sub\n      dup2\n      0x00\n      dup8\n      dup1\n      extcodesize\n      iszero\n      dup1\n      iszero\n      tag_124\n      jumpi\n      0x00\n      dup1\n      revert\n    tag_124:\n      pop\n      gas\n      call\n      iszero\n      dup1\n      iszero\n      tag_126\n      jumpi\n      returndatasize\n      0x00\n      dup1\n      returndatacopy\n      revert(0x00, returndatasize)\n    tag_126:\n      pop\n      pop\n      pop\n      pop\n      mload(0x40)\n      returndatasize\n      not(0x1f)\n      0x1f\n      dup3\n      add\n      and\n      dup3\n      add\n      dup1\n      0x40\n      mstore\n      pop\n      dup2\n      add\n      swap1\n      tag_127\n      swap2\n      swap1\n      tag_128\n      jump\t// in\n    tag_127:\n      pop\n        /* \"VestingContract.sol\":2831:2840  Revoked() */\n      0x44825a4b2df8acb19ce4e1afba9aa850c8b65cdb7942e2078f27d0b0960efee6\n      mload(0x40)\n      mload(0x40)\n      dup1\n      swap2\n      sub\n      swap1\n      log1\n        /* \"VestingContract.sol\":2503:2846  {\r... */\n      pop\n      pop\n      pop\n      pop\n        /* \"VestingContract.sol\":2468:2846  function revoke() public onlyOwner {\r... */\n      jump\t// out\n        /* \"VestingContract.sol\":927:947  uint256 public start */\n    tag_62:\n      sload(0x04)\n      dup2\n      jump\t// out\n        /* \"@openzeppelin/contracts/access/Ownable.sol\":2081:2279  function transferOwnership(address newOwner) public virtual onlyOwner {... */\n    tag_67:\n        /* \"@openzeppelin/contracts/access/Ownable.sol\":1094:1107  _checkOwner() */\n      tag_130\n        /* \"@openzeppelin/contracts/access/Ownable.sol\":1094:1105  _checkOwner */\n      tag_94\n        /* \"@openzeppelin/contracts/access/Ownable.sol\":1094:1107  _checkOwner() */\n      jump\t// in\n    tag_130:\n        /* \"@openzeppelin/contracts/access/Ownable.sol\":2189:2190  0 */\n      0x00\n        /* \"@openzeppelin/contracts/access/Ownable.sol\":2169:2191  newOwner != address(0) */\n      0xffffffffffffffffffffffffffffffffffffffff\n      and\n        /* \"@openzeppelin/contracts/access/Ownable.sol\":2169:2177  newOwner */\n      dup2\n        /* \"@openzeppelin/contracts/access/Ownable.sol\":2169:2191  newOwner != address(0) */\n      0xffffffffffffffffffffffffffffffffffffffff\n      and\n      eq\n      iszero\n        /* \"@openzeppelin/contracts/access/Ownable.sol\":2161:2234  require(newOwner != address(0), \"Ownable: new owner is the zero address\") */\n      tag_132\n      jumpi\n      mload(0x40)\n      0x08c379a000000000000000000000000000000000000000000000000000000000\n      dup2\n      mstore\n      0x04\n      add\n      tag_133\n      swap1\n      tag_134\n      jump\t// in\n    tag_133:\n      mload(0x40)\n      dup1\n      swap2\n      sub\n      swap1\n      revert\n    tag_132:\n        /* \"@openzeppelin/contracts/access/Ownable.sol\":2244:2272  _transferOwnership(newOwner) */\n      tag_135\n        /* \"@openzeppelin/contracts/access/Ownable.sol\":2263:2271  newOwner */\n      dup2\n        /* \"@openzeppelin/contracts/access/Ownable.sol\":2244:2262  _transferOwnership */\n      tag_97\n        /* \"@openzeppelin/contracts/access/Ownable.sol\":2244:2272  _transferOwnership(newOwner) */\n      jump\t// in\n    tag_135:\n        /* \"@openzeppelin/contracts/access/Ownable.sol\":2081:2279  function transferOwnership(address newOwner) public virtual onlyOwner {... */\n      pop\n      jump\t// out\n        /* \"@openzeppelin/contracts/utils/math/SafeMath.sol\":2755:2851  function add(uint256 a, uint256 b) internal pure returns (uint256) {... */\n    tag_76:\n        /* \"@openzeppelin/contracts/utils/math/SafeMath.sol\":2813:2820  uint256 */\n      0x00\n        /* \"@openzeppelin/contracts/utils/math/SafeMath.sol\":2843:2844  b */\n      dup2\n        /* \"@openzeppelin/contracts/utils/math/SafeMath.sol\":2839:2840  a */\n      dup4\n        /* \"@openzeppelin/contracts/utils/math/SafeMath.sol\":2839:2844  a + b */\n      tag_137\n      swap2\n      swap1\n      tag_138\n      jump\t// in\n    tag_137:\n        /* \"@openzeppelin/contracts/utils/math/SafeMath.sol\":2832:2844  return a + b */\n      swap1\n      pop\n        /* \"@openzeppelin/contracts/utils/math/SafeMath.sol\":2755:2851  function add(uint256 a, uint256 b) internal pure returns (uint256) {... */\n      swap3\n      swap2\n      pop\n      pop\n      jump\t// out\n        /* \"@openzeppelin/contracts/utils/math/SafeMath.sol\":3122:3218  function sub(uint256 a, uint256 b) internal pure returns (uint256) {... */\n    tag_86:\n        /* \"@openzeppelin/contracts/utils/math/SafeMath.sol\":3180:3187  uint256 */\n      0x00\n        /* \"@openzeppelin/contracts/utils/math/SafeMath.sol\":3210:3211  b */\n      dup2\n        /* \"@openzeppelin/contracts/utils/math/SafeMath.sol\":3206:3207  a */\n      dup4\n        /* \"@openzeppelin/contracts/utils/math/SafeMath.sol\":3206:3211  a - b */\n      tag_140\n      swap2\n      swap1\n      tag_141\n      jump\t// in\n    tag_140:\n        /* \"@openzeppelin/contracts/utils/math/SafeMath.sol\":3199:3211  return a - b */\n      swap1\n      pop\n        /* \"@openzeppelin/contracts/utils/math/SafeMath.sol\":3122:3218  function sub(uint256 a, uint256 b) internal pure returns (uint256) {... */\n      swap3\n      swap2\n      pop\n      pop\n      jump\t// out\n        /* \"@openzeppelin/contracts/utils/math/SafeMath.sol\":3465:3561  function mul(uint256 a, uint256 b) internal pure returns (uint256) {... */\n    tag_87:\n        /* \"@openzeppelin/contracts/utils/math/SafeMath.sol\":3523:3530  uint256 */\n      0x00\n        /* \"@openzeppelin/contracts/utils/math/SafeMath.sol\":3553:3554  b */\n      dup2\n        /* \"@openzeppelin/contracts/utils/math/SafeMath.sol\":3549:3550  a */\n      dup4\n        /* \"@openzeppelin/contracts/utils/math/SafeMath.sol\":3549:3554  a * b */\n      tag_143\n      swap2\n      swap1\n      tag_144\n      jump\t// in\n    tag_143:\n        /* \"@openzeppelin/contracts/utils/math/SafeMath.sol\":3542:3554  return a * b */\n      swap1\n      pop\n        /* \"@openzeppelin/contracts/utils/math/SafeMath.sol\":3465:3561  function mul(uint256 a, uint256 b) internal pure returns (uint256) {... */\n      swap3\n      swap2\n      pop\n      pop\n      jump\t// out\n        /* \"@openzeppelin/contracts/utils/math/SafeMath.sol\":3850:3946  function div(uint256 a, uint256 b) internal pure returns (uint256) {... */\n    tag_88:\n        /* \"@openzeppelin/contracts/utils/math/SafeMath.sol\":3908:3915  uint256 */\n      0x00\n        /* \"@openzeppelin/contracts/utils/math/SafeMath.sol\":3938:3939  b */\n      dup2\n        /* \"@openzeppelin/contracts/utils/math/SafeMath.sol\":3934:3935  a */\n      dup4\n        /* \"@openzeppelin/contracts/utils/math/SafeMath.sol\":3934:3939  a / b */\n      tag_146\n      swap2\n      swap1\n      tag_147\n      jump\t// in\n    tag_146:\n        /* \"@openzeppelin/contracts/utils/math/SafeMath.sol\":3927:3939  return a / b */\n      swap1\n      pop\n        /* \"@openzeppelin/contracts/utils/math/SafeMath.sol\":3850:3946  function div(uint256 a, uint256 b) internal pure returns (uint256) {... */\n      swap3\n      swap2\n      pop\n      pop\n      jump\t// out\n        /* \"@openzeppelin/contracts/access/Ownable.sol\":1359:1489  function _checkOwner() internal view virtual {... */\n    tag_94:\n        /* \"@openzeppelin/contracts/access/Ownable.sol\":1433:1445  _msgSender() */\n      tag_149\n        /* \"@openzeppelin/contracts/access/Ownable.sol\":1433:1443  _msgSender */\n      tag_150\n        /* \"@openzeppelin/contracts/access/Ownable.sol\":1433:1445  _msgSender() */\n      jump\t// in\n    tag_149:\n        /* \"@openzeppelin/contracts/access/Ownable.sol\":1422:1445  owner() == _msgSender() */\n      0xffffffffffffffffffffffffffffffffffffffff\n      and\n        /* \"@openzeppelin/contracts/access/Ownable.sol\":1422:1429  owner() */\n      tag_151\n        /* \"@openzeppelin/contracts/access/Ownable.sol\":1422:1427  owner */\n      tag_54\n        /* \"@openzeppelin/contracts/access/Ownable.sol\":1422:1429  owner() */\n      jump\t// in\n    tag_151:\n        /* \"@openzeppelin/contracts/access/Ownable.sol\":1422:1445  owner() == _msgSender() */\n      0xffffffffffffffffffffffffffffffffffffffff\n      and\n      eq\n        /* \"@openzeppelin/contracts/access/Ownable.sol\":1414:1482  require(owner() == _msgSender(), \"Ownable: caller is not the owner\") */\n      tag_152\n      jumpi\n      mload(0x40)\n      0x08c379a000000000000000000000000000000000000000000000000000000000\n      dup2\n      mstore\n      0x04\n      add\n      tag_153\n      swap1\n      tag_154\n      jump\t// in\n    tag_153:\n      mload(0x40)\n      dup1\n      swap2\n      sub\n      swap1\n      revert\n    tag_152:\n        /* \"@openzeppelin/contracts/access/Ownable.sol\":1359:1489  function _checkOwner() internal view virtual {... */\n      jump\t// out\n        /* \"@openzeppelin/contracts/access/Ownable.sol\":2433:2620  function _transferOwnership(address newOwner) internal virtual {... */\n    tag_97:\n        /* \"@openzeppelin/contracts/access/Ownable.sol\":2506:2522  address oldOwner */\n      0x00\n        /* \"@openzeppelin/contracts/access/Ownable.sol\":2525:2531  _owner */\n      dup1\n      0x00\n      swap1\n      sload\n      swap1\n      0x0100\n      exp\n      swap1\n      div\n      0xffffffffffffffffffffffffffffffffffffffff\n      and\n        /* \"@openzeppelin/contracts/access/Ownable.sol\":2506:2531  address oldOwner = _owner */\n      swap1\n      pop\n        /* \"@openzeppelin/contracts/access/Ownable.sol\":2550:2558  newOwner */\n      dup2\n        /* \"@openzeppelin/contracts/access/Ownable.sol\":2541:2547  _owner */\n      0x00\n      dup1\n        /* \"@openzeppelin/contracts/access/Ownable.sol\":2541:2558  _owner = newOwner */\n      0x0100\n      exp\n      dup2\n      sload\n      dup2\n      0xffffffffffffffffffffffffffffffffffffffff\n      mul\n      not\n      and\n      swap1\n      dup4\n      0xffffffffffffffffffffffffffffffffffffffff\n      and\n      mul\n      or\n      swap1\n      sstore\n      pop\n        /* \"@openzeppelin/contracts/access/Ownable.sol\":2604:2612  newOwner */\n      dup2\n        /* \"@openzeppelin/contracts/access/Ownable.sol\":2573:2613  OwnershipTransferred(oldOwner, newOwner) */\n      0xffffffffffffffffffffffffffffffffffffffff\n      and\n        /* \"@openzeppelin/contracts/access/Ownable.sol\":2594:2602  oldOwner */\n      dup2\n        /* \"@openzeppelin/contracts/access/Ownable.sol\":2573:2613  OwnershipTransferred(oldOwner, newOwner) */\n      0xffffffffffffffffffffffffffffffffffffffff\n      and\n      0x8be0079c531659141344cd1fd0a4f28419497f9722a3daafe3b4186f6b6457e0\n      mload(0x40)\n      mload(0x40)\n      dup1\n      swap2\n      sub\n      swap1\n      log3\n        /* \"@openzeppelin/contracts/access/Ownable.sol\":2496:2620  {... */\n      pop\n        /* \"@openzeppelin/contracts/access/Ownable.sol\":2433:2620  function _transferOwnership(address newOwner) internal virtual {... */\n      pop\n      jump\t// out\n        /* \"@openzeppelin/contracts/token/ERC20/utils/SafeERC20.sol\":763:968  function safeTransfer(... */\n    tag_106:\n        /* \"@openzeppelin/contracts/token/ERC20/utils/SafeERC20.sol\":875:961  _callOptionalReturn(token, abi.encodeWithSelector(token.transfer.selector, to, value)) */\n      tag_157\n        /* \"@openzeppelin/contracts/token/ERC20/utils/SafeERC20.sol\":895:900  token */\n      dup4\n        /* \"@openzeppelin/contracts/token/ERC20/utils/SafeERC20.sol\":925:948  token.transfer.selector */\n      shl(0xe0, 0xa9059cbb)\n        /* \"@openzeppelin/contracts/token/ERC20/utils/SafeERC20.sol\":950:952  to */\n      dup5\n        /* \"@openzeppelin/contracts/token/ERC20/utils/SafeERC20.sol\":954:959  value */\n      dup5\n        /* \"@openzeppelin/contracts/token/ERC20/utils/SafeERC20.sol\":902:960  abi.encodeWithSelector(token.transfer.selector, to, value) */\n      add(0x24, mload(0x40))\n      tag_158\n      swap3\n      swap2\n      swap1\n      tag_123\n      jump\t// in\n    tag_158:\n      mload(0x40)\n      0x20\n      dup2\n      dup4\n      sub\n      sub\n      dup2\n      mstore\n      swap1\n      0x40\n      mstore\n      swap1\n      not(0xffffffffffffffffffffffffffffffffffffffffffffffffffffffff)\n      and\n      0x20\n      dup3\n      add\n      dup1\n      mload\n      0xffffffffffffffffffffffffffffffffffffffffffffffffffffffff\n      dup4\n      dup2\n      dup4\n      and\n      or\n      dup4\n      mstore\n      pop\n      pop\n      pop\n      pop\n        /* \"@openzeppelin/contracts/token/ERC20/utils/SafeERC20.sol\":875:894  _callOptionalReturn */\n      tag_159\n        /* \"@openzeppelin/contracts/token/ERC20/utils/SafeERC20.sol\":875:961  _callOptionalReturn(token, abi.encodeWithSelector(token.transfer.selector, to, value)) */\n      jump\t// in\n    tag_157:\n        /* \"@openzeppelin/contracts/token/ERC20/utils/SafeERC20.sol\":763:968  function safeTransfer(... */\n      pop\n      pop\n      pop\n      jump\t// out\n        /* \"@openzeppelin/contracts/utils/Context.sol\":640:736  function _msgSender() internal view virtual returns (address) {... */\n    tag_150:\n        /* \"@openzeppelin/contracts/utils/Context.sol\":693:700  address */\n      0x00\n        /* \"@openzeppelin/contracts/utils/Context.sol\":719:729  msg.sender */\n      caller\n        /* \"@openzeppelin/contracts/utils/Context.sol\":712:729  return msg.sender */\n      swap1\n      pop\n        /* \"@openzeppelin/contracts/utils/Context.sol\":640:736  function _msgSender() internal view virtual returns (address) {... */\n      swap1\n      jump\t// out\n        /* \"@openzeppelin/contracts/token/ERC20/utils/SafeERC20.sol\":3747:4453  function _callOptionalReturn(IERC20 token, bytes memory data) private {... */\n    tag_159:\n        /* \"@openzeppelin/contracts/token/ERC20/utils/SafeERC20.sol\":4166:4189  bytes memory returndata */\n      0x00\n        /* \"@openzeppelin/contracts/token/ERC20/utils/SafeERC20.sol\":4192:4261  address(token).functionCall(data, \"SafeERC20: low-level call failed\") */\n      tag_162\n        /* \"@openzeppelin/contracts/token/ERC20/utils/SafeERC20.sol\":4220:4224  data */\n      dup3\n        /* \"@openzeppelin/contracts/token/ERC20/utils/SafeERC20.sol\":4192:4261  address(token).functionCall(data, \"SafeERC20: low-level call failed\") */\n      mload(0x40)\n      dup1\n      0x40\n      add\n      0x40\n      mstore\n      dup1\n      0x20\n      dup2\n      mstore\n      0x20\n      add\n      0x5361666545524332303a206c6f772d6c6576656c2063616c6c206661696c6564\n      dup2\n      mstore\n      pop\n        /* \"@openzeppelin/contracts/token/ERC20/utils/SafeERC20.sol\":4200:4205  token */\n      dup6\n        /* \"@openzeppelin/contracts/token/ERC20/utils/SafeERC20.sol\":4192:4219  address(token).functionCall */\n      0xffffffffffffffffffffffffffffffffffffffff\n      and\n      tag_163\n      swap1\n        /* \"@openzeppelin/contracts/token/ERC20/utils/SafeERC20.sol\":4192:4261  address(token).functionCall(data, \"SafeERC20: low-level call failed\") */\n      swap3\n      swap2\n      swap1\n      0xffffffff\n      and\n      jump\t// in\n    tag_162:\n        /* \"@openzeppelin/contracts/token/ERC20/utils/SafeERC20.sol\":4166:4261  bytes memory returndata = address(token).functionCall(data, \"SafeERC20: low-level call failed\") */\n      swap1\n      pop\n        /* \"@openzeppelin/contracts/token/ERC20/utils/SafeERC20.sol\":4295:4296  0 */\n      0x00\n        /* \"@openzeppelin/contracts/token/ERC20/utils/SafeERC20.sol\":4275:4285  returndata */\n      dup2\n        /* \"@openzeppelin/contracts/token/ERC20/utils/SafeERC20.sol\":4275:4292  returndata.length */\n      mload\n        /* \"@openzeppelin/contracts/token/ERC20/utils/SafeERC20.sol\":4275:4296  returndata.length > 0 */\n      gt\n        /* \"@openzeppelin/contracts/token/ERC20/utils/SafeERC20.sol\":4271:4447  if (returndata.length > 0) {... */\n      iszero\n      tag_164\n      jumpi\n        /* \"@openzeppelin/contracts/token/ERC20/utils/SafeERC20.sol\":4370:4380  returndata */\n      dup1\n        /* \"@openzeppelin/contracts/token/ERC20/utils/SafeERC20.sol\":4359:4389  abi.decode(returndata, (bool)) */\n      dup1\n      0x20\n      add\n      swap1\n      mload\n      dup2\n      add\n      swap1\n      tag_165\n      swap2\n      swap1\n      tag_128\n      jump\t// in\n    tag_165:\n        /* \"@openzeppelin/contracts/token/ERC20/utils/SafeERC20.sol\":4351:4436  require(abi.decode(returndata, (bool)), \"SafeERC20: ERC20 operation did not succeed\") */\n      tag_166\n      jumpi\n      mload(0x40)\n      0x08c379a000000000000000000000000000000000000000000000000000000000\n      dup2\n      mstore\n      0x04\n      add\n      tag_167\n      swap1\n      tag_168\n      jump\t// in\n    tag_167:\n      mload(0x40)\n      dup1\n      swap2\n      sub\n      swap1\n      revert\n    tag_166:\n        /* \"@openzeppelin/contracts/token/ERC20/utils/SafeERC20.sol\":4271:4447  if (returndata.length > 0) {... */\n    tag_164:\n        /* \"@openzeppelin/contracts/token/ERC20/utils/SafeERC20.sol\":3817:4453  {... */\n      pop\n        /* \"@openzeppelin/contracts/token/ERC20/utils/SafeERC20.sol\":3747:4453  function _callOptionalReturn(IERC20 token, bytes memory data) private {... */\n      pop\n      pop\n      jump\t// out\n        /* \"@openzeppelin/contracts/utils/Address.sol\":3861:4084  function functionCall(... */\n    tag_163:\n        /* \"@openzeppelin/contracts/utils/Address.sol\":3994:4006  bytes memory */\n      0x60\n        /* \"@openzeppelin/contracts/utils/Address.sol\":4025:4077  functionCallWithValue(target, data, 0, errorMessage) */\n      tag_170\n        /* \"@openzeppelin/contracts/utils/Address.sol\":4047:4053  target */\n      dup5\n        /* \"@openzeppelin/contracts/utils/Address.sol\":4055:4059  data */\n      dup5\n        /* \"@openzeppelin/contracts/utils/Address.sol\":4061:4062  0 */\n      0x00\n        /* \"@openzeppelin/contracts/utils/Address.sol\":4064:4076  errorMessage */\n      dup6\n        /* \"@openzeppelin/contracts/utils/Address.sol\":4025:4046  functionCallWithValue */\n      tag_171\n        /* \"@openzeppelin/contracts/utils/Address.sol\":4025:4077  functionCallWithValue(target, data, 0, errorMessage) */\n      jump\t// in\n    tag_170:\n        /* \"@openzeppelin/contracts/utils/Address.sol\":4018:4077  return functionCallWithValue(target, data, 0, errorMessage) */\n      swap1\n      pop\n        /* \"@openzeppelin/contracts/utils/Address.sol\":3861:4084  function functionCall(... */\n      swap4\n      swap3\n      pop\n      pop\n      pop\n      jump\t// out\n        /* \"@openzeppelin/contracts/utils/Address.sol\":4948:5447  function functionCallWithValue(... */\n    tag_171:\n        /* \"@openzeppelin/contracts/utils/Address.sol\":5113:5125  bytes memory */\n      0x60\n        /* \"@openzeppelin/contracts/utils/Address.sol\":5170:5175  value */\n      dup3\n        /* \"@openzeppelin/contracts/utils/Address.sol\":5145:5166  address(this).balance */\n      selfbalance\n        /* \"@openzeppelin/contracts/utils/Address.sol\":5145:5175  address(this).balance >= value */\n      lt\n      iszero\n        /* \"@openzeppelin/contracts/utils/Address.sol\":5137:5218  require(address(this).balance >= value, \"Address: insufficient balance for call\") */\n      tag_173\n      jumpi\n      mload(0x40)\n      0x08c379a000000000000000000000000000000000000000000000000000000000\n      dup2\n      mstore\n      0x04\n      add\n      tag_174\n      swap1\n      tag_175\n      jump\t// in\n    tag_174:\n      mload(0x40)\n      dup1\n      swap2\n      sub\n      swap1\n      revert\n    tag_173:\n        /* \"@openzeppelin/contracts/utils/Address.sol\":5236:5254  isContract(target) */\n      tag_176\n        /* \"@openzeppelin/contracts/utils/Address.sol\":5247:5253  target */\n      dup6\n        /* \"@openzeppelin/contracts/utils/Address.sol\":5236:5246  isContract */\n      tag_177\n        /* \"@openzeppelin/contracts/utils/Address.sol\":5236:5254  isContract(target) */\n      jump\t// in\n    tag_176:\n        /* \"@openzeppelin/contracts/utils/Address.sol\":5228:5288  require(isContract(target), \"Address: call to non-contract\") */\n      tag_178\n      jumpi\n      mload(0x40)\n      0x08c379a000000000000000000000000000000000000000000000000000000000\n      dup2\n      mstore\n      0x04\n      add\n      tag_179\n      swap1\n      tag_180\n      jump\t// in\n    tag_179:\n      mload(0x40)\n      dup1\n      swap2\n      sub\n      swap1\n      revert\n    tag_178:\n        /* \"@openzeppelin/contracts/utils/Address.sol\":5300:5312  bool success */\n      0x00\n        /* \"@openzeppelin/contracts/utils/Address.sol\":5314:5337  bytes memory returndata */\n      dup1\n        /* \"@openzeppelin/contracts/utils/Address.sol\":5341:5347  target */\n      dup7\n        /* \"@openzeppelin/contracts/utils/Address.sol\":5341:5352  target.call */\n      0xffffffffffffffffffffffffffffffffffffffff\n      and\n        /* \"@openzeppelin/contracts/utils/Address.sol\":5360:5365  value */\n      dup6\n        /* \"@openzeppelin/contracts/utils/Address.sol\":5367:5371  data */\n      dup8\n        /* \"@openzeppelin/contracts/utils/Address.sol\":5341:5372  target.call{value: value}(data) */\n      mload(0x40)\n      tag_181\n      swap2\n      swap1\n      tag_182\n      jump\t// in\n    tag_181:\n      0x00\n      mload(0x40)\n      dup1\n      dup4\n      sub\n      dup2\n      dup6\n      dup8\n      gas\n      call\n      swap3\n      pop\n      pop\n      pop\n      returndatasize\n      dup1\n      0x00\n      dup2\n      eq\n      tag_185\n      jumpi\n      mload(0x40)\n      swap2\n      pop\n      and(add(returndatasize, 0x3f), not(0x1f))\n      dup3\n      add\n      0x40\n      mstore\n      returndatasize\n      dup3\n      mstore\n      returndatasize\n      0x00\n      0x20\n      dup5\n      add\n      returndatacopy\n      jump(tag_184)\n    tag_185:\n      0x60\n      swap2\n      pop\n    tag_184:\n      pop\n        /* \"@openzeppelin/contracts/utils/Address.sol\":5299:5372  (bool success, bytes memory returndata) = target.call{value: value}(data) */\n      swap2\n      pop\n      swap2\n      pop\n        /* \"@openzeppelin/contracts/utils/Address.sol\":5389:5440  verifyCallResult(success, returndata, errorMessage) */\n      tag_186\n        /* \"@openzeppelin/contracts/utils/Address.sol\":5406:5413  success */\n      dup3\n        /* \"@openzeppelin/contracts/utils/Address.sol\":5415:5425  returndata */\n      dup3\n        /* \"@openzeppelin/contracts/utils/Address.sol\":5427:5439  errorMessage */\n      dup7\n        /* \"@openzeppelin/contracts/utils/Address.sol\":5389:5405  verifyCallResult */\n      tag_187\n        /* \"@openzeppelin/contracts/utils/Address.sol\":5389:5440  verifyCallResult(success, returndata, errorMessage) */\n      jump\t// in\n    tag_186:\n        /* \"@openzeppelin/contracts/utils/Address.sol\":5382:5440  return verifyCallResult(success, returndata, errorMessage) */\n      swap3\n      pop\n      pop\n      pop\n        /* \"@openzeppelin/contracts/utils/Address.sol\":4948:5447  function functionCallWithValue(... */\n      swap5\n      swap4\n      pop\n      pop\n      pop\n      pop\n      jump\t// out\n        /* \"@openzeppelin/contracts/utils/Address.sol\":1175:1495  function isContract(address account) internal view returns (bool) {... */\n    tag_177:\n        /* \"@openzeppelin/contracts/utils/Address.sol\":1235:1239  bool */\n      0x00\n        /* \"@openzeppelin/contracts/utils/Address.sol\":1487:1488  0 */\n      dup1\n        /* \"@openzeppelin/contracts/utils/Address.sol\":1465:1472  account */\n      dup3\n        /* \"@openzeppelin/contracts/utils/Address.sol\":1465:1484  account.code.length */\n      0xffffffffffffffffffffffffffffffffffffffff\n      and\n      extcodesize\n        /* \"@openzeppelin/contracts/utils/Address.sol\":1465:1488  account.code.length > 0 */\n      gt\n        /* \"@openzeppelin/contracts/utils/Address.sol\":1458:1488  return account.code.length > 0 */\n      swap1\n      pop\n        /* \"@openzeppelin/contracts/utils/Address.sol\":1175:1495  function isContract(address account) internal view returns (bool) {... */\n      swap2\n      swap1\n      pop\n      jump\t// out\n        /* \"@openzeppelin/contracts/utils/Address.sol\":7561:8303  function verifyCallResult(... */\n    tag_187:\n        /* \"@openzeppelin/contracts/utils/Address.sol\":7707:7719  bytes memory */\n      0x60\n        /* \"@openzeppelin/contracts/utils/Address.sol\":7735:7742  success */\n      dup4\n        /* \"@openzeppelin/contracts/utils/Address.sol\":7731:8297  if (success) {... */\n      iszero\n      tag_190\n      jumpi\n        /* \"@openzeppelin/contracts/utils/Address.sol\":7765:7775  returndata */\n      dup3\n        /* \"@openzeppelin/contracts/utils/Address.sol\":7758:7775  return returndata */\n      swap1\n      pop\n      jump(tag_189)\n        /* \"@openzeppelin/contracts/utils/Address.sol\":7731:8297  if (success) {... */\n    tag_190:\n        /* \"@openzeppelin/contracts/utils/Address.sol\":7896:7897  0 */\n      0x00\n        /* \"@openzeppelin/contracts/utils/Address.sol\":7876:7886  returndata */\n      dup4\n        /* \"@openzeppelin/contracts/utils/Address.sol\":7876:7893  returndata.length */\n      mload\n        /* \"@openzeppelin/contracts/utils/Address.sol\":7876:7897  returndata.length > 0 */\n      gt\n        /* \"@openzeppelin/contracts/utils/Address.sol\":7872:8287  if (returndata.length > 0) {... */\n      iszero\n      tag_192\n      jumpi\n        /* \"@openzeppelin/contracts/utils/Address.sol\":8120:8130  returndata */\n      dup3\n        /* \"@openzeppelin/contracts/utils/Address.sol\":8114:8131  mload(returndata) */\n      mload\n        /* \"@openzeppelin/contracts/utils/Address.sol\":8180:8195  returndata_size */\n      dup1\n        /* \"@openzeppelin/contracts/utils/Address.sol\":8167:8177  returndata */\n      dup5\n        /* \"@openzeppelin/contracts/utils/Address.sol\":8163:8165  32 */\n      0x20\n        /* \"@openzeppelin/contracts/utils/Address.sol\":8159:8178  add(32, returndata) */\n      add\n        /* \"@openzeppelin/contracts/utils/Address.sol\":8152:8196  revert(add(32, returndata), returndata_size) */\n      revert\n        /* \"@openzeppelin/contracts/utils/Address.sol\":7872:8287  if (returndata.length > 0) {... */\n    tag_192:\n        /* \"@openzeppelin/contracts/utils/Address.sol\":8259:8271  errorMessage */\n      dup2\n        /* \"@openzeppelin/contracts/utils/Address.sol\":8252:8272  revert(errorMessage) */\n      mload(0x40)\n      0x08c379a000000000000000000000000000000000000000000000000000000000\n      dup2\n      mstore\n      0x04\n      add\n      tag_194\n      swap2\n      swap1\n      tag_195\n      jump\t// in\n    tag_194:\n      mload(0x40)\n      dup1\n      swap2\n      sub\n      swap1\n      revert\n        /* \"@openzeppelin/contracts/utils/Address.sol\":7561:8303  function verifyCallResult(... */\n    tag_189:\n      swap4\n      swap3\n      pop\n      pop\n      pop\n      jump\t// out\n        /* \"#utility.yul\":7:146   */\n    tag_197:\n        /* \"#utility.yul\":53:58   */\n      0x00\n        /* \"#utility.yul\":91:97   */\n      dup2\n        /* \"#utility.yul\":78:98   */\n      calldataload\n        /* \"#utility.yul\":69:98   */\n      swap1\n      pop\n        /* \"#utility.yul\":107:140   */\n      tag_199\n        /* \"#utility.yul\":134:139   */\n      dup2\n        /* \"#utility.yul\":107:140   */\n      tag_200\n      jump\t// in\n    tag_199:\n        /* \"#utility.yul\":7:146   */\n      swap3\n      swap2\n      pop\n      pop\n      jump\t// out\n        /* \"#utility.yul\":152:285   */\n    tag_201:\n        /* \"#utility.yul\":195:200   */\n      0x00\n        /* \"#utility.yul\":233:239   */\n      dup2\n        /* \"#utility.yul\":220:240   */\n      calldataload\n        /* \"#utility.yul\":211:240   */\n      swap1\n      pop\n        /* \"#utility.yul\":249:279   */\n      tag_203\n        /* \"#utility.yul\":273:278   */\n      dup2\n        /* \"#utility.yul\":249:279   */\n      tag_204\n      jump\t// in\n    tag_203:\n        /* \"#utility.yul\":152:285   */\n      swap3\n      swap2\n      pop\n      pop\n      jump\t// out\n        /* \"#utility.yul\":291:428   */\n    tag_205:\n        /* \"#utility.yul\":345:350   */\n      0x00\n        /* \"#utility.yul\":376:382   */\n      dup2\n        /* \"#utility.yul\":370:383   */\n      mload\n        /* \"#utility.yul\":361:383   */\n      swap1\n      pop\n        /* \"#utility.yul\":392:422   */\n      tag_207\n        /* \"#utility.yul\":416:421   */\n      dup2\n        /* \"#utility.yul\":392:422   */\n      tag_204\n      jump\t// in\n    tag_207:\n        /* \"#utility.yul\":291:428   */\n      swap3\n      swap2\n      pop\n      pop\n      jump\t// out\n        /* \"#utility.yul\":434:573   */\n    tag_208:\n        /* \"#utility.yul\":480:485   */\n      0x00\n        /* \"#utility.yul\":518:524   */\n      dup2\n        /* \"#utility.yul\":505:525   */\n      calldataload\n        /* \"#utility.yul\":496:525   */\n      swap1\n      pop\n        /* \"#utility.yul\":534:567   */\n      tag_210\n        /* \"#utility.yul\":561:566   */\n      dup2\n        /* \"#utility.yul\":534:567   */\n      tag_211\n      jump\t// in\n    tag_210:\n        /* \"#utility.yul\":434:573   */\n      swap3\n      swap2\n      pop\n      pop\n      jump\t// out\n        /* \"#utility.yul\":579:722   */\n    tag_212:\n        /* \"#utility.yul\":636:641   */\n      0x00\n        /* \"#utility.yul\":667:673   */\n      dup2\n        /* \"#utility.yul\":661:674   */\n      mload\n        /* \"#utility.yul\":652:674   */\n      swap1\n      pop\n        /* \"#utility.yul\":683:716   */\n      tag_214\n        /* \"#utility.yul\":710:715   */\n      dup2\n        /* \"#utility.yul\":683:716   */\n      tag_211\n      jump\t// in\n    tag_214:\n        /* \"#utility.yul\":579:722   */\n      swap3\n      swap2\n      pop\n      pop\n      jump\t// out\n        /* \"#utility.yul\":728:1057   */\n    tag_66:\n        /* \"#utility.yul\":787:793   */\n      0x00\n        /* \"#utility.yul\":836:838   */\n      0x20\n        /* \"#utility.yul\":824:833   */\n      dup3\n        /* \"#utility.yul\":815:822   */\n      dup5\n        /* \"#utility.yul\":811:834   */\n      sub\n        /* \"#utility.yul\":807:839   */\n      slt\n        /* \"#utility.yul\":804:923   */\n      iszero\n      tag_216\n      jumpi\n        /* \"#utility.yul\":842:921   */\n      tag_217\n      tag_218\n      jump\t// in\n    tag_217:\n        /* \"#utility.yul\":804:923   */\n    tag_216:\n        /* \"#utility.yul\":962:963   */\n      0x00\n        /* \"#utility.yul\":987:1040   */\n      tag_219\n        /* \"#utility.yul\":1032:1039   */\n      dup5\n        /* \"#utility.yul\":1023:1029   */\n      dup3\n        /* \"#utility.yul\":1012:1021   */\n      dup6\n        /* \"#utility.yul\":1008:1030   */\n      add\n        /* \"#utility.yul\":987:1040   */\n      tag_197\n      jump\t// in\n    tag_219:\n        /* \"#utility.yul\":977:1040   */\n      swap2\n      pop\n        /* \"#utility.yul\":933:1050   */\n      pop\n        /* \"#utility.yul\":728:1057   */\n      swap3\n      swap2\n      pop\n      pop\n      jump\t// out\n        /* \"#utility.yul\":1063:1968   */\n    tag_46:\n        /* \"#utility.yul\":1155:1161   */\n      0x00\n        /* \"#utility.yul\":1163:1169   */\n      dup1\n        /* \"#utility.yul\":1171:1177   */\n      0x00\n        /* \"#utility.yul\":1179:1185   */\n      dup1\n        /* \"#utility.yul\":1187:1193   */\n      0x00\n        /* \"#utility.yul\":1236:1239   */\n      0xa0\n        /* \"#utility.yul\":1224:1233   */\n      dup7\n        /* \"#utility.yul\":1215:1222   */\n      dup9\n        /* \"#utility.yul\":1211:1234   */\n      sub\n        /* \"#utility.yul\":1207:1240   */\n      slt\n        /* \"#utility.yul\":1204:1324   */\n      iszero\n      tag_221\n      jumpi\n        /* \"#utility.yul\":1243:1322   */\n      tag_222\n      tag_218\n      jump\t// in\n    tag_222:\n        /* \"#utility.yul\":1204:1324   */\n    tag_221:\n        /* \"#utility.yul\":1363:1364   */\n      0x00\n        /* \"#utility.yul\":1388:1441   */\n      tag_223\n        /* \"#utility.yul\":1433:1440   */\n      dup9\n        /* \"#utility.yul\":1424:1430   */\n      dup3\n        /* \"#utility.yul\":1413:1422   */\n      dup10\n        /* \"#utility.yul\":1409:1431   */\n      add\n        /* \"#utility.yul\":1388:1441   */\n      tag_197\n      jump\t// in\n    tag_223:\n        /* \"#utility.yul\":1378:1441   */\n      swap6\n      pop\n        /* \"#utility.yul\":1334:1451   */\n      pop\n        /* \"#utility.yul\":1490:1492   */\n      0x20\n        /* \"#utility.yul\":1516:1569   */\n      tag_224\n        /* \"#utility.yul\":1561:1568   */\n      dup9\n        /* \"#utility.yul\":1552:1558   */\n      dup3\n        /* \"#utility.yul\":1541:1550   */\n      dup10\n        /* \"#utility.yul\":1537:1559   */\n      add\n        /* \"#utility.yul\":1516:1569   */\n      tag_208\n      jump\t// in\n    tag_224:\n        /* \"#utility.yul\":1506:1569   */\n      swap5\n      pop\n        /* \"#utility.yul\":1461:1579   */\n      pop\n        /* \"#utility.yul\":1618:1620   */\n      0x40\n        /* \"#utility.yul\":1644:1697   */\n      tag_225\n        /* \"#utility.yul\":1689:1696   */\n      dup9\n        /* \"#utility.yul\":1680:1686   */\n      dup3\n        /* \"#utility.yul\":1669:1678   */\n      dup10\n        /* \"#utility.yul\":1665:1687   */\n      add\n        /* \"#utility.yul\":1644:1697   */\n      tag_208\n      jump\t// in\n    tag_225:\n        /* \"#utility.yul\":1634:1697   */\n      swap4\n      pop\n        /* \"#utility.yul\":1589:1707   */\n      pop\n        /* \"#utility.yul\":1746:1748   */\n      0x60\n        /* \"#utility.yul\":1772:1825   */\n      tag_226\n        /* \"#utility.yul\":1817:1824   */\n      dup9\n        /* \"#utility.yul\":1808:1814   */\n      dup3\n        /* \"#utility.yul\":1797:1806   */\n      dup10\n        /* \"#utility.yul\":1793:1815   */\n      add\n        /* \"#utility.yul\":1772:1825   */\n      tag_208\n      jump\t// in\n    tag_226:\n        /* \"#utility.yul\":1762:1825   */\n      swap3\n      pop\n        /* \"#utility.yul\":1717:1835   */\n      pop\n        /* \"#utility.yul\":1874:1877   */\n      0x80\n        /* \"#utility.yul\":1901:1951   */\n      tag_227\n        /* \"#utility.yul\":1943:1950   */\n      dup9\n        /* \"#utility.yul\":1934:1940   */\n      dup3\n        /* \"#utility.yul\":1923:1932   */\n      dup10\n        /* \"#utility.yul\":1919:1941   */\n      add\n        /* \"#utility.yul\":1901:1951   */\n      tag_201\n      jump\t// in\n    tag_227:\n        /* \"#utility.yul\":1891:1951   */\n      swap2\n      pop\n        /* \"#utility.yul\":1845:1961   */\n      pop\n        /* \"#utility.yul\":1063:1968   */\n      swap3\n      swap6\n      pop\n      swap3\n      swap6\n      swap1\n      swap4\n      pop\n      jump\t// out\n        /* \"#utility.yul\":1974:2319   */\n    tag_128:\n        /* \"#utility.yul\":2041:2047   */\n      0x00\n        /* \"#utility.yul\":2090:2092   */\n      0x20\n        /* \"#utility.yul\":2078:2087   */\n      dup3\n        /* \"#utility.yul\":2069:2076   */\n      dup5\n        /* \"#utility.yul\":2065:2088   */\n      sub\n        /* \"#utility.yul\":2061:2093   */\n      slt\n        /* \"#utility.yul\":2058:2177   */\n      iszero\n      tag_229\n      jumpi\n        /* \"#utility.yul\":2096:2175   */\n      tag_230\n      tag_218\n      jump\t// in\n    tag_230:\n        /* \"#utility.yul\":2058:2177   */\n    tag_229:\n        /* \"#utility.yul\":2216:2217   */\n      0x00\n        /* \"#utility.yul\":2241:2302   */\n      tag_231\n        /* \"#utility.yul\":2294:2301   */\n      dup5\n        /* \"#utility.yul\":2285:2291   */\n      dup3\n        /* \"#utility.yul\":2274:2283   */\n      dup6\n        /* \"#utility.yul\":2270:2292   */\n      add\n        /* \"#utility.yul\":2241:2302   */\n      tag_205\n      jump\t// in\n    tag_231:\n        /* \"#utility.yul\":2231:2302   */\n      swap2\n      pop\n        /* \"#utility.yul\":2187:2312   */\n      pop\n        /* \"#utility.yul\":1974:2319   */\n      swap3\n      swap2\n      pop\n      pop\n      jump\t// out\n        /* \"#utility.yul\":2325:2676   */\n    tag_74:\n        /* \"#utility.yul\":2395:2401   */\n      0x00\n        /* \"#utility.yul\":2444:2446   */\n      0x20\n        /* \"#utility.yul\":2432:2441   */\n      dup3\n        /* \"#utility.yul\":2423:2430   */\n      dup5\n        /* \"#utility.yul\":2419:2442   */\n      sub\n        /* \"#utility.yul\":2415:2447   */\n      slt\n        /* \"#utility.yul\":2412:2531   */\n      iszero\n      tag_233\n      jumpi\n        /* \"#utility.yul\":2450:2529   */\n      tag_234\n      tag_218\n      jump\t// in\n    tag_234:\n        /* \"#utility.yul\":2412:2531   */\n    tag_233:\n        /* \"#utility.yul\":2570:2571   */\n      0x00\n        /* \"#utility.yul\":2595:2659   */\n      tag_235\n        /* \"#utility.yul\":2651:2658   */\n      dup5\n        /* \"#utility.yul\":2642:2648   */\n      dup3\n        /* \"#utility.yul\":2631:2640   */\n      dup6\n        /* \"#utility.yul\":2627:2649   */\n      add\n        /* \"#utility.yul\":2595:2659   */\n      tag_212\n      jump\t// in\n    tag_235:\n        /* \"#utility.yul\":2585:2659   */\n      swap2\n      pop\n        /* \"#utility.yul\":2541:2669   */\n      pop\n        /* \"#utility.yul\":2325:2676   */\n      swap3\n      swap2\n      pop\n      pop\n      jump\t// out\n        /* \"#utility.yul\":2682:2800   */\n    tag_236:\n        /* \"#utility.yul\":2769:2793   */\n      tag_238\n        /* \"#utility.yul\":2787:2792   */\n      dup2\n        /* \"#utility.yul\":2769:2793   */\n      tag_239\n      jump\t// in\n    tag_238:\n        /* \"#utility.yul\":2764:2767   */\n      dup3\n        /* \"#utility.yul\":2757:2794   */\n      mstore\n        /* \"#utility.yul\":2682:2800   */\n      pop\n      pop\n      jump\t// out\n        /* \"#utility.yul\":2806:2915   */\n    tag_240:\n        /* \"#utility.yul\":2887:2908   */\n      tag_242\n        /* \"#utility.yul\":2902:2907   */\n      dup2\n        /* \"#utility.yul\":2887:2908   */\n      tag_243\n      jump\t// in\n    tag_242:\n        /* \"#utility.yul\":2882:2885   */\n      dup3\n        /* \"#utility.yul\":2875:2909   */\n      mstore\n        /* \"#utility.yul\":2806:2915   */\n      pop\n      pop\n      jump\t// out\n        /* \"#utility.yul\":2921:3294   */\n    tag_244:\n        /* \"#utility.yul\":3025:3028   */\n      0x00\n        /* \"#utility.yul\":3053:3091   */\n      tag_246\n        /* \"#utility.yul\":3085:3090   */\n      dup3\n        /* \"#utility.yul\":3053:3091   */\n      tag_247\n      jump\t// in\n    tag_246:\n        /* \"#utility.yul\":3107:3195   */\n      tag_248\n        /* \"#utility.yul\":3188:3194   */\n      dup2\n        /* \"#utility.yul\":3183:3186   */\n      dup6\n        /* \"#utility.yul\":3107:3195   */\n      tag_249\n      jump\t// in\n    tag_248:\n        /* \"#utility.yul\":3100:3195   */\n      swap4\n      pop\n        /* \"#utility.yul\":3204:3256   */\n      tag_250\n        /* \"#utility.yul\":3249:3255   */\n      dup2\n        /* \"#utility.yul\":3244:3247   */\n      dup6\n        /* \"#utility.yul\":3237:3241   */\n      0x20\n        /* \"#utility.yul\":3230:3235   */\n      dup7\n        /* \"#utility.yul\":3226:3242   */\n      add\n        /* \"#utility.yul\":3204:3256   */\n      tag_251\n      jump\t// in\n    tag_250:\n        /* \"#utility.yul\":3281:3287   */\n      dup1\n        /* \"#utility.yul\":3276:3279   */\n      dup5\n        /* \"#utility.yul\":3272:3288   */\n      add\n        /* \"#utility.yul\":3265:3288   */\n      swap2\n      pop\n        /* \"#utility.yul\":3029:3294   */\n      pop\n        /* \"#utility.yul\":2921:3294   */\n      swap3\n      swap2\n      pop\n      pop\n      jump\t// out\n        /* \"#utility.yul\":3300:3664   */\n    tag_252:\n        /* \"#utility.yul\":3388:3391   */\n      0x00\n        /* \"#utility.yul\":3416:3455   */\n      tag_254\n        /* \"#utility.yul\":3449:3454   */\n      dup3\n        /* \"#utility.yul\":3416:3455   */\n      tag_255\n      jump\t// in\n    tag_254:\n        /* \"#utility.yul\":3471:3542   */\n      tag_256\n        /* \"#utility.yul\":3535:3541   */\n      dup2\n        /* \"#utility.yul\":3530:3533   */\n      dup6\n        /* \"#utility.yul\":3471:3542   */\n      tag_257\n      jump\t// in\n    tag_256:\n        /* \"#utility.yul\":3464:3542   */\n      swap4\n      pop\n        /* \"#utility.yul\":3551:3603   */\n      tag_258\n        /* \"#utility.yul\":3596:3602   */\n      dup2\n        /* \"#utility.yul\":3591:3594   */\n      dup6\n        /* \"#utility.yul\":3584:3588   */\n      0x20\n        /* \"#utility.yul\":3577:3582   */\n      dup7\n        /* \"#utility.yul\":3573:3589   */\n      add\n        /* \"#utility.yul\":3551:3603   */\n      tag_251\n      jump\t// in\n    tag_258:\n        /* \"#utility.yul\":3628:3657   */\n      tag_259\n        /* \"#utility.yul\":3650:3656   */\n      dup2\n        /* \"#utility.yul\":3628:3657   */\n      tag_260\n      jump\t// in\n    tag_259:\n        /* \"#utility.yul\":3623:3626   */\n      dup5\n        /* \"#utility.yul\":3619:3658   */\n      add\n        /* \"#utility.yul\":3612:3658   */\n      swap2\n      pop\n        /* \"#utility.yul\":3392:3664   */\n      pop\n        /* \"#utility.yul\":3300:3664   */\n      swap3\n      swap2\n      pop\n      pop\n      jump\t// out\n        /* \"#utility.yul\":3670:4036   */\n    tag_261:\n        /* \"#utility.yul\":3812:3815   */\n      0x00\n        /* \"#utility.yul\":3833:3900   */\n      tag_263\n        /* \"#utility.yul\":3897:3899   */\n      0x26\n        /* \"#utility.yul\":3892:3895   */\n      dup4\n        /* \"#utility.yul\":3833:3900   */\n      tag_257\n      jump\t// in\n    tag_263:\n        /* \"#utility.yul\":3826:3900   */\n      swap2\n      pop\n        /* \"#utility.yul\":3909:4002   */\n      tag_264\n        /* \"#utility.yul\":3998:4001   */\n      dup3\n        /* \"#utility.yul\":3909:4002   */\n      tag_265\n      jump\t// in\n    tag_264:\n        /* \"#utility.yul\":4027:4029   */\n      0x40\n        /* \"#utility.yul\":4022:4025   */\n      dup3\n        /* \"#utility.yul\":4018:4030   */\n      add\n        /* \"#utility.yul\":4011:4030   */\n      swap1\n      pop\n        /* \"#utility.yul\":3670:4036   */\n      swap2\n      swap1\n      pop\n      jump\t// out\n        /* \"#utility.yul\":4042:4408   */\n    tag_266:\n        /* \"#utility.yul\":4184:4187   */\n      0x00\n        /* \"#utility.yul\":4205:4272   */\n      tag_268\n        /* \"#utility.yul\":4269:4271   */\n      0x26\n        /* \"#utility.yul\":4264:4267   */\n      dup4\n        /* \"#utility.yul\":4205:4272   */\n      tag_257\n      jump\t// in\n    tag_268:\n        /* \"#utility.yul\":4198:4272   */\n      swap2\n      pop\n        /* \"#utility.yul\":4281:4374   */\n      tag_269\n        /* \"#utility.yul\":4370:4373   */\n      dup3\n        /* \"#utility.yul\":4281:4374   */\n      tag_270\n      jump\t// in\n    tag_269:\n        /* \"#utility.yul\":4399:4401   */\n      0x40\n        /* \"#utility.yul\":4394:4397   */\n      dup3\n        /* \"#utility.yul\":4390:4402   */\n      add\n        /* \"#utility.yul\":4383:4402   */\n      swap1\n      pop\n        /* \"#utility.yul\":4042:4408   */\n      swap2\n      swap1\n      pop\n      jump\t// out\n        /* \"#utility.yul\":4414:4780   */\n    tag_271:\n        /* \"#utility.yul\":4556:4559   */\n      0x00\n        /* \"#utility.yul\":4577:4644   */\n      tag_273\n        /* \"#utility.yul\":4641:4643   */\n      0x20\n        /* \"#utility.yul\":4636:4639   */\n      dup4\n        /* \"#utility.yul\":4577:4644   */\n      tag_257\n      jump\t// in\n    tag_273:\n        /* \"#utility.yul\":4570:4644   */\n      swap2\n      pop\n        /* \"#utility.yul\":4653:4746   */\n      tag_274\n        /* \"#utility.yul\":4742:4745   */\n      dup3\n        /* \"#utility.yul\":4653:4746   */\n      tag_275\n      jump\t// in\n    tag_274:\n        /* \"#utility.yul\":4771:4773   */\n      0x20\n        /* \"#utility.yul\":4766:4769   */\n      dup3\n        /* \"#utility.yul\":4762:4774   */\n      add\n        /* \"#utility.yul\":4755:4774   */\n      swap1\n      pop\n        /* \"#utility.yul\":4414:4780   */\n      swap2\n      swap1\n      pop\n      jump\t// out\n        /* \"#utility.yul\":4786:5152   */\n    tag_276:\n        /* \"#utility.yul\":4928:4931   */\n      0x00\n        /* \"#utility.yul\":4949:5016   */\n      tag_278\n        /* \"#utility.yul\":5013:5015   */\n      0x1d\n        /* \"#utility.yul\":5008:5011   */\n      dup4\n        /* \"#utility.yul\":4949:5016   */\n      tag_257\n      jump\t// in\n    tag_278:\n        /* \"#utility.yul\":4942:5016   */\n      swap2\n      pop\n        /* \"#utility.yul\":5025:5118   */\n      tag_279\n        /* \"#utility.yul\":5114:5117   */\n      dup3\n        /* \"#utility.yul\":5025:5118   */\n      tag_280\n      jump\t// in\n    tag_279:\n        /* \"#utility.yul\":5143:5145   */\n      0x20\n        /* \"#utility.yul\":5138:5141   */\n      dup3\n        /* \"#utility.yul\":5134:5146   */\n      add\n        /* \"#utility.yul\":5127:5146   */\n      swap1\n      pop\n        /* \"#utility.yul\":4786:5152   */\n      swap2\n      swap1\n      pop\n      jump\t// out\n        /* \"#utility.yul\":5158:5524   */\n    tag_281:\n        /* \"#utility.yul\":5300:5303   */\n      0x00\n        /* \"#utility.yul\":5321:5388   */\n      tag_283\n        /* \"#utility.yul\":5385:5387   */\n      0x2a\n        /* \"#utility.yul\":5380:5383   */\n      dup4\n        /* \"#utility.yul\":5321:5388   */\n      tag_257\n      jump\t// in\n    tag_283:\n        /* \"#utility.yul\":5314:5388   */\n      swap2\n      pop\n        /* \"#utility.yul\":5397:5490   */\n      tag_284\n        /* \"#utility.yul\":5486:5489   */\n      dup3\n        /* \"#utility.yul\":5397:5490   */\n      tag_285\n      jump\t// in\n    tag_284:\n        /* \"#utility.yul\":5515:5517   */\n      0x40\n        /* \"#utility.yul\":5510:5513   */\n      dup3\n        /* \"#utility.yul\":5506:5518   */\n      add\n        /* \"#utility.yul\":5499:5518   */\n      swap1\n      pop\n        /* \"#utility.yul\":5158:5524   */\n      swap2\n      swap1\n      pop\n      jump\t// out\n        /* \"#utility.yul\":5530:5648   */\n    tag_286:\n        /* \"#utility.yul\":5617:5641   */\n      tag_288\n        /* \"#utility.yul\":5635:5640   */\n      dup2\n        /* \"#utility.yul\":5617:5641   */\n      tag_289\n      jump\t// in\n    tag_288:\n        /* \"#utility.yul\":5612:5615   */\n      dup3\n        /* \"#utility.yul\":5605:5642   */\n      mstore\n        /* \"#utility.yul\":5530:5648   */\n      pop\n      pop\n      jump\t// out\n        /* \"#utility.yul\":5654:5925   */\n    tag_182:\n        /* \"#utility.yul\":5784:5787   */\n      0x00\n        /* \"#utility.yul\":5806:5899   */\n      tag_291\n        /* \"#utility.yul\":5895:5898   */\n      dup3\n        /* \"#utility.yul\":5886:5892   */\n      dup5\n        /* \"#utility.yul\":5806:5899   */\n      tag_244\n      jump\t// in\n    tag_291:\n        /* \"#utility.yul\":5799:5899   */\n      swap2\n      pop\n        /* \"#utility.yul\":5916:5919   */\n      dup2\n        /* \"#utility.yul\":5909:5919   */\n      swap1\n      pop\n        /* \"#utility.yul\":5654:5925   */\n      swap3\n      swap2\n      pop\n      pop\n      jump\t// out\n        /* \"#utility.yul\":5931:6153   */\n    tag_31:\n        /* \"#utility.yul\":6024:6028   */\n      0x00\n        /* \"#utility.yul\":6062:6064   */\n      0x20\n        /* \"#utility.yul\":6051:6060   */\n      dup3\n        /* \"#utility.yul\":6047:6065   */\n      add\n        /* \"#utility.yul\":6039:6065   */\n      swap1\n      pop\n        /* \"#utility.yul\":6075:6146   */\n      tag_293\n        /* \"#utility.yul\":6143:6144   */\n      0x00\n        /* \"#utility.yul\":6132:6141   */\n      dup4\n        /* \"#utility.yul\":6128:6145   */\n      add\n        /* \"#utility.yul\":6119:6125   */\n      dup5\n        /* \"#utility.yul\":6075:6146   */\n      tag_236\n      jump\t// in\n    tag_293:\n        /* \"#utility.yul\":5931:6153   */\n      swap3\n      swap2\n      pop\n      pop\n      jump\t// out\n        /* \"#utility.yul\":6159:6491   */\n    tag_123:\n        /* \"#utility.yul\":6280:6284   */\n      0x00\n        /* \"#utility.yul\":6318:6320   */\n      0x40\n        /* \"#utility.yul\":6307:6316   */\n      dup3\n        /* \"#utility.yul\":6303:6321   */\n      add\n        /* \"#utility.yul\":6295:6321   */\n      swap1\n      pop\n        /* \"#utility.yul\":6331:6402   */\n      tag_295\n        /* \"#utility.yul\":6399:6400   */\n      0x00\n        /* \"#utility.yul\":6388:6397   */\n      dup4\n        /* \"#utility.yul\":6384:6401   */\n      add\n        /* \"#utility.yul\":6375:6381   */\n      dup6\n        /* \"#utility.yul\":6331:6402   */\n      tag_236\n      jump\t// in\n    tag_295:\n        /* \"#utility.yul\":6412:6484   */\n      tag_296\n        /* \"#utility.yul\":6480:6482   */\n      0x20\n        /* \"#utility.yul\":6469:6478   */\n      dup4\n        /* \"#utility.yul\":6465:6483   */\n      add\n        /* \"#utility.yul\":6456:6462   */\n      dup5\n        /* \"#utility.yul\":6412:6484   */\n      tag_286\n      jump\t// in\n    tag_296:\n        /* \"#utility.yul\":6159:6491   */\n      swap4\n      swap3\n      pop\n      pop\n      pop\n      jump\t// out\n        /* \"#utility.yul\":6497:6707   */\n    tag_41:\n        /* \"#utility.yul\":6584:6588   */\n      0x00\n        /* \"#utility.yul\":6622:6624   */\n      0x20\n        /* \"#utility.yul\":6611:6620   */\n      dup3\n        /* \"#utility.yul\":6607:6625   */\n      add\n        /* \"#utility.yul\":6599:6625   */\n      swap1\n      pop\n        /* \"#utility.yul\":6635:6700   */\n      tag_298\n        /* \"#utility.yul\":6697:6698   */\n      0x00\n        /* \"#utility.yul\":6686:6695   */\n      dup4\n        /* \"#utility.yul\":6682:6699   */\n      add\n        /* \"#utility.yul\":6673:6679   */\n      dup5\n        /* \"#utility.yul\":6635:6700   */\n      tag_240\n      jump\t// in\n    tag_298:\n        /* \"#utility.yul\":6497:6707   */\n      swap3\n      swap2\n      pop\n      pop\n      jump\t// out\n        /* \"#utility.yul\":6713:7026   */\n    tag_195:\n        /* \"#utility.yul\":6826:6830   */\n      0x00\n        /* \"#utility.yul\":6864:6866   */\n      0x20\n        /* \"#utility.yul\":6853:6862   */\n      dup3\n        /* \"#utility.yul\":6849:6867   */\n      add\n        /* \"#utility.yul\":6841:6867   */\n      swap1\n      pop\n        /* \"#utility.yul\":6913:6922   */\n      dup2\n        /* \"#utility.yul\":6907:6911   */\n      dup2\n        /* \"#utility.yul\":6903:6923   */\n      sub\n        /* \"#utility.yul\":6899:6900   */\n      0x00\n        /* \"#utility.yul\":6888:6897   */\n      dup4\n        /* \"#utility.yul\":6884:6901   */\n      add\n        /* \"#utility.yul\":6877:6924   */\n      mstore\n        /* \"#utility.yul\":6941:7019   */\n      tag_300\n        /* \"#utility.yul\":7014:7018   */\n      dup2\n        /* \"#utility.yul\":7005:7011   */\n      dup5\n        /* \"#utility.yul\":6941:7019   */\n      tag_252\n      jump\t// in\n    tag_300:\n        /* \"#utility.yul\":6933:7019   */\n      swap1\n      pop\n        /* \"#utility.yul\":6713:7026   */\n      swap3\n      swap2\n      pop\n      pop\n      jump\t// out\n        /* \"#utility.yul\":7032:7451   */\n    tag_134:\n        /* \"#utility.yul\":7198:7202   */\n      0x00\n        /* \"#utility.yul\":7236:7238   */\n      0x20\n        /* \"#utility.yul\":7225:7234   */\n      dup3\n        /* \"#utility.yul\":7221:7239   */\n      add\n        /* \"#utility.yul\":7213:7239   */\n      swap1\n      pop\n        /* \"#utility.yul\":7285:7294   */\n      dup2\n        /* \"#utility.yul\":7279:7283   */\n      dup2\n        /* \"#utility.yul\":7275:7295   */\n      sub\n        /* \"#utility.yul\":7271:7272   */\n      0x00\n        /* \"#utility.yul\":7260:7269   */\n      dup4\n        /* \"#utility.yul\":7256:7273   */\n      add\n        /* \"#utility.yul\":7249:7296   */\n      mstore\n        /* \"#utility.yul\":7313:7444   */\n      tag_302\n        /* \"#utility.yul\":7439:7443   */\n      dup2\n        /* \"#utility.yul\":7313:7444   */\n      tag_261\n      jump\t// in\n    tag_302:\n        /* \"#utility.yul\":7305:7444   */\n      swap1\n      pop\n        /* \"#utility.yul\":7032:7451   */\n      swap2\n      swap1\n      pop\n      jump\t// out\n        /* \"#utility.yul\":7457:7876   */\n    tag_175:\n        /* \"#utility.yul\":7623:7627   */\n      0x00\n        /* \"#utility.yul\":7661:7663   */\n      0x20\n        /* \"#utility.yul\":7650:7659   */\n      dup3\n        /* \"#utility.yul\":7646:7664   */\n      add\n        /* \"#utility.yul\":7638:7664   */\n      swap1\n      pop\n        /* \"#utility.yul\":7710:7719   */\n      dup2\n        /* \"#utility.yul\":7704:7708   */\n      dup2\n        /* \"#utility.yul\":7700:7720   */\n      sub\n        /* \"#utility.yul\":7696:7697   */\n      0x00\n        /* \"#utility.yul\":7685:7694   */\n      dup4\n        /* \"#utility.yul\":7681:7698   */\n      add\n        /* \"#utility.yul\":7674:7721   */\n      mstore\n        /* \"#utility.yul\":7738:7869   */\n      tag_304\n        /* \"#utility.yul\":7864:7868   */\n      dup2\n        /* \"#utility.yul\":7738:7869   */\n      tag_266\n      jump\t// in\n    tag_304:\n        /* \"#utility.yul\":7730:7869   */\n      swap1\n      pop\n        /* \"#utility.yul\":7457:7876   */\n      swap2\n      swap1\n      pop\n      jump\t// out\n        /* \"#utility.yul\":7882:8301   */\n    tag_154:\n        /* \"#utility.yul\":8048:8052   */\n      0x00\n        /* \"#utility.yul\":8086:8088   */\n      0x20\n        /* \"#utility.yul\":8075:8084   */\n      dup3\n        /* \"#utility.yul\":8071:8089   */\n      add\n        /* \"#utility.yul\":8063:8089   */\n      swap1\n      pop\n        /* \"#utility.yul\":8135:8144   */\n      dup2\n        /* \"#utility.yul\":8129:8133   */\n      dup2\n        /* \"#utility.yul\":8125:8145   */\n      sub\n        /* \"#utility.yul\":8121:8122   */\n      0x00\n        /* \"#utility.yul\":8110:8119   */\n      dup4\n        /* \"#utility.yul\":8106:8123   */\n      add\n        /* \"#utility.yul\":8099:8146   */\n      mstore\n        /* \"#utility.yul\":8163:8294   */\n      tag_306\n        /* \"#utility.yul\":8289:8293   */\n      dup2\n        /* \"#utility.yul\":8163:8294   */\n      tag_271\n      jump\t// in\n    tag_306:\n        /* \"#utility.yul\":8155:8294   */\n      swap1\n      pop\n        /* \"#utility.yul\":7882:8301   */\n      swap2\n      swap1\n      pop\n      jump\t// out\n        /* \"#utility.yul\":8307:8726   */\n    tag_180:\n        /* \"#utility.yul\":8473:8477   */\n      0x00\n        /* \"#utility.yul\":8511:8513   */\n      0x20\n        /* \"#utility.yul\":8500:8509   */\n      dup3\n        /* \"#utility.yul\":8496:8514   */\n      add\n        /* \"#utility.yul\":8488:8514   */\n      swap1\n      pop\n        /* \"#utility.yul\":8560:8569   */\n      dup2\n        /* \"#utility.yul\":8554:8558   */\n      dup2\n        /* \"#utility.yul\":8550:8570   */\n      sub\n        /* \"#utility.yul\":8546:8547   */\n      0x00\n        /* \"#utility.yul\":8535:8544   */\n      dup4\n        /* \"#utility.yul\":8531:8548   */\n      add\n        /* \"#utility.yul\":8524:8571   */\n      mstore\n        /* \"#utility.yul\":8588:8719   */\n      tag_308\n        /* \"#utility.yul\":8714:8718   */\n      dup2\n        /* \"#utility.yul\":8588:8719   */\n      tag_276\n      jump\t// in\n    tag_308:\n        /* \"#utility.yul\":8580:8719   */\n      swap1\n      pop\n        /* \"#utility.yul\":8307:8726   */\n      swap2\n      swap1\n      pop\n      jump\t// out\n        /* \"#utility.yul\":8732:9151   */\n    tag_168:\n        /* \"#utility.yul\":8898:8902   */\n      0x00\n        /* \"#utility.yul\":8936:8938   */\n      0x20\n        /* \"#utility.yul\":8925:8934   */\n      dup3\n        /* \"#utility.yul\":8921:8939   */\n      add\n        /* \"#utility.yul\":8913:8939   */\n      swap1\n      pop\n        /* \"#utility.yul\":8985:8994   */\n      dup2\n        /* \"#utility.yul\":8979:8983   */\n      dup2\n        /* \"#utility.yul\":8975:8995   */\n      sub\n        /* \"#utility.yul\":8971:8972   */\n      0x00\n        /* \"#utility.yul\":8960:8969   */\n      dup4\n        /* \"#utility.yul\":8956:8973   */\n      add\n        /* \"#utility.yul\":8949:8996   */\n      mstore\n        /* \"#utility.yul\":9013:9144   */\n      tag_310\n        /* \"#utility.yul\":9139:9143   */\n      dup2\n        /* \"#utility.yul\":9013:9144   */\n      tag_281\n      jump\t// in\n    tag_310:\n        /* \"#utility.yul\":9005:9144   */\n      swap1\n      pop\n        /* \"#utility.yul\":8732:9151   */\n      swap2\n      swap1\n      pop\n      jump\t// out\n        /* \"#utility.yul\":9157:9379   */\n    tag_24:\n        /* \"#utility.yul\":9250:9254   */\n      0x00\n        /* \"#utility.yul\":9288:9290   */\n      0x20\n        /* \"#utility.yul\":9277:9286   */\n      dup3\n        /* \"#utility.yul\":9273:9291   */\n      add\n        /* \"#utility.yul\":9265:9291   */\n      swap1\n      pop\n        /* \"#utility.yul\":9301:9372   */\n      tag_312\n        /* \"#utility.yul\":9369:9370   */\n      0x00\n        /* \"#utility.yul\":9358:9367   */\n      dup4\n        /* \"#utility.yul\":9354:9371   */\n      add\n        /* \"#utility.yul\":9345:9351   */\n      dup5\n        /* \"#utility.yul\":9301:9372   */\n      tag_286\n      jump\t// in\n    tag_312:\n        /* \"#utility.yul\":9157:9379   */\n      swap3\n      swap2\n      pop\n      pop\n      jump\t// out\n        /* \"#utility.yul\":9466:9564   */\n    tag_247:\n        /* \"#utility.yul\":9517:9523   */\n      0x00\n        /* \"#utility.yul\":9551:9556   */\n      dup2\n        /* \"#utility.yul\":9545:9557   */\n      mload\n        /* \"#utility.yul\":9535:9557   */\n      swap1\n      pop\n        /* \"#utility.yul\":9466:9564   */\n      swap2\n      swap1\n      pop\n      jump\t// out\n        /* \"#utility.yul\":9570:9669   */\n    tag_255:\n        /* \"#utility.yul\":9622:9628   */\n      0x00\n        /* \"#utility.yul\":9656:9661   */\n      dup2\n        /* \"#utility.yul\":9650:9662   */\n      mload\n        /* \"#utility.yul\":9640:9662   */\n      swap1\n      pop\n        /* \"#utility.yul\":9570:9669   */\n      swap2\n      swap1\n      pop\n      jump\t// out\n        /* \"#utility.yul\":9675:9822   */\n    tag_249:\n        /* \"#utility.yul\":9776:9787   */\n      0x00\n        /* \"#utility.yul\":9813:9816   */\n      dup2\n        /* \"#utility.yul\":9798:9816   */\n      swap1\n      pop\n        /* \"#utility.yul\":9675:9822   */\n      swap3\n      swap2\n      pop\n      pop\n      jump\t// out\n        /* \"#utility.yul\":9828:9997   */\n    tag_257:\n        /* \"#utility.yul\":9912:9923   */\n      0x00\n        /* \"#utility.yul\":9946:9952   */\n      dup3\n        /* \"#utility.yul\":9941:9944   */\n      dup3\n        /* \"#utility.yul\":9934:9953   */\n      mstore\n        /* \"#utility.yul\":9986:9990   */\n      0x20\n        /* \"#utility.yul\":9981:9984   */\n      dup3\n        /* \"#utility.yul\":9977:9991   */\n      add\n        /* \"#utility.yul\":9962:9991   */\n      swap1\n      pop\n        /* \"#utility.yul\":9828:9997   */\n      swap3\n      swap2\n      pop\n      pop\n      jump\t// out\n        /* \"#utility.yul\":10003:10308   */\n    tag_138:\n        /* \"#utility.yul\":10043:10046   */\n      0x00\n        /* \"#utility.yul\":10062:10082   */\n      tag_320\n        /* \"#utility.yul\":10080:10081   */\n      dup3\n        /* \"#utility.yul\":10062:10082   */\n      tag_289\n      jump\t// in\n    tag_320:\n        /* \"#utility.yul\":10057:10082   */\n      swap2\n      pop\n        /* \"#utility.yul\":10096:10116   */\n      tag_321\n        /* \"#utility.yul\":10114:10115   */\n      dup4\n        /* \"#utility.yul\":10096:10116   */\n      tag_289\n      jump\t// in\n    tag_321:\n        /* \"#utility.yul\":10091:10116   */\n      swap3\n      pop\n        /* \"#utility.yul\":10250:10251   */\n      dup3\n        /* \"#utility.yul\":10182:10248   */\n      0xffffffffffffffffffffffffffffffffffffffffffffffffffffffffffffffff\n        /* \"#utility.yul\":10178:10252   */\n      sub\n        /* \"#utility.yul\":10175:10176   */\n      dup3\n        /* \"#utility.yul\":10172:10253   */\n      gt\n        /* \"#utility.yul\":10169:10276   */\n      iszero\n      tag_322\n      jumpi\n        /* \"#utility.yul\":10256:10274   */\n      tag_323\n      tag_324\n      jump\t// in\n    tag_323:\n        /* \"#utility.yul\":10169:10276   */\n    tag_322:\n        /* \"#utility.yul\":10300:10301   */\n      dup3\n        /* \"#utility.yul\":10297:10298   */\n      dup3\n        /* \"#utility.yul\":10293:10302   */\n      add\n        /* \"#utility.yul\":10286:10302   */\n      swap1\n      pop\n        /* \"#utility.yul\":10003:10308   */\n      swap3\n      swap2\n      pop\n      pop\n      jump\t// out\n        /* \"#utility.yul\":10314:10499   */\n    tag_147:\n        /* \"#utility.yul\":10354:10355   */\n      0x00\n        /* \"#utility.yul\":10371:10391   */\n      tag_326\n        /* \"#utility.yul\":10389:10390   */\n      dup3\n        /* \"#utility.yul\":10371:10391   */\n      tag_289\n      jump\t// in\n    tag_326:\n        /* \"#utility.yul\":10366:10391   */\n      swap2\n      pop\n        /* \"#utility.yul\":10405:10425   */\n      tag_327\n        /* \"#utility.yul\":10423:10424   */\n      dup4\n        /* \"#utility.yul\":10405:10425   */\n      tag_289\n      jump\t// in\n    tag_327:\n        /* \"#utility.yul\":10400:10425   */\n      swap3\n      pop\n        /* \"#utility.yul\":10444:10445   */\n      dup3\n        /* \"#utility.yul\":10434:10469   */\n      tag_328\n      jumpi\n        /* \"#utility.yul\":10449:10467   */\n      tag_329\n      tag_330\n      jump\t// in\n    tag_329:\n        /* \"#utility.yul\":10434:10469   */\n    tag_328:\n        /* \"#utility.yul\":10491:10492   */\n      dup3\n        /* \"#utility.yul\":10488:10489   */\n      dup3\n        /* \"#utility.yul\":10484:10493   */\n      div\n        /* \"#utility.yul\":10479:10493   */\n      swap1\n      pop\n        /* \"#utility.yul\":10314:10499   */\n      swap3\n      swap2\n      pop\n      pop\n      jump\t// out\n        /* \"#utility.yul\":10505:10853   */\n    tag_144:\n        /* \"#utility.yul\":10545:10552   */\n      0x00\n        /* \"#utility.yul\":10568:10588   */\n      tag_332\n        /* \"#utility.yul\":10586:10587   */\n      dup3\n        /* \"#utility.yul\":10568:10588   */\n      tag_289\n      jump\t// in\n    tag_332:\n        /* \"#utility.yul\":10563:10588   */\n      swap2\n      pop\n        /* \"#utility.yul\":10602:10622   */\n      tag_333\n        /* \"#utility.yul\":10620:10621   */\n      dup4\n        /* \"#utility.yul\":10602:10622   */\n      tag_289\n      jump\t// in\n    tag_333:\n        /* \"#utility.yul\":10597:10622   */\n      swap3\n      pop\n        /* \"#utility.yul\":10790:10791   */\n      dup2\n        /* \"#utility.yul\":10722:10788   */\n      0xffffffffffffffffffffffffffffffffffffffffffffffffffffffffffffffff\n        /* \"#utility.yul\":10718:10792   */\n      div\n        /* \"#utility.yul\":10715:10716   */\n      dup4\n        /* \"#utility.yul\":10712:10793   */\n      gt\n        /* \"#utility.yul\":10707:10708   */\n      dup3\n        /* \"#utility.yul\":10700:10709   */\n      iszero\n        /* \"#utility.yul\":10693:10710   */\n      iszero\n        /* \"#utility.yul\":10689:10794   */\n      and\n        /* \"#utility.yul\":10686:10817   */\n      iszero\n      tag_334\n      jumpi\n        /* \"#utility.yul\":10797:10815   */\n      tag_335\n      tag_324\n      jump\t// in\n    tag_335:\n        /* \"#utility.yul\":10686:10817   */\n    tag_334:\n        /* \"#utility.yul\":10845:10846   */\n      dup3\n        /* \"#utility.yul\":10842:10843   */\n      dup3\n        /* \"#utility.yul\":10838:10847   */\n      mul\n        /* \"#utility.yul\":10827:10847   */\n      swap1\n      pop\n        /* \"#utility.yul\":10505:10853   */\n      swap3\n      swap2\n      pop\n      pop\n      jump\t// out\n        /* \"#utility.yul\":10859:11050   */\n    tag_141:\n        /* \"#utility.yul\":10899:10903   */\n      0x00\n        /* \"#utility.yul\":10919:10939   */\n      tag_337\n        /* \"#utility.yul\":10937:10938   */\n      dup3\n        /* \"#utility.yul\":10919:10939   */\n      tag_289\n      jump\t// in\n    tag_337:\n        /* \"#utility.yul\":10914:10939   */\n      swap2\n      pop\n        /* \"#utility.yul\":10953:10973   */\n      tag_338\n        /* \"#utility.yul\":10971:10972   */\n      dup4\n        /* \"#utility.yul\":10953:10973   */\n      tag_289\n      jump\t// in\n    tag_338:\n        /* \"#utility.yul\":10948:10973   */\n      swap3\n      pop\n        /* \"#utility.yul\":10992:10993   */\n      dup3\n        /* \"#utility.yul\":10989:10990   */\n      dup3\n        /* \"#utility.yul\":10986:10994   */\n      lt\n        /* \"#utility.yul\":10983:11017   */\n      iszero\n      tag_339\n      jumpi\n        /* \"#utility.yul\":10997:11015   */\n      tag_340\n      tag_324\n      jump\t// in\n    tag_340:\n        /* \"#utility.yul\":10983:11017   */\n    tag_339:\n        /* \"#utility.yul\":11042:11043   */\n      dup3\n        /* \"#utility.yul\":11039:11040   */\n      dup3\n        /* \"#utility.yul\":11035:11044   */\n      sub\n        /* \"#utility.yul\":11027:11044   */\n      swap1\n      pop\n        /* \"#utility.yul\":10859:11050   */\n      swap3\n      swap2\n      pop\n      pop\n      jump\t// out\n        /* \"#utility.yul\":11056:11152   */\n    tag_239:\n        /* \"#utility.yul\":11093:11100   */\n      0x00\n        /* \"#utility.yul\":11122:11146   */\n      tag_342\n        /* \"#utility.yul\":11140:11145   */\n      dup3\n        /* \"#utility.yul\":11122:11146   */\n      tag_343\n      jump\t// in\n    tag_342:\n        /* \"#utility.yul\":11111:11146   */\n      swap1\n      pop\n        /* \"#utility.yul\":11056:11152   */\n      swap2\n      swap1\n      pop\n      jump\t// out\n        /* \"#utility.yul\":11158:11248   */\n    tag_243:\n        /* \"#utility.yul\":11192:11199   */\n      0x00\n        /* \"#utility.yul\":11235:11240   */\n      dup2\n        /* \"#utility.yul\":11228:11241   */\n      iszero\n        /* \"#utility.yul\":11221:11242   */\n      iszero\n        /* \"#utility.yul\":11210:11242   */\n      swap1\n      pop\n        /* \"#utility.yul\":11158:11248   */\n      swap2\n      swap1\n      pop\n      jump\t// out\n        /* \"#utility.yul\":11254:11380   */\n    tag_343:\n        /* \"#utility.yul\":11291:11298   */\n      0x00\n        /* \"#utility.yul\":11331:11373   */\n      0xffffffffffffffffffffffffffffffffffffffff\n        /* \"#utility.yul\":11324:11329   */\n      dup3\n        /* \"#utility.yul\":11320:11374   */\n      and\n        /* \"#utility.yul\":11309:11374   */\n      swap1\n      pop\n        /* \"#utility.yul\":11254:11380   */\n      swap2\n      swap1\n      pop\n      jump\t// out\n        /* \"#utility.yul\":11386:11463   */\n    tag_289:\n        /* \"#utility.yul\":11423:11430   */\n      0x00\n        /* \"#utility.yul\":11452:11457   */\n      dup2\n        /* \"#utility.yul\":11441:11457   */\n      swap1\n      pop\n        /* \"#utility.yul\":11386:11463   */\n      swap2\n      swap1\n      pop\n      jump\t// out\n        /* \"#utility.yul\":11469:11776   */\n    tag_251:\n        /* \"#utility.yul\":11537:11538   */\n      0x00\n        /* \"#utility.yul\":11547:11660   */\n    tag_348:\n        /* \"#utility.yul\":11561:11567   */\n      dup4\n        /* \"#utility.yul\":11558:11559   */\n      dup2\n        /* \"#utility.yul\":11555:11568   */\n      lt\n        /* \"#utility.yul\":11547:11660   */\n      iszero\n      tag_350\n      jumpi\n        /* \"#utility.yul\":11646:11647   */\n      dup1\n        /* \"#utility.yul\":11641:11644   */\n      dup3\n        /* \"#utility.yul\":11637:11648   */\n      add\n        /* \"#utility.yul\":11631:11649   */\n      mload\n        /* \"#utility.yul\":11627:11628   */\n      dup2\n        /* \"#utility.yul\":11622:11625   */\n      dup5\n        /* \"#utility.yul\":11618:11629   */\n      add\n        /* \"#utility.yul\":11611:11650   */\n      mstore\n        /* \"#utility.yul\":11583:11585   */\n      0x20\n        /* \"#utility.yul\":11580:11581   */\n      dup2\n        /* \"#utility.yul\":11576:11586   */\n      add\n        /* \"#utility.yul\":11571:11586   */\n      swap1\n      pop\n        /* \"#utility.yul\":11547:11660   */\n      jump(tag_348)\n    tag_350:\n        /* \"#utility.yul\":11678:11684   */\n      dup4\n        /* \"#utility.yul\":11675:11676   */\n      dup2\n        /* \"#utility.yul\":11672:11685   */\n      gt\n        /* \"#utility.yul\":11669:11770   */\n      iszero\n      tag_351\n      jumpi\n        /* \"#utility.yul\":11758:11759   */\n      0x00\n        /* \"#utility.yul\":11749:11755   */\n      dup5\n        /* \"#utility.yul\":11744:11747   */\n      dup5\n        /* \"#utility.yul\":11740:11756   */\n      add\n        /* \"#utility.yul\":11733:11760   */\n      mstore\n        /* \"#utility.yul\":11669:11770   */\n    tag_351:\n        /* \"#utility.yul\":11518:11776   */\n      pop\n        /* \"#utility.yul\":11469:11776   */\n      pop\n      pop\n      pop\n      jump\t// out\n        /* \"#utility.yul\":11782:11962   */\n    tag_324:\n        /* \"#utility.yul\":11830:11907   */\n      0x4e487b7100000000000000000000000000000000000000000000000000000000\n        /* \"#utility.yul\":11827:11828   */\n      0x00\n        /* \"#utility.yul\":11820:11908   */\n      mstore\n        /* \"#utility.yul\":11927:11931   */\n      0x11\n        /* \"#utility.yul\":11924:11925   */\n      0x04\n        /* \"#utility.yul\":11917:11932   */\n      mstore\n        /* \"#utility.yul\":11951:11955   */\n      0x24\n        /* \"#utility.yul\":11948:11949   */\n      0x00\n        /* \"#utility.yul\":11941:11956   */\n      revert\n        /* \"#utility.yul\":11968:12148   */\n    tag_330:\n        /* \"#utility.yul\":12016:12093   */\n      0x4e487b7100000000000000000000000000000000000000000000000000000000\n        /* \"#utility.yul\":12013:12014   */\n      0x00\n        /* \"#utility.yul\":12006:12094   */\n      mstore\n        /* \"#utility.yul\":12113:12117   */\n      0x12\n        /* \"#utility.yul\":12110:12111   */\n      0x04\n        /* \"#utility.yul\":12103:12118   */\n      mstore\n        /* \"#utility.yul\":12137:12141   */\n      0x24\n        /* \"#utility.yul\":12134:12135   */\n      0x00\n        /* \"#utility.yul\":12127:12142   */\n      revert\n        /* \"#utility.yul\":12277:12394   */\n    tag_218:\n        /* \"#utility.yul\":12386:12387   */\n      0x00\n        /* \"#utility.yul\":12383:12384   */\n      dup1\n        /* \"#utility.yul\":12376:12388   */\n      revert\n        /* \"#utility.yul\":12400:12502   */\n    tag_260:\n        /* \"#utility.yul\":12441:12447   */\n      0x00\n        /* \"#utility.yul\":12492:12494   */\n      0x1f\n        /* \"#utility.yul\":12488:12495   */\n      not\n        /* \"#utility.yul\":12483:12485   */\n      0x1f\n        /* \"#utility.yul\":12476:12481   */\n      dup4\n        /* \"#utility.yul\":12472:12486   */\n      add\n        /* \"#utility.yul\":12468:12496   */\n      and\n        /* \"#utility.yul\":12458:12496   */\n      swap1\n      pop\n        /* \"#utility.yul\":12400:12502   */\n      swap2\n      swap1\n      pop\n      jump\t// out\n        /* \"#utility.yul\":12508:12733   */\n    tag_265:\n        /* \"#utility.yul\":12648:12682   */\n      0x4f776e61626c653a206e6577206f776e657220697320746865207a65726f2061\n        /* \"#utility.yul\":12644:12645   */\n      0x00\n        /* \"#utility.yul\":12636:12642   */\n      dup3\n        /* \"#utility.yul\":12632:12646   */\n      add\n        /* \"#utility.yul\":12625:12683   */\n      mstore\n        /* \"#utility.yul\":12717:12725   */\n      0x6464726573730000000000000000000000000000000000000000000000000000\n        /* \"#utility.yul\":12712:12714   */\n      0x20\n        /* \"#utility.yul\":12704:12710   */\n      dup3\n        /* \"#utility.yul\":12700:12715   */\n      add\n        /* \"#utility.yul\":12693:12726   */\n      mstore\n        /* \"#utility.yul\":12508:12733   */\n      pop\n      jump\t// out\n        /* \"#utility.yul\":12739:12964   */\n    tag_270:\n        /* \"#utility.yul\":12879:12913   */\n      0x416464726573733a20696e73756666696369656e742062616c616e636520666f\n        /* \"#utility.yul\":12875:12876   */\n      0x00\n        /* \"#utility.yul\":12867:12873   */\n      dup3\n        /* \"#utility.yul\":12863:12877   */\n      add\n        /* \"#utility.yul\":12856:12914   */\n      mstore\n        /* \"#utility.yul\":12948:12956   */\n      0x722063616c6c0000000000000000000000000000000000000000000000000000\n        /* \"#utility.yul\":12943:12945   */\n      0x20\n        /* \"#utility.yul\":12935:12941   */\n      dup3\n        /* \"#utility.yul\":12931:12946   */\n      add\n        /* \"#utility.yul\":12924:12957   */\n      mstore\n        /* \"#utility.yul\":12739:12964   */\n      pop\n      jump\t// out\n        /* \"#utility.yul\":12970:13152   */\n    tag_275:\n        /* \"#utility.yul\":13110:13144   */\n      0x4f776e61626c653a2063616c6c6572206973206e6f7420746865206f776e6572\n        /* \"#utility.yul\":13106:13107   */\n      0x00\n        /* \"#utility.yul\":13098:13104   */\n      dup3\n        /* \"#utility.yul\":13094:13108   */\n      add\n        /* \"#utility.yul\":13087:13145   */\n      mstore\n        /* \"#utility.yul\":12970:13152   */\n      pop\n      jump\t// out\n        /* \"#utility.yul\":13158:13337   */\n    tag_280:\n        /* \"#utility.yul\":13298:13329   */\n      0x416464726573733a2063616c6c20746f206e6f6e2d636f6e7472616374000000\n        /* \"#utility.yul\":13294:13295   */\n      0x00\n        /* \"#utility.yul\":13286:13292   */\n      dup3\n        /* \"#utility.yul\":13282:13296   */\n      add\n        /* \"#utility.yul\":13275:13330   */\n      mstore\n        /* \"#utility.yul\":13158:13337   */\n      pop\n      jump\t// out\n        /* \"#utility.yul\":13343:13572   */\n    tag_285:\n        /* \"#utility.yul\":13483:13517   */\n      0x5361666545524332303a204552433230206f7065726174696f6e20646964206e\n        /* \"#utility.yul\":13479:13480   */\n      0x00\n        /* \"#utility.yul\":13471:13477   */\n      dup3\n        /* \"#utility.yul\":13467:13481   */\n      add\n        /* \"#utility.yul\":13460:13518   */\n      mstore\n        /* \"#utility.yul\":13552:13564   */\n      0x6f74207375636365656400000000000000000000000000000000000000000000\n        /* \"#utility.yul\":13547:13549   */\n      0x20\n        /* \"#utility.yul\":13539:13545   */\n      dup3\n        /* \"#utility.yul\":13535:13550   */\n      add\n        /* \"#utility.yul\":13528:13565   */\n      mstore\n        /* \"#utility.yul\":13343:13572   */\n      pop\n      jump\t// out\n        /* \"#utility.yul\":13578:13700   */\n    tag_200:\n        /* \"#utility.yul\":13651:13675   */\n      tag_364\n        /* \"#utility.yul\":13669:13674   */\n      dup2\n        /* \"#utility.yul\":13651:13675   */\n      tag_239\n      jump\t// in\n    tag_364:\n        /* \"#utility.yul\":13644:13649   */\n      dup2\n        /* \"#utility.yul\":13641:13676   */\n      eq\n        /* \"#utility.yul\":13631:13694   */\n      tag_365\n      jumpi\n        /* \"#utility.yul\":13690:13691   */\n      0x00\n        /* \"#utility.yul\":13687:13688   */\n      dup1\n        /* \"#utility.yul\":13680:13692   */\n      revert\n        /* \"#utility.yul\":13631:13694   */\n    tag_365:\n        /* \"#utility.yul\":13578:13700   */\n      pop\n      jump\t// out\n        /* \"#utility.yul\":13706:13822   */\n    tag_204:\n        /* \"#utility.yul\":13776:13797   */\n      tag_367\n        /* \"#utility.yul\":13791:13796   */\n      dup2\n        /* \"#utility.yul\":13776:13797   */\n      tag_243\n      jump\t// in\n    tag_367:\n        /* \"#utility.yul\":13769:13774   */\n      dup2\n        /* \"#utility.yul\":13766:13798   */\n      eq\n        /* \"#utility.yul\":13756:13816   */\n      tag_368\n      jumpi\n        /* \"#utility.yul\":13812:13813   */\n      0x00\n        /* \"#utility.yul\":13809:13810   */\n      dup1\n        /* \"#utility.yul\":13802:13814   */\n      revert\n        /* \"#utility.yul\":13756:13816   */\n    tag_368:\n        /* \"#utility.yul\":13706:13822   */\n      pop\n      jump\t// out\n        /* \"#utility.yul\":13828:13950   */\n    tag_211:\n        /* \"#utility.yul\":13901:13925   */\n      tag_370\n        /* \"#utility.yul\":13919:13924   */\n      dup2\n        /* \"#utility.yul\":13901:13925   */\n      tag_289\n      jump\t// in\n    tag_370:\n        /* \"#utility.yul\":13894:13899   */\n      dup2\n        /* \"#utility.yul\":13891:13926   */\n      eq\n        /* \"#utility.yul\":13881:13944   */\n      tag_371\n      jumpi\n        /* \"#utility.yul\":13940:13941   */\n      0x00\n        /* \"#utility.yul\":13937:13938   */\n      dup1\n        /* \"#utility.yul\":13930:13942   */\n      revert\n        /* \"#utility.yul\":13881:13944   */\n    tag_371:\n        /* \"#utility.yul\":13828:13950   */\n      pop\n      jump\t// out\n\n    auxdata: 0xa2646970667358221220b24f00df6c948b844b1be5ecc7d72c0372b67f29b7cdcf228175722abca5540764736f6c63430008070033\n}\n",
				"bytecode": {
					"linkReferences": {},
					"object": "60a06040523480156200001157600080fd5b50604051620017d8380380620017d88339818101604052810190620000379190620001ba565b620000576200004b620000d760201b60201c565b620000df60201b60201c565b60018081905550600073ffffffffffffffffffffffffffffffffffffffff168173ffffffffffffffffffffffffffffffffffffffff1614156200009957600080fd5b8073ffffffffffffffffffffffffffffffffffffffff1660808173ffffffffffffffffffffffffffffffffffffffff1660601b81525050506200023f565b600033905090565b60008060009054906101000a900473ffffffffffffffffffffffffffffffffffffffff169050816000806101000a81548173ffffffffffffffffffffffffffffffffffffffff021916908373ffffffffffffffffffffffffffffffffffffffff1602179055508173ffffffffffffffffffffffffffffffffffffffff168173ffffffffffffffffffffffffffffffffffffffff167f8be0079c531659141344cd1fd0a4f28419497f9722a3daafe3b4186f6b6457e060405160405180910390a35050565b600081519050620001b48162000225565b92915050565b600060208284031215620001d357620001d262000220565b5b6000620001e384828501620001a3565b91505092915050565b6000620001f98262000200565b9050919050565b600073ffffffffffffffffffffffffffffffffffffffff82169050919050565b600080fd5b6200023081620001ec565b81146200023c57600080fd5b50565b60805160601c61156562000273600039600081816102b3015281816105700152818161066f015261076401526115656000f3fe608060405234801561001057600080fd5b50600436106100f55760003560e01c80637c0b2b74116100975780639613252111610066578063961325211461021a578063b6549f7514610238578063be9a655514610242578063f2fde38b14610260576100f5565b80637c0b2b74146101b857806386d1a69f146101d4578063872a7810146101de5780638da5cb5b146101fc576100f5565b806344b1231f116100d357806344b1231f146101545780635b9400811461017257806363d256ce14610190578063715018a6146101ae576100f5565b80630fb5a6b4146100fa57806313d033c01461011857806338af3eed14610136575b600080fd5b61010261027c565b60405161010f919061115a565b60405180910390f35b610120610282565b60405161012d919061115a565b60405180910390f35b61013e610288565b60405161014b9190611039565b60405180910390f35b61015c6102ae565b604051610169919061115a565b60405180910390f35b61017a61040d565b604051610187919061115a565b60405180910390f35b610198610430565b6040516101a5919061107d565b60405180910390f35b6101b6610443565b005b6101d260048036038101906101cd9190610e07565b610457565b005b6101dc610527565b005b6101e66105ee565b6040516101f3919061107d565b60405180910390f35b610204610601565b6040516102119190611039565b60405180910390f35b61022261062a565b60405161022f919061115a565b60405180910390f35b610240610630565b005b61024a610842565b604051610257919061115a565b60405180910390f35b61027a60048036038101906102759190610dda565b610848565b005b60055481565b60035481565b600260009054906101000a900473ffffffffffffffffffffffffffffffffffffffff1681565b6000807f000000000000000000000000000000000000000000000000000000000000000073ffffffffffffffffffffffffffffffffffffffff166370a08231306040518263ffffffff1660e01b815260040161030a9190611039565b60206040518083038186803b15801561032257600080fd5b505afa158015610336573d6000803e3d6000fd5b505050506040513d601f19601f8201168201806040525081019061035a9190610eaf565b90506000610373600754836108cc90919063ffffffff16565b905060035442101561038a5760009250505061040a565b6103a16005546004546108cc90919063ffffffff16565b421015806103bb5750600860009054906101000a900460ff165b156103ca57809250505061040a565b6104056005546103f76103e8600454426108e290919063ffffffff16565b846108f890919063ffffffff16565b61090e90919063ffffffff16565b925050505b90565b600061042b60075461041d6102ae565b6108e290919063ffffffff16565b905090565b600860009054906101000a900460ff1681565b61044b610924565b61045560006109a2565b565b600073ffffffffffffffffffffffffffffffffffffffff168573ffffffffffffffffffffffffffffffffffffffff16141561049157600080fd5b8183111561049e57600080fd5b84600260006101000a81548173ffffffffffffffffffffffffffffffffffffffff021916908373ffffffffffffffffffffffffffffffffffffffff16021790555080600660006101000a81548160ff0219169083151502179055508160058190555061051383856108cc90919063ffffffff16565b600381905550836004819055505050505050565b600061053161040d565b90506000811161054057600080fd5b806007819055506105b4600260009054906101000a900473ffffffffffffffffffffffffffffffffffffffff16827f000000000000000000000000000000000000000000000000000000000000000073ffffffffffffffffffffffffffffffffffffffff16610a669092919063ffffffff16565b7ffb81f9b30d73d830c3544b34d827c08142579ee75710b490bab0b3995468c565816040516105e3919061115a565b60405180910390a150565b600660009054906101000a900460ff1681565b60008060009054906101000a900473ffffffffffffffffffffffffffffffffffffffff16905090565b60075481565b610638610924565b600660009054906101000a900460ff1661065157600080fd5b600860009054906101000a900460ff161561066b57600080fd5b60007f000000000000000000000000000000000000000000000000000000000000000073ffffffffffffffffffffffffffffffffffffffff166370a08231306040518263ffffffff1660e01b81526004016106c69190611039565b60206040518083038186803b1580156106de57600080fd5b505afa1580156106f2573d6000803e3d6000fd5b505050506040513d601f19601f820116820180604052508101906107169190610eaf565b9050600061072261040d565b9050600061073982846108e290919063ffffffff16565b90506001600860006101000a81548160ff0219169083151502179055506000610760610601565b90507f000000000000000000000000000000000000000000000000000000000000000073ffffffffffffffffffffffffffffffffffffffff1663a9059cbb82846040518363ffffffff1660e01b81526004016107bd929190611054565b602060405180830381600087803b1580156107d757600080fd5b505af11580156107eb573d6000803e3d6000fd5b505050506040513d601f19601f8201168201806040525081019061080f9190610e82565b507f44825a4b2df8acb19ce4e1afba9aa850c8b65cdb7942e2078f27d0b0960efee660405160405180910390a150505050565b60045481565b610850610924565b600073ffffffffffffffffffffffffffffffffffffffff168173ffffffffffffffffffffffffffffffffffffffff1614156108c0576040517f08c379a00000000000000000000000000000000000000000000000000000000081526004016108b7906110ba565b60405180910390fd5b6108c9816109a2565b50565b600081836108da91906111a7565b905092915050565b600081836108f09190611288565b905092915050565b60008183610906919061122e565b905092915050565b6000818361091c91906111fd565b905092915050565b61092c610aec565b73ffffffffffffffffffffffffffffffffffffffff1661094a610601565b73ffffffffffffffffffffffffffffffffffffffff16146109a0576040517f08c379a0000000000000000000000000000000000000000000000000000000008152600401610997906110fa565b60405180910390fd5b565b60008060009054906101000a900473ffffffffffffffffffffffffffffffffffffffff169050816000806101000a81548173ffffffffffffffffffffffffffffffffffffffff021916908373ffffffffffffffffffffffffffffffffffffffff1602179055508173ffffffffffffffffffffffffffffffffffffffff168173ffffffffffffffffffffffffffffffffffffffff167f8be0079c531659141344cd1fd0a4f28419497f9722a3daafe3b4186f6b6457e060405160405180910390a35050565b610ae78363a9059cbb60e01b8484604051602401610a85929190611054565b604051602081830303815290604052907bffffffffffffffffffffffffffffffffffffffffffffffffffffffff19166020820180517bffffffffffffffffffffffffffffffffffffffffffffffffffffffff8381831617835250505050610af4565b505050565b600033905090565b6000610b56826040518060400160405280602081526020017f5361666545524332303a206c6f772d6c6576656c2063616c6c206661696c65648152508573ffffffffffffffffffffffffffffffffffffffff16610bbb9092919063ffffffff16565b9050600081511115610bb65780806020019051810190610b769190610e82565b610bb5576040517f08c379a0000000000000000000000000000000000000000000000000000000008152600401610bac9061113a565b60405180910390fd5b5b505050565b6060610bca8484600085610bd3565b90509392505050565b606082471015610c18576040517f08c379a0000000000000000000000000000000000000000000000000000000008152600401610c0f906110da565b60405180910390fd5b610c2185610ce7565b610c60576040517f08c379a0000000000000000000000000000000000000000000000000000000008152600401610c579061111a565b60405180910390fd5b6000808673ffffffffffffffffffffffffffffffffffffffff168587604051610c899190611022565b60006040518083038185875af1925050503d8060008114610cc6576040519150601f19603f3d011682016040523d82523d6000602084013e610ccb565b606091505b5091509150610cdb828286610d0a565b92505050949350505050565b6000808273ffffffffffffffffffffffffffffffffffffffff163b119050919050565b60608315610d1a57829050610d6a565b600083511115610d2d5782518084602001fd5b816040517f08c379a0000000000000000000000000000000000000000000000000000000008152600401610d619190611098565b60405180910390fd5b9392505050565b600081359050610d80816114ea565b92915050565b600081359050610d9581611501565b92915050565b600081519050610daa81611501565b92915050565b600081359050610dbf81611518565b92915050565b600081519050610dd481611518565b92915050565b600060208284031215610df057610def611395565b5b6000610dfe84828501610d71565b91505092915050565b600080600080600060a08688031215610e2357610e22611395565b5b6000610e3188828901610d71565b9550506020610e4288828901610db0565b9450506040610e5388828901610db0565b9350506060610e6488828901610db0565b9250506080610e7588828901610d86565b9150509295509295909350565b600060208284031215610e9857610e97611395565b5b6000610ea684828501610d9b565b91505092915050565b600060208284031215610ec557610ec4611395565b5b6000610ed384828501610dc5565b91505092915050565b610ee5816112bc565b82525050565b610ef4816112ce565b82525050565b6000610f0582611175565b610f0f818561118b565b9350610f1f818560208601611304565b80840191505092915050565b6000610f3682611180565b610f408185611196565b9350610f50818560208601611304565b610f598161139a565b840191505092915050565b6000610f71602683611196565b9150610f7c826113ab565b604082019050919050565b6000610f94602683611196565b9150610f9f826113fa565b604082019050919050565b6000610fb7602083611196565b9150610fc282611449565b602082019050919050565b6000610fda601d83611196565b9150610fe582611472565b602082019050919050565b6000610ffd602a83611196565b91506110088261149b565b604082019050919050565b61101c816112fa565b82525050565b600061102e8284610efa565b915081905092915050565b600060208201905061104e6000830184610edc565b92915050565b60006040820190506110696000830185610edc565b6110766020830184611013565b9392505050565b60006020820190506110926000830184610eeb565b92915050565b600060208201905081810360008301526110b28184610f2b565b905092915050565b600060208201905081810360008301526110d381610f64565b9050919050565b600060208201905081810360008301526110f381610f87565b9050919050565b6000602082019050818103600083015261111381610faa565b9050919050565b6000602082019050818103600083015261113381610fcd565b9050919050565b6000602082019050818103600083015261115381610ff0565b9050919050565b600060208201905061116f6000830184611013565b92915050565b600081519050919050565b600081519050919050565b600081905092915050565b600082825260208201905092915050565b60006111b2826112fa565b91506111bd836112fa565b9250827fffffffffffffffffffffffffffffffffffffffffffffffffffffffffffffffff038211156111f2576111f1611337565b5b828201905092915050565b6000611208826112fa565b9150611213836112fa565b92508261122357611222611366565b5b828204905092915050565b6000611239826112fa565b9150611244836112fa565b9250817fffffffffffffffffffffffffffffffffffffffffffffffffffffffffffffffff048311821515161561127d5761127c611337565b5b828202905092915050565b6000611293826112fa565b915061129e836112fa565b9250828210156112b1576112b0611337565b5b828203905092915050565b60006112c7826112da565b9050919050565b60008115159050919050565b600073ffffffffffffffffffffffffffffffffffffffff82169050919050565b6000819050919050565b60005b83811015611322578082015181840152602081019050611307565b83811115611331576000848401525b50505050565b7f4e487b7100000000000000000000000000000000000000000000000000000000600052601160045260246000fd5b7f4e487b7100000000000000000000000000000000000000000000000000000000600052601260045260246000fd5b600080fd5b6000601f19601f8301169050919050565b7f4f776e61626c653a206e6577206f776e657220697320746865207a65726f206160008201527f6464726573730000000000000000000000000000000000000000000000000000602082015250565b7f416464726573733a20696e73756666696369656e742062616c616e636520666f60008201527f722063616c6c0000000000000000000000000000000000000000000000000000602082015250565b7f4f776e61626c653a2063616c6c6572206973206e6f7420746865206f776e6572600082015250565b7f416464726573733a2063616c6c20746f206e6f6e2d636f6e7472616374000000600082015250565b7f5361666545524332303a204552433230206f7065726174696f6e20646964206e60008201527f6f74207375636365656400000000000000000000000000000000000000000000602082015250565b6114f3816112bc565b81146114fe57600080fd5b50565b61150a816112ce565b811461151557600080fd5b50565b611521816112fa565b811461152c57600080fd5b5056fea2646970667358221220b24f00df6c948b844b1be5ecc7d72c0372b67f29b7cdcf228175722abca5540764736f6c63430008070033",
					"opcodes": "PUSH1 0xA0 PUSH1 0x40 MSTORE CALLVALUE DUP1 ISZERO PUSH3 0x11 JUMPI PUSH1 0x0 DUP1 REVERT JUMPDEST POP PUSH1 0x40 MLOAD PUSH3 0x17D8 CODESIZE SUB DUP1 PUSH3 0x17D8 DUP4 CODECOPY DUP2 DUP2 ADD PUSH1 0x40 MSTORE DUP2 ADD SWAP1 PUSH3 0x37 SWAP2 SWAP1 PUSH3 0x1BA JUMP JUMPDEST PUSH3 0x57 PUSH3 0x4B PUSH3 0xD7 PUSH1 0x20 SHL PUSH1 0x20 SHR JUMP JUMPDEST PUSH3 0xDF PUSH1 0x20 SHL PUSH1 0x20 SHR JUMP JUMPDEST PUSH1 0x1 DUP1 DUP2 SWAP1 SSTORE POP PUSH1 0x0 PUSH20 0xFFFFFFFFFFFFFFFFFFFFFFFFFFFFFFFFFFFFFFFF AND DUP2 PUSH20 0xFFFFFFFFFFFFFFFFFFFFFFFFFFFFFFFFFFFFFFFF AND EQ ISZERO PUSH3 0x99 JUMPI PUSH1 0x0 DUP1 REVERT JUMPDEST DUP1 PUSH20 0xFFFFFFFFFFFFFFFFFFFFFFFFFFFFFFFFFFFFFFFF AND PUSH1 0x80 DUP2 PUSH20 0xFFFFFFFFFFFFFFFFFFFFFFFFFFFFFFFFFFFFFFFF AND PUSH1 0x60 SHL DUP2 MSTORE POP POP POP PUSH3 0x23F JUMP JUMPDEST PUSH1 0x0 CALLER SWAP1 POP SWAP1 JUMP JUMPDEST PUSH1 0x0 DUP1 PUSH1 0x0 SWAP1 SLOAD SWAP1 PUSH2 0x100 EXP SWAP1 DIV PUSH20 0xFFFFFFFFFFFFFFFFFFFFFFFFFFFFFFFFFFFFFFFF AND SWAP1 POP DUP2 PUSH1 0x0 DUP1 PUSH2 0x100 EXP DUP2 SLOAD DUP2 PUSH20 0xFFFFFFFFFFFFFFFFFFFFFFFFFFFFFFFFFFFFFFFF MUL NOT AND SWAP1 DUP4 PUSH20 0xFFFFFFFFFFFFFFFFFFFFFFFFFFFFFFFFFFFFFFFF AND MUL OR SWAP1 SSTORE POP DUP2 PUSH20 0xFFFFFFFFFFFFFFFFFFFFFFFFFFFFFFFFFFFFFFFF AND DUP2 PUSH20 0xFFFFFFFFFFFFFFFFFFFFFFFFFFFFFFFFFFFFFFFF AND PUSH32 0x8BE0079C531659141344CD1FD0A4F28419497F9722A3DAAFE3B4186F6B6457E0 PUSH1 0x40 MLOAD PUSH1 0x40 MLOAD DUP1 SWAP2 SUB SWAP1 LOG3 POP POP JUMP JUMPDEST PUSH1 0x0 DUP2 MLOAD SWAP1 POP PUSH3 0x1B4 DUP2 PUSH3 0x225 JUMP JUMPDEST SWAP3 SWAP2 POP POP JUMP JUMPDEST PUSH1 0x0 PUSH1 0x20 DUP3 DUP5 SUB SLT ISZERO PUSH3 0x1D3 JUMPI PUSH3 0x1D2 PUSH3 0x220 JUMP JUMPDEST JUMPDEST PUSH1 0x0 PUSH3 0x1E3 DUP5 DUP3 DUP6 ADD PUSH3 0x1A3 JUMP JUMPDEST SWAP2 POP POP SWAP3 SWAP2 POP POP JUMP JUMPDEST PUSH1 0x0 PUSH3 0x1F9 DUP3 PUSH3 0x200 JUMP JUMPDEST SWAP1 POP SWAP2 SWAP1 POP JUMP JUMPDEST PUSH1 0x0 PUSH20 0xFFFFFFFFFFFFFFFFFFFFFFFFFFFFFFFFFFFFFFFF DUP3 AND SWAP1 POP SWAP2 SWAP1 POP JUMP JUMPDEST PUSH1 0x0 DUP1 REVERT JUMPDEST PUSH3 0x230 DUP2 PUSH3 0x1EC JUMP JUMPDEST DUP2 EQ PUSH3 0x23C JUMPI PUSH1 0x0 DUP1 REVERT JUMPDEST POP JUMP JUMPDEST PUSH1 0x80 MLOAD PUSH1 0x60 SHR PUSH2 0x1565 PUSH3 0x273 PUSH1 0x0 CODECOPY PUSH1 0x0 DUP2 DUP2 PUSH2 0x2B3 ADD MSTORE DUP2 DUP2 PUSH2 0x570 ADD MSTORE DUP2 DUP2 PUSH2 0x66F ADD MSTORE PUSH2 0x764 ADD MSTORE PUSH2 0x1565 PUSH1 0x0 RETURN INVALID PUSH1 0x80 PUSH1 0x40 MSTORE CALLVALUE DUP1 ISZERO PUSH2 0x10 JUMPI PUSH1 0x0 DUP1 REVERT JUMPDEST POP PUSH1 0x4 CALLDATASIZE LT PUSH2 0xF5 JUMPI PUSH1 0x0 CALLDATALOAD PUSH1 0xE0 SHR DUP1 PUSH4 0x7C0B2B74 GT PUSH2 0x97 JUMPI DUP1 PUSH4 0x96132521 GT PUSH2 0x66 JUMPI DUP1 PUSH4 0x96132521 EQ PUSH2 0x21A JUMPI DUP1 PUSH4 0xB6549F75 EQ PUSH2 0x238 JUMPI DUP1 PUSH4 0xBE9A6555 EQ PUSH2 0x242 JUMPI DUP1 PUSH4 0xF2FDE38B EQ PUSH2 0x260 JUMPI PUSH2 0xF5 JUMP JUMPDEST DUP1 PUSH4 0x7C0B2B74 EQ PUSH2 0x1B8 JUMPI DUP1 PUSH4 0x86D1A69F EQ PUSH2 0x1D4 JUMPI DUP1 PUSH4 0x872A7810 EQ PUSH2 0x1DE JUMPI DUP1 PUSH4 0x8DA5CB5B EQ PUSH2 0x1FC JUMPI PUSH2 0xF5 JUMP JUMPDEST DUP1 PUSH4 0x44B1231F GT PUSH2 0xD3 JUMPI DUP1 PUSH4 0x44B1231F EQ PUSH2 0x154 JUMPI DUP1 PUSH4 0x5B940081 EQ PUSH2 0x172 JUMPI DUP1 PUSH4 0x63D256CE EQ PUSH2 0x190 JUMPI DUP1 PUSH4 0x715018A6 EQ PUSH2 0x1AE JUMPI PUSH2 0xF5 JUMP JUMPDEST DUP1 PUSH4 0xFB5A6B4 EQ PUSH2 0xFA JUMPI DUP1 PUSH4 0x13D033C0 EQ PUSH2 0x118 JUMPI DUP1 PUSH4 0x38AF3EED EQ PUSH2 0x136 JUMPI JUMPDEST PUSH1 0x0 DUP1 REVERT JUMPDEST PUSH2 0x102 PUSH2 0x27C JUMP JUMPDEST PUSH1 0x40 MLOAD PUSH2 0x10F SWAP2 SWAP1 PUSH2 0x115A JUMP JUMPDEST PUSH1 0x40 MLOAD DUP1 SWAP2 SUB SWAP1 RETURN JUMPDEST PUSH2 0x120 PUSH2 0x282 JUMP JUMPDEST PUSH1 0x40 MLOAD PUSH2 0x12D SWAP2 SWAP1 PUSH2 0x115A JUMP JUMPDEST PUSH1 0x40 MLOAD DUP1 SWAP2 SUB SWAP1 RETURN JUMPDEST PUSH2 0x13E PUSH2 0x288 JUMP JUMPDEST PUSH1 0x40 MLOAD PUSH2 0x14B SWAP2 SWAP1 PUSH2 0x1039 JUMP JUMPDEST PUSH1 0x40 MLOAD DUP1 SWAP2 SUB SWAP1 RETURN JUMPDEST PUSH2 0x15C PUSH2 0x2AE JUMP JUMPDEST PUSH1 0x40 MLOAD PUSH2 0x169 SWAP2 SWAP1 PUSH2 0x115A JUMP JUMPDEST PUSH1 0x40 MLOAD DUP1 SWAP2 SUB SWAP1 RETURN JUMPDEST PUSH2 0x17A PUSH2 0x40D JUMP JUMPDEST PUSH1 0x40 MLOAD PUSH2 0x187 SWAP2 SWAP1 PUSH2 0x115A JUMP JUMPDEST PUSH1 0x40 MLOAD DUP1 SWAP2 SUB SWAP1 RETURN JUMPDEST PUSH2 0x198 PUSH2 0x430 JUMP JUMPDEST PUSH1 0x40 MLOAD PUSH2 0x1A5 SWAP2 SWAP1 PUSH2 0x107D JUMP JUMPDEST PUSH1 0x40 MLOAD DUP1 SWAP2 SUB SWAP1 RETURN JUMPDEST PUSH2 0x1B6 PUSH2 0x443 JUMP JUMPDEST STOP JUMPDEST PUSH2 0x1D2 PUSH1 0x4 DUP1 CALLDATASIZE SUB DUP2 ADD SWAP1 PUSH2 0x1CD SWAP2 SWAP1 PUSH2 0xE07 JUMP JUMPDEST PUSH2 0x457 JUMP JUMPDEST STOP JUMPDEST PUSH2 0x1DC PUSH2 0x527 JUMP JUMPDEST STOP JUMPDEST PUSH2 0x1E6 PUSH2 0x5EE JUMP JUMPDEST PUSH1 0x40 MLOAD PUSH2 0x1F3 SWAP2 SWAP1 PUSH2 0x107D JUMP JUMPDEST PUSH1 0x40 MLOAD DUP1 SWAP2 SUB SWAP1 RETURN JUMPDEST PUSH2 0x204 PUSH2 0x601 JUMP JUMPDEST PUSH1 0x40 MLOAD PUSH2 0x211 SWAP2 SWAP1 PUSH2 0x1039 JUMP JUMPDEST PUSH1 0x40 MLOAD DUP1 SWAP2 SUB SWAP1 RETURN JUMPDEST PUSH2 0x222 PUSH2 0x62A JUMP JUMPDEST PUSH1 0x40 MLOAD PUSH2 0x22F SWAP2 SWAP1 PUSH2 0x115A JUMP JUMPDEST PUSH1 0x40 MLOAD DUP1 SWAP2 SUB SWAP1 RETURN JUMPDEST PUSH2 0x240 PUSH2 0x630 JUMP JUMPDEST STOP JUMPDEST PUSH2 0x24A PUSH2 0x842 JUMP JUMPDEST PUSH1 0x40 MLOAD PUSH2 0x257 SWAP2 SWAP1 PUSH2 0x115A JUMP JUMPDEST PUSH1 0x40 MLOAD DUP1 SWAP2 SUB SWAP1 RETURN JUMPDEST PUSH2 0x27A PUSH1 0x4 DUP1 CALLDATASIZE SUB DUP2 ADD SWAP1 PUSH2 0x275 SWAP2 SWAP1 PUSH2 0xDDA JUMP JUMPDEST PUSH2 0x848 JUMP JUMPDEST STOP JUMPDEST PUSH1 0x5 SLOAD DUP2 JUMP JUMPDEST PUSH1 0x3 SLOAD DUP2 JUMP JUMPDEST PUSH1 0x2 PUSH1 0x0 SWAP1 SLOAD SWAP1 PUSH2 0x100 EXP SWAP1 DIV PUSH20 0xFFFFFFFFFFFFFFFFFFFFFFFFFFFFFFFFFFFFFFFF AND DUP2 JUMP JUMPDEST PUSH1 0x0 DUP1 PUSH32 0x0 PUSH20 0xFFFFFFFFFFFFFFFFFFFFFFFFFFFFFFFFFFFFFFFF AND PUSH4 0x70A08231 ADDRESS PUSH1 0x40 MLOAD DUP3 PUSH4 0xFFFFFFFF AND PUSH1 0xE0 SHL DUP2 MSTORE PUSH1 0x4 ADD PUSH2 0x30A SWAP2 SWAP1 PUSH2 0x1039 JUMP JUMPDEST PUSH1 0x20 PUSH1 0x40 MLOAD DUP1 DUP4 SUB DUP2 DUP7 DUP1 EXTCODESIZE ISZERO DUP1 ISZERO PUSH2 0x322 JUMPI PUSH1 0x0 DUP1 REVERT JUMPDEST POP GAS STATICCALL ISZERO DUP1 ISZERO PUSH2 0x336 JUMPI RETURNDATASIZE PUSH1 0x0 DUP1 RETURNDATACOPY RETURNDATASIZE PUSH1 0x0 REVERT JUMPDEST POP POP POP POP PUSH1 0x40 MLOAD RETURNDATASIZE PUSH1 0x1F NOT PUSH1 0x1F DUP3 ADD AND DUP3 ADD DUP1 PUSH1 0x40 MSTORE POP DUP2 ADD SWAP1 PUSH2 0x35A SWAP2 SWAP1 PUSH2 0xEAF JUMP JUMPDEST SWAP1 POP PUSH1 0x0 PUSH2 0x373 PUSH1 0x7 SLOAD DUP4 PUSH2 0x8CC SWAP1 SWAP2 SWAP1 PUSH4 0xFFFFFFFF AND JUMP JUMPDEST SWAP1 POP PUSH1 0x3 SLOAD TIMESTAMP LT ISZERO PUSH2 0x38A JUMPI PUSH1 0x0 SWAP3 POP POP POP PUSH2 0x40A JUMP JUMPDEST PUSH2 0x3A1 PUSH1 0x5 SLOAD PUSH1 0x4 SLOAD PUSH2 0x8CC SWAP1 SWAP2 SWAP1 PUSH4 0xFFFFFFFF AND JUMP JUMPDEST TIMESTAMP LT ISZERO DUP1 PUSH2 0x3BB JUMPI POP PUSH1 0x8 PUSH1 0x0 SWAP1 SLOAD SWAP1 PUSH2 0x100 EXP SWAP1 DIV PUSH1 0xFF AND JUMPDEST ISZERO PUSH2 0x3CA JUMPI DUP1 SWAP3 POP POP POP PUSH2 0x40A JUMP JUMPDEST PUSH2 0x405 PUSH1 0x5 SLOAD PUSH2 0x3F7 PUSH2 0x3E8 PUSH1 0x4 SLOAD TIMESTAMP PUSH2 0x8E2 SWAP1 SWAP2 SWAP1 PUSH4 0xFFFFFFFF AND JUMP JUMPDEST DUP5 PUSH2 0x8F8 SWAP1 SWAP2 SWAP1 PUSH4 0xFFFFFFFF AND JUMP JUMPDEST PUSH2 0x90E SWAP1 SWAP2 SWAP1 PUSH4 0xFFFFFFFF AND JUMP JUMPDEST SWAP3 POP POP POP JUMPDEST SWAP1 JUMP JUMPDEST PUSH1 0x0 PUSH2 0x42B PUSH1 0x7 SLOAD PUSH2 0x41D PUSH2 0x2AE JUMP JUMPDEST PUSH2 0x8E2 SWAP1 SWAP2 SWAP1 PUSH4 0xFFFFFFFF AND JUMP JUMPDEST SWAP1 POP SWAP1 JUMP JUMPDEST PUSH1 0x8 PUSH1 0x0 SWAP1 SLOAD SWAP1 PUSH2 0x100 EXP SWAP1 DIV PUSH1 0xFF AND DUP2 JUMP JUMPDEST PUSH2 0x44B PUSH2 0x924 JUMP JUMPDEST PUSH2 0x455 PUSH1 0x0 PUSH2 0x9A2 JUMP JUMPDEST JUMP JUMPDEST PUSH1 0x0 PUSH20 0xFFFFFFFFFFFFFFFFFFFFFFFFFFFFFFFFFFFFFFFF AND DUP6 PUSH20 0xFFFFFFFFFFFFFFFFFFFFFFFFFFFFFFFFFFFFFFFF AND EQ ISZERO PUSH2 0x491 JUMPI PUSH1 0x0 DUP1 REVERT JUMPDEST DUP2 DUP4 GT ISZERO PUSH2 0x49E JUMPI PUSH1 0x0 DUP1 REVERT JUMPDEST DUP5 PUSH1 0x2 PUSH1 0x0 PUSH2 0x100 EXP DUP2 SLOAD DUP2 PUSH20 0xFFFFFFFFFFFFFFFFFFFFFFFFFFFFFFFFFFFFFFFF MUL NOT AND SWAP1 DUP4 PUSH20 0xFFFFFFFFFFFFFFFFFFFFFFFFFFFFFFFFFFFFFFFF AND MUL OR SWAP1 SSTORE POP DUP1 PUSH1 0x6 PUSH1 0x0 PUSH2 0x100 EXP DUP2 SLOAD DUP2 PUSH1 0xFF MUL NOT AND SWAP1 DUP4 ISZERO ISZERO MUL OR SWAP1 SSTORE POP DUP2 PUSH1 0x5 DUP2 SWAP1 SSTORE POP PUSH2 0x513 DUP4 DUP6 PUSH2 0x8CC SWAP1 SWAP2 SWAP1 PUSH4 0xFFFFFFFF AND JUMP JUMPDEST PUSH1 0x3 DUP2 SWAP1 SSTORE POP DUP4 PUSH1 0x4 DUP2 SWAP1 SSTORE POP POP POP POP POP POP JUMP JUMPDEST PUSH1 0x0 PUSH2 0x531 PUSH2 0x40D JUMP JUMPDEST SWAP1 POP PUSH1 0x0 DUP2 GT PUSH2 0x540 JUMPI PUSH1 0x0 DUP1 REVERT JUMPDEST DUP1 PUSH1 0x7 DUP2 SWAP1 SSTORE POP PUSH2 0x5B4 PUSH1 0x2 PUSH1 0x0 SWAP1 SLOAD SWAP1 PUSH2 0x100 EXP SWAP1 DIV PUSH20 0xFFFFFFFFFFFFFFFFFFFFFFFFFFFFFFFFFFFFFFFF AND DUP3 PUSH32 0x0 PUSH20 0xFFFFFFFFFFFFFFFFFFFFFFFFFFFFFFFFFFFFFFFF AND PUSH2 0xA66 SWAP1 SWAP3 SWAP2 SWAP1 PUSH4 0xFFFFFFFF AND JUMP JUMPDEST PUSH32 0xFB81F9B30D73D830C3544B34D827C08142579EE75710B490BAB0B3995468C565 DUP2 PUSH1 0x40 MLOAD PUSH2 0x5E3 SWAP2 SWAP1 PUSH2 0x115A JUMP JUMPDEST PUSH1 0x40 MLOAD DUP1 SWAP2 SUB SWAP1 LOG1 POP JUMP JUMPDEST PUSH1 0x6 PUSH1 0x0 SWAP1 SLOAD SWAP1 PUSH2 0x100 EXP SWAP1 DIV PUSH1 0xFF AND DUP2 JUMP JUMPDEST PUSH1 0x0 DUP1 PUSH1 0x0 SWAP1 SLOAD SWAP1 PUSH2 0x100 EXP SWAP1 DIV PUSH20 0xFFFFFFFFFFFFFFFFFFFFFFFFFFFFFFFFFFFFFFFF AND SWAP1 POP SWAP1 JUMP JUMPDEST PUSH1 0x7 SLOAD DUP2 JUMP JUMPDEST PUSH2 0x638 PUSH2 0x924 JUMP JUMPDEST PUSH1 0x6 PUSH1 0x0 SWAP1 SLOAD SWAP1 PUSH2 0x100 EXP SWAP1 DIV PUSH1 0xFF AND PUSH2 0x651 JUMPI PUSH1 0x0 DUP1 REVERT JUMPDEST PUSH1 0x8 PUSH1 0x0 SWAP1 SLOAD SWAP1 PUSH2 0x100 EXP SWAP1 DIV PUSH1 0xFF AND ISZERO PUSH2 0x66B JUMPI PUSH1 0x0 DUP1 REVERT JUMPDEST PUSH1 0x0 PUSH32 0x0 PUSH20 0xFFFFFFFFFFFFFFFFFFFFFFFFFFFFFFFFFFFFFFFF AND PUSH4 0x70A08231 ADDRESS PUSH1 0x40 MLOAD DUP3 PUSH4 0xFFFFFFFF AND PUSH1 0xE0 SHL DUP2 MSTORE PUSH1 0x4 ADD PUSH2 0x6C6 SWAP2 SWAP1 PUSH2 0x1039 JUMP JUMPDEST PUSH1 0x20 PUSH1 0x40 MLOAD DUP1 DUP4 SUB DUP2 DUP7 DUP1 EXTCODESIZE ISZERO DUP1 ISZERO PUSH2 0x6DE JUMPI PUSH1 0x0 DUP1 REVERT JUMPDEST POP GAS STATICCALL ISZERO DUP1 ISZERO PUSH2 0x6F2 JUMPI RETURNDATASIZE PUSH1 0x0 DUP1 RETURNDATACOPY RETURNDATASIZE PUSH1 0x0 REVERT JUMPDEST POP POP POP POP PUSH1 0x40 MLOAD RETURNDATASIZE PUSH1 0x1F NOT PUSH1 0x1F DUP3 ADD AND DUP3 ADD DUP1 PUSH1 0x40 MSTORE POP DUP2 ADD SWAP1 PUSH2 0x716 SWAP2 SWAP1 PUSH2 0xEAF JUMP JUMPDEST SWAP1 POP PUSH1 0x0 PUSH2 0x722 PUSH2 0x40D JUMP JUMPDEST SWAP1 POP PUSH1 0x0 PUSH2 0x739 DUP3 DUP5 PUSH2 0x8E2 SWAP1 SWAP2 SWAP1 PUSH4 0xFFFFFFFF AND JUMP JUMPDEST SWAP1 POP PUSH1 0x1 PUSH1 0x8 PUSH1 0x0 PUSH2 0x100 EXP DUP2 SLOAD DUP2 PUSH1 0xFF MUL NOT AND SWAP1 DUP4 ISZERO ISZERO MUL OR SWAP1 SSTORE POP PUSH1 0x0 PUSH2 0x760 PUSH2 0x601 JUMP JUMPDEST SWAP1 POP PUSH32 0x0 PUSH20 0xFFFFFFFFFFFFFFFFFFFFFFFFFFFFFFFFFFFFFFFF AND PUSH4 0xA9059CBB DUP3 DUP5 PUSH1 0x40 MLOAD DUP4 PUSH4 0xFFFFFFFF AND PUSH1 0xE0 SHL DUP2 MSTORE PUSH1 0x4 ADD PUSH2 0x7BD SWAP3 SWAP2 SWAP1 PUSH2 0x1054 JUMP JUMPDEST PUSH1 0x20 PUSH1 0x40 MLOAD DUP1 DUP4 SUB DUP2 PUSH1 0x0 DUP8 DUP1 EXTCODESIZE ISZERO DUP1 ISZERO PUSH2 0x7D7 JUMPI PUSH1 0x0 DUP1 REVERT JUMPDEST POP GAS CALL ISZERO DUP1 ISZERO PUSH2 0x7EB JUMPI RETURNDATASIZE PUSH1 0x0 DUP1 RETURNDATACOPY RETURNDATASIZE PUSH1 0x0 REVERT JUMPDEST POP POP POP POP PUSH1 0x40 MLOAD RETURNDATASIZE PUSH1 0x1F NOT PUSH1 0x1F DUP3 ADD AND DUP3 ADD DUP1 PUSH1 0x40 MSTORE POP DUP2 ADD SWAP1 PUSH2 0x80F SWAP2 SWAP1 PUSH2 0xE82 JUMP JUMPDEST POP PUSH32 0x44825A4B2DF8ACB19CE4E1AFBA9AA850C8B65CDB7942E2078F27D0B0960EFEE6 PUSH1 0x40 MLOAD PUSH1 0x40 MLOAD DUP1 SWAP2 SUB SWAP1 LOG1 POP POP POP POP JUMP JUMPDEST PUSH1 0x4 SLOAD DUP2 JUMP JUMPDEST PUSH2 0x850 PUSH2 0x924 JUMP JUMPDEST PUSH1 0x0 PUSH20 0xFFFFFFFFFFFFFFFFFFFFFFFFFFFFFFFFFFFFFFFF AND DUP2 PUSH20 0xFFFFFFFFFFFFFFFFFFFFFFFFFFFFFFFFFFFFFFFF AND EQ ISZERO PUSH2 0x8C0 JUMPI PUSH1 0x40 MLOAD PUSH32 0x8C379A000000000000000000000000000000000000000000000000000000000 DUP2 MSTORE PUSH1 0x4 ADD PUSH2 0x8B7 SWAP1 PUSH2 0x10BA JUMP JUMPDEST PUSH1 0x40 MLOAD DUP1 SWAP2 SUB SWAP1 REVERT JUMPDEST PUSH2 0x8C9 DUP2 PUSH2 0x9A2 JUMP JUMPDEST POP JUMP JUMPDEST PUSH1 0x0 DUP2 DUP4 PUSH2 0x8DA SWAP2 SWAP1 PUSH2 0x11A7 JUMP JUMPDEST SWAP1 POP SWAP3 SWAP2 POP POP JUMP JUMPDEST PUSH1 0x0 DUP2 DUP4 PUSH2 0x8F0 SWAP2 SWAP1 PUSH2 0x1288 JUMP JUMPDEST SWAP1 POP SWAP3 SWAP2 POP POP JUMP JUMPDEST PUSH1 0x0 DUP2 DUP4 PUSH2 0x906 SWAP2 SWAP1 PUSH2 0x122E JUMP JUMPDEST SWAP1 POP SWAP3 SWAP2 POP POP JUMP JUMPDEST PUSH1 0x0 DUP2 DUP4 PUSH2 0x91C SWAP2 SWAP1 PUSH2 0x11FD JUMP JUMPDEST SWAP1 POP SWAP3 SWAP2 POP POP JUMP JUMPDEST PUSH2 0x92C PUSH2 0xAEC JUMP JUMPDEST PUSH20 0xFFFFFFFFFFFFFFFFFFFFFFFFFFFFFFFFFFFFFFFF AND PUSH2 0x94A PUSH2 0x601 JUMP JUMPDEST PUSH20 0xFFFFFFFFFFFFFFFFFFFFFFFFFFFFFFFFFFFFFFFF AND EQ PUSH2 0x9A0 JUMPI PUSH1 0x40 MLOAD PUSH32 0x8C379A000000000000000000000000000000000000000000000000000000000 DUP2 MSTORE PUSH1 0x4 ADD PUSH2 0x997 SWAP1 PUSH2 0x10FA JUMP JUMPDEST PUSH1 0x40 MLOAD DUP1 SWAP2 SUB SWAP1 REVERT JUMPDEST JUMP JUMPDEST PUSH1 0x0 DUP1 PUSH1 0x0 SWAP1 SLOAD SWAP1 PUSH2 0x100 EXP SWAP1 DIV PUSH20 0xFFFFFFFFFFFFFFFFFFFFFFFFFFFFFFFFFFFFFFFF AND SWAP1 POP DUP2 PUSH1 0x0 DUP1 PUSH2 0x100 EXP DUP2 SLOAD DUP2 PUSH20 0xFFFFFFFFFFFFFFFFFFFFFFFFFFFFFFFFFFFFFFFF MUL NOT AND SWAP1 DUP4 PUSH20 0xFFFFFFFFFFFFFFFFFFFFFFFFFFFFFFFFFFFFFFFF AND MUL OR SWAP1 SSTORE POP DUP2 PUSH20 0xFFFFFFFFFFFFFFFFFFFFFFFFFFFFFFFFFFFFFFFF AND DUP2 PUSH20 0xFFFFFFFFFFFFFFFFFFFFFFFFFFFFFFFFFFFFFFFF AND PUSH32 0x8BE0079C531659141344CD1FD0A4F28419497F9722A3DAAFE3B4186F6B6457E0 PUSH1 0x40 MLOAD PUSH1 0x40 MLOAD DUP1 SWAP2 SUB SWAP1 LOG3 POP POP JUMP JUMPDEST PUSH2 0xAE7 DUP4 PUSH4 0xA9059CBB PUSH1 0xE0 SHL DUP5 DUP5 PUSH1 0x40 MLOAD PUSH1 0x24 ADD PUSH2 0xA85 SWAP3 SWAP2 SWAP1 PUSH2 0x1054 JUMP JUMPDEST PUSH1 0x40 MLOAD PUSH1 0x20 DUP2 DUP4 SUB SUB DUP2 MSTORE SWAP1 PUSH1 0x40 MSTORE SWAP1 PUSH28 0xFFFFFFFFFFFFFFFFFFFFFFFFFFFFFFFFFFFFFFFFFFFFFFFFFFFFFFFF NOT AND PUSH1 0x20 DUP3 ADD DUP1 MLOAD PUSH28 0xFFFFFFFFFFFFFFFFFFFFFFFFFFFFFFFFFFFFFFFFFFFFFFFFFFFFFFFF DUP4 DUP2 DUP4 AND OR DUP4 MSTORE POP POP POP POP PUSH2 0xAF4 JUMP JUMPDEST POP POP POP JUMP JUMPDEST PUSH1 0x0 CALLER SWAP1 POP SWAP1 JUMP JUMPDEST PUSH1 0x0 PUSH2 0xB56 DUP3 PUSH1 0x40 MLOAD DUP1 PUSH1 0x40 ADD PUSH1 0x40 MSTORE DUP1 PUSH1 0x20 DUP2 MSTORE PUSH1 0x20 ADD PUSH32 0x5361666545524332303A206C6F772D6C6576656C2063616C6C206661696C6564 DUP2 MSTORE POP DUP6 PUSH20 0xFFFFFFFFFFFFFFFFFFFFFFFFFFFFFFFFFFFFFFFF AND PUSH2 0xBBB SWAP1 SWAP3 SWAP2 SWAP1 PUSH4 0xFFFFFFFF AND JUMP JUMPDEST SWAP1 POP PUSH1 0x0 DUP2 MLOAD GT ISZERO PUSH2 0xBB6 JUMPI DUP1 DUP1 PUSH1 0x20 ADD SWAP1 MLOAD DUP2 ADD SWAP1 PUSH2 0xB76 SWAP2 SWAP1 PUSH2 0xE82 JUMP JUMPDEST PUSH2 0xBB5 JUMPI PUSH1 0x40 MLOAD PUSH32 0x8C379A000000000000000000000000000000000000000000000000000000000 DUP2 MSTORE PUSH1 0x4 ADD PUSH2 0xBAC SWAP1 PUSH2 0x113A JUMP JUMPDEST PUSH1 0x40 MLOAD DUP1 SWAP2 SUB SWAP1 REVERT JUMPDEST JUMPDEST POP POP POP JUMP JUMPDEST PUSH1 0x60 PUSH2 0xBCA DUP5 DUP5 PUSH1 0x0 DUP6 PUSH2 0xBD3 JUMP JUMPDEST SWAP1 POP SWAP4 SWAP3 POP POP POP JUMP JUMPDEST PUSH1 0x60 DUP3 SELFBALANCE LT ISZERO PUSH2 0xC18 JUMPI PUSH1 0x40 MLOAD PUSH32 0x8C379A000000000000000000000000000000000000000000000000000000000 DUP2 MSTORE PUSH1 0x4 ADD PUSH2 0xC0F SWAP1 PUSH2 0x10DA JUMP JUMPDEST PUSH1 0x40 MLOAD DUP1 SWAP2 SUB SWAP1 REVERT JUMPDEST PUSH2 0xC21 DUP6 PUSH2 0xCE7 JUMP JUMPDEST PUSH2 0xC60 JUMPI PUSH1 0x40 MLOAD PUSH32 0x8C379A000000000000000000000000000000000000000000000000000000000 DUP2 MSTORE PUSH1 0x4 ADD PUSH2 0xC57 SWAP1 PUSH2 0x111A JUMP JUMPDEST PUSH1 0x40 MLOAD DUP1 SWAP2 SUB SWAP1 REVERT JUMPDEST PUSH1 0x0 DUP1 DUP7 PUSH20 0xFFFFFFFFFFFFFFFFFFFFFFFFFFFFFFFFFFFFFFFF AND DUP6 DUP8 PUSH1 0x40 MLOAD PUSH2 0xC89 SWAP2 SWAP1 PUSH2 0x1022 JUMP JUMPDEST PUSH1 0x0 PUSH1 0x40 MLOAD DUP1 DUP4 SUB DUP2 DUP6 DUP8 GAS CALL SWAP3 POP POP POP RETURNDATASIZE DUP1 PUSH1 0x0 DUP2 EQ PUSH2 0xCC6 JUMPI PUSH1 0x40 MLOAD SWAP2 POP PUSH1 0x1F NOT PUSH1 0x3F RETURNDATASIZE ADD AND DUP3 ADD PUSH1 0x40 MSTORE RETURNDATASIZE DUP3 MSTORE RETURNDATASIZE PUSH1 0x0 PUSH1 0x20 DUP5 ADD RETURNDATACOPY PUSH2 0xCCB JUMP JUMPDEST PUSH1 0x60 SWAP2 POP JUMPDEST POP SWAP2 POP SWAP2 POP PUSH2 0xCDB DUP3 DUP3 DUP7 PUSH2 0xD0A JUMP JUMPDEST SWAP3 POP POP POP SWAP5 SWAP4 POP POP POP POP JUMP JUMPDEST PUSH1 0x0 DUP1 DUP3 PUSH20 0xFFFFFFFFFFFFFFFFFFFFFFFFFFFFFFFFFFFFFFFF AND EXTCODESIZE GT SWAP1 POP SWAP2 SWAP1 POP JUMP JUMPDEST PUSH1 0x60 DUP4 ISZERO PUSH2 0xD1A JUMPI DUP3 SWAP1 POP PUSH2 0xD6A JUMP JUMPDEST PUSH1 0x0 DUP4 MLOAD GT ISZERO PUSH2 0xD2D JUMPI DUP3 MLOAD DUP1 DUP5 PUSH1 0x20 ADD REVERT JUMPDEST DUP2 PUSH1 0x40 MLOAD PUSH32 0x8C379A000000000000000000000000000000000000000000000000000000000 DUP2 MSTORE PUSH1 0x4 ADD PUSH2 0xD61 SWAP2 SWAP1 PUSH2 0x1098 JUMP JUMPDEST PUSH1 0x40 MLOAD DUP1 SWAP2 SUB SWAP1 REVERT JUMPDEST SWAP4 SWAP3 POP POP POP JUMP JUMPDEST PUSH1 0x0 DUP2 CALLDATALOAD SWAP1 POP PUSH2 0xD80 DUP2 PUSH2 0x14EA JUMP JUMPDEST SWAP3 SWAP2 POP POP JUMP JUMPDEST PUSH1 0x0 DUP2 CALLDATALOAD SWAP1 POP PUSH2 0xD95 DUP2 PUSH2 0x1501 JUMP JUMPDEST SWAP3 SWAP2 POP POP JUMP JUMPDEST PUSH1 0x0 DUP2 MLOAD SWAP1 POP PUSH2 0xDAA DUP2 PUSH2 0x1501 JUMP JUMPDEST SWAP3 SWAP2 POP POP JUMP JUMPDEST PUSH1 0x0 DUP2 CALLDATALOAD SWAP1 POP PUSH2 0xDBF DUP2 PUSH2 0x1518 JUMP JUMPDEST SWAP3 SWAP2 POP POP JUMP JUMPDEST PUSH1 0x0 DUP2 MLOAD SWAP1 POP PUSH2 0xDD4 DUP2 PUSH2 0x1518 JUMP JUMPDEST SWAP3 SWAP2 POP POP JUMP JUMPDEST PUSH1 0x0 PUSH1 0x20 DUP3 DUP5 SUB SLT ISZERO PUSH2 0xDF0 JUMPI PUSH2 0xDEF PUSH2 0x1395 JUMP JUMPDEST JUMPDEST PUSH1 0x0 PUSH2 0xDFE DUP5 DUP3 DUP6 ADD PUSH2 0xD71 JUMP JUMPDEST SWAP2 POP POP SWAP3 SWAP2 POP POP JUMP JUMPDEST PUSH1 0x0 DUP1 PUSH1 0x0 DUP1 PUSH1 0x0 PUSH1 0xA0 DUP7 DUP9 SUB SLT ISZERO PUSH2 0xE23 JUMPI PUSH2 0xE22 PUSH2 0x1395 JUMP JUMPDEST JUMPDEST PUSH1 0x0 PUSH2 0xE31 DUP9 DUP3 DUP10 ADD PUSH2 0xD71 JUMP JUMPDEST SWAP6 POP POP PUSH1 0x20 PUSH2 0xE42 DUP9 DUP3 DUP10 ADD PUSH2 0xDB0 JUMP JUMPDEST SWAP5 POP POP PUSH1 0x40 PUSH2 0xE53 DUP9 DUP3 DUP10 ADD PUSH2 0xDB0 JUMP JUMPDEST SWAP4 POP POP PUSH1 0x60 PUSH2 0xE64 DUP9 DUP3 DUP10 ADD PUSH2 0xDB0 JUMP JUMPDEST SWAP3 POP POP PUSH1 0x80 PUSH2 0xE75 DUP9 DUP3 DUP10 ADD PUSH2 0xD86 JUMP JUMPDEST SWAP2 POP POP SWAP3 SWAP6 POP SWAP3 SWAP6 SWAP1 SWAP4 POP JUMP JUMPDEST PUSH1 0x0 PUSH1 0x20 DUP3 DUP5 SUB SLT ISZERO PUSH2 0xE98 JUMPI PUSH2 0xE97 PUSH2 0x1395 JUMP JUMPDEST JUMPDEST PUSH1 0x0 PUSH2 0xEA6 DUP5 DUP3 DUP6 ADD PUSH2 0xD9B JUMP JUMPDEST SWAP2 POP POP SWAP3 SWAP2 POP POP JUMP JUMPDEST PUSH1 0x0 PUSH1 0x20 DUP3 DUP5 SUB SLT ISZERO PUSH2 0xEC5 JUMPI PUSH2 0xEC4 PUSH2 0x1395 JUMP JUMPDEST JUMPDEST PUSH1 0x0 PUSH2 0xED3 DUP5 DUP3 DUP6 ADD PUSH2 0xDC5 JUMP JUMPDEST SWAP2 POP POP SWAP3 SWAP2 POP POP JUMP JUMPDEST PUSH2 0xEE5 DUP2 PUSH2 0x12BC JUMP JUMPDEST DUP3 MSTORE POP POP JUMP JUMPDEST PUSH2 0xEF4 DUP2 PUSH2 0x12CE JUMP JUMPDEST DUP3 MSTORE POP POP JUMP JUMPDEST PUSH1 0x0 PUSH2 0xF05 DUP3 PUSH2 0x1175 JUMP JUMPDEST PUSH2 0xF0F DUP2 DUP6 PUSH2 0x118B JUMP JUMPDEST SWAP4 POP PUSH2 0xF1F DUP2 DUP6 PUSH1 0x20 DUP7 ADD PUSH2 0x1304 JUMP JUMPDEST DUP1 DUP5 ADD SWAP2 POP POP SWAP3 SWAP2 POP POP JUMP JUMPDEST PUSH1 0x0 PUSH2 0xF36 DUP3 PUSH2 0x1180 JUMP JUMPDEST PUSH2 0xF40 DUP2 DUP6 PUSH2 0x1196 JUMP JUMPDEST SWAP4 POP PUSH2 0xF50 DUP2 DUP6 PUSH1 0x20 DUP7 ADD PUSH2 0x1304 JUMP JUMPDEST PUSH2 0xF59 DUP2 PUSH2 0x139A JUMP JUMPDEST DUP5 ADD SWAP2 POP POP SWAP3 SWAP2 POP POP JUMP JUMPDEST PUSH1 0x0 PUSH2 0xF71 PUSH1 0x26 DUP4 PUSH2 0x1196 JUMP JUMPDEST SWAP2 POP PUSH2 0xF7C DUP3 PUSH2 0x13AB JUMP JUMPDEST PUSH1 0x40 DUP3 ADD SWAP1 POP SWAP2 SWAP1 POP JUMP JUMPDEST PUSH1 0x0 PUSH2 0xF94 PUSH1 0x26 DUP4 PUSH2 0x1196 JUMP JUMPDEST SWAP2 POP PUSH2 0xF9F DUP3 PUSH2 0x13FA JUMP JUMPDEST PUSH1 0x40 DUP3 ADD SWAP1 POP SWAP2 SWAP1 POP JUMP JUMPDEST PUSH1 0x0 PUSH2 0xFB7 PUSH1 0x20 DUP4 PUSH2 0x1196 JUMP JUMPDEST SWAP2 POP PUSH2 0xFC2 DUP3 PUSH2 0x1449 JUMP JUMPDEST PUSH1 0x20 DUP3 ADD SWAP1 POP SWAP2 SWAP1 POP JUMP JUMPDEST PUSH1 0x0 PUSH2 0xFDA PUSH1 0x1D DUP4 PUSH2 0x1196 JUMP JUMPDEST SWAP2 POP PUSH2 0xFE5 DUP3 PUSH2 0x1472 JUMP JUMPDEST PUSH1 0x20 DUP3 ADD SWAP1 POP SWAP2 SWAP1 POP JUMP JUMPDEST PUSH1 0x0 PUSH2 0xFFD PUSH1 0x2A DUP4 PUSH2 0x1196 JUMP JUMPDEST SWAP2 POP PUSH2 0x1008 DUP3 PUSH2 0x149B JUMP JUMPDEST PUSH1 0x40 DUP3 ADD SWAP1 POP SWAP2 SWAP1 POP JUMP JUMPDEST PUSH2 0x101C DUP2 PUSH2 0x12FA JUMP JUMPDEST DUP3 MSTORE POP POP JUMP JUMPDEST PUSH1 0x0 PUSH2 0x102E DUP3 DUP5 PUSH2 0xEFA JUMP JUMPDEST SWAP2 POP DUP2 SWAP1 POP SWAP3 SWAP2 POP POP JUMP JUMPDEST PUSH1 0x0 PUSH1 0x20 DUP3 ADD SWAP1 POP PUSH2 0x104E PUSH1 0x0 DUP4 ADD DUP5 PUSH2 0xEDC JUMP JUMPDEST SWAP3 SWAP2 POP POP JUMP JUMPDEST PUSH1 0x0 PUSH1 0x40 DUP3 ADD SWAP1 POP PUSH2 0x1069 PUSH1 0x0 DUP4 ADD DUP6 PUSH2 0xEDC JUMP JUMPDEST PUSH2 0x1076 PUSH1 0x20 DUP4 ADD DUP5 PUSH2 0x1013 JUMP JUMPDEST SWAP4 SWAP3 POP POP POP JUMP JUMPDEST PUSH1 0x0 PUSH1 0x20 DUP3 ADD SWAP1 POP PUSH2 0x1092 PUSH1 0x0 DUP4 ADD DUP5 PUSH2 0xEEB JUMP JUMPDEST SWAP3 SWAP2 POP POP JUMP JUMPDEST PUSH1 0x0 PUSH1 0x20 DUP3 ADD SWAP1 POP DUP2 DUP2 SUB PUSH1 0x0 DUP4 ADD MSTORE PUSH2 0x10B2 DUP2 DUP5 PUSH2 0xF2B JUMP JUMPDEST SWAP1 POP SWAP3 SWAP2 POP POP JUMP JUMPDEST PUSH1 0x0 PUSH1 0x20 DUP3 ADD SWAP1 POP DUP2 DUP2 SUB PUSH1 0x0 DUP4 ADD MSTORE PUSH2 0x10D3 DUP2 PUSH2 0xF64 JUMP JUMPDEST SWAP1 POP SWAP2 SWAP1 POP JUMP JUMPDEST PUSH1 0x0 PUSH1 0x20 DUP3 ADD SWAP1 POP DUP2 DUP2 SUB PUSH1 0x0 DUP4 ADD MSTORE PUSH2 0x10F3 DUP2 PUSH2 0xF87 JUMP JUMPDEST SWAP1 POP SWAP2 SWAP1 POP JUMP JUMPDEST PUSH1 0x0 PUSH1 0x20 DUP3 ADD SWAP1 POP DUP2 DUP2 SUB PUSH1 0x0 DUP4 ADD MSTORE PUSH2 0x1113 DUP2 PUSH2 0xFAA JUMP JUMPDEST SWAP1 POP SWAP2 SWAP1 POP JUMP JUMPDEST PUSH1 0x0 PUSH1 0x20 DUP3 ADD SWAP1 POP DUP2 DUP2 SUB PUSH1 0x0 DUP4 ADD MSTORE PUSH2 0x1133 DUP2 PUSH2 0xFCD JUMP JUMPDEST SWAP1 POP SWAP2 SWAP1 POP JUMP JUMPDEST PUSH1 0x0 PUSH1 0x20 DUP3 ADD SWAP1 POP DUP2 DUP2 SUB PUSH1 0x0 DUP4 ADD MSTORE PUSH2 0x1153 DUP2 PUSH2 0xFF0 JUMP JUMPDEST SWAP1 POP SWAP2 SWAP1 POP JUMP JUMPDEST PUSH1 0x0 PUSH1 0x20 DUP3 ADD SWAP1 POP PUSH2 0x116F PUSH1 0x0 DUP4 ADD DUP5 PUSH2 0x1013 JUMP JUMPDEST SWAP3 SWAP2 POP POP JUMP JUMPDEST PUSH1 0x0 DUP2 MLOAD SWAP1 POP SWAP2 SWAP1 POP JUMP JUMPDEST PUSH1 0x0 DUP2 MLOAD SWAP1 POP SWAP2 SWAP1 POP JUMP JUMPDEST PUSH1 0x0 DUP2 SWAP1 POP SWAP3 SWAP2 POP POP JUMP JUMPDEST PUSH1 0x0 DUP3 DUP3 MSTORE PUSH1 0x20 DUP3 ADD SWAP1 POP SWAP3 SWAP2 POP POP JUMP JUMPDEST PUSH1 0x0 PUSH2 0x11B2 DUP3 PUSH2 0x12FA JUMP JUMPDEST SWAP2 POP PUSH2 0x11BD DUP4 PUSH2 0x12FA JUMP JUMPDEST SWAP3 POP DUP3 PUSH32 0xFFFFFFFFFFFFFFFFFFFFFFFFFFFFFFFFFFFFFFFFFFFFFFFFFFFFFFFFFFFFFFFF SUB DUP3 GT ISZERO PUSH2 0x11F2 JUMPI PUSH2 0x11F1 PUSH2 0x1337 JUMP JUMPDEST JUMPDEST DUP3 DUP3 ADD SWAP1 POP SWAP3 SWAP2 POP POP JUMP JUMPDEST PUSH1 0x0 PUSH2 0x1208 DUP3 PUSH2 0x12FA JUMP JUMPDEST SWAP2 POP PUSH2 0x1213 DUP4 PUSH2 0x12FA JUMP JUMPDEST SWAP3 POP DUP3 PUSH2 0x1223 JUMPI PUSH2 0x1222 PUSH2 0x1366 JUMP JUMPDEST JUMPDEST DUP3 DUP3 DIV SWAP1 POP SWAP3 SWAP2 POP POP JUMP JUMPDEST PUSH1 0x0 PUSH2 0x1239 DUP3 PUSH2 0x12FA JUMP JUMPDEST SWAP2 POP PUSH2 0x1244 DUP4 PUSH2 0x12FA JUMP JUMPDEST SWAP3 POP DUP2 PUSH32 0xFFFFFFFFFFFFFFFFFFFFFFFFFFFFFFFFFFFFFFFFFFFFFFFFFFFFFFFFFFFFFFFF DIV DUP4 GT DUP3 ISZERO ISZERO AND ISZERO PUSH2 0x127D JUMPI PUSH2 0x127C PUSH2 0x1337 JUMP JUMPDEST JUMPDEST DUP3 DUP3 MUL SWAP1 POP SWAP3 SWAP2 POP POP JUMP JUMPDEST PUSH1 0x0 PUSH2 0x1293 DUP3 PUSH2 0x12FA JUMP JUMPDEST SWAP2 POP PUSH2 0x129E DUP4 PUSH2 0x12FA JUMP JUMPDEST SWAP3 POP DUP3 DUP3 LT ISZERO PUSH2 0x12B1 JUMPI PUSH2 0x12B0 PUSH2 0x1337 JUMP JUMPDEST JUMPDEST DUP3 DUP3 SUB SWAP1 POP SWAP3 SWAP2 POP POP JUMP JUMPDEST PUSH1 0x0 PUSH2 0x12C7 DUP3 PUSH2 0x12DA JUMP JUMPDEST SWAP1 POP SWAP2 SWAP1 POP JUMP JUMPDEST PUSH1 0x0 DUP2 ISZERO ISZERO SWAP1 POP SWAP2 SWAP1 POP JUMP JUMPDEST PUSH1 0x0 PUSH20 0xFFFFFFFFFFFFFFFFFFFFFFFFFFFFFFFFFFFFFFFF DUP3 AND SWAP1 POP SWAP2 SWAP1 POP JUMP JUMPDEST PUSH1 0x0 DUP2 SWAP1 POP SWAP2 SWAP1 POP JUMP JUMPDEST PUSH1 0x0 JUMPDEST DUP4 DUP2 LT ISZERO PUSH2 0x1322 JUMPI DUP1 DUP3 ADD MLOAD DUP2 DUP5 ADD MSTORE PUSH1 0x20 DUP2 ADD SWAP1 POP PUSH2 0x1307 JUMP JUMPDEST DUP4 DUP2 GT ISZERO PUSH2 0x1331 JUMPI PUSH1 0x0 DUP5 DUP5 ADD MSTORE JUMPDEST POP POP POP POP JUMP JUMPDEST PUSH32 0x4E487B7100000000000000000000000000000000000000000000000000000000 PUSH1 0x0 MSTORE PUSH1 0x11 PUSH1 0x4 MSTORE PUSH1 0x24 PUSH1 0x0 REVERT JUMPDEST PUSH32 0x4E487B7100000000000000000000000000000000000000000000000000000000 PUSH1 0x0 MSTORE PUSH1 0x12 PUSH1 0x4 MSTORE PUSH1 0x24 PUSH1 0x0 REVERT JUMPDEST PUSH1 0x0 DUP1 REVERT JUMPDEST PUSH1 0x0 PUSH1 0x1F NOT PUSH1 0x1F DUP4 ADD AND SWAP1 POP SWAP2 SWAP1 POP JUMP JUMPDEST PUSH32 0x4F776E61626C653A206E6577206F776E657220697320746865207A65726F2061 PUSH1 0x0 DUP3 ADD MSTORE PUSH32 0x6464726573730000000000000000000000000000000000000000000000000000 PUSH1 0x20 DUP3 ADD MSTORE POP JUMP JUMPDEST PUSH32 0x416464726573733A20696E73756666696369656E742062616C616E636520666F PUSH1 0x0 DUP3 ADD MSTORE PUSH32 0x722063616C6C0000000000000000000000000000000000000000000000000000 PUSH1 0x20 DUP3 ADD MSTORE POP JUMP JUMPDEST PUSH32 0x4F776E61626C653A2063616C6C6572206973206E6F7420746865206F776E6572 PUSH1 0x0 DUP3 ADD MSTORE POP JUMP JUMPDEST PUSH32 0x416464726573733A2063616C6C20746F206E6F6E2D636F6E7472616374000000 PUSH1 0x0 DUP3 ADD MSTORE POP JUMP JUMPDEST PUSH32 0x5361666545524332303A204552433230206F7065726174696F6E20646964206E PUSH1 0x0 DUP3 ADD MSTORE PUSH32 0x6F74207375636365656400000000000000000000000000000000000000000000 PUSH1 0x20 DUP3 ADD MSTORE POP JUMP JUMPDEST PUSH2 0x14F3 DUP2 PUSH2 0x12BC JUMP JUMPDEST DUP2 EQ PUSH2 0x14FE JUMPI PUSH1 0x0 DUP1 REVERT JUMPDEST POP JUMP JUMPDEST PUSH2 0x150A DUP2 PUSH2 0x12CE JUMP JUMPDEST DUP2 EQ PUSH2 0x1515 JUMPI PUSH1 0x0 DUP1 REVERT JUMPDEST POP JUMP JUMPDEST PUSH2 0x1521 DUP2 PUSH2 0x12FA JUMP JUMPDEST DUP2 EQ PUSH2 0x152C JUMPI PUSH1 0x0 DUP1 REVERT JUMPDEST POP JUMP INVALID LOG2 PUSH5 0x6970667358 0x22 SLT KECCAK256 0xB2 0x4F STOP 0xDF PUSH13 0x948B844B1BE5ECC7D72C0372B6 PUSH32 0x29B7CDCF228175722ABCA5540764736F6C634300080700330000000000000000 "
				},
				"gasEstimates": {
					"creation": {
						"codeDepositCost": "1095400",
						"executionCost": "infinite",
						"totalCost": "infinite"
					},
					"external": {
						"beneficiary()": "2582",
						"cliff()": "2475",
						"createtokenVesting(address,uint256,uint256,uint256,bool)": "infinite",
						"duration()": "2453",
						"owner()": "2611",
						"releasableAmount()": "infinite",
						"release()": "infinite",
						"released()": "2451",
						"renounceOwnership()": "30487",
						"revocable()": "2538",
						"revoke()": "infinite",
						"revoked()": "2538",
						"start()": "2495",
						"transferOwnership(address)": "30835",
						"vestedAmount()": "infinite"
					}
				},
				"methodIdentifiers": {
					"beneficiary()": "38af3eed",
					"cliff()": "13d033c0",
					"createtokenVesting(address,uint256,uint256,uint256,bool)": "7c0b2b74",
					"duration()": "0fb5a6b4",
					"owner()": "8da5cb5b",
					"releasableAmount()": "5b940081",
					"release()": "86d1a69f",
					"released()": "96132521",
					"renounceOwnership()": "715018a6",
					"revocable()": "872a7810",
					"revoke()": "b6549f75",
					"revoked()": "63d256ce",
					"start()": "be9a6555",
					"transferOwnership(address)": "f2fde38b",
					"vestedAmount()": "44b1231f"
				}
			},
			"storageLayout": {
				"storage": [
					{
						"astId": 7,
						"contract": "VestingContract.sol:_tokenVesting",
						"label": "_owner",
						"offset": 0,
						"slot": "0",
						"type": "t_address"
					},
					{
						"astId": 123,
						"contract": "VestingContract.sol:_tokenVesting",
						"label": "_status",
						"offset": 0,
						"slot": "1",
						"type": "t_uint256"
					},
					{
						"astId": 1708,
						"contract": "VestingContract.sol:_tokenVesting",
						"label": "beneficiary",
						"offset": 0,
						"slot": "2",
						"type": "t_address"
					},
					{
						"astId": 1710,
						"contract": "VestingContract.sol:_tokenVesting",
						"label": "cliff",
						"offset": 0,
						"slot": "3",
						"type": "t_uint256"
					},
					{
						"astId": 1712,
						"contract": "VestingContract.sol:_tokenVesting",
						"label": "start",
						"offset": 0,
						"slot": "4",
						"type": "t_uint256"
					},
					{
						"astId": 1714,
						"contract": "VestingContract.sol:_tokenVesting",
						"label": "duration",
						"offset": 0,
						"slot": "5",
						"type": "t_uint256"
					},
					{
						"astId": 1716,
						"contract": "VestingContract.sol:_tokenVesting",
						"label": "revocable",
						"offset": 0,
						"slot": "6",
						"type": "t_bool"
					},
					{
						"astId": 1718,
						"contract": "VestingContract.sol:_tokenVesting",
						"label": "released",
						"offset": 0,
						"slot": "7",
						"type": "t_uint256"
					},
					{
						"astId": 1720,
						"contract": "VestingContract.sol:_tokenVesting",
						"label": "revoked",
						"offset": 0,
						"slot": "8",
						"type": "t_bool"
					}
				],
				"types": {
					"t_address": {
						"encoding": "inplace",
						"label": "address",
						"numberOfBytes": "20"
					},
					"t_bool": {
						"encoding": "inplace",
						"label": "bool",
						"numberOfBytes": "1"
					},
					"t_uint256": {
						"encoding": "inplace",
						"label": "uint256",
						"numberOfBytes": "32"
					}
				}
			},
			"userdoc": {
				"kind": "user",
				"methods": {},
				"version": 1
			}
		}
	}
}