{
	"VestingContract.sol": {
		"TokenVesting": {
			"abi": [
				{
					"inputs": [
						{
							"internalType": "address",
							"name": "token_",
							"type": "address"
						}
					],
					"stateMutability": "nonpayable",
					"type": "constructor"
				},
				{
					"anonymous": false,
					"inputs": [
						{
							"indexed": true,
							"internalType": "address",
							"name": "previousOwner",
							"type": "address"
						},
						{
							"indexed": true,
							"internalType": "address",
							"name": "newOwner",
							"type": "address"
						}
					],
					"name": "OwnershipTransferred",
					"type": "event"
				},
				{
					"anonymous": false,
					"inputs": [
						{
							"indexed": false,
							"internalType": "uint256",
							"name": "amount",
							"type": "uint256"
						}
					],
					"name": "Released",
					"type": "event"
				},
				{
					"anonymous": false,
					"inputs": [],
					"name": "Revoked",
					"type": "event"
				},
				{
					"stateMutability": "payable",
					"type": "fallback"
				},
				{
					"inputs": [
						{
							"internalType": "address",
							"name": "holder",
							"type": "address"
						}
					],
					"name": "computeNextVestingScheduleIdForHolder",
					"outputs": [
						{
							"internalType": "bytes32",
							"name": "",
							"type": "bytes32"
						}
					],
					"stateMutability": "view",
					"type": "function"
				},
				{
					"inputs": [
						{
							"internalType": "bytes32",
							"name": "vestingScheduleId",
							"type": "bytes32"
						}
					],
					"name": "computeReleasableAmount",
					"outputs": [
						{
							"internalType": "uint256",
							"name": "",
							"type": "uint256"
						}
					],
					"stateMutability": "view",
					"type": "function"
				},
				{
					"inputs": [
						{
							"internalType": "address",
							"name": "holder",
							"type": "address"
						},
						{
							"internalType": "uint256",
							"name": "index",
							"type": "uint256"
						}
					],
					"name": "computeVestingScheduleIdForAddressAndIndex",
					"outputs": [
						{
							"internalType": "bytes32",
							"name": "",
							"type": "bytes32"
						}
					],
					"stateMutability": "pure",
					"type": "function"
				},
				{
					"inputs": [
						{
							"internalType": "address",
							"name": "_beneficiary",
							"type": "address"
						},
						{
							"internalType": "uint256",
							"name": "_start",
							"type": "uint256"
						},
						{
							"internalType": "uint256",
							"name": "_cliff",
							"type": "uint256"
						},
						{
							"internalType": "uint256",
							"name": "_duration",
							"type": "uint256"
						},
						{
							"internalType": "uint256",
							"name": "_slicePeriodSeconds",
							"type": "uint256"
						},
						{
							"internalType": "bool",
							"name": "_revocable",
							"type": "bool"
						},
						{
							"internalType": "uint256",
							"name": "_amount",
							"type": "uint256"
						}
					],
					"name": "createVestingSchedule",
					"outputs": [],
					"stateMutability": "nonpayable",
					"type": "function"
				},
				{
					"inputs": [
						{
							"internalType": "address",
							"name": "holder",
							"type": "address"
						}
					],
					"name": "getLastVestingScheduleForHolder",
					"outputs": [
						{
							"components": [
								{
									"internalType": "bool",
									"name": "initialized",
									"type": "bool"
								},
								{
									"internalType": "address",
									"name": "beneficiary",
									"type": "address"
								},
								{
									"internalType": "uint256",
									"name": "cliff",
									"type": "uint256"
								},
								{
									"internalType": "uint256",
									"name": "start",
									"type": "uint256"
								},
								{
									"internalType": "uint256",
									"name": "duration",
									"type": "uint256"
								},
								{
									"internalType": "uint256",
									"name": "slicePeriodSeconds",
									"type": "uint256"
								},
								{
									"internalType": "bool",
									"name": "revocable",
									"type": "bool"
								},
								{
									"internalType": "uint256",
									"name": "amountTotal",
									"type": "uint256"
								},
								{
									"internalType": "uint256",
									"name": "released",
									"type": "uint256"
								},
								{
									"internalType": "bool",
									"name": "revoked",
									"type": "bool"
								}
							],
							"internalType": "struct TokenVesting.VestingSchedule",
							"name": "",
							"type": "tuple"
						}
					],
					"stateMutability": "view",
					"type": "function"
				},
				{
					"inputs": [],
					"name": "getToken",
					"outputs": [
						{
							"internalType": "address",
							"name": "",
							"type": "address"
						}
					],
					"stateMutability": "view",
					"type": "function"
				},
				{
					"inputs": [
						{
							"internalType": "uint256",
							"name": "index",
							"type": "uint256"
						}
					],
					"name": "getVestingIdAtIndex",
					"outputs": [
						{
							"internalType": "bytes32",
							"name": "",
							"type": "bytes32"
						}
					],
					"stateMutability": "view",
					"type": "function"
				},
				{
					"inputs": [
						{
							"internalType": "bytes32",
							"name": "vestingScheduleId",
							"type": "bytes32"
						}
					],
					"name": "getVestingSchedule",
					"outputs": [
						{
							"components": [
								{
									"internalType": "bool",
									"name": "initialized",
									"type": "bool"
								},
								{
									"internalType": "address",
									"name": "beneficiary",
									"type": "address"
								},
								{
									"internalType": "uint256",
									"name": "cliff",
									"type": "uint256"
								},
								{
									"internalType": "uint256",
									"name": "start",
									"type": "uint256"
								},
								{
									"internalType": "uint256",
									"name": "duration",
									"type": "uint256"
								},
								{
									"internalType": "uint256",
									"name": "slicePeriodSeconds",
									"type": "uint256"
								},
								{
									"internalType": "bool",
									"name": "revocable",
									"type": "bool"
								},
								{
									"internalType": "uint256",
									"name": "amountTotal",
									"type": "uint256"
								},
								{
									"internalType": "uint256",
									"name": "released",
									"type": "uint256"
								},
								{
									"internalType": "bool",
									"name": "revoked",
									"type": "bool"
								}
							],
							"internalType": "struct TokenVesting.VestingSchedule",
							"name": "",
							"type": "tuple"
						}
					],
					"stateMutability": "view",
					"type": "function"
				},
				{
					"inputs": [
						{
							"internalType": "address",
							"name": "holder",
							"type": "address"
						},
						{
							"internalType": "uint256",
							"name": "index",
							"type": "uint256"
						}
					],
					"name": "getVestingScheduleByAddressAndIndex",
					"outputs": [
						{
							"components": [
								{
									"internalType": "bool",
									"name": "initialized",
									"type": "bool"
								},
								{
									"internalType": "address",
									"name": "beneficiary",
									"type": "address"
								},
								{
									"internalType": "uint256",
									"name": "cliff",
									"type": "uint256"
								},
								{
									"internalType": "uint256",
									"name": "start",
									"type": "uint256"
								},
								{
									"internalType": "uint256",
									"name": "duration",
									"type": "uint256"
								},
								{
									"internalType": "uint256",
									"name": "slicePeriodSeconds",
									"type": "uint256"
								},
								{
									"internalType": "bool",
									"name": "revocable",
									"type": "bool"
								},
								{
									"internalType": "uint256",
									"name": "amountTotal",
									"type": "uint256"
								},
								{
									"internalType": "uint256",
									"name": "released",
									"type": "uint256"
								},
								{
									"internalType": "bool",
									"name": "revoked",
									"type": "bool"
								}
							],
							"internalType": "struct TokenVesting.VestingSchedule",
							"name": "",
							"type": "tuple"
						}
					],
					"stateMutability": "view",
					"type": "function"
				},
				{
					"inputs": [],
					"name": "getVestingSchedulesCount",
					"outputs": [
						{
							"internalType": "uint256",
							"name": "",
							"type": "uint256"
						}
					],
					"stateMutability": "view",
					"type": "function"
				},
				{
					"inputs": [
						{
							"internalType": "address",
							"name": "_beneficiary",
							"type": "address"
						}
					],
					"name": "getVestingSchedulesCountByBeneficiary",
					"outputs": [
						{
							"internalType": "uint256",
							"name": "",
							"type": "uint256"
						}
					],
					"stateMutability": "view",
					"type": "function"
				},
				{
					"inputs": [],
					"name": "getVestingSchedulesTotalAmount",
					"outputs": [
						{
							"internalType": "uint256",
							"name": "",
							"type": "uint256"
						}
					],
					"stateMutability": "view",
					"type": "function"
				},
				{
					"inputs": [],
					"name": "getWithdrawableAmount",
					"outputs": [
						{
							"internalType": "uint256",
							"name": "",
							"type": "uint256"
						}
					],
					"stateMutability": "view",
					"type": "function"
				},
				{
					"inputs": [],
					"name": "owner",
					"outputs": [
						{
							"internalType": "address",
							"name": "",
							"type": "address"
						}
					],
					"stateMutability": "view",
					"type": "function"
				},
				{
					"inputs": [
						{
							"internalType": "bytes32",
							"name": "vestingScheduleId",
							"type": "bytes32"
						},
						{
							"internalType": "uint256",
							"name": "amount",
							"type": "uint256"
						}
					],
					"name": "release",
					"outputs": [],
					"stateMutability": "nonpayable",
					"type": "function"
				},
				{
					"inputs": [],
					"name": "renounceOwnership",
					"outputs": [],
					"stateMutability": "nonpayable",
					"type": "function"
				},
				{
					"inputs": [
						{
							"internalType": "bytes32",
							"name": "vestingScheduleId",
							"type": "bytes32"
						}
					],
					"name": "revoke",
					"outputs": [],
					"stateMutability": "nonpayable",
					"type": "function"
				},
				{
					"inputs": [
						{
							"internalType": "address",
							"name": "newOwner",
							"type": "address"
						}
					],
					"name": "transferOwnership",
					"outputs": [],
					"stateMutability": "nonpayable",
					"type": "function"
				},
				{
					"inputs": [
						{
							"internalType": "uint256",
							"name": "amount",
							"type": "uint256"
						}
					],
					"name": "withdraw",
					"outputs": [],
					"stateMutability": "nonpayable",
					"type": "function"
				},
				{
					"stateMutability": "payable",
					"type": "receive"
				}
			],
			"devdoc": {
				"kind": "dev",
				"methods": {
					"computeNextVestingScheduleIdForHolder(address)": {
						"details": "Computes the next vesting schedule identifier for a given holder address."
					},
					"computeReleasableAmount(bytes32)": {
						"returns": {
							"_0": "the vested amount"
						}
					},
					"computeVestingScheduleIdForAddressAndIndex(address,uint256)": {
						"details": "Computes the vesting schedule identifier for an address and an index."
					},
					"constructor": {
						"details": "Creates a vesting contract.",
						"params": {
							"token_": "address of the ERC20 token contract"
						}
					},
					"createVestingSchedule(address,uint256,uint256,uint256,uint256,bool,uint256)": {
						"params": {
							"_amount": "total amount of tokens to be released at the end of the vesting",
							"_beneficiary": "address of the beneficiary to whom vested tokens are transferred",
							"_cliff": "duration in seconds of the cliff in which tokens will begin to vest",
							"_duration": "duration in seconds of the period in which the tokens will vest",
							"_revocable": "whether the vesting is revocable or not",
							"_slicePeriodSeconds": "duration of a slice period for the vesting in seconds",
							"_start": "start time of the vesting period"
						}
					},
					"getLastVestingScheduleForHolder(address)": {
						"details": "Returns the last vesting schedule for a given holder address."
					},
					"getToken()": {
						"details": "Returns the address of the ERC20 token managed by the vesting contract."
					},
					"getVestingIdAtIndex(uint256)": {
						"details": "Returns the vesting schedule id at the given index.",
						"returns": {
							"_0": "the vesting id"
						}
					},
					"getVestingSchedule(bytes32)": {
						"returns": {
							"_0": "the vesting schedule structure information"
						}
					},
					"getVestingScheduleByAddressAndIndex(address,uint256)": {
						"returns": {
							"_0": "the vesting schedule structure information"
						}
					},
					"getVestingSchedulesCount()": {
						"details": "Returns the number of vesting schedules managed by this contract.",
						"returns": {
							"_0": "the number of vesting schedules"
						}
					},
					"getVestingSchedulesCountByBeneficiary(address)": {
						"details": "Returns the number of vesting schedules associated to a beneficiary.",
						"returns": {
							"_0": "the number of vesting schedules"
						}
					},
					"getVestingSchedulesTotalAmount()": {
						"returns": {
							"_0": "the total amount of vesting schedules"
						}
					},
					"getWithdrawableAmount()": {
						"details": "Returns the amount of tokens that can be withdrawn by the owner.",
						"returns": {
							"_0": "the amount of tokens"
						}
					},
					"owner()": {
						"details": "Returns the address of the current owner."
					},
					"release(bytes32,uint256)": {
						"params": {
							"amount": "the amount to release",
							"vestingScheduleId": "the vesting schedule identifier"
						}
					},
					"renounceOwnership()": {
						"details": "Leaves the contract without owner. It will not be possible to call `onlyOwner` functions anymore. Can only be called by the current owner. NOTE: Renouncing ownership will leave the contract without an owner, thereby removing any functionality that is only available to the owner."
					},
					"revoke(bytes32)": {
						"params": {
							"vestingScheduleId": "the vesting schedule identifier"
						}
					},
					"transferOwnership(address)": {
						"details": "Transfers ownership of the contract to a new account (`newOwner`). Can only be called by the current owner."
					},
					"withdraw(uint256)": {
						"params": {
							"amount": "the amount to withdraw"
						}
					}
				},
				"title": "TokenVesting",
				"version": 1
			},
			"evm": {
				"assembly": "    /* \"VestingContract.sol\":484:12519  contract TokenVesting is Ownable, ReentrancyGuard{\r... */\n  mstore(0x40, 0xa0)\n    /* \"VestingContract.sol\":2481:2593  constructor(address token_) {\r... */\n  callvalue\n  dup1\n  iszero\n  tag_1\n  jumpi\n  0x00\n  dup1\n  revert\ntag_1:\n  pop\n  mload(0x40)\n  sub(codesize, bytecodeSize)\n  dup1\n  bytecodeSize\n  dup4\n  codecopy\n  dup2\n  dup2\n  add\n  0x40\n  mstore\n  dup2\n  add\n  swap1\n  tag_2\n  swap2\n  swap1\n  tag_3\n  jump\t// in\ntag_2:\n    /* \"@openzeppelin/contracts/access/Ownable.sol\":936:968  _transferOwnership(_msgSender()) */\n  tag_8\n    /* \"@openzeppelin/contracts/access/Ownable.sol\":955:967  _msgSender() */\n  tag_9\n    /* \"@openzeppelin/contracts/access/Ownable.sol\":955:965  _msgSender */\n  shl(0x20, tag_10)\n    /* \"@openzeppelin/contracts/access/Ownable.sol\":955:967  _msgSender() */\n  0x20\n  shr\n  jump\t// in\ntag_9:\n    /* \"@openzeppelin/contracts/access/Ownable.sol\":936:954  _transferOwnership */\n  shl(0x20, tag_11)\n    /* \"@openzeppelin/contracts/access/Ownable.sol\":936:968  _transferOwnership(_msgSender()) */\n  0x20\n  shr\n  jump\t// in\ntag_8:\n    /* \"@openzeppelin/contracts/security/ReentrancyGuard.sol\":1701:1702  1 */\n  0x01\n    /* \"@openzeppelin/contracts/security/ReentrancyGuard.sol\":1806:1813  _status */\n  dup1\n    /* \"@openzeppelin/contracts/security/ReentrancyGuard.sol\":1806:1828  _status = _NOT_ENTERED */\n  dup2\n  swap1\n  sstore\n  pop\n    /* \"VestingContract.sol\":2546:2549  0x0 */\n  0x00\n    /* \"VestingContract.sol\":2528:2550  token_ != address(0x0) */\n  0xffffffffffffffffffffffffffffffffffffffff\n  and\n    /* \"VestingContract.sol\":2528:2534  token_ */\n  dup2\n    /* \"VestingContract.sol\":2528:2550  token_ != address(0x0) */\n  0xffffffffffffffffffffffffffffffffffffffff\n  and\n  eq\n  iszero\n    /* \"VestingContract.sol\":2520:2551  require(token_ != address(0x0)) */\n  tag_14\n  jumpi\n  0x00\n  dup1\n  revert\ntag_14:\n    /* \"VestingContract.sol\":2578:2584  token_ */\n  dup1\n    /* \"VestingContract.sol\":2562:2585  _token = IERC20(token_) */\n  0xffffffffffffffffffffffffffffffffffffffff\n  and\n  0x80\n  dup2\n  0xffffffffffffffffffffffffffffffffffffffff\n  and\n  0x60\n  shl\n  dup2\n  mstore\n  pop\n  pop\n    /* \"VestingContract.sol\":2481:2593  constructor(address token_) {\r... */\n  pop\n    /* \"VestingContract.sol\":484:12519  contract TokenVesting is Ownable, ReentrancyGuard{\r... */\n  jump(tag_15)\n    /* \"@openzeppelin/contracts/utils/Context.sol\":640:736  function _msgSender() internal view virtual returns (address) {... */\ntag_10:\n    /* \"@openzeppelin/contracts/utils/Context.sol\":693:700  address */\n  0x00\n    /* \"@openzeppelin/contracts/utils/Context.sol\":719:729  msg.sender */\n  caller\n    /* \"@openzeppelin/contracts/utils/Context.sol\":712:729  return msg.sender */\n  swap1\n  pop\n    /* \"@openzeppelin/contracts/utils/Context.sol\":640:736  function _msgSender() internal view virtual returns (address) {... */\n  swap1\n  jump\t// out\n    /* \"@openzeppelin/contracts/access/Ownable.sol\":2433:2620  function _transferOwnership(address newOwner) internal virtual {... */\ntag_11:\n    /* \"@openzeppelin/contracts/access/Ownable.sol\":2506:2522  address oldOwner */\n  0x00\n    /* \"@openzeppelin/contracts/access/Ownable.sol\":2525:2531  _owner */\n  dup1\n  0x00\n  swap1\n  sload\n  swap1\n  0x0100\n  exp\n  swap1\n  div\n  0xffffffffffffffffffffffffffffffffffffffff\n  and\n    /* \"@openzeppelin/contracts/access/Ownable.sol\":2506:2531  address oldOwner = _owner */\n  swap1\n  pop\n    /* \"@openzeppelin/contracts/access/Ownable.sol\":2550:2558  newOwner */\n  dup2\n    /* \"@openzeppelin/contracts/access/Ownable.sol\":2541:2547  _owner */\n  0x00\n  dup1\n    /* \"@openzeppelin/contracts/access/Ownable.sol\":2541:2558  _owner = newOwner */\n  0x0100\n  exp\n  dup2\n  sload\n  dup2\n  0xffffffffffffffffffffffffffffffffffffffff\n  mul\n  not\n  and\n  swap1\n  dup4\n  0xffffffffffffffffffffffffffffffffffffffff\n  and\n  mul\n  or\n  swap1\n  sstore\n  pop\n    /* \"@openzeppelin/contracts/access/Ownable.sol\":2604:2612  newOwner */\n  dup2\n    /* \"@openzeppelin/contracts/access/Ownable.sol\":2573:2613  OwnershipTransferred(oldOwner, newOwner) */\n  0xffffffffffffffffffffffffffffffffffffffff\n  and\n    /* \"@openzeppelin/contracts/access/Ownable.sol\":2594:2602  oldOwner */\n  dup2\n    /* \"@openzeppelin/contracts/access/Ownable.sol\":2573:2613  OwnershipTransferred(oldOwner, newOwner) */\n  0xffffffffffffffffffffffffffffffffffffffff\n  and\n  0x8be0079c531659141344cd1fd0a4f28419497f9722a3daafe3b4186f6b6457e0\n  mload(0x40)\n  mload(0x40)\n  dup1\n  swap2\n  sub\n  swap1\n  log3\n    /* \"@openzeppelin/contracts/access/Ownable.sol\":2496:2620  {... */\n  pop\n    /* \"@openzeppelin/contracts/access/Ownable.sol\":2433:2620  function _transferOwnership(address newOwner) internal virtual {... */\n  pop\n  jump\t// out\n    /* \"#utility.yul\":7:150   */\ntag_19:\n    /* \"#utility.yul\":64:69   */\n  0x00\n    /* \"#utility.yul\":95:101   */\n  dup2\n    /* \"#utility.yul\":89:102   */\n  mload\n    /* \"#utility.yul\":80:102   */\n  swap1\n  pop\n    /* \"#utility.yul\":111:144   */\n  tag_21\n    /* \"#utility.yul\":138:143   */\n  dup2\n    /* \"#utility.yul\":111:144   */\n  tag_22\n  jump\t// in\ntag_21:\n    /* \"#utility.yul\":7:150   */\n  swap3\n  swap2\n  pop\n  pop\n  jump\t// out\n    /* \"#utility.yul\":156:507   */\ntag_3:\n    /* \"#utility.yul\":226:232   */\n  0x00\n    /* \"#utility.yul\":275:277   */\n  0x20\n    /* \"#utility.yul\":263:272   */\n  dup3\n    /* \"#utility.yul\":254:261   */\n  dup5\n    /* \"#utility.yul\":250:273   */\n  sub\n    /* \"#utility.yul\":246:278   */\n  slt\n    /* \"#utility.yul\":243:362   */\n  iszero\n  tag_24\n  jumpi\n    /* \"#utility.yul\":281:360   */\n  tag_25\n  tag_26\n  jump\t// in\ntag_25:\n    /* \"#utility.yul\":243:362   */\ntag_24:\n    /* \"#utility.yul\":401:402   */\n  0x00\n    /* \"#utility.yul\":426:490   */\n  tag_27\n    /* \"#utility.yul\":482:489   */\n  dup5\n    /* \"#utility.yul\":473:479   */\n  dup3\n    /* \"#utility.yul\":462:471   */\n  dup6\n    /* \"#utility.yul\":458:480   */\n  add\n    /* \"#utility.yul\":426:490   */\n  tag_19\n  jump\t// in\ntag_27:\n    /* \"#utility.yul\":416:490   */\n  swap2\n  pop\n    /* \"#utility.yul\":372:500   */\n  pop\n    /* \"#utility.yul\":156:507   */\n  swap3\n  swap2\n  pop\n  pop\n  jump\t// out\n    /* \"#utility.yul\":594:690   */\ntag_30:\n    /* \"#utility.yul\":631:638   */\n  0x00\n    /* \"#utility.yul\":660:684   */\n  tag_32\n    /* \"#utility.yul\":678:683   */\n  dup3\n    /* \"#utility.yul\":660:684   */\n  tag_33\n  jump\t// in\ntag_32:\n    /* \"#utility.yul\":649:684   */\n  swap1\n  pop\n    /* \"#utility.yul\":594:690   */\n  swap2\n  swap1\n  pop\n  jump\t// out\n    /* \"#utility.yul\":696:822   */\ntag_33:\n    /* \"#utility.yul\":733:740   */\n  0x00\n    /* \"#utility.yul\":773:815   */\n  0xffffffffffffffffffffffffffffffffffffffff\n    /* \"#utility.yul\":766:771   */\n  dup3\n    /* \"#utility.yul\":762:816   */\n  and\n    /* \"#utility.yul\":751:816   */\n  swap1\n  pop\n    /* \"#utility.yul\":696:822   */\n  swap2\n  swap1\n  pop\n  jump\t// out\n    /* \"#utility.yul\":951:1068   */\ntag_26:\n    /* \"#utility.yul\":1060:1061   */\n  0x00\n    /* \"#utility.yul\":1057:1058   */\n  dup1\n    /* \"#utility.yul\":1050:1062   */\n  revert\n    /* \"#utility.yul\":1074:1196   */\ntag_22:\n    /* \"#utility.yul\":1147:1171   */\n  tag_39\n    /* \"#utility.yul\":1165:1170   */\n  dup2\n    /* \"#utility.yul\":1147:1171   */\n  tag_30\n  jump\t// in\ntag_39:\n    /* \"#utility.yul\":1140:1145   */\n  dup2\n    /* \"#utility.yul\":1137:1172   */\n  eq\n    /* \"#utility.yul\":1127:1190   */\n  tag_40\n  jumpi\n    /* \"#utility.yul\":1186:1187   */\n  0x00\n    /* \"#utility.yul\":1183:1184   */\n  dup1\n    /* \"#utility.yul\":1176:1188   */\n  revert\n    /* \"#utility.yul\":1127:1190   */\ntag_40:\n    /* \"#utility.yul\":1074:1196   */\n  pop\n  jump\t// out\n    /* \"VestingContract.sol\":484:12519  contract TokenVesting is Ownable, ReentrancyGuard{\r... */\ntag_15:\n  shr(0x60, mload(0x80))\n  codecopy(0x00, dataOffset(sub_0), dataSize(sub_0))\n  0x00\n  assignImmutable(\"0x33b1bb93466604d6eef61d9dccb76e3bbe6e34c9cae650f94ab002a5eaeb5e05\")\n  return(0x00, dataSize(sub_0))\nstop\n\nsub_0: assembly {\n        /* \"VestingContract.sol\":484:12519  contract TokenVesting is Ownable, ReentrancyGuard{\r... */\n      mstore(0x40, 0x80)\n      jumpi(tag_1, lt(calldatasize, 0x04))\n      shr(0xe0, calldataload(0x00))\n      dup1\n      0x8af104da\n      gt\n      tag_22\n      jumpi\n      dup1\n      0xea1bb3d5\n      gt\n      tag_23\n      jumpi\n      dup1\n      0xea1bb3d5\n      eq\n      tag_17\n      jumpi\n      dup1\n      0xf2fde38b\n      eq\n      tag_18\n      jumpi\n      dup1\n      0xf51321d7\n      eq\n      tag_19\n      jumpi\n      dup1\n      0xf7c469f0\n      eq\n      tag_20\n      jumpi\n      dup1\n      0xf9079b37\n      eq\n      tag_21\n      jumpi\n      jump(tag_2)\n    tag_23:\n      dup1\n      0x8af104da\n      eq\n      tag_12\n      jumpi\n      dup1\n      0x8da5cb5b\n      eq\n      tag_13\n      jumpi\n      dup1\n      0x90be10cc\n      eq\n      tag_14\n      jumpi\n      dup1\n      0x9ef346b4\n      eq\n      tag_15\n      jumpi\n      dup1\n      0xb75c7dc6\n      eq\n      tag_16\n      jumpi\n      jump(tag_2)\n    tag_22:\n      dup1\n      0x48deb471\n      gt\n      tag_24\n      jumpi\n      dup1\n      0x48deb471\n      eq\n      tag_7\n      jumpi\n      dup1\n      0x5a7bb69a\n      eq\n      tag_8\n      jumpi\n      dup1\n      0x66afd8ef\n      eq\n      tag_9\n      jumpi\n      dup1\n      0x715018a6\n      eq\n      tag_10\n      jumpi\n      dup1\n      0x7e913dc6\n      eq\n      tag_11\n      jumpi\n      jump(tag_2)\n    tag_24:\n      dup1\n      0x13083617\n      eq\n      tag_3\n      jumpi\n      dup1\n      0x17e289e9\n      eq\n      tag_4\n      jumpi\n      dup1\n      0x21df0da7\n      eq\n      tag_5\n      jumpi\n      dup1\n      0x2e1a7d4d\n      eq\n      tag_6\n      jumpi\n      jump(tag_2)\n    tag_1:\n      jumpi(tag_2, calldatasize)\n      stop\n    tag_2:\n      stop\n        /* \"VestingContract.sol\":8914:9057  function getVestingSchedulesCount()\r... */\n    tag_3:\n      callvalue\n      dup1\n      iszero\n      tag_29\n      jumpi\n      0x00\n      dup1\n      revert\n    tag_29:\n      pop\n      tag_30\n      tag_31\n      jump\t// in\n    tag_30:\n      mload(0x40)\n      tag_32\n      swap2\n      swap1\n      tag_33\n      jump\t// in\n    tag_32:\n      mload(0x40)\n      dup1\n      swap2\n      sub\n      swap1\n      return\n        /* \"VestingContract.sol\":4902:6311  function createVestingSchedule(\r... */\n    tag_4:\n      callvalue\n      dup1\n      iszero\n      tag_34\n      jumpi\n      0x00\n      dup1\n      revert\n    tag_34:\n      pop\n      tag_35\n      0x04\n      dup1\n      calldatasize\n      sub\n      dup2\n      add\n      swap1\n      tag_36\n      swap2\n      swap1\n      tag_37\n      jump\t// in\n    tag_36:\n      tag_38\n      jump\t// in\n    tag_35:\n      stop\n        /* \"VestingContract.sol\":4144:4250  function getToken()\r... */\n    tag_5:\n      callvalue\n      dup1\n      iszero\n      tag_39\n      jumpi\n      0x00\n      dup1\n      revert\n    tag_39:\n      pop\n      tag_40\n      tag_41\n      jump\t// in\n    tag_40:\n      mload(0x40)\n      tag_42\n      swap2\n      swap1\n      tag_43\n      jump\t// in\n    tag_42:\n      mload(0x40)\n      dup1\n      swap2\n      sub\n      swap1\n      return\n        /* \"VestingContract.sol\":7307:7557  function withdraw(uint256 amount)\r... */\n    tag_6:\n      callvalue\n      dup1\n      iszero\n      tag_44\n      jumpi\n      0x00\n      dup1\n      revert\n    tag_44:\n      pop\n      tag_45\n      0x04\n      dup1\n      calldatasize\n      sub\n      dup2\n      add\n      swap1\n      tag_46\n      swap2\n      swap1\n      tag_47\n      jump\t// in\n    tag_46:\n      tag_48\n      jump\t// in\n    tag_45:\n      stop\n        /* \"VestingContract.sol\":3895:4035  function getVestingSchedulesTotalAmount()\r... */\n    tag_7:\n      callvalue\n      dup1\n      iszero\n      tag_49\n      jumpi\n      0x00\n      dup1\n      revert\n    tag_49:\n      pop\n      tag_50\n      tag_51\n      jump\t// in\n    tag_50:\n      mload(0x40)\n      tag_52\n      swap2\n      swap1\n      tag_33\n      jump\t// in\n    tag_52:\n      mload(0x40)\n      dup1\n      swap2\n      sub\n      swap1\n      return\n        /* \"VestingContract.sol\":2821:2994  function getVestingSchedulesCountByBeneficiary(address _beneficiary)\r... */\n    tag_8:\n      callvalue\n      dup1\n      iszero\n      tag_53\n      jumpi\n      0x00\n      dup1\n      revert\n    tag_53:\n      pop\n      tag_54\n      0x04\n      dup1\n      calldatasize\n      sub\n      dup2\n      add\n      swap1\n      tag_55\n      swap2\n      swap1\n      tag_56\n      jump\t// in\n    tag_55:\n      tag_57\n      jump\t// in\n    tag_54:\n      mload(0x40)\n      tag_58\n      swap2\n      swap1\n      tag_33\n      jump\t// in\n    tag_58:\n      mload(0x40)\n      dup1\n      swap2\n      sub\n      swap1\n      return\n        /* \"VestingContract.sol\":7737:8764  function release(\r... */\n    tag_9:\n      callvalue\n      dup1\n      iszero\n      tag_59\n      jumpi\n      0x00\n      dup1\n      revert\n    tag_59:\n      pop\n      tag_60\n      0x04\n      dup1\n      calldatasize\n      sub\n      dup2\n      add\n      swap1\n      tag_61\n      swap2\n      swap1\n      tag_62\n      jump\t// in\n    tag_61:\n      tag_63\n      jump\t// in\n    tag_60:\n      stop\n        /* \"@openzeppelin/contracts/access/Ownable.sol\":1831:1932  function renounceOwnership() public virtual onlyOwner {... */\n    tag_10:\n      callvalue\n      dup1\n      iszero\n      tag_64\n      jumpi\n      0x00\n      dup1\n      revert\n    tag_64:\n      pop\n      tag_65\n      tag_66\n      jump\t// in\n    tag_65:\n      stop\n        /* \"VestingContract.sol\":10638:10892  function getLastVestingScheduleForHolder(address holder)\r... */\n    tag_11:\n      callvalue\n      dup1\n      iszero\n      tag_67\n      jumpi\n      0x00\n      dup1\n      revert\n    tag_67:\n      pop\n      tag_68\n      0x04\n      dup1\n      calldatasize\n      sub\n      dup2\n      add\n      swap1\n      tag_69\n      swap2\n      swap1\n      tag_56\n      jump\t// in\n    tag_69:\n      tag_70\n      jump\t// in\n    tag_68:\n      mload(0x40)\n      tag_71\n      swap2\n      swap1\n      tag_72\n      jump\t// in\n    tag_71:\n      mload(0x40)\n      dup1\n      swap2\n      sub\n      swap1\n      return\n        /* \"VestingContract.sol\":10999:11205  function computeVestingScheduleIdForAddressAndIndex(address holder, uint256 index)\r... */\n    tag_12:\n      callvalue\n      dup1\n      iszero\n      tag_73\n      jumpi\n      0x00\n      dup1\n      revert\n    tag_73:\n      pop\n      tag_74\n      0x04\n      dup1\n      calldatasize\n      sub\n      dup2\n      add\n      swap1\n      tag_75\n      swap2\n      swap1\n      tag_76\n      jump\t// in\n    tag_75:\n      tag_77\n      jump\t// in\n    tag_74:\n      mload(0x40)\n      tag_78\n      swap2\n      swap1\n      tag_79\n      jump\t// in\n    tag_78:\n      mload(0x40)\n      dup1\n      swap2\n      sub\n      swap1\n      return\n        /* \"@openzeppelin/contracts/access/Ownable.sol\":1201:1286  function owner() public view virtual returns (address) {... */\n    tag_13:\n      callvalue\n      dup1\n      iszero\n      tag_80\n      jumpi\n      0x00\n      dup1\n      revert\n    tag_80:\n      pop\n      tag_81\n      tag_82\n      jump\t// in\n    tag_81:\n      mload(0x40)\n      tag_83\n      swap2\n      swap1\n      tag_43\n      jump\t// in\n    tag_83:\n      mload(0x40)\n      dup1\n      swap2\n      sub\n      swap1\n      return\n        /* \"VestingContract.sol\":10027:10205  function getWithdrawableAmount()\r... */\n    tag_14:\n      callvalue\n      dup1\n      iszero\n      tag_84\n      jumpi\n      0x00\n      dup1\n      revert\n    tag_84:\n      pop\n      tag_85\n      tag_86\n      jump\t// in\n    tag_85:\n      mload(0x40)\n      tag_87\n      swap2\n      swap1\n      tag_33\n      jump\t// in\n    tag_87:\n      mload(0x40)\n      dup1\n      swap2\n      sub\n      swap1\n      return\n        /* \"VestingContract.sol\":9703:9889  function getVestingSchedule(bytes32 vestingScheduleId)\r... */\n    tag_15:\n      callvalue\n      dup1\n      iszero\n      tag_88\n      jumpi\n      0x00\n      dup1\n      revert\n    tag_88:\n      pop\n      tag_89\n      0x04\n      dup1\n      calldatasize\n      sub\n      dup2\n      add\n      swap1\n      tag_90\n      swap2\n      swap1\n      tag_91\n      jump\t// in\n    tag_90:\n      tag_92\n      jump\t// in\n    tag_89:\n      mload(0x40)\n      tag_93\n      swap2\n      swap1\n      tag_72\n      jump\t// in\n    tag_93:\n      mload(0x40)\n      dup1\n      swap2\n      sub\n      swap1\n      return\n        /* \"VestingContract.sol\":6466:7180  function revoke(bytes32 vestingScheduleId)\r... */\n    tag_16:\n      callvalue\n      dup1\n      iszero\n      tag_94\n      jumpi\n      0x00\n      dup1\n      revert\n    tag_94:\n      pop\n      tag_95\n      0x04\n      dup1\n      calldatasize\n      sub\n      dup2\n      add\n      swap1\n      tag_96\n      swap2\n      swap1\n      tag_91\n      jump\t// in\n    tag_96:\n      tag_97\n      jump\t// in\n    tag_95:\n      stop\n        /* \"VestingContract.sol\":9210:9540  function computeReleasableAmount(bytes32 vestingScheduleId)\r... */\n    tag_17:\n      callvalue\n      dup1\n      iszero\n      tag_98\n      jumpi\n      0x00\n      dup1\n      revert\n    tag_98:\n      pop\n      tag_99\n      0x04\n      dup1\n      calldatasize\n      sub\n      dup2\n      add\n      swap1\n      tag_100\n      swap2\n      swap1\n      tag_91\n      jump\t// in\n    tag_100:\n      tag_101\n      jump\t// in\n    tag_99:\n      mload(0x40)\n      tag_102\n      swap2\n      swap1\n      tag_33\n      jump\t// in\n    tag_102:\n      mload(0x40)\n      dup1\n      swap2\n      sub\n      swap1\n      return\n        /* \"@openzeppelin/contracts/access/Ownable.sol\":2081:2279  function transferOwnership(address newOwner) public virtual onlyOwner {... */\n    tag_18:\n      callvalue\n      dup1\n      iszero\n      tag_103\n      jumpi\n      0x00\n      dup1\n      revert\n    tag_103:\n      pop\n      tag_104\n      0x04\n      dup1\n      calldatasize\n      sub\n      dup2\n      add\n      swap1\n      tag_105\n      swap2\n      swap1\n      tag_56\n      jump\t// in\n    tag_105:\n      tag_106\n      jump\t// in\n    tag_104:\n      stop\n        /* \"VestingContract.sol\":3514:3753  function getVestingScheduleByAddressAndIndex(address holder, uint256 index)\r... */\n    tag_19:\n      callvalue\n      dup1\n      iszero\n      tag_107\n      jumpi\n      0x00\n      dup1\n      revert\n    tag_107:\n      pop\n      tag_108\n      0x04\n      dup1\n      calldatasize\n      sub\n      dup2\n      add\n      swap1\n      tag_109\n      swap2\n      swap1\n      tag_76\n      jump\t// in\n    tag_109:\n      tag_110\n      jump\t// in\n    tag_108:\n      mload(0x40)\n      tag_111\n      swap2\n      swap1\n      tag_72\n      jump\t// in\n    tag_111:\n      mload(0x40)\n      dup1\n      swap2\n      sub\n      swap1\n      return\n        /* \"VestingContract.sol\":10316:10539  function computeNextVestingScheduleIdForHolder(address holder)\r... */\n    tag_20:\n      callvalue\n      dup1\n      iszero\n      tag_112\n      jumpi\n      0x00\n      dup1\n      revert\n    tag_112:\n      pop\n      tag_113\n      0x04\n      dup1\n      calldatasize\n      sub\n      dup2\n      add\n      swap1\n      tag_114\n      swap2\n      swap1\n      tag_56\n      jump\t// in\n    tag_114:\n      tag_115\n      jump\t// in\n    tag_113:\n      mload(0x40)\n      tag_116\n      swap2\n      swap1\n      tag_79\n      jump\t// in\n    tag_116:\n      mload(0x40)\n      dup1\n      swap2\n      sub\n      swap1\n      return\n        /* \"VestingContract.sol\":3113:3345  function getVestingIdAtIndex(uint256 index)\r... */\n    tag_21:\n      callvalue\n      dup1\n      iszero\n      tag_117\n      jumpi\n      0x00\n      dup1\n      revert\n    tag_117:\n      pop\n      tag_118\n      0x04\n      dup1\n      calldatasize\n      sub\n      dup2\n      add\n      swap1\n      tag_119\n      swap2\n      swap1\n      tag_47\n      jump\t// in\n    tag_119:\n      tag_120\n      jump\t// in\n    tag_118:\n      mload(0x40)\n      tag_121\n      swap2\n      swap1\n      tag_79\n      jump\t// in\n    tag_121:\n      mload(0x40)\n      dup1\n      swap2\n      sub\n      swap1\n      return\n        /* \"VestingContract.sol\":8914:9057  function getVestingSchedulesCount()\r... */\n    tag_31:\n        /* \"VestingContract.sol\":8997:9004  uint256 */\n      0x00\n        /* \"VestingContract.sol\":9023:9042  vestingSchedulesIds */\n      0x02\n        /* \"VestingContract.sol\":9023:9049  vestingSchedulesIds.length */\n      dup1\n      sload\n      swap1\n      pop\n        /* \"VestingContract.sol\":9016:9049  return vestingSchedulesIds.length */\n      swap1\n      pop\n        /* \"VestingContract.sol\":8914:9057  function getVestingSchedulesCount()\r... */\n      swap1\n      jump\t// out\n        /* \"VestingContract.sol\":4902:6311  function createVestingSchedule(\r... */\n    tag_38:\n        /* \"@openzeppelin/contracts/access/Ownable.sol\":1094:1107  _checkOwner() */\n      tag_124\n        /* \"@openzeppelin/contracts/access/Ownable.sol\":1094:1105  _checkOwner */\n      tag_125\n        /* \"@openzeppelin/contracts/access/Ownable.sol\":1094:1107  _checkOwner() */\n      jump\t// in\n    tag_124:\n        /* \"VestingContract.sol\":5238:5245  _amount */\n      dup1\n        /* \"VestingContract.sol\":5206:5210  this */\n      address\n        /* \"VestingContract.sol\":5206:5232  this.getWithdrawableAmount */\n      0xffffffffffffffffffffffffffffffffffffffff\n      and\n      0x90be10cc\n        /* \"VestingContract.sol\":5206:5234  this.getWithdrawableAmount() */\n      mload(0x40)\n      dup2\n      0xffffffff\n      and\n      0xe0\n      shl\n      dup2\n      mstore\n      0x04\n      add\n      0x20\n      mload(0x40)\n      dup1\n      dup4\n      sub\n      dup2\n      dup7\n      dup1\n      extcodesize\n      iszero\n      dup1\n      iszero\n      tag_127\n      jumpi\n      0x00\n      dup1\n      revert\n    tag_127:\n      pop\n      gas\n      staticcall\n      iszero\n      dup1\n      iszero\n      tag_129\n      jumpi\n      returndatasize\n      0x00\n      dup1\n      returndatacopy\n      revert(0x00, returndatasize)\n    tag_129:\n      pop\n      pop\n      pop\n      pop\n      mload(0x40)\n      returndatasize\n      not(0x1f)\n      0x1f\n      dup3\n      add\n      and\n      dup3\n      add\n      dup1\n      0x40\n      mstore\n      pop\n      dup2\n      add\n      swap1\n      tag_130\n      swap2\n      swap1\n      tag_131\n      jump\t// in\n    tag_130:\n        /* \"VestingContract.sol\":5206:5245  this.getWithdrawableAmount() >= _amount */\n      lt\n      iszero\n        /* \"VestingContract.sol\":5184:5347  require(\r... */\n      tag_132\n      jumpi\n      mload(0x40)\n      0x08c379a000000000000000000000000000000000000000000000000000000000\n      dup2\n      mstore\n      0x04\n      add\n      tag_133\n      swap1\n      tag_134\n      jump\t// in\n    tag_133:\n      mload(0x40)\n      dup1\n      swap2\n      sub\n      swap1\n      revert\n    tag_132:\n        /* \"VestingContract.sol\":5378:5379  0 */\n      0x00\n        /* \"VestingContract.sol\":5366:5375  _duration */\n      dup5\n        /* \"VestingContract.sol\":5366:5379  _duration > 0 */\n      gt\n        /* \"VestingContract.sol\":5358:5418  require(_duration > 0, \"TokenVesting: duration must be > 0\") */\n      tag_135\n      jumpi\n      mload(0x40)\n      0x08c379a000000000000000000000000000000000000000000000000000000000\n      dup2\n      mstore\n      0x04\n      add\n      tag_136\n      swap1\n      tag_137\n      jump\t// in\n    tag_136:\n      mload(0x40)\n      dup1\n      swap2\n      sub\n      swap1\n      revert\n    tag_135:\n        /* \"VestingContract.sol\":5447:5448  0 */\n      0x00\n        /* \"VestingContract.sol\":5437:5444  _amount */\n      dup2\n        /* \"VestingContract.sol\":5437:5448  _amount > 0 */\n      gt\n        /* \"VestingContract.sol\":5429:5485  require(_amount > 0, \"TokenVesting: amount must be > 0\") */\n      tag_138\n      jumpi\n      mload(0x40)\n      0x08c379a000000000000000000000000000000000000000000000000000000000\n      dup2\n      mstore\n      0x04\n      add\n      tag_139\n      swap1\n      tag_140\n      jump\t// in\n    tag_139:\n      mload(0x40)\n      dup1\n      swap2\n      sub\n      swap1\n      revert\n    tag_138:\n        /* \"VestingContract.sol\":5527:5528  1 */\n      0x01\n        /* \"VestingContract.sol\":5504:5523  _slicePeriodSeconds */\n      dup4\n        /* \"VestingContract.sol\":5504:5528  _slicePeriodSeconds >= 1 */\n      lt\n      iszero\n        /* \"VestingContract.sol\":5496:5578  require(_slicePeriodSeconds >= 1, \"TokenVesting: slicePeriodSeconds must be >= 1\") */\n      tag_141\n      jumpi\n      mload(0x40)\n      0x08c379a000000000000000000000000000000000000000000000000000000000\n      dup2\n      mstore\n      0x04\n      add\n      tag_142\n      swap1\n      tag_143\n      jump\t// in\n    tag_142:\n      mload(0x40)\n      dup1\n      swap2\n      sub\n      swap1\n      revert\n    tag_141:\n        /* \"VestingContract.sol\":5589:5614  bytes32 vestingScheduleId */\n      0x00\n        /* \"VestingContract.sol\":5617:5621  this */\n      address\n        /* \"VestingContract.sol\":5617:5659  this.computeNextVestingScheduleIdForHolder */\n      0xffffffffffffffffffffffffffffffffffffffff\n      and\n      0xf7c469f0\n        /* \"VestingContract.sol\":5660:5672  _beneficiary */\n      dup10\n        /* \"VestingContract.sol\":5617:5673  this.computeNextVestingScheduleIdForHolder(_beneficiary) */\n      mload(0x40)\n      dup3\n      0xffffffff\n      and\n      0xe0\n      shl\n      dup2\n      mstore\n      0x04\n      add\n      tag_144\n      swap2\n      swap1\n      tag_43\n      jump\t// in\n    tag_144:\n      0x20\n      mload(0x40)\n      dup1\n      dup4\n      sub\n      dup2\n      dup7\n      dup1\n      extcodesize\n      iszero\n      dup1\n      iszero\n      tag_145\n      jumpi\n      0x00\n      dup1\n      revert\n    tag_145:\n      pop\n      gas\n      staticcall\n      iszero\n      dup1\n      iszero\n      tag_147\n      jumpi\n      returndatasize\n      0x00\n      dup1\n      returndatacopy\n      revert(0x00, returndatasize)\n    tag_147:\n      pop\n      pop\n      pop\n      pop\n      mload(0x40)\n      returndatasize\n      not(0x1f)\n      0x1f\n      dup3\n      add\n      and\n      dup3\n      add\n      dup1\n      0x40\n      mstore\n      pop\n      dup2\n      add\n      swap1\n      tag_148\n      swap2\n      swap1\n      tag_149\n      jump\t// in\n    tag_148:\n        /* \"VestingContract.sol\":5589:5673  bytes32 vestingScheduleId = this.computeNextVestingScheduleIdForHolder(_beneficiary) */\n      swap1\n      pop\n        /* \"VestingContract.sol\":5684:5697  uint256 cliff */\n      0x00\n        /* \"VestingContract.sol\":5700:5718  _start.add(_cliff) */\n      tag_150\n        /* \"VestingContract.sol\":5711:5717  _cliff */\n      dup8\n        /* \"VestingContract.sol\":5700:5706  _start */\n      dup10\n        /* \"VestingContract.sol\":5700:5710  _start.add */\n      tag_151\n      swap1\n        /* \"VestingContract.sol\":5700:5718  _start.add(_cliff) */\n      swap2\n      swap1\n      0xffffffff\n      and\n      jump\t// in\n    tag_150:\n        /* \"VestingContract.sol\":5684:5718  uint256 cliff = _start.add(_cliff) */\n      swap1\n      pop\n        /* \"VestingContract.sol\":5767:6021  VestingSchedule(\r... */\n      mload(0x40)\n      dup1\n      0x0140\n      add\n      0x40\n      mstore\n      dup1\n        /* \"VestingContract.sol\":5797:5801  true */\n      0x01\n        /* \"VestingContract.sol\":5767:6021  VestingSchedule(\r... */\n      iszero\n      iszero\n      dup2\n      mstore\n      0x20\n      add\n        /* \"VestingContract.sol\":5816:5828  _beneficiary */\n      dup11\n        /* \"VestingContract.sol\":5767:6021  VestingSchedule(\r... */\n      0xffffffffffffffffffffffffffffffffffffffff\n      and\n      dup2\n      mstore\n      0x20\n      add\n        /* \"VestingContract.sol\":5843:5848  cliff */\n      dup3\n        /* \"VestingContract.sol\":5767:6021  VestingSchedule(\r... */\n      dup2\n      mstore\n      0x20\n      add\n        /* \"VestingContract.sol\":5863:5869  _start */\n      dup10\n        /* \"VestingContract.sol\":5767:6021  VestingSchedule(\r... */\n      dup2\n      mstore\n      0x20\n      add\n        /* \"VestingContract.sol\":5884:5893  _duration */\n      dup8\n        /* \"VestingContract.sol\":5767:6021  VestingSchedule(\r... */\n      dup2\n      mstore\n      0x20\n      add\n        /* \"VestingContract.sol\":5908:5927  _slicePeriodSeconds */\n      dup7\n        /* \"VestingContract.sol\":5767:6021  VestingSchedule(\r... */\n      dup2\n      mstore\n      0x20\n      add\n        /* \"VestingContract.sol\":5942:5952  _revocable */\n      dup6\n        /* \"VestingContract.sol\":5767:6021  VestingSchedule(\r... */\n      iszero\n      iszero\n      dup2\n      mstore\n      0x20\n      add\n        /* \"VestingContract.sol\":5967:5974  _amount */\n      dup5\n        /* \"VestingContract.sol\":5767:6021  VestingSchedule(\r... */\n      dup2\n      mstore\n      0x20\n      add\n        /* \"VestingContract.sol\":5989:5990  0 */\n      0x00\n        /* \"VestingContract.sol\":5767:6021  VestingSchedule(\r... */\n      dup2\n      mstore\n      0x20\n      add\n        /* \"VestingContract.sol\":6005:6010  false */\n      0x00\n        /* \"VestingContract.sol\":5767:6021  VestingSchedule(\r... */\n      iszero\n      iszero\n      dup2\n      mstore\n      pop\n        /* \"VestingContract.sol\":5729:5745  vestingSchedules */\n      0x03\n        /* \"VestingContract.sol\":5729:5764  vestingSchedules[vestingScheduleId] */\n      0x00\n        /* \"VestingContract.sol\":5746:5763  vestingScheduleId */\n      dup5\n        /* \"VestingContract.sol\":5729:5764  vestingSchedules[vestingScheduleId] */\n      dup2\n      mstore\n      0x20\n      add\n      swap1\n      dup2\n      mstore\n      0x20\n      add\n      0x00\n      keccak256\n        /* \"VestingContract.sol\":5729:6021  vestingSchedules[vestingScheduleId] = VestingSchedule(\r... */\n      0x00\n      dup3\n      add\n      mload\n      dup2\n      0x00\n      add\n      exp(0x0100, 0x00)\n      dup2\n      sload\n      dup2\n      0xff\n      mul\n      not\n      and\n      swap1\n      dup4\n      iszero\n      iszero\n      mul\n      or\n      swap1\n      sstore\n      pop\n      0x20\n      dup3\n      add\n      mload\n      dup2\n      0x00\n      add\n      exp(0x0100, 0x01)\n      dup2\n      sload\n      dup2\n      0xffffffffffffffffffffffffffffffffffffffff\n      mul\n      not\n      and\n      swap1\n      dup4\n      0xffffffffffffffffffffffffffffffffffffffff\n      and\n      mul\n      or\n      swap1\n      sstore\n      pop\n      0x40\n      dup3\n      add\n      mload\n      dup2\n      0x01\n      add\n      sstore\n      0x60\n      dup3\n      add\n      mload\n      dup2\n      0x02\n      add\n      sstore\n      0x80\n      dup3\n      add\n      mload\n      dup2\n      0x03\n      add\n      sstore\n      0xa0\n      dup3\n      add\n      mload\n      dup2\n      0x04\n      add\n      sstore\n      0xc0\n      dup3\n      add\n      mload\n      dup2\n      0x05\n      add\n      exp(0x0100, 0x00)\n      dup2\n      sload\n      dup2\n      0xff\n      mul\n      not\n      and\n      swap1\n      dup4\n      iszero\n      iszero\n      mul\n      or\n      swap1\n      sstore\n      pop\n      0xe0\n      dup3\n      add\n      mload\n      dup2\n      0x06\n      add\n      sstore\n      0x0100\n      dup3\n      add\n      mload\n      dup2\n      0x07\n      add\n      sstore\n      0x0120\n      dup3\n      add\n      mload\n      dup2\n      0x08\n      add\n      exp(0x0100, 0x00)\n      dup2\n      sload\n      dup2\n      0xff\n      mul\n      not\n      and\n      swap1\n      dup4\n      iszero\n      iszero\n      mul\n      or\n      swap1\n      sstore\n      pop\n      swap1\n      pop\n      pop\n        /* \"VestingContract.sol\":6062:6102  vestingSchedulesTotalAmount.add(_amount) */\n      tag_152\n        /* \"VestingContract.sol\":6094:6101  _amount */\n      dup4\n        /* \"VestingContract.sol\":6062:6089  vestingSchedulesTotalAmount */\n      sload(0x04)\n        /* \"VestingContract.sol\":6062:6093  vestingSchedulesTotalAmount.add */\n      tag_151\n      swap1\n        /* \"VestingContract.sol\":6062:6102  vestingSchedulesTotalAmount.add(_amount) */\n      swap2\n      swap1\n      0xffffffff\n      and\n      jump\t// in\n    tag_152:\n        /* \"VestingContract.sol\":6032:6059  vestingSchedulesTotalAmount */\n      0x04\n        /* \"VestingContract.sol\":6032:6102  vestingSchedulesTotalAmount = vestingSchedulesTotalAmount.add(_amount) */\n      dup2\n      swap1\n      sstore\n      pop\n        /* \"VestingContract.sol\":6113:6132  vestingSchedulesIds */\n      0x02\n        /* \"VestingContract.sol\":6138:6155  vestingScheduleId */\n      dup3\n        /* \"VestingContract.sol\":6113:6156  vestingSchedulesIds.push(vestingScheduleId) */\n      swap1\n      dup1\n      0x01\n      dup2\n      sload\n      add\n      dup1\n      dup3\n      sstore\n      dup1\n      swap2\n      pop\n      pop\n      0x01\n      swap1\n      sub\n      swap1\n      0x00\n      mstore\n      keccak256(0x00, 0x20)\n      add\n      0x00\n      swap1\n      swap2\n      swap1\n      swap2\n      swap1\n      swap2\n      pop\n      sstore\n        /* \"VestingContract.sol\":6167:6194  uint256 currentVestingCount */\n      0x00\n        /* \"VestingContract.sol\":6197:6216  holdersVestingCount */\n      0x05\n        /* \"VestingContract.sol\":6197:6230  holdersVestingCount[_beneficiary] */\n      0x00\n        /* \"VestingContract.sol\":6217:6229  _beneficiary */\n      dup12\n        /* \"VestingContract.sol\":6197:6230  holdersVestingCount[_beneficiary] */\n      0xffffffffffffffffffffffffffffffffffffffff\n      and\n      0xffffffffffffffffffffffffffffffffffffffff\n      and\n      dup2\n      mstore\n      0x20\n      add\n      swap1\n      dup2\n      mstore\n      0x20\n      add\n      0x00\n      keccak256\n      sload\n        /* \"VestingContract.sol\":6167:6230  uint256 currentVestingCount = holdersVestingCount[_beneficiary] */\n      swap1\n      pop\n        /* \"VestingContract.sol\":6277:6303  currentVestingCount.add(1) */\n      tag_154\n        /* \"VestingContract.sol\":6301:6302  1 */\n      0x01\n        /* \"VestingContract.sol\":6277:6296  currentVestingCount */\n      dup3\n        /* \"VestingContract.sol\":6277:6300  currentVestingCount.add */\n      tag_151\n      swap1\n        /* \"VestingContract.sol\":6277:6303  currentVestingCount.add(1) */\n      swap2\n      swap1\n      0xffffffff\n      and\n      jump\t// in\n    tag_154:\n        /* \"VestingContract.sol\":6241:6260  holdersVestingCount */\n      0x05\n        /* \"VestingContract.sol\":6241:6274  holdersVestingCount[_beneficiary] */\n      0x00\n        /* \"VestingContract.sol\":6261:6273  _beneficiary */\n      dup13\n        /* \"VestingContract.sol\":6241:6274  holdersVestingCount[_beneficiary] */\n      0xffffffffffffffffffffffffffffffffffffffff\n      and\n      0xffffffffffffffffffffffffffffffffffffffff\n      and\n      dup2\n      mstore\n      0x20\n      add\n      swap1\n      dup2\n      mstore\n      0x20\n      add\n      0x00\n      keccak256\n        /* \"VestingContract.sol\":6241:6303  holdersVestingCount[_beneficiary] = currentVestingCount.add(1) */\n      dup2\n      swap1\n      sstore\n      pop\n        /* \"VestingContract.sol\":5173:6311  {\r... */\n      pop\n      pop\n      pop\n        /* \"VestingContract.sol\":4902:6311  function createVestingSchedule(\r... */\n      pop\n      pop\n      pop\n      pop\n      pop\n      pop\n      pop\n      jump\t// out\n        /* \"VestingContract.sol\":4144:4250  function getToken()\r... */\n    tag_41:\n        /* \"VestingContract.sol\":4201:4208  address */\n      0x00\n        /* \"VestingContract.sol\":4235:4241  _token */\n      immutable(\"0x33b1bb93466604d6eef61d9dccb76e3bbe6e34c9cae650f94ab002a5eaeb5e05\")\n        /* \"VestingContract.sol\":4220:4242  return address(_token) */\n      swap1\n      pop\n        /* \"VestingContract.sol\":4144:4250  function getToken()\r... */\n      swap1\n      jump\t// out\n        /* \"VestingContract.sol\":7307:7557  function withdraw(uint256 amount)\r... */\n    tag_48:\n        /* \"@openzeppelin/contracts/security/ReentrancyGuard.sol\":1744:1745  2 */\n      0x02\n        /* \"@openzeppelin/contracts/security/ReentrancyGuard.sol\":2325:2332  _status */\n      sload(0x01)\n        /* \"@openzeppelin/contracts/security/ReentrancyGuard.sol\":2325:2344  _status != _ENTERED */\n      eq\n      iszero\n        /* \"@openzeppelin/contracts/security/ReentrancyGuard.sol\":2317:2380  require(_status != _ENTERED, \"ReentrancyGuard: reentrant call\") */\n      tag_157\n      jumpi\n      mload(0x40)\n      0x08c379a000000000000000000000000000000000000000000000000000000000\n      dup2\n      mstore\n      0x04\n      add\n      tag_158\n      swap1\n      tag_159\n      jump\t// in\n    tag_158:\n      mload(0x40)\n      dup1\n      swap2\n      sub\n      swap1\n      revert\n    tag_157:\n        /* \"@openzeppelin/contracts/security/ReentrancyGuard.sol\":1744:1745  2 */\n      0x02\n        /* \"@openzeppelin/contracts/security/ReentrancyGuard.sol\":2455:2462  _status */\n      0x01\n        /* \"@openzeppelin/contracts/security/ReentrancyGuard.sol\":2455:2473  _status = _ENTERED */\n      dup2\n      swap1\n      sstore\n      pop\n        /* \"@openzeppelin/contracts/access/Ownable.sol\":1094:1107  _checkOwner() */\n      tag_161\n        /* \"@openzeppelin/contracts/access/Ownable.sol\":1094:1105  _checkOwner */\n      tag_125\n        /* \"@openzeppelin/contracts/access/Ownable.sol\":1094:1107  _checkOwner() */\n      jump\t// in\n    tag_161:\n        /* \"VestingContract.sol\":7448:7454  amount */\n      dup1\n        /* \"VestingContract.sol\":7416:7420  this */\n      address\n        /* \"VestingContract.sol\":7416:7442  this.getWithdrawableAmount */\n      0xffffffffffffffffffffffffffffffffffffffff\n      and\n      0x90be10cc\n        /* \"VestingContract.sol\":7416:7444  this.getWithdrawableAmount() */\n      mload(0x40)\n      dup2\n      0xffffffff\n      and\n      0xe0\n      shl\n      dup2\n      mstore\n      0x04\n      add\n      0x20\n      mload(0x40)\n      dup1\n      dup4\n      sub\n      dup2\n      dup7\n      dup1\n      extcodesize\n      iszero\n      dup1\n      iszero\n      tag_163\n      jumpi\n      0x00\n      dup1\n      revert\n    tag_163:\n      pop\n      gas\n      staticcall\n      iszero\n      dup1\n      iszero\n      tag_165\n      jumpi\n      returndatasize\n      0x00\n      dup1\n      returndatacopy\n      revert(0x00, returndatasize)\n    tag_165:\n      pop\n      pop\n      pop\n      pop\n      mload(0x40)\n      returndatasize\n      not(0x1f)\n      0x1f\n      dup3\n      add\n      and\n      dup3\n      add\n      dup1\n      0x40\n      mstore\n      pop\n      dup2\n      add\n      swap1\n      tag_166\n      swap2\n      swap1\n      tag_131\n      jump\t// in\n    tag_166:\n        /* \"VestingContract.sol\":7416:7454  this.getWithdrawableAmount() >= amount */\n      lt\n      iszero\n        /* \"VestingContract.sol\":7408:7502  require(this.getWithdrawableAmount() >= amount, \"TokenVesting: not enough withdrawable funds\") */\n      tag_167\n      jumpi\n      mload(0x40)\n      0x08c379a000000000000000000000000000000000000000000000000000000000\n      dup2\n      mstore\n      0x04\n      add\n      tag_168\n      swap1\n      tag_169\n      jump\t// in\n    tag_168:\n      mload(0x40)\n      dup1\n      swap2\n      sub\n      swap1\n      revert\n    tag_167:\n        /* \"VestingContract.sol\":7513:7549  _token.safeTransfer(owner(), amount) */\n      tag_170\n        /* \"VestingContract.sol\":7533:7540  owner() */\n      tag_171\n        /* \"VestingContract.sol\":7533:7538  owner */\n      tag_82\n        /* \"VestingContract.sol\":7533:7540  owner() */\n      jump\t// in\n    tag_171:\n        /* \"VestingContract.sol\":7542:7548  amount */\n      dup3\n        /* \"VestingContract.sol\":7513:7519  _token */\n      immutable(\"0x33b1bb93466604d6eef61d9dccb76e3bbe6e34c9cae650f94ab002a5eaeb5e05\")\n        /* \"VestingContract.sol\":7513:7532  _token.safeTransfer */\n      0xffffffffffffffffffffffffffffffffffffffff\n      and\n      tag_172\n      swap1\n        /* \"VestingContract.sol\":7513:7549  _token.safeTransfer(owner(), amount) */\n      swap3\n      swap2\n      swap1\n      0xffffffff\n      and\n      jump\t// in\n    tag_170:\n        /* \"@openzeppelin/contracts/security/ReentrancyGuard.sol\":1701:1702  1 */\n      0x01\n        /* \"@openzeppelin/contracts/security/ReentrancyGuard.sol\":2628:2635  _status */\n      dup1\n        /* \"@openzeppelin/contracts/security/ReentrancyGuard.sol\":2628:2650  _status = _NOT_ENTERED */\n      dup2\n      swap1\n      sstore\n      pop\n        /* \"VestingContract.sol\":7307:7557  function withdraw(uint256 amount)\r... */\n      pop\n      jump\t// out\n        /* \"VestingContract.sol\":3895:4035  function getVestingSchedulesTotalAmount()\r... */\n    tag_51:\n        /* \"VestingContract.sol\":3974:3981  uint256 */\n      0x00\n        /* \"VestingContract.sol\":4000:4027  vestingSchedulesTotalAmount */\n      sload(0x04)\n        /* \"VestingContract.sol\":3993:4027  return vestingSchedulesTotalAmount */\n      swap1\n      pop\n        /* \"VestingContract.sol\":3895:4035  function getVestingSchedulesTotalAmount()\r... */\n      swap1\n      jump\t// out\n        /* \"VestingContract.sol\":2821:2994  function getVestingSchedulesCountByBeneficiary(address _beneficiary)\r... */\n    tag_57:\n        /* \"VestingContract.sol\":2927:2934  uint256 */\n      0x00\n        /* \"VestingContract.sol\":2953:2972  holdersVestingCount */\n      0x05\n        /* \"VestingContract.sol\":2953:2986  holdersVestingCount[_beneficiary] */\n      0x00\n        /* \"VestingContract.sol\":2973:2985  _beneficiary */\n      dup4\n        /* \"VestingContract.sol\":2953:2986  holdersVestingCount[_beneficiary] */\n      0xffffffffffffffffffffffffffffffffffffffff\n      and\n      0xffffffffffffffffffffffffffffffffffffffff\n      and\n      dup2\n      mstore\n      0x20\n      add\n      swap1\n      dup2\n      mstore\n      0x20\n      add\n      0x00\n      keccak256\n      sload\n        /* \"VestingContract.sol\":2946:2986  return holdersVestingCount[_beneficiary] */\n      swap1\n      pop\n        /* \"VestingContract.sol\":2821:2994  function getVestingSchedulesCountByBeneficiary(address _beneficiary)\r... */\n      swap2\n      swap1\n      pop\n      jump\t// out\n        /* \"VestingContract.sol\":7737:8764  function release(\r... */\n    tag_63:\n        /* \"@openzeppelin/contracts/security/ReentrancyGuard.sol\":1744:1745  2 */\n      0x02\n        /* \"@openzeppelin/contracts/security/ReentrancyGuard.sol\":2325:2332  _status */\n      sload(0x01)\n        /* \"@openzeppelin/contracts/security/ReentrancyGuard.sol\":2325:2344  _status != _ENTERED */\n      eq\n      iszero\n        /* \"@openzeppelin/contracts/security/ReentrancyGuard.sol\":2317:2380  require(_status != _ENTERED, \"ReentrancyGuard: reentrant call\") */\n      tag_176\n      jumpi\n      mload(0x40)\n      0x08c379a000000000000000000000000000000000000000000000000000000000\n      dup2\n      mstore\n      0x04\n      add\n      tag_177\n      swap1\n      tag_159\n      jump\t// in\n    tag_177:\n      mload(0x40)\n      dup1\n      swap2\n      sub\n      swap1\n      revert\n    tag_176:\n        /* \"@openzeppelin/contracts/security/ReentrancyGuard.sol\":1744:1745  2 */\n      0x02\n        /* \"@openzeppelin/contracts/security/ReentrancyGuard.sol\":2455:2462  _status */\n      0x01\n        /* \"@openzeppelin/contracts/security/ReentrancyGuard.sol\":2455:2473  _status = _ENTERED */\n      dup2\n      swap1\n      sstore\n      pop\n        /* \"VestingContract.sol\":7901:7918  vestingScheduleId */\n      dup2\n        /* \"VestingContract.sol\":2259:2263  true */\n      0x01\n        /* \"VestingContract.sol\":2208:2263  vestingSchedules[vestingScheduleId].initialized == true */\n      iszero\n      iszero\n        /* \"VestingContract.sol\":2208:2224  vestingSchedules */\n      0x03\n        /* \"VestingContract.sol\":2208:2243  vestingSchedules[vestingScheduleId] */\n      0x00\n        /* \"VestingContract.sol\":2225:2242  vestingScheduleId */\n      dup4\n        /* \"VestingContract.sol\":2208:2243  vestingSchedules[vestingScheduleId] */\n      dup2\n      mstore\n      0x20\n      add\n      swap1\n      dup2\n      mstore\n      0x20\n      add\n      0x00\n      keccak256\n        /* \"VestingContract.sol\":2208:2255  vestingSchedules[vestingScheduleId].initialized */\n      0x00\n      add\n      0x00\n      swap1\n      sload\n      swap1\n      0x0100\n      exp\n      swap1\n      div\n      0xff\n      and\n        /* \"VestingContract.sol\":2208:2263  vestingSchedules[vestingScheduleId].initialized == true */\n      iszero\n      iszero\n      eq\n        /* \"VestingContract.sol\":2200:2264  require(vestingSchedules[vestingScheduleId].initialized == true) */\n      tag_179\n      jumpi\n      0x00\n      dup1\n      revert\n    tag_179:\n        /* \"VestingContract.sol\":2330:2335  false */\n      0x00\n        /* \"VestingContract.sol\":2283:2335  vestingSchedules[vestingScheduleId].revoked == false */\n      iszero\n      iszero\n        /* \"VestingContract.sol\":2283:2299  vestingSchedules */\n      0x03\n        /* \"VestingContract.sol\":2283:2318  vestingSchedules[vestingScheduleId] */\n      0x00\n        /* \"VestingContract.sol\":2300:2317  vestingScheduleId */\n      dup4\n        /* \"VestingContract.sol\":2283:2318  vestingSchedules[vestingScheduleId] */\n      dup2\n      mstore\n      0x20\n      add\n      swap1\n      dup2\n      mstore\n      0x20\n      add\n      0x00\n      keccak256\n        /* \"VestingContract.sol\":2283:2326  vestingSchedules[vestingScheduleId].revoked */\n      0x08\n      add\n      0x00\n      swap1\n      sload\n      swap1\n      0x0100\n      exp\n      swap1\n      div\n      0xff\n      and\n        /* \"VestingContract.sol\":2283:2335  vestingSchedules[vestingScheduleId].revoked == false */\n      iszero\n      iszero\n      eq\n        /* \"VestingContract.sol\":2275:2336  require(vestingSchedules[vestingScheduleId].revoked == false) */\n      tag_180\n      jumpi\n      0x00\n      dup1\n      revert\n    tag_180:\n        /* \"VestingContract.sol\":7930:7969  VestingSchedule storage vestingSchedule */\n      0x00\n        /* \"VestingContract.sol\":7972:7988  vestingSchedules */\n      0x03\n        /* \"VestingContract.sol\":7972:8007  vestingSchedules[vestingScheduleId] */\n      0x00\n        /* \"VestingContract.sol\":7989:8006  vestingScheduleId */\n      dup6\n        /* \"VestingContract.sol\":7972:8007  vestingSchedules[vestingScheduleId] */\n      dup2\n      mstore\n      0x20\n      add\n      swap1\n      dup2\n      mstore\n      0x20\n      add\n      0x00\n      keccak256\n        /* \"VestingContract.sol\":7930:8007  VestingSchedule storage vestingSchedule = vestingSchedules[vestingScheduleId] */\n      swap1\n      pop\n        /* \"VestingContract.sol\":8018:8036  bool isBeneficiary */\n      0x00\n        /* \"VestingContract.sol\":8053:8068  vestingSchedule */\n      dup2\n        /* \"VestingContract.sol\":8053:8080  vestingSchedule.beneficiary */\n      0x00\n      add\n      0x01\n      swap1\n      sload\n      swap1\n      0x0100\n      exp\n      swap1\n      div\n      0xffffffffffffffffffffffffffffffffffffffff\n      and\n        /* \"VestingContract.sol\":8039:8080  msg.sender == vestingSchedule.beneficiary */\n      0xffffffffffffffffffffffffffffffffffffffff\n      and\n        /* \"VestingContract.sol\":8039:8049  msg.sender */\n      caller\n        /* \"VestingContract.sol\":8039:8080  msg.sender == vestingSchedule.beneficiary */\n      0xffffffffffffffffffffffffffffffffffffffff\n      and\n      eq\n        /* \"VestingContract.sol\":8018:8080  bool isBeneficiary = msg.sender == vestingSchedule.beneficiary */\n      swap1\n      pop\n        /* \"VestingContract.sol\":8091:8103  bool isOwner */\n      0x00\n        /* \"VestingContract.sol\":8120:8127  owner() */\n      tag_182\n        /* \"VestingContract.sol\":8120:8125  owner */\n      tag_82\n        /* \"VestingContract.sol\":8120:8127  owner() */\n      jump\t// in\n    tag_182:\n        /* \"VestingContract.sol\":8106:8127  msg.sender == owner() */\n      0xffffffffffffffffffffffffffffffffffffffff\n      and\n        /* \"VestingContract.sol\":8106:8116  msg.sender */\n      caller\n        /* \"VestingContract.sol\":8106:8127  msg.sender == owner() */\n      0xffffffffffffffffffffffffffffffffffffffff\n      and\n      eq\n        /* \"VestingContract.sol\":8091:8127  bool isOwner = msg.sender == owner() */\n      swap1\n      pop\n        /* \"VestingContract.sol\":8160:8173  isBeneficiary */\n      dup2\n        /* \"VestingContract.sol\":8160:8184  isBeneficiary || isOwner */\n      dup1\n      tag_183\n      jumpi\n      pop\n        /* \"VestingContract.sol\":8177:8184  isOwner */\n      dup1\n        /* \"VestingContract.sol\":8160:8184  isBeneficiary || isOwner */\n    tag_183:\n        /* \"VestingContract.sol\":8138:8278  require(\r... */\n      tag_184\n      jumpi\n      mload(0x40)\n      0x08c379a000000000000000000000000000000000000000000000000000000000\n      dup2\n      mstore\n      0x04\n      add\n      tag_185\n      swap1\n      tag_186\n      jump\t// in\n    tag_185:\n      mload(0x40)\n      dup1\n      swap2\n      sub\n      swap1\n      revert\n    tag_184:\n        /* \"VestingContract.sol\":8289:8309  uint256 vestedAmount */\n      0x00\n        /* \"VestingContract.sol\":8312:8353  _computeReleasableAmount(vestingSchedule) */\n      tag_187\n        /* \"VestingContract.sol\":8337:8352  vestingSchedule */\n      dup5\n        /* \"VestingContract.sol\":8312:8353  _computeReleasableAmount(vestingSchedule) */\n      mload(0x40)\n      dup1\n      0x0140\n      add\n      0x40\n      mstore\n      swap1\n      dup2\n      0x00\n      dup3\n      add\n      0x00\n      swap1\n      sload\n      swap1\n      0x0100\n      exp\n      swap1\n      div\n      0xff\n      and\n      iszero\n      iszero\n      iszero\n      iszero\n      dup2\n      mstore\n      0x20\n      add\n      0x00\n      dup3\n      add\n      0x01\n      swap1\n      sload\n      swap1\n      0x0100\n      exp\n      swap1\n      div\n      0xffffffffffffffffffffffffffffffffffffffff\n      and\n      0xffffffffffffffffffffffffffffffffffffffff\n      and\n      0xffffffffffffffffffffffffffffffffffffffff\n      and\n      dup2\n      mstore\n      0x20\n      add\n      0x01\n      dup3\n      add\n      sload\n      dup2\n      mstore\n      0x20\n      add\n      0x02\n      dup3\n      add\n      sload\n      dup2\n      mstore\n      0x20\n      add\n      0x03\n      dup3\n      add\n      sload\n      dup2\n      mstore\n      0x20\n      add\n      0x04\n      dup3\n      add\n      sload\n      dup2\n      mstore\n      0x20\n      add\n      0x05\n      dup3\n      add\n      0x00\n      swap1\n      sload\n      swap1\n      0x0100\n      exp\n      swap1\n      div\n      0xff\n      and\n      iszero\n      iszero\n      iszero\n      iszero\n      dup2\n      mstore\n      0x20\n      add\n      0x06\n      dup3\n      add\n      sload\n      dup2\n      mstore\n      0x20\n      add\n      0x07\n      dup3\n      add\n      sload\n      dup2\n      mstore\n      0x20\n      add\n      0x08\n      dup3\n      add\n      0x00\n      swap1\n      sload\n      swap1\n      0x0100\n      exp\n      swap1\n      div\n      0xff\n      and\n      iszero\n      iszero\n      iszero\n      iszero\n      dup2\n      mstore\n      pop\n      pop\n        /* \"VestingContract.sol\":8312:8336  _computeReleasableAmount */\n      tag_188\n        /* \"VestingContract.sol\":8312:8353  _computeReleasableAmount(vestingSchedule) */\n      jump\t// in\n    tag_187:\n        /* \"VestingContract.sol\":8289:8353  uint256 vestedAmount = _computeReleasableAmount(vestingSchedule) */\n      swap1\n      pop\n        /* \"VestingContract.sol\":8388:8394  amount */\n      dup6\n        /* \"VestingContract.sol\":8372:8384  vestedAmount */\n      dup2\n        /* \"VestingContract.sol\":8372:8394  vestedAmount >= amount */\n      lt\n      iszero\n        /* \"VestingContract.sol\":8364:8460  require(vestedAmount >= amount, \"TokenVesting: cannot release tokens, not enough vested tokens\") */\n      tag_189\n      jumpi\n      mload(0x40)\n      0x08c379a000000000000000000000000000000000000000000000000000000000\n      dup2\n      mstore\n      0x04\n      add\n      tag_190\n      swap1\n      tag_191\n      jump\t// in\n    tag_190:\n      mload(0x40)\n      dup1\n      swap2\n      sub\n      swap1\n      revert\n    tag_189:\n        /* \"VestingContract.sol\":8498:8534  vestingSchedule.released.add(amount) */\n      tag_192\n        /* \"VestingContract.sol\":8527:8533  amount */\n      dup7\n        /* \"VestingContract.sol\":8498:8513  vestingSchedule */\n      dup6\n        /* \"VestingContract.sol\":8498:8522  vestingSchedule.released */\n      0x07\n      add\n      sload\n        /* \"VestingContract.sol\":8498:8526  vestingSchedule.released.add */\n      tag_151\n      swap1\n        /* \"VestingContract.sol\":8498:8534  vestingSchedule.released.add(amount) */\n      swap2\n      swap1\n      0xffffffff\n      and\n      jump\t// in\n    tag_192:\n        /* \"VestingContract.sol\":8471:8486  vestingSchedule */\n      dup5\n        /* \"VestingContract.sol\":8471:8495  vestingSchedule.released */\n      0x07\n      add\n        /* \"VestingContract.sol\":8471:8534  vestingSchedule.released = vestingSchedule.released.add(amount) */\n      dup2\n      swap1\n      sstore\n      pop\n        /* \"VestingContract.sol\":8545:8579  address payable beneficiaryPayable */\n      0x00\n        /* \"VestingContract.sol\":8590:8605  vestingSchedule */\n      dup5\n        /* \"VestingContract.sol\":8590:8617  vestingSchedule.beneficiary */\n      0x00\n      add\n      0x01\n      swap1\n      sload\n      swap1\n      0x0100\n      exp\n      swap1\n      div\n      0xffffffffffffffffffffffffffffffffffffffff\n      and\n        /* \"VestingContract.sol\":8545:8618  address payable beneficiaryPayable = payable(vestingSchedule.beneficiary) */\n      swap1\n      pop\n        /* \"VestingContract.sol\":8659:8698  vestingSchedulesTotalAmount.sub(amount) */\n      tag_193\n        /* \"VestingContract.sol\":8691:8697  amount */\n      dup8\n        /* \"VestingContract.sol\":8659:8686  vestingSchedulesTotalAmount */\n      sload(0x04)\n        /* \"VestingContract.sol\":8659:8690  vestingSchedulesTotalAmount.sub */\n      tag_194\n      swap1\n        /* \"VestingContract.sol\":8659:8698  vestingSchedulesTotalAmount.sub(amount) */\n      swap2\n      swap1\n      0xffffffff\n      and\n      jump\t// in\n    tag_193:\n        /* \"VestingContract.sol\":8629:8656  vestingSchedulesTotalAmount */\n      0x04\n        /* \"VestingContract.sol\":8629:8698  vestingSchedulesTotalAmount = vestingSchedulesTotalAmount.sub(amount) */\n      dup2\n      swap1\n      sstore\n      pop\n        /* \"VestingContract.sol\":8709:8756  _token.safeTransfer(beneficiaryPayable, amount) */\n      tag_195\n        /* \"VestingContract.sol\":8729:8747  beneficiaryPayable */\n      dup2\n        /* \"VestingContract.sol\":8749:8755  amount */\n      dup9\n        /* \"VestingContract.sol\":8709:8715  _token */\n      immutable(\"0x33b1bb93466604d6eef61d9dccb76e3bbe6e34c9cae650f94ab002a5eaeb5e05\")\n        /* \"VestingContract.sol\":8709:8728  _token.safeTransfer */\n      0xffffffffffffffffffffffffffffffffffffffff\n      and\n      tag_172\n      swap1\n        /* \"VestingContract.sol\":8709:8756  _token.safeTransfer(beneficiaryPayable, amount) */\n      swap3\n      swap2\n      swap1\n      0xffffffff\n      and\n      jump\t// in\n    tag_195:\n        /* \"VestingContract.sol\":7919:8764  {\r... */\n      pop\n      pop\n      pop\n      pop\n      pop\n        /* \"@openzeppelin/contracts/security/ReentrancyGuard.sol\":2484:2485  _ */\n      pop\n        /* \"@openzeppelin/contracts/security/ReentrancyGuard.sol\":1701:1702  1 */\n      0x01\n        /* \"@openzeppelin/contracts/security/ReentrancyGuard.sol\":2628:2635  _status */\n      dup1\n        /* \"@openzeppelin/contracts/security/ReentrancyGuard.sol\":2628:2650  _status = _NOT_ENTERED */\n      dup2\n      swap1\n      sstore\n      pop\n        /* \"VestingContract.sol\":7737:8764  function release(\r... */\n      pop\n      pop\n      jump\t// out\n        /* \"@openzeppelin/contracts/access/Ownable.sol\":1831:1932  function renounceOwnership() public virtual onlyOwner {... */\n    tag_66:\n        /* \"@openzeppelin/contracts/access/Ownable.sol\":1094:1107  _checkOwner() */\n      tag_197\n        /* \"@openzeppelin/contracts/access/Ownable.sol\":1094:1105  _checkOwner */\n      tag_125\n        /* \"@openzeppelin/contracts/access/Ownable.sol\":1094:1107  _checkOwner() */\n      jump\t// in\n    tag_197:\n        /* \"@openzeppelin/contracts/access/Ownable.sol\":1895:1925  _transferOwnership(address(0)) */\n      tag_199\n        /* \"@openzeppelin/contracts/access/Ownable.sol\":1922:1923  0 */\n      0x00\n        /* \"@openzeppelin/contracts/access/Ownable.sol\":1895:1913  _transferOwnership */\n      tag_200\n        /* \"@openzeppelin/contracts/access/Ownable.sol\":1895:1925  _transferOwnership(address(0)) */\n      jump\t// in\n    tag_199:\n        /* \"@openzeppelin/contracts/access/Ownable.sol\":1831:1932  function renounceOwnership() public virtual onlyOwner {... */\n      jump\t// out\n        /* \"VestingContract.sol\":10638:10892  function getLastVestingScheduleForHolder(address holder)\r... */\n    tag_70:\n        /* \"VestingContract.sol\":10742:10764  VestingSchedule memory */\n      tag_201\n      tag_202\n      jump\t// in\n    tag_201:\n        /* \"VestingContract.sol\":10783:10799  vestingSchedules */\n      0x03\n        /* \"VestingContract.sol\":10783:10884  vestingSchedules[computeVestingScheduleIdForAddressAndIndex(holder, holdersVestingCount[holder] - 1)] */\n      0x00\n        /* \"VestingContract.sol\":10800:10883  computeVestingScheduleIdForAddressAndIndex(holder, holdersVestingCount[holder] - 1) */\n      tag_204\n        /* \"VestingContract.sol\":10843:10849  holder */\n      dup5\n        /* \"VestingContract.sol\":10881:10882  1 */\n      0x01\n        /* \"VestingContract.sol\":10851:10870  holdersVestingCount */\n      0x05\n        /* \"VestingContract.sol\":10851:10878  holdersVestingCount[holder] */\n      0x00\n        /* \"VestingContract.sol\":10871:10877  holder */\n      dup9\n        /* \"VestingContract.sol\":10851:10878  holdersVestingCount[holder] */\n      0xffffffffffffffffffffffffffffffffffffffff\n      and\n      0xffffffffffffffffffffffffffffffffffffffff\n      and\n      dup2\n      mstore\n      0x20\n      add\n      swap1\n      dup2\n      mstore\n      0x20\n      add\n      0x00\n      keccak256\n      sload\n        /* \"VestingContract.sol\":10851:10882  holdersVestingCount[holder] - 1 */\n      tag_205\n      swap2\n      swap1\n      tag_206\n      jump\t// in\n    tag_205:\n        /* \"VestingContract.sol\":10800:10842  computeVestingScheduleIdForAddressAndIndex */\n      tag_77\n        /* \"VestingContract.sol\":10800:10883  computeVestingScheduleIdForAddressAndIndex(holder, holdersVestingCount[holder] - 1) */\n      jump\t// in\n    tag_204:\n        /* \"VestingContract.sol\":10783:10884  vestingSchedules[computeVestingScheduleIdForAddressAndIndex(holder, holdersVestingCount[holder] - 1)] */\n      dup2\n      mstore\n      0x20\n      add\n      swap1\n      dup2\n      mstore\n      0x20\n      add\n      0x00\n      keccak256\n        /* \"VestingContract.sol\":10776:10884  return vestingSchedules[computeVestingScheduleIdForAddressAndIndex(holder, holdersVestingCount[holder] - 1)] */\n      mload(0x40)\n      dup1\n      0x0140\n      add\n      0x40\n      mstore\n      swap1\n      dup2\n      0x00\n      dup3\n      add\n      0x00\n      swap1\n      sload\n      swap1\n      0x0100\n      exp\n      swap1\n      div\n      0xff\n      and\n      iszero\n      iszero\n      iszero\n      iszero\n      dup2\n      mstore\n      0x20\n      add\n      0x00\n      dup3\n      add\n      0x01\n      swap1\n      sload\n      swap1\n      0x0100\n      exp\n      swap1\n      div\n      0xffffffffffffffffffffffffffffffffffffffff\n      and\n      0xffffffffffffffffffffffffffffffffffffffff\n      and\n      0xffffffffffffffffffffffffffffffffffffffff\n      and\n      dup2\n      mstore\n      0x20\n      add\n      0x01\n      dup3\n      add\n      sload\n      dup2\n      mstore\n      0x20\n      add\n      0x02\n      dup3\n      add\n      sload\n      dup2\n      mstore\n      0x20\n      add\n      0x03\n      dup3\n      add\n      sload\n      dup2\n      mstore\n      0x20\n      add\n      0x04\n      dup3\n      add\n      sload\n      dup2\n      mstore\n      0x20\n      add\n      0x05\n      dup3\n      add\n      0x00\n      swap1\n      sload\n      swap1\n      0x0100\n      exp\n      swap1\n      div\n      0xff\n      and\n      iszero\n      iszero\n      iszero\n      iszero\n      dup2\n      mstore\n      0x20\n      add\n      0x06\n      dup3\n      add\n      sload\n      dup2\n      mstore\n      0x20\n      add\n      0x07\n      dup3\n      add\n      sload\n      dup2\n      mstore\n      0x20\n      add\n      0x08\n      dup3\n      add\n      0x00\n      swap1\n      sload\n      swap1\n      0x0100\n      exp\n      swap1\n      div\n      0xff\n      and\n      iszero\n      iszero\n      iszero\n      iszero\n      dup2\n      mstore\n      pop\n      pop\n      swap1\n      pop\n        /* \"VestingContract.sol\":10638:10892  function getLastVestingScheduleForHolder(address holder)\r... */\n      swap2\n      swap1\n      pop\n      jump\t// out\n        /* \"VestingContract.sol\":10999:11205  function computeVestingScheduleIdForAddressAndIndex(address holder, uint256 index)\r... */\n    tag_77:\n        /* \"VestingContract.sol\":11129:11136  bytes32 */\n      0x00\n        /* \"VestingContract.sol\":11182:11188  holder */\n      dup3\n        /* \"VestingContract.sol\":11190:11195  index */\n      dup3\n        /* \"VestingContract.sol\":11165:11196  abi.encodePacked(holder, index) */\n      add(0x20, mload(0x40))\n      tag_208\n      swap3\n      swap2\n      swap1\n      tag_209\n      jump\t// in\n    tag_208:\n      mload(0x40)\n      0x20\n      dup2\n      dup4\n      sub\n      sub\n      dup2\n      mstore\n      swap1\n      0x40\n      mstore\n        /* \"VestingContract.sol\":11155:11197  keccak256(abi.encodePacked(holder, index)) */\n      dup1\n      mload\n      swap1\n      0x20\n      add\n      keccak256\n        /* \"VestingContract.sol\":11148:11197  return keccak256(abi.encodePacked(holder, index)) */\n      swap1\n      pop\n        /* \"VestingContract.sol\":10999:11205  function computeVestingScheduleIdForAddressAndIndex(address holder, uint256 index)\r... */\n      swap3\n      swap2\n      pop\n      pop\n      jump\t// out\n        /* \"@openzeppelin/contracts/access/Ownable.sol\":1201:1286  function owner() public view virtual returns (address) {... */\n    tag_82:\n        /* \"@openzeppelin/contracts/access/Ownable.sol\":1247:1254  address */\n      0x00\n        /* \"@openzeppelin/contracts/access/Ownable.sol\":1273:1279  _owner */\n      dup1\n      0x00\n      swap1\n      sload\n      swap1\n      0x0100\n      exp\n      swap1\n      div\n      0xffffffffffffffffffffffffffffffffffffffff\n      and\n        /* \"@openzeppelin/contracts/access/Ownable.sol\":1266:1279  return _owner */\n      swap1\n      pop\n        /* \"@openzeppelin/contracts/access/Ownable.sol\":1201:1286  function owner() public view virtual returns (address) {... */\n      swap1\n      jump\t// out\n        /* \"VestingContract.sol\":10027:10205  function getWithdrawableAmount()\r... */\n    tag_86:\n        /* \"VestingContract.sol\":10107:10114  uint256 */\n      0x00\n        /* \"VestingContract.sol\":10133:10197  _token.balanceOf(address(this)).sub(vestingSchedulesTotalAmount) */\n      tag_212\n        /* \"VestingContract.sol\":10169:10196  vestingSchedulesTotalAmount */\n      sload(0x04)\n        /* \"VestingContract.sol\":10133:10139  _token */\n      immutable(\"0x33b1bb93466604d6eef61d9dccb76e3bbe6e34c9cae650f94ab002a5eaeb5e05\")\n        /* \"VestingContract.sol\":10133:10149  _token.balanceOf */\n      0xffffffffffffffffffffffffffffffffffffffff\n      and\n      0x70a08231\n        /* \"VestingContract.sol\":10158:10162  this */\n      address\n        /* \"VestingContract.sol\":10133:10164  _token.balanceOf(address(this)) */\n      mload(0x40)\n      dup3\n      0xffffffff\n      and\n      0xe0\n      shl\n      dup2\n      mstore\n      0x04\n      add\n      tag_213\n      swap2\n      swap1\n      tag_43\n      jump\t// in\n    tag_213:\n      0x20\n      mload(0x40)\n      dup1\n      dup4\n      sub\n      dup2\n      dup7\n      dup1\n      extcodesize\n      iszero\n      dup1\n      iszero\n      tag_214\n      jumpi\n      0x00\n      dup1\n      revert\n    tag_214:\n      pop\n      gas\n      staticcall\n      iszero\n      dup1\n      iszero\n      tag_216\n      jumpi\n      returndatasize\n      0x00\n      dup1\n      returndatacopy\n      revert(0x00, returndatasize)\n    tag_216:\n      pop\n      pop\n      pop\n      pop\n      mload(0x40)\n      returndatasize\n      not(0x1f)\n      0x1f\n      dup3\n      add\n      and\n      dup3\n      add\n      dup1\n      0x40\n      mstore\n      pop\n      dup2\n      add\n      swap1\n      tag_217\n      swap2\n      swap1\n      tag_131\n      jump\t// in\n    tag_217:\n        /* \"VestingContract.sol\":10133:10168  _token.balanceOf(address(this)).sub */\n      tag_194\n      swap1\n        /* \"VestingContract.sol\":10133:10197  _token.balanceOf(address(this)).sub(vestingSchedulesTotalAmount) */\n      swap2\n      swap1\n      0xffffffff\n      and\n      jump\t// in\n    tag_212:\n        /* \"VestingContract.sol\":10126:10197  return _token.balanceOf(address(this)).sub(vestingSchedulesTotalAmount) */\n      swap1\n      pop\n        /* \"VestingContract.sol\":10027:10205  function getWithdrawableAmount()\r... */\n      swap1\n      jump\t// out\n        /* \"VestingContract.sol\":9703:9889  function getVestingSchedule(bytes32 vestingScheduleId)\r... */\n    tag_92:\n        /* \"VestingContract.sol\":9805:9827  VestingSchedule memory */\n      tag_218\n      tag_202\n      jump\t// in\n    tag_218:\n        /* \"VestingContract.sol\":9846:9862  vestingSchedules */\n      0x03\n        /* \"VestingContract.sol\":9846:9881  vestingSchedules[vestingScheduleId] */\n      0x00\n        /* \"VestingContract.sol\":9863:9880  vestingScheduleId */\n      dup4\n        /* \"VestingContract.sol\":9846:9881  vestingSchedules[vestingScheduleId] */\n      dup2\n      mstore\n      0x20\n      add\n      swap1\n      dup2\n      mstore\n      0x20\n      add\n      0x00\n      keccak256\n        /* \"VestingContract.sol\":9839:9881  return vestingSchedules[vestingScheduleId] */\n      mload(0x40)\n      dup1\n      0x0140\n      add\n      0x40\n      mstore\n      swap1\n      dup2\n      0x00\n      dup3\n      add\n      0x00\n      swap1\n      sload\n      swap1\n      0x0100\n      exp\n      swap1\n      div\n      0xff\n      and\n      iszero\n      iszero\n      iszero\n      iszero\n      dup2\n      mstore\n      0x20\n      add\n      0x00\n      dup3\n      add\n      0x01\n      swap1\n      sload\n      swap1\n      0x0100\n      exp\n      swap1\n      div\n      0xffffffffffffffffffffffffffffffffffffffff\n      and\n      0xffffffffffffffffffffffffffffffffffffffff\n      and\n      0xffffffffffffffffffffffffffffffffffffffff\n      and\n      dup2\n      mstore\n      0x20\n      add\n      0x01\n      dup3\n      add\n      sload\n      dup2\n      mstore\n      0x20\n      add\n      0x02\n      dup3\n      add\n      sload\n      dup2\n      mstore\n      0x20\n      add\n      0x03\n      dup3\n      add\n      sload\n      dup2\n      mstore\n      0x20\n      add\n      0x04\n      dup3\n      add\n      sload\n      dup2\n      mstore\n      0x20\n      add\n      0x05\n      dup3\n      add\n      0x00\n      swap1\n      sload\n      swap1\n      0x0100\n      exp\n      swap1\n      div\n      0xff\n      and\n      iszero\n      iszero\n      iszero\n      iszero\n      dup2\n      mstore\n      0x20\n      add\n      0x06\n      dup3\n      add\n      sload\n      dup2\n      mstore\n      0x20\n      add\n      0x07\n      dup3\n      add\n      sload\n      dup2\n      mstore\n      0x20\n      add\n      0x08\n      dup3\n      add\n      0x00\n      swap1\n      sload\n      swap1\n      0x0100\n      exp\n      swap1\n      div\n      0xff\n      and\n      iszero\n      iszero\n      iszero\n      iszero\n      dup2\n      mstore\n      pop\n      pop\n      swap1\n      pop\n        /* \"VestingContract.sol\":9703:9889  function getVestingSchedule(bytes32 vestingScheduleId)\r... */\n      swap2\n      swap1\n      pop\n      jump\t// out\n        /* \"VestingContract.sol\":6466:7180  function revoke(bytes32 vestingScheduleId)\r... */\n    tag_97:\n        /* \"@openzeppelin/contracts/access/Ownable.sol\":1094:1107  _checkOwner() */\n      tag_221\n        /* \"@openzeppelin/contracts/access/Ownable.sol\":1094:1105  _checkOwner */\n      tag_125\n        /* \"@openzeppelin/contracts/access/Ownable.sol\":1094:1107  _checkOwner() */\n      jump\t// in\n    tag_221:\n        /* \"VestingContract.sol\":6585:6602  vestingScheduleId */\n      dup1\n        /* \"VestingContract.sol\":2259:2263  true */\n      0x01\n        /* \"VestingContract.sol\":2208:2263  vestingSchedules[vestingScheduleId].initialized == true */\n      iszero\n      iszero\n        /* \"VestingContract.sol\":2208:2224  vestingSchedules */\n      0x03\n        /* \"VestingContract.sol\":2208:2243  vestingSchedules[vestingScheduleId] */\n      0x00\n        /* \"VestingContract.sol\":2225:2242  vestingScheduleId */\n      dup4\n        /* \"VestingContract.sol\":2208:2243  vestingSchedules[vestingScheduleId] */\n      dup2\n      mstore\n      0x20\n      add\n      swap1\n      dup2\n      mstore\n      0x20\n      add\n      0x00\n      keccak256\n        /* \"VestingContract.sol\":2208:2255  vestingSchedules[vestingScheduleId].initialized */\n      0x00\n      add\n      0x00\n      swap1\n      sload\n      swap1\n      0x0100\n      exp\n      swap1\n      div\n      0xff\n      and\n        /* \"VestingContract.sol\":2208:2263  vestingSchedules[vestingScheduleId].initialized == true */\n      iszero\n      iszero\n      eq\n        /* \"VestingContract.sol\":2200:2264  require(vestingSchedules[vestingScheduleId].initialized == true) */\n      tag_223\n      jumpi\n      0x00\n      dup1\n      revert\n    tag_223:\n        /* \"VestingContract.sol\":2330:2335  false */\n      0x00\n        /* \"VestingContract.sol\":2283:2335  vestingSchedules[vestingScheduleId].revoked == false */\n      iszero\n      iszero\n        /* \"VestingContract.sol\":2283:2299  vestingSchedules */\n      0x03\n        /* \"VestingContract.sol\":2283:2318  vestingSchedules[vestingScheduleId] */\n      0x00\n        /* \"VestingContract.sol\":2300:2317  vestingScheduleId */\n      dup4\n        /* \"VestingContract.sol\":2283:2318  vestingSchedules[vestingScheduleId] */\n      dup2\n      mstore\n      0x20\n      add\n      swap1\n      dup2\n      mstore\n      0x20\n      add\n      0x00\n      keccak256\n        /* \"VestingContract.sol\":2283:2326  vestingSchedules[vestingScheduleId].revoked */\n      0x08\n      add\n      0x00\n      swap1\n      sload\n      swap1\n      0x0100\n      exp\n      swap1\n      div\n      0xff\n      and\n        /* \"VestingContract.sol\":2283:2335  vestingSchedules[vestingScheduleId].revoked == false */\n      iszero\n      iszero\n      eq\n        /* \"VestingContract.sol\":2275:2336  require(vestingSchedules[vestingScheduleId].revoked == false) */\n      tag_224\n      jumpi\n      0x00\n      dup1\n      revert\n    tag_224:\n        /* \"VestingContract.sol\":6614:6653  VestingSchedule storage vestingSchedule */\n      0x00\n        /* \"VestingContract.sol\":6656:6672  vestingSchedules */\n      0x03\n        /* \"VestingContract.sol\":6656:6691  vestingSchedules[vestingScheduleId] */\n      0x00\n        /* \"VestingContract.sol\":6673:6690  vestingScheduleId */\n      dup5\n        /* \"VestingContract.sol\":6656:6691  vestingSchedules[vestingScheduleId] */\n      dup2\n      mstore\n      0x20\n      add\n      swap1\n      dup2\n      mstore\n      0x20\n      add\n      0x00\n      keccak256\n        /* \"VestingContract.sol\":6614:6691  VestingSchedule storage vestingSchedule = vestingSchedules[vestingScheduleId] */\n      swap1\n      pop\n        /* \"VestingContract.sol\":6739:6743  true */\n      0x01\n        /* \"VestingContract.sol\":6710:6743  vestingSchedule.revocable == true */\n      iszero\n      iszero\n        /* \"VestingContract.sol\":6710:6725  vestingSchedule */\n      dup2\n        /* \"VestingContract.sol\":6710:6735  vestingSchedule.revocable */\n      0x05\n      add\n      0x00\n      swap1\n      sload\n      swap1\n      0x0100\n      exp\n      swap1\n      div\n      0xff\n      and\n        /* \"VestingContract.sol\":6710:6743  vestingSchedule.revocable == true */\n      iszero\n      iszero\n      eq\n        /* \"VestingContract.sol\":6702:6786  require(vestingSchedule.revocable == true, \"TokenVesting: vesting is not revocable\") */\n      tag_226\n      jumpi\n      mload(0x40)\n      0x08c379a000000000000000000000000000000000000000000000000000000000\n      dup2\n      mstore\n      0x04\n      add\n      tag_227\n      swap1\n      tag_228\n      jump\t// in\n    tag_227:\n      mload(0x40)\n      dup1\n      swap2\n      sub\n      swap1\n      revert\n    tag_226:\n        /* \"VestingContract.sol\":6797:6817  uint256 vestedAmount */\n      0x00\n        /* \"VestingContract.sol\":6820:6861  _computeReleasableAmount(vestingSchedule) */\n      tag_229\n        /* \"VestingContract.sol\":6845:6860  vestingSchedule */\n      dup3\n        /* \"VestingContract.sol\":6820:6861  _computeReleasableAmount(vestingSchedule) */\n      mload(0x40)\n      dup1\n      0x0140\n      add\n      0x40\n      mstore\n      swap1\n      dup2\n      0x00\n      dup3\n      add\n      0x00\n      swap1\n      sload\n      swap1\n      0x0100\n      exp\n      swap1\n      div\n      0xff\n      and\n      iszero\n      iszero\n      iszero\n      iszero\n      dup2\n      mstore\n      0x20\n      add\n      0x00\n      dup3\n      add\n      0x01\n      swap1\n      sload\n      swap1\n      0x0100\n      exp\n      swap1\n      div\n      0xffffffffffffffffffffffffffffffffffffffff\n      and\n      0xffffffffffffffffffffffffffffffffffffffff\n      and\n      0xffffffffffffffffffffffffffffffffffffffff\n      and\n      dup2\n      mstore\n      0x20\n      add\n      0x01\n      dup3\n      add\n      sload\n      dup2\n      mstore\n      0x20\n      add\n      0x02\n      dup3\n      add\n      sload\n      dup2\n      mstore\n      0x20\n      add\n      0x03\n      dup3\n      add\n      sload\n      dup2\n      mstore\n      0x20\n      add\n      0x04\n      dup3\n      add\n      sload\n      dup2\n      mstore\n      0x20\n      add\n      0x05\n      dup3\n      add\n      0x00\n      swap1\n      sload\n      swap1\n      0x0100\n      exp\n      swap1\n      div\n      0xff\n      and\n      iszero\n      iszero\n      iszero\n      iszero\n      dup2\n      mstore\n      0x20\n      add\n      0x06\n      dup3\n      add\n      sload\n      dup2\n      mstore\n      0x20\n      add\n      0x07\n      dup3\n      add\n      sload\n      dup2\n      mstore\n      0x20\n      add\n      0x08\n      dup3\n      add\n      0x00\n      swap1\n      sload\n      swap1\n      0x0100\n      exp\n      swap1\n      div\n      0xff\n      and\n      iszero\n      iszero\n      iszero\n      iszero\n      dup2\n      mstore\n      pop\n      pop\n        /* \"VestingContract.sol\":6820:6844  _computeReleasableAmount */\n      tag_188\n        /* \"VestingContract.sol\":6820:6861  _computeReleasableAmount(vestingSchedule) */\n      jump\t// in\n    tag_229:\n        /* \"VestingContract.sol\":6797:6861  uint256 vestedAmount = _computeReleasableAmount(vestingSchedule) */\n      swap1\n      pop\n        /* \"VestingContract.sol\":6890:6891  0 */\n      0x00\n        /* \"VestingContract.sol\":6875:6887  vestedAmount */\n      dup2\n        /* \"VestingContract.sol\":6875:6891  vestedAmount > 0 */\n      gt\n        /* \"VestingContract.sol\":6872:6959  if(vestedAmount > 0){\r... */\n      iszero\n      tag_230\n      jumpi\n        /* \"VestingContract.sol\":6907:6947  release(vestingScheduleId, vestedAmount) */\n      tag_231\n        /* \"VestingContract.sol\":6915:6932  vestingScheduleId */\n      dup5\n        /* \"VestingContract.sol\":6934:6946  vestedAmount */\n      dup3\n        /* \"VestingContract.sol\":6907:6914  release */\n      tag_63\n        /* \"VestingContract.sol\":6907:6947  release(vestingScheduleId, vestedAmount) */\n      jump\t// in\n    tag_231:\n        /* \"VestingContract.sol\":6872:6959  if(vestedAmount > 0){\r... */\n    tag_230:\n        /* \"VestingContract.sol\":6969:6987  uint256 unreleased */\n      0x00\n        /* \"VestingContract.sol\":6990:7047  vestingSchedule.amountTotal.sub(vestingSchedule.released) */\n      tag_232\n        /* \"VestingContract.sol\":7022:7037  vestingSchedule */\n      dup4\n        /* \"VestingContract.sol\":7022:7046  vestingSchedule.released */\n      0x07\n      add\n      sload\n        /* \"VestingContract.sol\":6990:7005  vestingSchedule */\n      dup5\n        /* \"VestingContract.sol\":6990:7017  vestingSchedule.amountTotal */\n      0x06\n      add\n      sload\n        /* \"VestingContract.sol\":6990:7021  vestingSchedule.amountTotal.sub */\n      tag_194\n      swap1\n        /* \"VestingContract.sol\":6990:7047  vestingSchedule.amountTotal.sub(vestingSchedule.released) */\n      swap2\n      swap1\n      0xffffffff\n      and\n      jump\t// in\n    tag_232:\n        /* \"VestingContract.sol\":6969:7047  uint256 unreleased = vestingSchedule.amountTotal.sub(vestingSchedule.released) */\n      swap1\n      pop\n        /* \"VestingContract.sol\":7088:7131  vestingSchedulesTotalAmount.sub(unreleased) */\n      tag_233\n        /* \"VestingContract.sol\":7120:7130  unreleased */\n      dup2\n        /* \"VestingContract.sol\":7088:7115  vestingSchedulesTotalAmount */\n      sload(0x04)\n        /* \"VestingContract.sol\":7088:7119  vestingSchedulesTotalAmount.sub */\n      tag_194\n      swap1\n        /* \"VestingContract.sol\":7088:7131  vestingSchedulesTotalAmount.sub(unreleased) */\n      swap2\n      swap1\n      0xffffffff\n      and\n      jump\t// in\n    tag_233:\n        /* \"VestingContract.sol\":7058:7085  vestingSchedulesTotalAmount */\n      0x04\n        /* \"VestingContract.sol\":7058:7131  vestingSchedulesTotalAmount = vestingSchedulesTotalAmount.sub(unreleased) */\n      dup2\n      swap1\n      sstore\n      pop\n        /* \"VestingContract.sol\":7168:7172  true */\n      0x01\n        /* \"VestingContract.sol\":7142:7157  vestingSchedule */\n      dup4\n        /* \"VestingContract.sol\":7142:7165  vestingSchedule.revoked */\n      0x08\n      add\n      0x00\n        /* \"VestingContract.sol\":7142:7172  vestingSchedule.revoked = true */\n      0x0100\n      exp\n      dup2\n      sload\n      dup2\n      0xff\n      mul\n      not\n      and\n      swap1\n      dup4\n      iszero\n      iszero\n      mul\n      or\n      swap1\n      sstore\n      pop\n        /* \"VestingContract.sol\":6603:7180  {\r... */\n      pop\n      pop\n      pop\n        /* \"@openzeppelin/contracts/access/Ownable.sol\":1117:1118  _ */\n      pop\n        /* \"VestingContract.sol\":6466:7180  function revoke(bytes32 vestingScheduleId)\r... */\n      pop\n      jump\t// out\n        /* \"VestingContract.sol\":9210:9540  function computeReleasableAmount(bytes32 vestingScheduleId)\r... */\n    tag_101:\n        /* \"VestingContract.sol\":9377:9384  uint256 */\n      0x00\n        /* \"VestingContract.sol\":9327:9344  vestingScheduleId */\n      dup2\n        /* \"VestingContract.sol\":2259:2263  true */\n      0x01\n        /* \"VestingContract.sol\":2208:2263  vestingSchedules[vestingScheduleId].initialized == true */\n      iszero\n      iszero\n        /* \"VestingContract.sol\":2208:2224  vestingSchedules */\n      0x03\n        /* \"VestingContract.sol\":2208:2243  vestingSchedules[vestingScheduleId] */\n      0x00\n        /* \"VestingContract.sol\":2225:2242  vestingScheduleId */\n      dup4\n        /* \"VestingContract.sol\":2208:2243  vestingSchedules[vestingScheduleId] */\n      dup2\n      mstore\n      0x20\n      add\n      swap1\n      dup2\n      mstore\n      0x20\n      add\n      0x00\n      keccak256\n        /* \"VestingContract.sol\":2208:2255  vestingSchedules[vestingScheduleId].initialized */\n      0x00\n      add\n      0x00\n      swap1\n      sload\n      swap1\n      0x0100\n      exp\n      swap1\n      div\n      0xff\n      and\n        /* \"VestingContract.sol\":2208:2263  vestingSchedules[vestingScheduleId].initialized == true */\n      iszero\n      iszero\n      eq\n        /* \"VestingContract.sol\":2200:2264  require(vestingSchedules[vestingScheduleId].initialized == true) */\n      tag_235\n      jumpi\n      0x00\n      dup1\n      revert\n    tag_235:\n        /* \"VestingContract.sol\":2330:2335  false */\n      0x00\n        /* \"VestingContract.sol\":2283:2335  vestingSchedules[vestingScheduleId].revoked == false */\n      iszero\n      iszero\n        /* \"VestingContract.sol\":2283:2299  vestingSchedules */\n      0x03\n        /* \"VestingContract.sol\":2283:2318  vestingSchedules[vestingScheduleId] */\n      0x00\n        /* \"VestingContract.sol\":2300:2317  vestingScheduleId */\n      dup4\n        /* \"VestingContract.sol\":2283:2318  vestingSchedules[vestingScheduleId] */\n      dup2\n      mstore\n      0x20\n      add\n      swap1\n      dup2\n      mstore\n      0x20\n      add\n      0x00\n      keccak256\n        /* \"VestingContract.sol\":2283:2326  vestingSchedules[vestingScheduleId].revoked */\n      0x08\n      add\n      0x00\n      swap1\n      sload\n      swap1\n      0x0100\n      exp\n      swap1\n      div\n      0xff\n      and\n        /* \"VestingContract.sol\":2283:2335  vestingSchedules[vestingScheduleId].revoked == false */\n      iszero\n      iszero\n      eq\n        /* \"VestingContract.sol\":2275:2336  require(vestingSchedules[vestingScheduleId].revoked == false) */\n      tag_236\n      jumpi\n      0x00\n      dup1\n      revert\n    tag_236:\n        /* \"VestingContract.sol\":9396:9435  VestingSchedule storage vestingSchedule */\n      0x00\n        /* \"VestingContract.sol\":9438:9454  vestingSchedules */\n      0x03\n        /* \"VestingContract.sol\":9438:9473  vestingSchedules[vestingScheduleId] */\n      0x00\n        /* \"VestingContract.sol\":9455:9472  vestingScheduleId */\n      dup6\n        /* \"VestingContract.sol\":9438:9473  vestingSchedules[vestingScheduleId] */\n      dup2\n      mstore\n      0x20\n      add\n      swap1\n      dup2\n      mstore\n      0x20\n      add\n      0x00\n      keccak256\n        /* \"VestingContract.sol\":9396:9473  VestingSchedule storage vestingSchedule = vestingSchedules[vestingScheduleId] */\n      swap1\n      pop\n        /* \"VestingContract.sol\":9491:9532  _computeReleasableAmount(vestingSchedule) */\n      tag_238\n        /* \"VestingContract.sol\":9516:9531  vestingSchedule */\n      dup2\n        /* \"VestingContract.sol\":9491:9532  _computeReleasableAmount(vestingSchedule) */\n      mload(0x40)\n      dup1\n      0x0140\n      add\n      0x40\n      mstore\n      swap1\n      dup2\n      0x00\n      dup3\n      add\n      0x00\n      swap1\n      sload\n      swap1\n      0x0100\n      exp\n      swap1\n      div\n      0xff\n      and\n      iszero\n      iszero\n      iszero\n      iszero\n      dup2\n      mstore\n      0x20\n      add\n      0x00\n      dup3\n      add\n      0x01\n      swap1\n      sload\n      swap1\n      0x0100\n      exp\n      swap1\n      div\n      0xffffffffffffffffffffffffffffffffffffffff\n      and\n      0xffffffffffffffffffffffffffffffffffffffff\n      and\n      0xffffffffffffffffffffffffffffffffffffffff\n      and\n      dup2\n      mstore\n      0x20\n      add\n      0x01\n      dup3\n      add\n      sload\n      dup2\n      mstore\n      0x20\n      add\n      0x02\n      dup3\n      add\n      sload\n      dup2\n      mstore\n      0x20\n      add\n      0x03\n      dup3\n      add\n      sload\n      dup2\n      mstore\n      0x20\n      add\n      0x04\n      dup3\n      add\n      sload\n      dup2\n      mstore\n      0x20\n      add\n      0x05\n      dup3\n      add\n      0x00\n      swap1\n      sload\n      swap1\n      0x0100\n      exp\n      swap1\n      div\n      0xff\n      and\n      iszero\n      iszero\n      iszero\n      iszero\n      dup2\n      mstore\n      0x20\n      add\n      0x06\n      dup3\n      add\n      sload\n      dup2\n      mstore\n      0x20\n      add\n      0x07\n      dup3\n      add\n      sload\n      dup2\n      mstore\n      0x20\n      add\n      0x08\n      dup3\n      add\n      0x00\n      swap1\n      sload\n      swap1\n      0x0100\n      exp\n      swap1\n      div\n      0xff\n      and\n      iszero\n      iszero\n      iszero\n      iszero\n      dup2\n      mstore\n      pop\n      pop\n        /* \"VestingContract.sol\":9491:9515  _computeReleasableAmount */\n      tag_188\n        /* \"VestingContract.sol\":9491:9532  _computeReleasableAmount(vestingSchedule) */\n      jump\t// in\n    tag_238:\n        /* \"VestingContract.sol\":9484:9532  return _computeReleasableAmount(vestingSchedule) */\n      swap3\n      pop\n      pop\n        /* \"VestingContract.sol\":9210:9540  function computeReleasableAmount(bytes32 vestingScheduleId)\r... */\n      pop\n      swap2\n      swap1\n      pop\n      jump\t// out\n        /* \"@openzeppelin/contracts/access/Ownable.sol\":2081:2279  function transferOwnership(address newOwner) public virtual onlyOwner {... */\n    tag_106:\n        /* \"@openzeppelin/contracts/access/Ownable.sol\":1094:1107  _checkOwner() */\n      tag_240\n        /* \"@openzeppelin/contracts/access/Ownable.sol\":1094:1105  _checkOwner */\n      tag_125\n        /* \"@openzeppelin/contracts/access/Ownable.sol\":1094:1107  _checkOwner() */\n      jump\t// in\n    tag_240:\n        /* \"@openzeppelin/contracts/access/Ownable.sol\":2189:2190  0 */\n      0x00\n        /* \"@openzeppelin/contracts/access/Ownable.sol\":2169:2191  newOwner != address(0) */\n      0xffffffffffffffffffffffffffffffffffffffff\n      and\n        /* \"@openzeppelin/contracts/access/Ownable.sol\":2169:2177  newOwner */\n      dup2\n        /* \"@openzeppelin/contracts/access/Ownable.sol\":2169:2191  newOwner != address(0) */\n      0xffffffffffffffffffffffffffffffffffffffff\n      and\n      eq\n      iszero\n        /* \"@openzeppelin/contracts/access/Ownable.sol\":2161:2234  require(newOwner != address(0), \"Ownable: new owner is the zero address\") */\n      tag_242\n      jumpi\n      mload(0x40)\n      0x08c379a000000000000000000000000000000000000000000000000000000000\n      dup2\n      mstore\n      0x04\n      add\n      tag_243\n      swap1\n      tag_244\n      jump\t// in\n    tag_243:\n      mload(0x40)\n      dup1\n      swap2\n      sub\n      swap1\n      revert\n    tag_242:\n        /* \"@openzeppelin/contracts/access/Ownable.sol\":2244:2272  _transferOwnership(newOwner) */\n      tag_245\n        /* \"@openzeppelin/contracts/access/Ownable.sol\":2263:2271  newOwner */\n      dup2\n        /* \"@openzeppelin/contracts/access/Ownable.sol\":2244:2262  _transferOwnership */\n      tag_200\n        /* \"@openzeppelin/contracts/access/Ownable.sol\":2244:2272  _transferOwnership(newOwner) */\n      jump\t// in\n    tag_245:\n        /* \"@openzeppelin/contracts/access/Ownable.sol\":2081:2279  function transferOwnership(address newOwner) public virtual onlyOwner {... */\n      pop\n      jump\t// out\n        /* \"VestingContract.sol\":3514:3753  function getVestingScheduleByAddressAndIndex(address holder, uint256 index)\r... */\n    tag_110:\n        /* \"VestingContract.sol\":3627:3649  VestingSchedule memory */\n      tag_246\n      tag_202\n      jump\t// in\n    tag_246:\n        /* \"VestingContract.sol\":3668:3745  getVestingSchedule(computeVestingScheduleIdForAddressAndIndex(holder, index)) */\n      tag_248\n        /* \"VestingContract.sol\":3687:3744  computeVestingScheduleIdForAddressAndIndex(holder, index) */\n      tag_249\n        /* \"VestingContract.sol\":3730:3736  holder */\n      dup5\n        /* \"VestingContract.sol\":3738:3743  index */\n      dup5\n        /* \"VestingContract.sol\":3687:3729  computeVestingScheduleIdForAddressAndIndex */\n      tag_77\n        /* \"VestingContract.sol\":3687:3744  computeVestingScheduleIdForAddressAndIndex(holder, index) */\n      jump\t// in\n    tag_249:\n        /* \"VestingContract.sol\":3668:3686  getVestingSchedule */\n      tag_92\n        /* \"VestingContract.sol\":3668:3745  getVestingSchedule(computeVestingScheduleIdForAddressAndIndex(holder, index)) */\n      jump\t// in\n    tag_248:\n        /* \"VestingContract.sol\":3661:3745  return getVestingSchedule(computeVestingScheduleIdForAddressAndIndex(holder, index)) */\n      swap1\n      pop\n        /* \"VestingContract.sol\":3514:3753  function getVestingScheduleByAddressAndIndex(address holder, uint256 index)\r... */\n      swap3\n      swap2\n      pop\n      pop\n      jump\t// out\n        /* \"VestingContract.sol\":10316:10539  function computeNextVestingScheduleIdForHolder(address holder)\r... */\n    tag_115:\n        /* \"VestingContract.sol\":10426:10433  bytes32 */\n      0x00\n        /* \"VestingContract.sol\":10452:10531  computeVestingScheduleIdForAddressAndIndex(holder, holdersVestingCount[holder]) */\n      tag_251\n        /* \"VestingContract.sol\":10495:10501  holder */\n      dup3\n        /* \"VestingContract.sol\":10503:10522  holdersVestingCount */\n      0x05\n        /* \"VestingContract.sol\":10503:10530  holdersVestingCount[holder] */\n      0x00\n        /* \"VestingContract.sol\":10523:10529  holder */\n      dup6\n        /* \"VestingContract.sol\":10503:10530  holdersVestingCount[holder] */\n      0xffffffffffffffffffffffffffffffffffffffff\n      and\n      0xffffffffffffffffffffffffffffffffffffffff\n      and\n      dup2\n      mstore\n      0x20\n      add\n      swap1\n      dup2\n      mstore\n      0x20\n      add\n      0x00\n      keccak256\n      sload\n        /* \"VestingContract.sol\":10452:10494  computeVestingScheduleIdForAddressAndIndex */\n      tag_77\n        /* \"VestingContract.sol\":10452:10531  computeVestingScheduleIdForAddressAndIndex(holder, holdersVestingCount[holder]) */\n      jump\t// in\n    tag_251:\n        /* \"VestingContract.sol\":10445:10531  return computeVestingScheduleIdForAddressAndIndex(holder, holdersVestingCount[holder]) */\n      swap1\n      pop\n        /* \"VestingContract.sol\":10316:10539  function computeNextVestingScheduleIdForHolder(address holder)\r... */\n      swap2\n      swap1\n      pop\n      jump\t// out\n        /* \"VestingContract.sol\":3113:3345  function getVestingIdAtIndex(uint256 index)\r... */\n    tag_120:\n        /* \"VestingContract.sol\":3194:3201  bytes32 */\n      0x00\n        /* \"VestingContract.sol\":3229:3255  getVestingSchedulesCount() */\n      tag_253\n        /* \"VestingContract.sol\":3229:3253  getVestingSchedulesCount */\n      tag_31\n        /* \"VestingContract.sol\":3229:3255  getVestingSchedulesCount() */\n      jump\t// in\n    tag_253:\n        /* \"VestingContract.sol\":3221:3226  index */\n      dup3\n        /* \"VestingContract.sol\":3221:3255  index < getVestingSchedulesCount() */\n      lt\n        /* \"VestingContract.sol\":3213:3293  require(index < getVestingSchedulesCount(), \"TokenVesting: index out of bounds\") */\n      tag_254\n      jumpi\n      mload(0x40)\n      0x08c379a000000000000000000000000000000000000000000000000000000000\n      dup2\n      mstore\n      0x04\n      add\n      tag_255\n      swap1\n      tag_256\n      jump\t// in\n    tag_255:\n      mload(0x40)\n      dup1\n      swap2\n      sub\n      swap1\n      revert\n    tag_254:\n        /* \"VestingContract.sol\":3311:3330  vestingSchedulesIds */\n      0x02\n        /* \"VestingContract.sol\":3331:3336  index */\n      dup3\n        /* \"VestingContract.sol\":3311:3337  vestingSchedulesIds[index] */\n      dup2\n      sload\n      dup2\n      lt\n      tag_257\n      jumpi\n      tag_258\n      tag_259\n      jump\t// in\n    tag_258:\n    tag_257:\n      swap1\n      0x00\n      mstore\n      keccak256(0x00, 0x20)\n      add\n      sload\n        /* \"VestingContract.sol\":3304:3337  return vestingSchedulesIds[index] */\n      swap1\n      pop\n        /* \"VestingContract.sol\":3113:3345  function getVestingIdAtIndex(uint256 index)\r... */\n      swap2\n      swap1\n      pop\n      jump\t// out\n        /* \"@openzeppelin/contracts/access/Ownable.sol\":1359:1489  function _checkOwner() internal view virtual {... */\n    tag_125:\n        /* \"@openzeppelin/contracts/access/Ownable.sol\":1433:1445  _msgSender() */\n      tag_262\n        /* \"@openzeppelin/contracts/access/Ownable.sol\":1433:1443  _msgSender */\n      tag_263\n        /* \"@openzeppelin/contracts/access/Ownable.sol\":1433:1445  _msgSender() */\n      jump\t// in\n    tag_262:\n        /* \"@openzeppelin/contracts/access/Ownable.sol\":1422:1445  owner() == _msgSender() */\n      0xffffffffffffffffffffffffffffffffffffffff\n      and\n        /* \"@openzeppelin/contracts/access/Ownable.sol\":1422:1429  owner() */\n      tag_264\n        /* \"@openzeppelin/contracts/access/Ownable.sol\":1422:1427  owner */\n      tag_82\n        /* \"@openzeppelin/contracts/access/Ownable.sol\":1422:1429  owner() */\n      jump\t// in\n    tag_264:\n        /* \"@openzeppelin/contracts/access/Ownable.sol\":1422:1445  owner() == _msgSender() */\n      0xffffffffffffffffffffffffffffffffffffffff\n      and\n      eq\n        /* \"@openzeppelin/contracts/access/Ownable.sol\":1414:1482  require(owner() == _msgSender(), \"Ownable: caller is not the owner\") */\n      tag_265\n      jumpi\n      mload(0x40)\n      0x08c379a000000000000000000000000000000000000000000000000000000000\n      dup2\n      mstore\n      0x04\n      add\n      tag_266\n      swap1\n      tag_267\n      jump\t// in\n    tag_266:\n      mload(0x40)\n      dup1\n      swap2\n      sub\n      swap1\n      revert\n    tag_265:\n        /* \"@openzeppelin/contracts/access/Ownable.sol\":1359:1489  function _checkOwner() internal view virtual {... */\n      jump\t// out\n        /* \"@openzeppelin/contracts/utils/math/SafeMath.sol\":2755:2851  function add(uint256 a, uint256 b) internal pure returns (uint256) {... */\n    tag_151:\n        /* \"@openzeppelin/contracts/utils/math/SafeMath.sol\":2813:2820  uint256 */\n      0x00\n        /* \"@openzeppelin/contracts/utils/math/SafeMath.sol\":2843:2844  b */\n      dup2\n        /* \"@openzeppelin/contracts/utils/math/SafeMath.sol\":2839:2840  a */\n      dup4\n        /* \"@openzeppelin/contracts/utils/math/SafeMath.sol\":2839:2844  a + b */\n      tag_269\n      swap2\n      swap1\n      tag_270\n      jump\t// in\n    tag_269:\n        /* \"@openzeppelin/contracts/utils/math/SafeMath.sol\":2832:2844  return a + b */\n      swap1\n      pop\n        /* \"@openzeppelin/contracts/utils/math/SafeMath.sol\":2755:2851  function add(uint256 a, uint256 b) internal pure returns (uint256) {... */\n      swap3\n      swap2\n      pop\n      pop\n      jump\t// out\n        /* \"@openzeppelin/contracts/token/ERC20/utils/SafeERC20.sol\":763:968  function safeTransfer(... */\n    tag_172:\n        /* \"@openzeppelin/contracts/token/ERC20/utils/SafeERC20.sol\":875:961  _callOptionalReturn(token, abi.encodeWithSelector(token.transfer.selector, to, value)) */\n      tag_272\n        /* \"@openzeppelin/contracts/token/ERC20/utils/SafeERC20.sol\":895:900  token */\n      dup4\n        /* \"@openzeppelin/contracts/token/ERC20/utils/SafeERC20.sol\":925:948  token.transfer.selector */\n      shl(0xe0, 0xa9059cbb)\n        /* \"@openzeppelin/contracts/token/ERC20/utils/SafeERC20.sol\":950:952  to */\n      dup5\n        /* \"@openzeppelin/contracts/token/ERC20/utils/SafeERC20.sol\":954:959  value */\n      dup5\n        /* \"@openzeppelin/contracts/token/ERC20/utils/SafeERC20.sol\":902:960  abi.encodeWithSelector(token.transfer.selector, to, value) */\n      add(0x24, mload(0x40))\n      tag_273\n      swap3\n      swap2\n      swap1\n      tag_274\n      jump\t// in\n    tag_273:\n      mload(0x40)\n      0x20\n      dup2\n      dup4\n      sub\n      sub\n      dup2\n      mstore\n      swap1\n      0x40\n      mstore\n      swap1\n      not(0xffffffffffffffffffffffffffffffffffffffffffffffffffffffff)\n      and\n      0x20\n      dup3\n      add\n      dup1\n      mload\n      0xffffffffffffffffffffffffffffffffffffffffffffffffffffffff\n      dup4\n      dup2\n      dup4\n      and\n      or\n      dup4\n      mstore\n      pop\n      pop\n      pop\n      pop\n        /* \"@openzeppelin/contracts/token/ERC20/utils/SafeERC20.sol\":875:894  _callOptionalReturn */\n      tag_275\n        /* \"@openzeppelin/contracts/token/ERC20/utils/SafeERC20.sol\":875:961  _callOptionalReturn(token, abi.encodeWithSelector(token.transfer.selector, to, value)) */\n      jump\t// in\n    tag_272:\n        /* \"@openzeppelin/contracts/token/ERC20/utils/SafeERC20.sol\":763:968  function safeTransfer(... */\n      pop\n      pop\n      pop\n      jump\t// out\n        /* \"VestingContract.sol\":11354:12365  function _computeReleasableAmount(VestingSchedule memory vestingSchedule)\r... */\n    tag_188:\n        /* \"VestingContract.sol\":11465:11472  uint256 */\n      0x00\n        /* \"VestingContract.sol\":11484:11503  uint256 currentTime */\n      dup1\n        /* \"VestingContract.sol\":11506:11522  getCurrentTime() */\n      tag_277\n        /* \"VestingContract.sol\":11506:11520  getCurrentTime */\n      tag_278\n        /* \"VestingContract.sol\":11506:11522  getCurrentTime() */\n      jump\t// in\n    tag_277:\n        /* \"VestingContract.sol\":11484:11522  uint256 currentTime = getCurrentTime() */\n      swap1\n      pop\n        /* \"VestingContract.sol\":11552:11567  vestingSchedule */\n      dup3\n        /* \"VestingContract.sol\":11552:11573  vestingSchedule.cliff */\n      0x40\n      add\n      mload\n        /* \"VestingContract.sol\":11538:11549  currentTime */\n      dup2\n        /* \"VestingContract.sol\":11538:11573  currentTime < vestingSchedule.cliff */\n      lt\n        /* \"VestingContract.sol\":11537:11609  (currentTime < vestingSchedule.cliff) || vestingSchedule.revoked == true */\n      dup1\n      tag_279\n      jumpi\n      pop\n        /* \"VestingContract.sol\":11605:11609  true */\n      0x01\n        /* \"VestingContract.sol\":11578:11609  vestingSchedule.revoked == true */\n      iszero\n      iszero\n        /* \"VestingContract.sol\":11578:11593  vestingSchedule */\n      dup4\n        /* \"VestingContract.sol\":11578:11601  vestingSchedule.revoked */\n      0x0120\n      add\n      mload\n        /* \"VestingContract.sol\":11578:11609  vestingSchedule.revoked == true */\n      iszero\n      iszero\n      eq\n        /* \"VestingContract.sol\":11537:11609  (currentTime < vestingSchedule.cliff) || vestingSchedule.revoked == true */\n    tag_279:\n        /* \"VestingContract.sol\":11533:12358  if ((currentTime < vestingSchedule.cliff) || vestingSchedule.revoked == true) {\r... */\n      iszero\n      tag_280\n      jumpi\n        /* \"VestingContract.sol\":11633:11634  0 */\n      0x00\n        /* \"VestingContract.sol\":11626:11634  return 0 */\n      swap2\n      pop\n      pop\n      jump(tag_276)\n        /* \"VestingContract.sol\":11533:12358  if ((currentTime < vestingSchedule.cliff) || vestingSchedule.revoked == true) {\r... */\n    tag_280:\n        /* \"VestingContract.sol\":11671:11722  vestingSchedule.start.add(vestingSchedule.duration) */\n      tag_282\n        /* \"VestingContract.sol\":11697:11712  vestingSchedule */\n      dup4\n        /* \"VestingContract.sol\":11697:11721  vestingSchedule.duration */\n      0x80\n      add\n      mload\n        /* \"VestingContract.sol\":11671:11686  vestingSchedule */\n      dup5\n        /* \"VestingContract.sol\":11671:11692  vestingSchedule.start */\n      0x60\n      add\n      mload\n        /* \"VestingContract.sol\":11671:11696  vestingSchedule.start.add */\n      tag_151\n      swap1\n        /* \"VestingContract.sol\":11671:11722  vestingSchedule.start.add(vestingSchedule.duration) */\n      swap2\n      swap1\n      0xffffffff\n      and\n      jump\t// in\n    tag_282:\n        /* \"VestingContract.sol\":11656:11667  currentTime */\n      dup2\n        /* \"VestingContract.sol\":11656:11722  currentTime >= vestingSchedule.start.add(vestingSchedule.duration) */\n      lt\n        /* \"VestingContract.sol\":11652:12358  if (currentTime >= vestingSchedule.start.add(vestingSchedule.duration)) {\r... */\n      tag_283\n      jumpi\n        /* \"VestingContract.sol\":11746:11803  vestingSchedule.amountTotal.sub(vestingSchedule.released) */\n      tag_284\n        /* \"VestingContract.sol\":11778:11793  vestingSchedule */\n      dup4\n        /* \"VestingContract.sol\":11778:11802  vestingSchedule.released */\n      0x0100\n      add\n      mload\n        /* \"VestingContract.sol\":11746:11761  vestingSchedule */\n      dup5\n        /* \"VestingContract.sol\":11746:11773  vestingSchedule.amountTotal */\n      0xe0\n      add\n      mload\n        /* \"VestingContract.sol\":11746:11777  vestingSchedule.amountTotal.sub */\n      tag_194\n      swap1\n        /* \"VestingContract.sol\":11746:11803  vestingSchedule.amountTotal.sub(vestingSchedule.released) */\n      swap2\n      swap1\n      0xffffffff\n      and\n      jump\t// in\n    tag_284:\n        /* \"VestingContract.sol\":11739:11803  return vestingSchedule.amountTotal.sub(vestingSchedule.released) */\n      swap2\n      pop\n      pop\n      jump(tag_276)\n        /* \"VestingContract.sol\":11652:12358  if (currentTime >= vestingSchedule.start.add(vestingSchedule.duration)) {\r... */\n    tag_283:\n        /* \"VestingContract.sol\":11836:11857  uint256 timeFromStart */\n      0x00\n        /* \"VestingContract.sol\":11860:11898  currentTime.sub(vestingSchedule.start) */\n      tag_286\n        /* \"VestingContract.sol\":11876:11891  vestingSchedule */\n      dup5\n        /* \"VestingContract.sol\":11876:11897  vestingSchedule.start */\n      0x60\n      add\n      mload\n        /* \"VestingContract.sol\":11860:11871  currentTime */\n      dup4\n        /* \"VestingContract.sol\":11860:11875  currentTime.sub */\n      tag_194\n      swap1\n        /* \"VestingContract.sol\":11860:11898  currentTime.sub(vestingSchedule.start) */\n      swap2\n      swap1\n      0xffffffff\n      and\n      jump\t// in\n    tag_286:\n        /* \"VestingContract.sol\":11836:11898  uint256 timeFromStart = currentTime.sub(vestingSchedule.start) */\n      swap1\n      pop\n        /* \"VestingContract.sol\":11913:11933  uint secondsPerSlice */\n      0x00\n        /* \"VestingContract.sol\":11936:11951  vestingSchedule */\n      dup5\n        /* \"VestingContract.sol\":11936:11970  vestingSchedule.slicePeriodSeconds */\n      0xa0\n      add\n      mload\n        /* \"VestingContract.sol\":11913:11970  uint secondsPerSlice = vestingSchedule.slicePeriodSeconds */\n      swap1\n      pop\n        /* \"VestingContract.sol\":11985:12011  uint256 vestedSlicePeriods */\n      0x00\n        /* \"VestingContract.sol\":12014:12048  timeFromStart.div(secondsPerSlice) */\n      tag_287\n        /* \"VestingContract.sol\":12032:12047  secondsPerSlice */\n      dup3\n        /* \"VestingContract.sol\":12014:12027  timeFromStart */\n      dup5\n        /* \"VestingContract.sol\":12014:12031  timeFromStart.div */\n      tag_288\n      swap1\n        /* \"VestingContract.sol\":12014:12048  timeFromStart.div(secondsPerSlice) */\n      swap2\n      swap1\n      0xffffffff\n      and\n      jump\t// in\n    tag_287:\n        /* \"VestingContract.sol\":11985:12048  uint256 vestedSlicePeriods = timeFromStart.div(secondsPerSlice) */\n      swap1\n      pop\n        /* \"VestingContract.sol\":12063:12084  uint256 vestedSeconds */\n      0x00\n        /* \"VestingContract.sol\":12087:12126  vestedSlicePeriods.mul(secondsPerSlice) */\n      tag_289\n        /* \"VestingContract.sol\":12110:12125  secondsPerSlice */\n      dup4\n        /* \"VestingContract.sol\":12087:12105  vestedSlicePeriods */\n      dup4\n        /* \"VestingContract.sol\":12087:12109  vestedSlicePeriods.mul */\n      tag_290\n      swap1\n        /* \"VestingContract.sol\":12087:12126  vestedSlicePeriods.mul(secondsPerSlice) */\n      swap2\n      swap1\n      0xffffffff\n      and\n      jump\t// in\n    tag_289:\n        /* \"VestingContract.sol\":12063:12126  uint256 vestedSeconds = vestedSlicePeriods.mul(secondsPerSlice) */\n      swap1\n      pop\n        /* \"VestingContract.sol\":12141:12161  uint256 vestedAmount */\n      0x00\n        /* \"VestingContract.sol\":12164:12240  vestingSchedule.amountTotal.mul(vestedSeconds).div(vestingSchedule.duration) */\n      tag_291\n        /* \"VestingContract.sol\":12215:12230  vestingSchedule */\n      dup9\n        /* \"VestingContract.sol\":12215:12239  vestingSchedule.duration */\n      0x80\n      add\n      mload\n        /* \"VestingContract.sol\":12164:12210  vestingSchedule.amountTotal.mul(vestedSeconds) */\n      tag_292\n        /* \"VestingContract.sol\":12196:12209  vestedSeconds */\n      dup5\n        /* \"VestingContract.sol\":12164:12179  vestingSchedule */\n      dup12\n        /* \"VestingContract.sol\":12164:12191  vestingSchedule.amountTotal */\n      0xe0\n      add\n      mload\n        /* \"VestingContract.sol\":12164:12195  vestingSchedule.amountTotal.mul */\n      tag_290\n      swap1\n        /* \"VestingContract.sol\":12164:12210  vestingSchedule.amountTotal.mul(vestedSeconds) */\n      swap2\n      swap1\n      0xffffffff\n      and\n      jump\t// in\n    tag_292:\n        /* \"VestingContract.sol\":12164:12214  vestingSchedule.amountTotal.mul(vestedSeconds).div */\n      tag_288\n      swap1\n        /* \"VestingContract.sol\":12164:12240  vestingSchedule.amountTotal.mul(vestedSeconds).div(vestingSchedule.duration) */\n      swap2\n      swap1\n      0xffffffff\n      and\n      jump\t// in\n    tag_291:\n        /* \"VestingContract.sol\":12141:12240  uint256 vestedAmount = vestingSchedule.amountTotal.mul(vestedSeconds).div(vestingSchedule.duration) */\n      swap1\n      pop\n        /* \"VestingContract.sol\":12270:12312  vestedAmount.sub(vestingSchedule.released) */\n      tag_293\n        /* \"VestingContract.sol\":12287:12302  vestingSchedule */\n      dup9\n        /* \"VestingContract.sol\":12287:12311  vestingSchedule.released */\n      0x0100\n      add\n      mload\n        /* \"VestingContract.sol\":12270:12282  vestedAmount */\n      dup3\n        /* \"VestingContract.sol\":12270:12286  vestedAmount.sub */\n      tag_194\n      swap1\n        /* \"VestingContract.sol\":12270:12312  vestedAmount.sub(vestingSchedule.released) */\n      swap2\n      swap1\n      0xffffffff\n      and\n      jump\t// in\n    tag_293:\n        /* \"VestingContract.sol\":12255:12312  vestedAmount = vestedAmount.sub(vestingSchedule.released) */\n      swap1\n      pop\n        /* \"VestingContract.sol\":12334:12346  vestedAmount */\n      dup1\n        /* \"VestingContract.sol\":12327:12346  return vestedAmount */\n      swap7\n      pop\n      pop\n      pop\n      pop\n      pop\n      pop\n      pop\n        /* \"VestingContract.sol\":11354:12365  function _computeReleasableAmount(VestingSchedule memory vestingSchedule)\r... */\n    tag_276:\n      swap2\n      swap1\n      pop\n      jump\t// out\n        /* \"@openzeppelin/contracts/utils/math/SafeMath.sol\":3122:3218  function sub(uint256 a, uint256 b) internal pure returns (uint256) {... */\n    tag_194:\n        /* \"@openzeppelin/contracts/utils/math/SafeMath.sol\":3180:3187  uint256 */\n      0x00\n        /* \"@openzeppelin/contracts/utils/math/SafeMath.sol\":3210:3211  b */\n      dup2\n        /* \"@openzeppelin/contracts/utils/math/SafeMath.sol\":3206:3207  a */\n      dup4\n        /* \"@openzeppelin/contracts/utils/math/SafeMath.sol\":3206:3211  a - b */\n      tag_295\n      swap2\n      swap1\n      tag_206\n      jump\t// in\n    tag_295:\n        /* \"@openzeppelin/contracts/utils/math/SafeMath.sol\":3199:3211  return a - b */\n      swap1\n      pop\n        /* \"@openzeppelin/contracts/utils/math/SafeMath.sol\":3122:3218  function sub(uint256 a, uint256 b) internal pure returns (uint256) {... */\n      swap3\n      swap2\n      pop\n      pop\n      jump\t// out\n        /* \"@openzeppelin/contracts/access/Ownable.sol\":2433:2620  function _transferOwnership(address newOwner) internal virtual {... */\n    tag_200:\n        /* \"@openzeppelin/contracts/access/Ownable.sol\":2506:2522  address oldOwner */\n      0x00\n        /* \"@openzeppelin/contracts/access/Ownable.sol\":2525:2531  _owner */\n      dup1\n      0x00\n      swap1\n      sload\n      swap1\n      0x0100\n      exp\n      swap1\n      div\n      0xffffffffffffffffffffffffffffffffffffffff\n      and\n        /* \"@openzeppelin/contracts/access/Ownable.sol\":2506:2531  address oldOwner = _owner */\n      swap1\n      pop\n        /* \"@openzeppelin/contracts/access/Ownable.sol\":2550:2558  newOwner */\n      dup2\n        /* \"@openzeppelin/contracts/access/Ownable.sol\":2541:2547  _owner */\n      0x00\n      dup1\n        /* \"@openzeppelin/contracts/access/Ownable.sol\":2541:2558  _owner = newOwner */\n      0x0100\n      exp\n      dup2\n      sload\n      dup2\n      0xffffffffffffffffffffffffffffffffffffffff\n      mul\n      not\n      and\n      swap1\n      dup4\n      0xffffffffffffffffffffffffffffffffffffffff\n      and\n      mul\n      or\n      swap1\n      sstore\n      pop\n        /* \"@openzeppelin/contracts/access/Ownable.sol\":2604:2612  newOwner */\n      dup2\n        /* \"@openzeppelin/contracts/access/Ownable.sol\":2573:2613  OwnershipTransferred(oldOwner, newOwner) */\n      0xffffffffffffffffffffffffffffffffffffffff\n      and\n        /* \"@openzeppelin/contracts/access/Ownable.sol\":2594:2602  oldOwner */\n      dup2\n        /* \"@openzeppelin/contracts/access/Ownable.sol\":2573:2613  OwnershipTransferred(oldOwner, newOwner) */\n      0xffffffffffffffffffffffffffffffffffffffff\n      and\n      0x8be0079c531659141344cd1fd0a4f28419497f9722a3daafe3b4186f6b6457e0\n      mload(0x40)\n      mload(0x40)\n      dup1\n      swap2\n      sub\n      swap1\n      log3\n        /* \"@openzeppelin/contracts/access/Ownable.sol\":2496:2620  {... */\n      pop\n        /* \"@openzeppelin/contracts/access/Ownable.sol\":2433:2620  function _transferOwnership(address newOwner) internal virtual {... */\n      pop\n      jump\t// out\n        /* \"@openzeppelin/contracts/utils/Context.sol\":640:736  function _msgSender() internal view virtual returns (address) {... */\n    tag_263:\n        /* \"@openzeppelin/contracts/utils/Context.sol\":693:700  address */\n      0x00\n        /* \"@openzeppelin/contracts/utils/Context.sol\":719:729  msg.sender */\n      caller\n        /* \"@openzeppelin/contracts/utils/Context.sol\":712:729  return msg.sender */\n      swap1\n      pop\n        /* \"@openzeppelin/contracts/utils/Context.sol\":640:736  function _msgSender() internal view virtual returns (address) {... */\n      swap1\n      jump\t// out\n        /* \"@openzeppelin/contracts/token/ERC20/utils/SafeERC20.sol\":3747:4453  function _callOptionalReturn(IERC20 token, bytes memory data) private {... */\n    tag_275:\n        /* \"@openzeppelin/contracts/token/ERC20/utils/SafeERC20.sol\":4166:4189  bytes memory returndata */\n      0x00\n        /* \"@openzeppelin/contracts/token/ERC20/utils/SafeERC20.sol\":4192:4261  address(token).functionCall(data, \"SafeERC20: low-level call failed\") */\n      tag_299\n        /* \"@openzeppelin/contracts/token/ERC20/utils/SafeERC20.sol\":4220:4224  data */\n      dup3\n        /* \"@openzeppelin/contracts/token/ERC20/utils/SafeERC20.sol\":4192:4261  address(token).functionCall(data, \"SafeERC20: low-level call failed\") */\n      mload(0x40)\n      dup1\n      0x40\n      add\n      0x40\n      mstore\n      dup1\n      0x20\n      dup2\n      mstore\n      0x20\n      add\n      0x5361666545524332303a206c6f772d6c6576656c2063616c6c206661696c6564\n      dup2\n      mstore\n      pop\n        /* \"@openzeppelin/contracts/token/ERC20/utils/SafeERC20.sol\":4200:4205  token */\n      dup6\n        /* \"@openzeppelin/contracts/token/ERC20/utils/SafeERC20.sol\":4192:4219  address(token).functionCall */\n      0xffffffffffffffffffffffffffffffffffffffff\n      and\n      tag_300\n      swap1\n        /* \"@openzeppelin/contracts/token/ERC20/utils/SafeERC20.sol\":4192:4261  address(token).functionCall(data, \"SafeERC20: low-level call failed\") */\n      swap3\n      swap2\n      swap1\n      0xffffffff\n      and\n      jump\t// in\n    tag_299:\n        /* \"@openzeppelin/contracts/token/ERC20/utils/SafeERC20.sol\":4166:4261  bytes memory returndata = address(token).functionCall(data, \"SafeERC20: low-level call failed\") */\n      swap1\n      pop\n        /* \"@openzeppelin/contracts/token/ERC20/utils/SafeERC20.sol\":4295:4296  0 */\n      0x00\n        /* \"@openzeppelin/contracts/token/ERC20/utils/SafeERC20.sol\":4275:4285  returndata */\n      dup2\n        /* \"@openzeppelin/contracts/token/ERC20/utils/SafeERC20.sol\":4275:4292  returndata.length */\n      mload\n        /* \"@openzeppelin/contracts/token/ERC20/utils/SafeERC20.sol\":4275:4296  returndata.length > 0 */\n      gt\n        /* \"@openzeppelin/contracts/token/ERC20/utils/SafeERC20.sol\":4271:4447  if (returndata.length > 0) {... */\n      iszero\n      tag_301\n      jumpi\n        /* \"@openzeppelin/contracts/token/ERC20/utils/SafeERC20.sol\":4370:4380  returndata */\n      dup1\n        /* \"@openzeppelin/contracts/token/ERC20/utils/SafeERC20.sol\":4359:4389  abi.decode(returndata, (bool)) */\n      dup1\n      0x20\n      add\n      swap1\n      mload\n      dup2\n      add\n      swap1\n      tag_302\n      swap2\n      swap1\n      tag_303\n      jump\t// in\n    tag_302:\n        /* \"@openzeppelin/contracts/token/ERC20/utils/SafeERC20.sol\":4351:4436  require(abi.decode(returndata, (bool)), \"SafeERC20: ERC20 operation did not succeed\") */\n      tag_304\n      jumpi\n      mload(0x40)\n      0x08c379a000000000000000000000000000000000000000000000000000000000\n      dup2\n      mstore\n      0x04\n      add\n      tag_305\n      swap1\n      tag_306\n      jump\t// in\n    tag_305:\n      mload(0x40)\n      dup1\n      swap2\n      sub\n      swap1\n      revert\n    tag_304:\n        /* \"@openzeppelin/contracts/token/ERC20/utils/SafeERC20.sol\":4271:4447  if (returndata.length > 0) {... */\n    tag_301:\n        /* \"@openzeppelin/contracts/token/ERC20/utils/SafeERC20.sol\":3817:4453  {... */\n      pop\n        /* \"@openzeppelin/contracts/token/ERC20/utils/SafeERC20.sol\":3747:4453  function _callOptionalReturn(IERC20 token, bytes memory data) private {... */\n      pop\n      pop\n      jump\t// out\n        /* \"VestingContract.sol\":12373:12514  function getCurrentTime()\r... */\n    tag_278:\n        /* \"VestingContract.sol\":12465:12472  uint256 */\n      0x00\n        /* \"VestingContract.sol\":12491:12506  block.timestamp */\n      timestamp\n        /* \"VestingContract.sol\":12484:12506  return block.timestamp */\n      swap1\n      pop\n        /* \"VestingContract.sol\":12373:12514  function getCurrentTime()\r... */\n      swap1\n      jump\t// out\n        /* \"@openzeppelin/contracts/utils/math/SafeMath.sol\":3850:3946  function div(uint256 a, uint256 b) internal pure returns (uint256) {... */\n    tag_288:\n        /* \"@openzeppelin/contracts/utils/math/SafeMath.sol\":3908:3915  uint256 */\n      0x00\n        /* \"@openzeppelin/contracts/utils/math/SafeMath.sol\":3938:3939  b */\n      dup2\n        /* \"@openzeppelin/contracts/utils/math/SafeMath.sol\":3934:3935  a */\n      dup4\n        /* \"@openzeppelin/contracts/utils/math/SafeMath.sol\":3934:3939  a / b */\n      tag_309\n      swap2\n      swap1\n      tag_310\n      jump\t// in\n    tag_309:\n        /* \"@openzeppelin/contracts/utils/math/SafeMath.sol\":3927:3939  return a / b */\n      swap1\n      pop\n        /* \"@openzeppelin/contracts/utils/math/SafeMath.sol\":3850:3946  function div(uint256 a, uint256 b) internal pure returns (uint256) {... */\n      swap3\n      swap2\n      pop\n      pop\n      jump\t// out\n        /* \"@openzeppelin/contracts/utils/math/SafeMath.sol\":3465:3561  function mul(uint256 a, uint256 b) internal pure returns (uint256) {... */\n    tag_290:\n        /* \"@openzeppelin/contracts/utils/math/SafeMath.sol\":3523:3530  uint256 */\n      0x00\n        /* \"@openzeppelin/contracts/utils/math/SafeMath.sol\":3553:3554  b */\n      dup2\n        /* \"@openzeppelin/contracts/utils/math/SafeMath.sol\":3549:3550  a */\n      dup4\n        /* \"@openzeppelin/contracts/utils/math/SafeMath.sol\":3549:3554  a * b */\n      tag_312\n      swap2\n      swap1\n      tag_313\n      jump\t// in\n    tag_312:\n        /* \"@openzeppelin/contracts/utils/math/SafeMath.sol\":3542:3554  return a * b */\n      swap1\n      pop\n        /* \"@openzeppelin/contracts/utils/math/SafeMath.sol\":3465:3561  function mul(uint256 a, uint256 b) internal pure returns (uint256) {... */\n      swap3\n      swap2\n      pop\n      pop\n      jump\t// out\n        /* \"@openzeppelin/contracts/utils/Address.sol\":3861:4084  function functionCall(... */\n    tag_300:\n        /* \"@openzeppelin/contracts/utils/Address.sol\":3994:4006  bytes memory */\n      0x60\n        /* \"@openzeppelin/contracts/utils/Address.sol\":4025:4077  functionCallWithValue(target, data, 0, errorMessage) */\n      tag_315\n        /* \"@openzeppelin/contracts/utils/Address.sol\":4047:4053  target */\n      dup5\n        /* \"@openzeppelin/contracts/utils/Address.sol\":4055:4059  data */\n      dup5\n        /* \"@openzeppelin/contracts/utils/Address.sol\":4061:4062  0 */\n      0x00\n        /* \"@openzeppelin/contracts/utils/Address.sol\":4064:4076  errorMessage */\n      dup6\n        /* \"@openzeppelin/contracts/utils/Address.sol\":4025:4046  functionCallWithValue */\n      tag_316\n        /* \"@openzeppelin/contracts/utils/Address.sol\":4025:4077  functionCallWithValue(target, data, 0, errorMessage) */\n      jump\t// in\n    tag_315:\n        /* \"@openzeppelin/contracts/utils/Address.sol\":4018:4077  return functionCallWithValue(target, data, 0, errorMessage) */\n      swap1\n      pop\n        /* \"@openzeppelin/contracts/utils/Address.sol\":3861:4084  function functionCall(... */\n      swap4\n      swap3\n      pop\n      pop\n      pop\n      jump\t// out\n        /* \"@openzeppelin/contracts/utils/Address.sol\":4948:5447  function functionCallWithValue(... */\n    tag_316:\n        /* \"@openzeppelin/contracts/utils/Address.sol\":5113:5125  bytes memory */\n      0x60\n        /* \"@openzeppelin/contracts/utils/Address.sol\":5170:5175  value */\n      dup3\n        /* \"@openzeppelin/contracts/utils/Address.sol\":5145:5166  address(this).balance */\n      selfbalance\n        /* \"@openzeppelin/contracts/utils/Address.sol\":5145:5175  address(this).balance >= value */\n      lt\n      iszero\n        /* \"@openzeppelin/contracts/utils/Address.sol\":5137:5218  require(address(this).balance >= value, \"Address: insufficient balance for call\") */\n      tag_318\n      jumpi\n      mload(0x40)\n      0x08c379a000000000000000000000000000000000000000000000000000000000\n      dup2\n      mstore\n      0x04\n      add\n      tag_319\n      swap1\n      tag_320\n      jump\t// in\n    tag_319:\n      mload(0x40)\n      dup1\n      swap2\n      sub\n      swap1\n      revert\n    tag_318:\n        /* \"@openzeppelin/contracts/utils/Address.sol\":5236:5254  isContract(target) */\n      tag_321\n        /* \"@openzeppelin/contracts/utils/Address.sol\":5247:5253  target */\n      dup6\n        /* \"@openzeppelin/contracts/utils/Address.sol\":5236:5246  isContract */\n      tag_322\n        /* \"@openzeppelin/contracts/utils/Address.sol\":5236:5254  isContract(target) */\n      jump\t// in\n    tag_321:\n        /* \"@openzeppelin/contracts/utils/Address.sol\":5228:5288  require(isContract(target), \"Address: call to non-contract\") */\n      tag_323\n      jumpi\n      mload(0x40)\n      0x08c379a000000000000000000000000000000000000000000000000000000000\n      dup2\n      mstore\n      0x04\n      add\n      tag_324\n      swap1\n      tag_325\n      jump\t// in\n    tag_324:\n      mload(0x40)\n      dup1\n      swap2\n      sub\n      swap1\n      revert\n    tag_323:\n        /* \"@openzeppelin/contracts/utils/Address.sol\":5300:5312  bool success */\n      0x00\n        /* \"@openzeppelin/contracts/utils/Address.sol\":5314:5337  bytes memory returndata */\n      dup1\n        /* \"@openzeppelin/contracts/utils/Address.sol\":5341:5347  target */\n      dup7\n        /* \"@openzeppelin/contracts/utils/Address.sol\":5341:5352  target.call */\n      0xffffffffffffffffffffffffffffffffffffffff\n      and\n        /* \"@openzeppelin/contracts/utils/Address.sol\":5360:5365  value */\n      dup6\n        /* \"@openzeppelin/contracts/utils/Address.sol\":5367:5371  data */\n      dup8\n        /* \"@openzeppelin/contracts/utils/Address.sol\":5341:5372  target.call{value: value}(data) */\n      mload(0x40)\n      tag_326\n      swap2\n      swap1\n      tag_327\n      jump\t// in\n    tag_326:\n      0x00\n      mload(0x40)\n      dup1\n      dup4\n      sub\n      dup2\n      dup6\n      dup8\n      gas\n      call\n      swap3\n      pop\n      pop\n      pop\n      returndatasize\n      dup1\n      0x00\n      dup2\n      eq\n      tag_330\n      jumpi\n      mload(0x40)\n      swap2\n      pop\n      and(add(returndatasize, 0x3f), not(0x1f))\n      dup3\n      add\n      0x40\n      mstore\n      returndatasize\n      dup3\n      mstore\n      returndatasize\n      0x00\n      0x20\n      dup5\n      add\n      returndatacopy\n      jump(tag_329)\n    tag_330:\n      0x60\n      swap2\n      pop\n    tag_329:\n      pop\n        /* \"@openzeppelin/contracts/utils/Address.sol\":5299:5372  (bool success, bytes memory returndata) = target.call{value: value}(data) */\n      swap2\n      pop\n      swap2\n      pop\n        /* \"@openzeppelin/contracts/utils/Address.sol\":5389:5440  verifyCallResult(success, returndata, errorMessage) */\n      tag_331\n        /* \"@openzeppelin/contracts/utils/Address.sol\":5406:5413  success */\n      dup3\n        /* \"@openzeppelin/contracts/utils/Address.sol\":5415:5425  returndata */\n      dup3\n        /* \"@openzeppelin/contracts/utils/Address.sol\":5427:5439  errorMessage */\n      dup7\n        /* \"@openzeppelin/contracts/utils/Address.sol\":5389:5405  verifyCallResult */\n      tag_332\n        /* \"@openzeppelin/contracts/utils/Address.sol\":5389:5440  verifyCallResult(success, returndata, errorMessage) */\n      jump\t// in\n    tag_331:\n        /* \"@openzeppelin/contracts/utils/Address.sol\":5382:5440  return verifyCallResult(success, returndata, errorMessage) */\n      swap3\n      pop\n      pop\n      pop\n        /* \"@openzeppelin/contracts/utils/Address.sol\":4948:5447  function functionCallWithValue(... */\n      swap5\n      swap4\n      pop\n      pop\n      pop\n      pop\n      jump\t// out\n        /* \"@openzeppelin/contracts/utils/Address.sol\":1175:1495  function isContract(address account) internal view returns (bool) {... */\n    tag_322:\n        /* \"@openzeppelin/contracts/utils/Address.sol\":1235:1239  bool */\n      0x00\n        /* \"@openzeppelin/contracts/utils/Address.sol\":1487:1488  0 */\n      dup1\n        /* \"@openzeppelin/contracts/utils/Address.sol\":1465:1472  account */\n      dup3\n        /* \"@openzeppelin/contracts/utils/Address.sol\":1465:1484  account.code.length */\n      0xffffffffffffffffffffffffffffffffffffffff\n      and\n      extcodesize\n        /* \"@openzeppelin/contracts/utils/Address.sol\":1465:1488  account.code.length > 0 */\n      gt\n        /* \"@openzeppelin/contracts/utils/Address.sol\":1458:1488  return account.code.length > 0 */\n      swap1\n      pop\n        /* \"@openzeppelin/contracts/utils/Address.sol\":1175:1495  function isContract(address account) internal view returns (bool) {... */\n      swap2\n      swap1\n      pop\n      jump\t// out\n        /* \"@openzeppelin/contracts/utils/Address.sol\":7561:8303  function verifyCallResult(... */\n    tag_332:\n        /* \"@openzeppelin/contracts/utils/Address.sol\":7707:7719  bytes memory */\n      0x60\n        /* \"@openzeppelin/contracts/utils/Address.sol\":7735:7742  success */\n      dup4\n        /* \"@openzeppelin/contracts/utils/Address.sol\":7731:8297  if (success) {... */\n      iszero\n      tag_335\n      jumpi\n        /* \"@openzeppelin/contracts/utils/Address.sol\":7765:7775  returndata */\n      dup3\n        /* \"@openzeppelin/contracts/utils/Address.sol\":7758:7775  return returndata */\n      swap1\n      pop\n      jump(tag_334)\n        /* \"@openzeppelin/contracts/utils/Address.sol\":7731:8297  if (success) {... */\n    tag_335:\n        /* \"@openzeppelin/contracts/utils/Address.sol\":7896:7897  0 */\n      0x00\n        /* \"@openzeppelin/contracts/utils/Address.sol\":7876:7886  returndata */\n      dup4\n        /* \"@openzeppelin/contracts/utils/Address.sol\":7876:7893  returndata.length */\n      mload\n        /* \"@openzeppelin/contracts/utils/Address.sol\":7876:7897  returndata.length > 0 */\n      gt\n        /* \"@openzeppelin/contracts/utils/Address.sol\":7872:8287  if (returndata.length > 0) {... */\n      iszero\n      tag_337\n      jumpi\n        /* \"@openzeppelin/contracts/utils/Address.sol\":8120:8130  returndata */\n      dup3\n        /* \"@openzeppelin/contracts/utils/Address.sol\":8114:8131  mload(returndata) */\n      mload\n        /* \"@openzeppelin/contracts/utils/Address.sol\":8180:8195  returndata_size */\n      dup1\n        /* \"@openzeppelin/contracts/utils/Address.sol\":8167:8177  returndata */\n      dup5\n        /* \"@openzeppelin/contracts/utils/Address.sol\":8163:8165  32 */\n      0x20\n        /* \"@openzeppelin/contracts/utils/Address.sol\":8159:8178  add(32, returndata) */\n      add\n        /* \"@openzeppelin/contracts/utils/Address.sol\":8152:8196  revert(add(32, returndata), returndata_size) */\n      revert\n        /* \"@openzeppelin/contracts/utils/Address.sol\":7872:8287  if (returndata.length > 0) {... */\n    tag_337:\n        /* \"@openzeppelin/contracts/utils/Address.sol\":8259:8271  errorMessage */\n      dup2\n        /* \"@openzeppelin/contracts/utils/Address.sol\":8252:8272  revert(errorMessage) */\n      mload(0x40)\n      0x08c379a000000000000000000000000000000000000000000000000000000000\n      dup2\n      mstore\n      0x04\n      add\n      tag_339\n      swap2\n      swap1\n      tag_340\n      jump\t// in\n    tag_339:\n      mload(0x40)\n      dup1\n      swap2\n      sub\n      swap1\n      revert\n        /* \"@openzeppelin/contracts/utils/Address.sol\":7561:8303  function verifyCallResult(... */\n    tag_334:\n      swap4\n      swap3\n      pop\n      pop\n      pop\n      jump\t// out\n    tag_202:\n      mload(0x40)\n      dup1\n      0x0140\n      add\n      0x40\n      mstore\n      dup1\n      iszero(iszero(0x00))\n      dup2\n      mstore\n      0x20\n      add\n      and(0xffffffffffffffffffffffffffffffffffffffff, 0x00)\n      dup2\n      mstore\n      0x20\n      add\n      0x00\n      dup2\n      mstore\n      0x20\n      add\n      0x00\n      dup2\n      mstore\n      0x20\n      add\n      0x00\n      dup2\n      mstore\n      0x20\n      add\n      0x00\n      dup2\n      mstore\n      0x20\n      add\n      iszero(iszero(0x00))\n      dup2\n      mstore\n      0x20\n      add\n      0x00\n      dup2\n      mstore\n      0x20\n      add\n      0x00\n      dup2\n      mstore\n      0x20\n      add\n      iszero(iszero(0x00))\n      dup2\n      mstore\n      pop\n      swap1\n      jump\t// out\n        /* \"#utility.yul\":7:146   */\n    tag_342:\n        /* \"#utility.yul\":53:58   */\n      0x00\n        /* \"#utility.yul\":91:97   */\n      dup2\n        /* \"#utility.yul\":78:98   */\n      calldataload\n        /* \"#utility.yul\":69:98   */\n      swap1\n      pop\n        /* \"#utility.yul\":107:140   */\n      tag_344\n        /* \"#utility.yul\":134:139   */\n      dup2\n        /* \"#utility.yul\":107:140   */\n      tag_345\n      jump\t// in\n    tag_344:\n        /* \"#utility.yul\":7:146   */\n      swap3\n      swap2\n      pop\n      pop\n      jump\t// out\n        /* \"#utility.yul\":152:285   */\n    tag_346:\n        /* \"#utility.yul\":195:200   */\n      0x00\n        /* \"#utility.yul\":233:239   */\n      dup2\n        /* \"#utility.yul\":220:240   */\n      calldataload\n        /* \"#utility.yul\":211:240   */\n      swap1\n      pop\n        /* \"#utility.yul\":249:279   */\n      tag_348\n        /* \"#utility.yul\":273:278   */\n      dup2\n        /* \"#utility.yul\":249:279   */\n      tag_349\n      jump\t// in\n    tag_348:\n        /* \"#utility.yul\":152:285   */\n      swap3\n      swap2\n      pop\n      pop\n      jump\t// out\n        /* \"#utility.yul\":291:428   */\n    tag_350:\n        /* \"#utility.yul\":345:350   */\n      0x00\n        /* \"#utility.yul\":376:382   */\n      dup2\n        /* \"#utility.yul\":370:383   */\n      mload\n        /* \"#utility.yul\":361:383   */\n      swap1\n      pop\n        /* \"#utility.yul\":392:422   */\n      tag_352\n        /* \"#utility.yul\":416:421   */\n      dup2\n        /* \"#utility.yul\":392:422   */\n      tag_349\n      jump\t// in\n    tag_352:\n        /* \"#utility.yul\":291:428   */\n      swap3\n      swap2\n      pop\n      pop\n      jump\t// out\n        /* \"#utility.yul\":434:573   */\n    tag_353:\n        /* \"#utility.yul\":480:485   */\n      0x00\n        /* \"#utility.yul\":518:524   */\n      dup2\n        /* \"#utility.yul\":505:525   */\n      calldataload\n        /* \"#utility.yul\":496:525   */\n      swap1\n      pop\n        /* \"#utility.yul\":534:567   */\n      tag_355\n        /* \"#utility.yul\":561:566   */\n      dup2\n        /* \"#utility.yul\":534:567   */\n      tag_356\n      jump\t// in\n    tag_355:\n        /* \"#utility.yul\":434:573   */\n      swap3\n      swap2\n      pop\n      pop\n      jump\t// out\n        /* \"#utility.yul\":579:722   */\n    tag_357:\n        /* \"#utility.yul\":636:641   */\n      0x00\n        /* \"#utility.yul\":667:673   */\n      dup2\n        /* \"#utility.yul\":661:674   */\n      mload\n        /* \"#utility.yul\":652:674   */\n      swap1\n      pop\n        /* \"#utility.yul\":683:716   */\n      tag_359\n        /* \"#utility.yul\":710:715   */\n      dup2\n        /* \"#utility.yul\":683:716   */\n      tag_356\n      jump\t// in\n    tag_359:\n        /* \"#utility.yul\":579:722   */\n      swap3\n      swap2\n      pop\n      pop\n      jump\t// out\n        /* \"#utility.yul\":728:867   */\n    tag_360:\n        /* \"#utility.yul\":774:779   */\n      0x00\n        /* \"#utility.yul\":812:818   */\n      dup2\n        /* \"#utility.yul\":799:819   */\n      calldataload\n        /* \"#utility.yul\":790:819   */\n      swap1\n      pop\n        /* \"#utility.yul\":828:861   */\n      tag_362\n        /* \"#utility.yul\":855:860   */\n      dup2\n        /* \"#utility.yul\":828:861   */\n      tag_363\n      jump\t// in\n    tag_362:\n        /* \"#utility.yul\":728:867   */\n      swap3\n      swap2\n      pop\n      pop\n      jump\t// out\n        /* \"#utility.yul\":873:1016   */\n    tag_364:\n        /* \"#utility.yul\":930:935   */\n      0x00\n        /* \"#utility.yul\":961:967   */\n      dup2\n        /* \"#utility.yul\":955:968   */\n      mload\n        /* \"#utility.yul\":946:968   */\n      swap1\n      pop\n        /* \"#utility.yul\":977:1010   */\n      tag_366\n        /* \"#utility.yul\":1004:1009   */\n      dup2\n        /* \"#utility.yul\":977:1010   */\n      tag_363\n      jump\t// in\n    tag_366:\n        /* \"#utility.yul\":873:1016   */\n      swap3\n      swap2\n      pop\n      pop\n      jump\t// out\n        /* \"#utility.yul\":1022:1351   */\n    tag_56:\n        /* \"#utility.yul\":1081:1087   */\n      0x00\n        /* \"#utility.yul\":1130:1132   */\n      0x20\n        /* \"#utility.yul\":1118:1127   */\n      dup3\n        /* \"#utility.yul\":1109:1116   */\n      dup5\n        /* \"#utility.yul\":1105:1128   */\n      sub\n        /* \"#utility.yul\":1101:1133   */\n      slt\n        /* \"#utility.yul\":1098:1217   */\n      iszero\n      tag_368\n      jumpi\n        /* \"#utility.yul\":1136:1215   */\n      tag_369\n      tag_370\n      jump\t// in\n    tag_369:\n        /* \"#utility.yul\":1098:1217   */\n    tag_368:\n        /* \"#utility.yul\":1256:1257   */\n      0x00\n        /* \"#utility.yul\":1281:1334   */\n      tag_371\n        /* \"#utility.yul\":1326:1333   */\n      dup5\n        /* \"#utility.yul\":1317:1323   */\n      dup3\n        /* \"#utility.yul\":1306:1315   */\n      dup6\n        /* \"#utility.yul\":1302:1324   */\n      add\n        /* \"#utility.yul\":1281:1334   */\n      tag_342\n      jump\t// in\n    tag_371:\n        /* \"#utility.yul\":1271:1334   */\n      swap2\n      pop\n        /* \"#utility.yul\":1227:1344   */\n      pop\n        /* \"#utility.yul\":1022:1351   */\n      swap3\n      swap2\n      pop\n      pop\n      jump\t// out\n        /* \"#utility.yul\":1357:1831   */\n    tag_76:\n        /* \"#utility.yul\":1425:1431   */\n      0x00\n        /* \"#utility.yul\":1433:1439   */\n      dup1\n        /* \"#utility.yul\":1482:1484   */\n      0x40\n        /* \"#utility.yul\":1470:1479   */\n      dup4\n        /* \"#utility.yul\":1461:1468   */\n      dup6\n        /* \"#utility.yul\":1457:1480   */\n      sub\n        /* \"#utility.yul\":1453:1485   */\n      slt\n        /* \"#utility.yul\":1450:1569   */\n      iszero\n      tag_373\n      jumpi\n        /* \"#utility.yul\":1488:1567   */\n      tag_374\n      tag_370\n      jump\t// in\n    tag_374:\n        /* \"#utility.yul\":1450:1569   */\n    tag_373:\n        /* \"#utility.yul\":1608:1609   */\n      0x00\n        /* \"#utility.yul\":1633:1686   */\n      tag_375\n        /* \"#utility.yul\":1678:1685   */\n      dup6\n        /* \"#utility.yul\":1669:1675   */\n      dup3\n        /* \"#utility.yul\":1658:1667   */\n      dup7\n        /* \"#utility.yul\":1654:1676   */\n      add\n        /* \"#utility.yul\":1633:1686   */\n      tag_342\n      jump\t// in\n    tag_375:\n        /* \"#utility.yul\":1623:1686   */\n      swap3\n      pop\n        /* \"#utility.yul\":1579:1696   */\n      pop\n        /* \"#utility.yul\":1735:1737   */\n      0x20\n        /* \"#utility.yul\":1761:1814   */\n      tag_376\n        /* \"#utility.yul\":1806:1813   */\n      dup6\n        /* \"#utility.yul\":1797:1803   */\n      dup3\n        /* \"#utility.yul\":1786:1795   */\n      dup7\n        /* \"#utility.yul\":1782:1804   */\n      add\n        /* \"#utility.yul\":1761:1814   */\n      tag_360\n      jump\t// in\n    tag_376:\n        /* \"#utility.yul\":1751:1814   */\n      swap2\n      pop\n        /* \"#utility.yul\":1706:1824   */\n      pop\n        /* \"#utility.yul\":1357:1831   */\n      swap3\n      pop\n      swap3\n      swap1\n      pop\n      jump\t// out\n        /* \"#utility.yul\":1837:3034   */\n    tag_37:\n        /* \"#utility.yul\":1947:1953   */\n      0x00\n        /* \"#utility.yul\":1955:1961   */\n      dup1\n        /* \"#utility.yul\":1963:1969   */\n      0x00\n        /* \"#utility.yul\":1971:1977   */\n      dup1\n        /* \"#utility.yul\":1979:1985   */\n      0x00\n        /* \"#utility.yul\":1987:1993   */\n      dup1\n        /* \"#utility.yul\":1995:2001   */\n      0x00\n        /* \"#utility.yul\":2044:2047   */\n      0xe0\n        /* \"#utility.yul\":2032:2041   */\n      dup9\n        /* \"#utility.yul\":2023:2030   */\n      dup11\n        /* \"#utility.yul\":2019:2042   */\n      sub\n        /* \"#utility.yul\":2015:2048   */\n      slt\n        /* \"#utility.yul\":2012:2132   */\n      iszero\n      tag_378\n      jumpi\n        /* \"#utility.yul\":2051:2130   */\n      tag_379\n      tag_370\n      jump\t// in\n    tag_379:\n        /* \"#utility.yul\":2012:2132   */\n    tag_378:\n        /* \"#utility.yul\":2171:2172   */\n      0x00\n        /* \"#utility.yul\":2196:2249   */\n      tag_380\n        /* \"#utility.yul\":2241:2248   */\n      dup11\n        /* \"#utility.yul\":2232:2238   */\n      dup3\n        /* \"#utility.yul\":2221:2230   */\n      dup12\n        /* \"#utility.yul\":2217:2239   */\n      add\n        /* \"#utility.yul\":2196:2249   */\n      tag_342\n      jump\t// in\n    tag_380:\n        /* \"#utility.yul\":2186:2249   */\n      swap8\n      pop\n        /* \"#utility.yul\":2142:2259   */\n      pop\n        /* \"#utility.yul\":2298:2300   */\n      0x20\n        /* \"#utility.yul\":2324:2377   */\n      tag_381\n        /* \"#utility.yul\":2369:2376   */\n      dup11\n        /* \"#utility.yul\":2360:2366   */\n      dup3\n        /* \"#utility.yul\":2349:2358   */\n      dup12\n        /* \"#utility.yul\":2345:2367   */\n      add\n        /* \"#utility.yul\":2324:2377   */\n      tag_360\n      jump\t// in\n    tag_381:\n        /* \"#utility.yul\":2314:2377   */\n      swap7\n      pop\n        /* \"#utility.yul\":2269:2387   */\n      pop\n        /* \"#utility.yul\":2426:2428   */\n      0x40\n        /* \"#utility.yul\":2452:2505   */\n      tag_382\n        /* \"#utility.yul\":2497:2504   */\n      dup11\n        /* \"#utility.yul\":2488:2494   */\n      dup3\n        /* \"#utility.yul\":2477:2486   */\n      dup12\n        /* \"#utility.yul\":2473:2495   */\n      add\n        /* \"#utility.yul\":2452:2505   */\n      tag_360\n      jump\t// in\n    tag_382:\n        /* \"#utility.yul\":2442:2505   */\n      swap6\n      pop\n        /* \"#utility.yul\":2397:2515   */\n      pop\n        /* \"#utility.yul\":2554:2556   */\n      0x60\n        /* \"#utility.yul\":2580:2633   */\n      tag_383\n        /* \"#utility.yul\":2625:2632   */\n      dup11\n        /* \"#utility.yul\":2616:2622   */\n      dup3\n        /* \"#utility.yul\":2605:2614   */\n      dup12\n        /* \"#utility.yul\":2601:2623   */\n      add\n        /* \"#utility.yul\":2580:2633   */\n      tag_360\n      jump\t// in\n    tag_383:\n        /* \"#utility.yul\":2570:2633   */\n      swap5\n      pop\n        /* \"#utility.yul\":2525:2643   */\n      pop\n        /* \"#utility.yul\":2682:2685   */\n      0x80\n        /* \"#utility.yul\":2709:2762   */\n      tag_384\n        /* \"#utility.yul\":2754:2761   */\n      dup11\n        /* \"#utility.yul\":2745:2751   */\n      dup3\n        /* \"#utility.yul\":2734:2743   */\n      dup12\n        /* \"#utility.yul\":2730:2752   */\n      add\n        /* \"#utility.yul\":2709:2762   */\n      tag_360\n      jump\t// in\n    tag_384:\n        /* \"#utility.yul\":2699:2762   */\n      swap4\n      pop\n        /* \"#utility.yul\":2653:2772   */\n      pop\n        /* \"#utility.yul\":2811:2814   */\n      0xa0\n        /* \"#utility.yul\":2838:2888   */\n      tag_385\n        /* \"#utility.yul\":2880:2887   */\n      dup11\n        /* \"#utility.yul\":2871:2877   */\n      dup3\n        /* \"#utility.yul\":2860:2869   */\n      dup12\n        /* \"#utility.yul\":2856:2878   */\n      add\n        /* \"#utility.yul\":2838:2888   */\n      tag_346\n      jump\t// in\n    tag_385:\n        /* \"#utility.yul\":2828:2888   */\n      swap3\n      pop\n        /* \"#utility.yul\":2782:2898   */\n      pop\n        /* \"#utility.yul\":2937:2940   */\n      0xc0\n        /* \"#utility.yul\":2964:3017   */\n      tag_386\n        /* \"#utility.yul\":3009:3016   */\n      dup11\n        /* \"#utility.yul\":3000:3006   */\n      dup3\n        /* \"#utility.yul\":2989:2998   */\n      dup12\n        /* \"#utility.yul\":2985:3007   */\n      add\n        /* \"#utility.yul\":2964:3017   */\n      tag_360\n      jump\t// in\n    tag_386:\n        /* \"#utility.yul\":2954:3017   */\n      swap2\n      pop\n        /* \"#utility.yul\":2908:3027   */\n      pop\n        /* \"#utility.yul\":1837:3034   */\n      swap3\n      swap6\n      swap9\n      swap2\n      swap5\n      swap8\n      pop\n      swap3\n      swap6\n      pop\n      jump\t// out\n        /* \"#utility.yul\":3040:3385   */\n    tag_303:\n        /* \"#utility.yul\":3107:3113   */\n      0x00\n        /* \"#utility.yul\":3156:3158   */\n      0x20\n        /* \"#utility.yul\":3144:3153   */\n      dup3\n        /* \"#utility.yul\":3135:3142   */\n      dup5\n        /* \"#utility.yul\":3131:3154   */\n      sub\n        /* \"#utility.yul\":3127:3159   */\n      slt\n        /* \"#utility.yul\":3124:3243   */\n      iszero\n      tag_388\n      jumpi\n        /* \"#utility.yul\":3162:3241   */\n      tag_389\n      tag_370\n      jump\t// in\n    tag_389:\n        /* \"#utility.yul\":3124:3243   */\n    tag_388:\n        /* \"#utility.yul\":3282:3283   */\n      0x00\n        /* \"#utility.yul\":3307:3368   */\n      tag_390\n        /* \"#utility.yul\":3360:3367   */\n      dup5\n        /* \"#utility.yul\":3351:3357   */\n      dup3\n        /* \"#utility.yul\":3340:3349   */\n      dup6\n        /* \"#utility.yul\":3336:3358   */\n      add\n        /* \"#utility.yul\":3307:3368   */\n      tag_350\n      jump\t// in\n    tag_390:\n        /* \"#utility.yul\":3297:3368   */\n      swap2\n      pop\n        /* \"#utility.yul\":3253:3378   */\n      pop\n        /* \"#utility.yul\":3040:3385   */\n      swap3\n      swap2\n      pop\n      pop\n      jump\t// out\n        /* \"#utility.yul\":3391:3720   */\n    tag_91:\n        /* \"#utility.yul\":3450:3456   */\n      0x00\n        /* \"#utility.yul\":3499:3501   */\n      0x20\n        /* \"#utility.yul\":3487:3496   */\n      dup3\n        /* \"#utility.yul\":3478:3485   */\n      dup5\n        /* \"#utility.yul\":3474:3497   */\n      sub\n        /* \"#utility.yul\":3470:3502   */\n      slt\n        /* \"#utility.yul\":3467:3586   */\n      iszero\n      tag_392\n      jumpi\n        /* \"#utility.yul\":3505:3584   */\n      tag_393\n      tag_370\n      jump\t// in\n    tag_393:\n        /* \"#utility.yul\":3467:3586   */\n    tag_392:\n        /* \"#utility.yul\":3625:3626   */\n      0x00\n        /* \"#utility.yul\":3650:3703   */\n      tag_394\n        /* \"#utility.yul\":3695:3702   */\n      dup5\n        /* \"#utility.yul\":3686:3692   */\n      dup3\n        /* \"#utility.yul\":3675:3684   */\n      dup6\n        /* \"#utility.yul\":3671:3693   */\n      add\n        /* \"#utility.yul\":3650:3703   */\n      tag_353\n      jump\t// in\n    tag_394:\n        /* \"#utility.yul\":3640:3703   */\n      swap2\n      pop\n        /* \"#utility.yul\":3596:3713   */\n      pop\n        /* \"#utility.yul\":3391:3720   */\n      swap3\n      swap2\n      pop\n      pop\n      jump\t// out\n        /* \"#utility.yul\":3726:4077   */\n    tag_149:\n        /* \"#utility.yul\":3796:3802   */\n      0x00\n        /* \"#utility.yul\":3845:3847   */\n      0x20\n        /* \"#utility.yul\":3833:3842   */\n      dup3\n        /* \"#utility.yul\":3824:3831   */\n      dup5\n        /* \"#utility.yul\":3820:3843   */\n      sub\n        /* \"#utility.yul\":3816:3848   */\n      slt\n        /* \"#utility.yul\":3813:3932   */\n      iszero\n      tag_396\n      jumpi\n        /* \"#utility.yul\":3851:3930   */\n      tag_397\n      tag_370\n      jump\t// in\n    tag_397:\n        /* \"#utility.yul\":3813:3932   */\n    tag_396:\n        /* \"#utility.yul\":3971:3972   */\n      0x00\n        /* \"#utility.yul\":3996:4060   */\n      tag_398\n        /* \"#utility.yul\":4052:4059   */\n      dup5\n        /* \"#utility.yul\":4043:4049   */\n      dup3\n        /* \"#utility.yul\":4032:4041   */\n      dup6\n        /* \"#utility.yul\":4028:4050   */\n      add\n        /* \"#utility.yul\":3996:4060   */\n      tag_357\n      jump\t// in\n    tag_398:\n        /* \"#utility.yul\":3986:4060   */\n      swap2\n      pop\n        /* \"#utility.yul\":3942:4070   */\n      pop\n        /* \"#utility.yul\":3726:4077   */\n      swap3\n      swap2\n      pop\n      pop\n      jump\t// out\n        /* \"#utility.yul\":4083:4557   */\n    tag_62:\n        /* \"#utility.yul\":4151:4157   */\n      0x00\n        /* \"#utility.yul\":4159:4165   */\n      dup1\n        /* \"#utility.yul\":4208:4210   */\n      0x40\n        /* \"#utility.yul\":4196:4205   */\n      dup4\n        /* \"#utility.yul\":4187:4194   */\n      dup6\n        /* \"#utility.yul\":4183:4206   */\n      sub\n        /* \"#utility.yul\":4179:4211   */\n      slt\n        /* \"#utility.yul\":4176:4295   */\n      iszero\n      tag_400\n      jumpi\n        /* \"#utility.yul\":4214:4293   */\n      tag_401\n      tag_370\n      jump\t// in\n    tag_401:\n        /* \"#utility.yul\":4176:4295   */\n    tag_400:\n        /* \"#utility.yul\":4334:4335   */\n      0x00\n        /* \"#utility.yul\":4359:4412   */\n      tag_402\n        /* \"#utility.yul\":4404:4411   */\n      dup6\n        /* \"#utility.yul\":4395:4401   */\n      dup3\n        /* \"#utility.yul\":4384:4393   */\n      dup7\n        /* \"#utility.yul\":4380:4402   */\n      add\n        /* \"#utility.yul\":4359:4412   */\n      tag_353\n      jump\t// in\n    tag_402:\n        /* \"#utility.yul\":4349:4412   */\n      swap3\n      pop\n        /* \"#utility.yul\":4305:4422   */\n      pop\n        /* \"#utility.yul\":4461:4463   */\n      0x20\n        /* \"#utility.yul\":4487:4540   */\n      tag_403\n        /* \"#utility.yul\":4532:4539   */\n      dup6\n        /* \"#utility.yul\":4523:4529   */\n      dup3\n        /* \"#utility.yul\":4512:4521   */\n      dup7\n        /* \"#utility.yul\":4508:4530   */\n      add\n        /* \"#utility.yul\":4487:4540   */\n      tag_360\n      jump\t// in\n    tag_403:\n        /* \"#utility.yul\":4477:4540   */\n      swap2\n      pop\n        /* \"#utility.yul\":4432:4550   */\n      pop\n        /* \"#utility.yul\":4083:4557   */\n      swap3\n      pop\n      swap3\n      swap1\n      pop\n      jump\t// out\n        /* \"#utility.yul\":4563:4892   */\n    tag_47:\n        /* \"#utility.yul\":4622:4628   */\n      0x00\n        /* \"#utility.yul\":4671:4673   */\n      0x20\n        /* \"#utility.yul\":4659:4668   */\n      dup3\n        /* \"#utility.yul\":4650:4657   */\n      dup5\n        /* \"#utility.yul\":4646:4669   */\n      sub\n        /* \"#utility.yul\":4642:4674   */\n      slt\n        /* \"#utility.yul\":4639:4758   */\n      iszero\n      tag_405\n      jumpi\n        /* \"#utility.yul\":4677:4756   */\n      tag_406\n      tag_370\n      jump\t// in\n    tag_406:\n        /* \"#utility.yul\":4639:4758   */\n    tag_405:\n        /* \"#utility.yul\":4797:4798   */\n      0x00\n        /* \"#utility.yul\":4822:4875   */\n      tag_407\n        /* \"#utility.yul\":4867:4874   */\n      dup5\n        /* \"#utility.yul\":4858:4864   */\n      dup3\n        /* \"#utility.yul\":4847:4856   */\n      dup6\n        /* \"#utility.yul\":4843:4865   */\n      add\n        /* \"#utility.yul\":4822:4875   */\n      tag_360\n      jump\t// in\n    tag_407:\n        /* \"#utility.yul\":4812:4875   */\n      swap2\n      pop\n        /* \"#utility.yul\":4768:4885   */\n      pop\n        /* \"#utility.yul\":4563:4892   */\n      swap3\n      swap2\n      pop\n      pop\n      jump\t// out\n        /* \"#utility.yul\":4898:5249   */\n    tag_131:\n        /* \"#utility.yul\":4968:4974   */\n      0x00\n        /* \"#utility.yul\":5017:5019   */\n      0x20\n        /* \"#utility.yul\":5005:5014   */\n      dup3\n        /* \"#utility.yul\":4996:5003   */\n      dup5\n        /* \"#utility.yul\":4992:5015   */\n      sub\n        /* \"#utility.yul\":4988:5020   */\n      slt\n        /* \"#utility.yul\":4985:5104   */\n      iszero\n      tag_409\n      jumpi\n        /* \"#utility.yul\":5023:5102   */\n      tag_410\n      tag_370\n      jump\t// in\n    tag_410:\n        /* \"#utility.yul\":4985:5104   */\n    tag_409:\n        /* \"#utility.yul\":5143:5144   */\n      0x00\n        /* \"#utility.yul\":5168:5232   */\n      tag_411\n        /* \"#utility.yul\":5224:5231   */\n      dup5\n        /* \"#utility.yul\":5215:5221   */\n      dup3\n        /* \"#utility.yul\":5204:5213   */\n      dup6\n        /* \"#utility.yul\":5200:5222   */\n      add\n        /* \"#utility.yul\":5168:5232   */\n      tag_364\n      jump\t// in\n    tag_411:\n        /* \"#utility.yul\":5158:5232   */\n      swap2\n      pop\n        /* \"#utility.yul\":5114:5242   */\n      pop\n        /* \"#utility.yul\":4898:5249   */\n      swap3\n      swap2\n      pop\n      pop\n      jump\t// out\n        /* \"#utility.yul\":5255:5363   */\n    tag_412:\n        /* \"#utility.yul\":5332:5356   */\n      tag_414\n        /* \"#utility.yul\":5350:5355   */\n      dup2\n        /* \"#utility.yul\":5332:5356   */\n      tag_415\n      jump\t// in\n    tag_414:\n        /* \"#utility.yul\":5327:5330   */\n      dup3\n        /* \"#utility.yul\":5320:5357   */\n      mstore\n        /* \"#utility.yul\":5255:5363   */\n      pop\n      pop\n      jump\t// out\n        /* \"#utility.yul\":5369:5487   */\n    tag_416:\n        /* \"#utility.yul\":5456:5480   */\n      tag_418\n        /* \"#utility.yul\":5474:5479   */\n      dup2\n        /* \"#utility.yul\":5456:5480   */\n      tag_415\n      jump\t// in\n    tag_418:\n        /* \"#utility.yul\":5451:5454   */\n      dup3\n        /* \"#utility.yul\":5444:5481   */\n      mstore\n        /* \"#utility.yul\":5369:5487   */\n      pop\n      pop\n      jump\t// out\n        /* \"#utility.yul\":5493:5650   */\n    tag_419:\n        /* \"#utility.yul\":5598:5643   */\n      tag_421\n        /* \"#utility.yul\":5618:5642   */\n      tag_422\n        /* \"#utility.yul\":5636:5641   */\n      dup3\n        /* \"#utility.yul\":5618:5642   */\n      tag_415\n      jump\t// in\n    tag_422:\n        /* \"#utility.yul\":5598:5643   */\n      tag_423\n      jump\t// in\n    tag_421:\n        /* \"#utility.yul\":5593:5596   */\n      dup3\n        /* \"#utility.yul\":5586:5644   */\n      mstore\n        /* \"#utility.yul\":5493:5650   */\n      pop\n      pop\n      jump\t// out\n        /* \"#utility.yul\":5656:5755   */\n    tag_424:\n        /* \"#utility.yul\":5727:5748   */\n      tag_426\n        /* \"#utility.yul\":5742:5747   */\n      dup2\n        /* \"#utility.yul\":5727:5748   */\n      tag_427\n      jump\t// in\n    tag_426:\n        /* \"#utility.yul\":5722:5725   */\n      dup3\n        /* \"#utility.yul\":5715:5749   */\n      mstore\n        /* \"#utility.yul\":5656:5755   */\n      pop\n      pop\n      jump\t// out\n        /* \"#utility.yul\":5761:5879   */\n    tag_428:\n        /* \"#utility.yul\":5848:5872   */\n      tag_430\n        /* \"#utility.yul\":5866:5871   */\n      dup2\n        /* \"#utility.yul\":5848:5872   */\n      tag_431\n      jump\t// in\n    tag_430:\n        /* \"#utility.yul\":5843:5846   */\n      dup3\n        /* \"#utility.yul\":5836:5873   */\n      mstore\n        /* \"#utility.yul\":5761:5879   */\n      pop\n      pop\n      jump\t// out\n        /* \"#utility.yul\":5885:6258   */\n    tag_432:\n        /* \"#utility.yul\":5989:5992   */\n      0x00\n        /* \"#utility.yul\":6017:6055   */\n      tag_434\n        /* \"#utility.yul\":6049:6054   */\n      dup3\n        /* \"#utility.yul\":6017:6055   */\n      tag_435\n      jump\t// in\n    tag_434:\n        /* \"#utility.yul\":6071:6159   */\n      tag_436\n        /* \"#utility.yul\":6152:6158   */\n      dup2\n        /* \"#utility.yul\":6147:6150   */\n      dup6\n        /* \"#utility.yul\":6071:6159   */\n      tag_437\n      jump\t// in\n    tag_436:\n        /* \"#utility.yul\":6064:6159   */\n      swap4\n      pop\n        /* \"#utility.yul\":6168:6220   */\n      tag_438\n        /* \"#utility.yul\":6213:6219   */\n      dup2\n        /* \"#utility.yul\":6208:6211   */\n      dup6\n        /* \"#utility.yul\":6201:6205   */\n      0x20\n        /* \"#utility.yul\":6194:6199   */\n      dup7\n        /* \"#utility.yul\":6190:6206   */\n      add\n        /* \"#utility.yul\":6168:6220   */\n      tag_439\n      jump\t// in\n    tag_438:\n        /* \"#utility.yul\":6245:6251   */\n      dup1\n        /* \"#utility.yul\":6240:6243   */\n      dup5\n        /* \"#utility.yul\":6236:6252   */\n      add\n        /* \"#utility.yul\":6229:6252   */\n      swap2\n      pop\n        /* \"#utility.yul\":5993:6258   */\n      pop\n        /* \"#utility.yul\":5885:6258   */\n      swap3\n      swap2\n      pop\n      pop\n      jump\t// out\n        /* \"#utility.yul\":6264:6628   */\n    tag_440:\n        /* \"#utility.yul\":6352:6355   */\n      0x00\n        /* \"#utility.yul\":6380:6419   */\n      tag_442\n        /* \"#utility.yul\":6413:6418   */\n      dup3\n        /* \"#utility.yul\":6380:6419   */\n      tag_443\n      jump\t// in\n    tag_442:\n        /* \"#utility.yul\":6435:6506   */\n      tag_444\n        /* \"#utility.yul\":6499:6505   */\n      dup2\n        /* \"#utility.yul\":6494:6497   */\n      dup6\n        /* \"#utility.yul\":6435:6506   */\n      tag_445\n      jump\t// in\n    tag_444:\n        /* \"#utility.yul\":6428:6506   */\n      swap4\n      pop\n        /* \"#utility.yul\":6515:6567   */\n      tag_446\n        /* \"#utility.yul\":6560:6566   */\n      dup2\n        /* \"#utility.yul\":6555:6558   */\n      dup6\n        /* \"#utility.yul\":6548:6552   */\n      0x20\n        /* \"#utility.yul\":6541:6546   */\n      dup7\n        /* \"#utility.yul\":6537:6553   */\n      add\n        /* \"#utility.yul\":6515:6567   */\n      tag_439\n      jump\t// in\n    tag_446:\n        /* \"#utility.yul\":6592:6621   */\n      tag_447\n        /* \"#utility.yul\":6614:6620   */\n      dup2\n        /* \"#utility.yul\":6592:6621   */\n      tag_448\n      jump\t// in\n    tag_447:\n        /* \"#utility.yul\":6587:6590   */\n      dup5\n        /* \"#utility.yul\":6583:6622   */\n      add\n        /* \"#utility.yul\":6576:6622   */\n      swap2\n      pop\n        /* \"#utility.yul\":6356:6628   */\n      pop\n        /* \"#utility.yul\":6264:6628   */\n      swap3\n      swap2\n      pop\n      pop\n      jump\t// out\n        /* \"#utility.yul\":6634:7000   */\n    tag_449:\n        /* \"#utility.yul\":6776:6779   */\n      0x00\n        /* \"#utility.yul\":6797:6864   */\n      tag_451\n        /* \"#utility.yul\":6861:6863   */\n      0x26\n        /* \"#utility.yul\":6856:6859   */\n      dup4\n        /* \"#utility.yul\":6797:6864   */\n      tag_445\n      jump\t// in\n    tag_451:\n        /* \"#utility.yul\":6790:6864   */\n      swap2\n      pop\n        /* \"#utility.yul\":6873:6966   */\n      tag_452\n        /* \"#utility.yul\":6962:6965   */\n      dup3\n        /* \"#utility.yul\":6873:6966   */\n      tag_453\n      jump\t// in\n    tag_452:\n        /* \"#utility.yul\":6991:6993   */\n      0x40\n        /* \"#utility.yul\":6986:6989   */\n      dup3\n        /* \"#utility.yul\":6982:6994   */\n      add\n        /* \"#utility.yul\":6975:6994   */\n      swap1\n      pop\n        /* \"#utility.yul\":6634:7000   */\n      swap2\n      swap1\n      pop\n      jump\t// out\n        /* \"#utility.yul\":7006:7372   */\n    tag_454:\n        /* \"#utility.yul\":7148:7151   */\n      0x00\n        /* \"#utility.yul\":7169:7236   */\n      tag_456\n        /* \"#utility.yul\":7233:7235   */\n      0x2d\n        /* \"#utility.yul\":7228:7231   */\n      dup4\n        /* \"#utility.yul\":7169:7236   */\n      tag_445\n      jump\t// in\n    tag_456:\n        /* \"#utility.yul\":7162:7236   */\n      swap2\n      pop\n        /* \"#utility.yul\":7245:7338   */\n      tag_457\n        /* \"#utility.yul\":7334:7337   */\n      dup3\n        /* \"#utility.yul\":7245:7338   */\n      tag_458\n      jump\t// in\n    tag_457:\n        /* \"#utility.yul\":7363:7365   */\n      0x40\n        /* \"#utility.yul\":7358:7361   */\n      dup3\n        /* \"#utility.yul\":7354:7366   */\n      add\n        /* \"#utility.yul\":7347:7366   */\n      swap1\n      pop\n        /* \"#utility.yul\":7006:7372   */\n      swap2\n      swap1\n      pop\n      jump\t// out\n        /* \"#utility.yul\":7378:7744   */\n    tag_459:\n        /* \"#utility.yul\":7520:7523   */\n      0x00\n        /* \"#utility.yul\":7541:7608   */\n      tag_461\n        /* \"#utility.yul\":7605:7607   */\n      0x3d\n        /* \"#utility.yul\":7600:7603   */\n      dup4\n        /* \"#utility.yul\":7541:7608   */\n      tag_445\n      jump\t// in\n    tag_461:\n        /* \"#utility.yul\":7534:7608   */\n      swap2\n      pop\n        /* \"#utility.yul\":7617:7710   */\n      tag_462\n        /* \"#utility.yul\":7706:7709   */\n      dup3\n        /* \"#utility.yul\":7617:7710   */\n      tag_463\n      jump\t// in\n    tag_462:\n        /* \"#utility.yul\":7735:7737   */\n      0x40\n        /* \"#utility.yul\":7730:7733   */\n      dup3\n        /* \"#utility.yul\":7726:7738   */\n      add\n        /* \"#utility.yul\":7719:7738   */\n      swap1\n      pop\n        /* \"#utility.yul\":7378:7744   */\n      swap2\n      swap1\n      pop\n      jump\t// out\n        /* \"#utility.yul\":7750:8116   */\n    tag_464:\n        /* \"#utility.yul\":7892:7895   */\n      0x00\n        /* \"#utility.yul\":7913:7980   */\n      tag_466\n        /* \"#utility.yul\":7977:7979   */\n      0x26\n        /* \"#utility.yul\":7972:7975   */\n      dup4\n        /* \"#utility.yul\":7913:7980   */\n      tag_445\n      jump\t// in\n    tag_466:\n        /* \"#utility.yul\":7906:7980   */\n      swap2\n      pop\n        /* \"#utility.yul\":7989:8082   */\n      tag_467\n        /* \"#utility.yul\":8078:8081   */\n      dup3\n        /* \"#utility.yul\":7989:8082   */\n      tag_468\n      jump\t// in\n    tag_467:\n        /* \"#utility.yul\":8107:8109   */\n      0x40\n        /* \"#utility.yul\":8102:8105   */\n      dup3\n        /* \"#utility.yul\":8098:8110   */\n      add\n        /* \"#utility.yul\":8091:8110   */\n      swap1\n      pop\n        /* \"#utility.yul\":7750:8116   */\n      swap2\n      swap1\n      pop\n      jump\t// out\n        /* \"#utility.yul\":8122:8488   */\n    tag_469:\n        /* \"#utility.yul\":8264:8267   */\n      0x00\n        /* \"#utility.yul\":8285:8352   */\n      tag_471\n        /* \"#utility.yul\":8349:8351   */\n      0x26\n        /* \"#utility.yul\":8344:8347   */\n      dup4\n        /* \"#utility.yul\":8285:8352   */\n      tag_445\n      jump\t// in\n    tag_471:\n        /* \"#utility.yul\":8278:8352   */\n      swap2\n      pop\n        /* \"#utility.yul\":8361:8454   */\n      tag_472\n        /* \"#utility.yul\":8450:8453   */\n      dup3\n        /* \"#utility.yul\":8361:8454   */\n      tag_473\n      jump\t// in\n    tag_472:\n        /* \"#utility.yul\":8479:8481   */\n      0x40\n        /* \"#utility.yul\":8474:8477   */\n      dup3\n        /* \"#utility.yul\":8470:8482   */\n      add\n        /* \"#utility.yul\":8463:8482   */\n      swap1\n      pop\n        /* \"#utility.yul\":8122:8488   */\n      swap2\n      swap1\n      pop\n      jump\t// out\n        /* \"#utility.yul\":8494:8860   */\n    tag_474:\n        /* \"#utility.yul\":8636:8639   */\n      0x00\n        /* \"#utility.yul\":8657:8724   */\n      tag_476\n        /* \"#utility.yul\":8721:8723   */\n      0x20\n        /* \"#utility.yul\":8716:8719   */\n      dup4\n        /* \"#utility.yul\":8657:8724   */\n      tag_445\n      jump\t// in\n    tag_476:\n        /* \"#utility.yul\":8650:8724   */\n      swap2\n      pop\n        /* \"#utility.yul\":8733:8826   */\n      tag_477\n        /* \"#utility.yul\":8822:8825   */\n      dup3\n        /* \"#utility.yul\":8733:8826   */\n      tag_478\n      jump\t// in\n    tag_477:\n        /* \"#utility.yul\":8851:8853   */\n      0x20\n        /* \"#utility.yul\":8846:8849   */\n      dup3\n        /* \"#utility.yul\":8842:8854   */\n      add\n        /* \"#utility.yul\":8835:8854   */\n      swap1\n      pop\n        /* \"#utility.yul\":8494:8860   */\n      swap2\n      swap1\n      pop\n      jump\t// out\n        /* \"#utility.yul\":8866:9232   */\n    tag_479:\n        /* \"#utility.yul\":9008:9011   */\n      0x00\n        /* \"#utility.yul\":9029:9096   */\n      tag_481\n        /* \"#utility.yul\":9093:9095   */\n      0x20\n        /* \"#utility.yul\":9088:9091   */\n      dup4\n        /* \"#utility.yul\":9029:9096   */\n      tag_445\n      jump\t// in\n    tag_481:\n        /* \"#utility.yul\":9022:9096   */\n      swap2\n      pop\n        /* \"#utility.yul\":9105:9198   */\n      tag_482\n        /* \"#utility.yul\":9194:9197   */\n      dup3\n        /* \"#utility.yul\":9105:9198   */\n      tag_483\n      jump\t// in\n    tag_482:\n        /* \"#utility.yul\":9223:9225   */\n      0x20\n        /* \"#utility.yul\":9218:9221   */\n      dup3\n        /* \"#utility.yul\":9214:9226   */\n      add\n        /* \"#utility.yul\":9207:9226   */\n      swap1\n      pop\n        /* \"#utility.yul\":8866:9232   */\n      swap2\n      swap1\n      pop\n      jump\t// out\n        /* \"#utility.yul\":9238:9604   */\n    tag_484:\n        /* \"#utility.yul\":9380:9383   */\n      0x00\n        /* \"#utility.yul\":9401:9468   */\n      tag_486\n        /* \"#utility.yul\":9465:9467   */\n      0x21\n        /* \"#utility.yul\":9460:9463   */\n      dup4\n        /* \"#utility.yul\":9401:9468   */\n      tag_445\n      jump\t// in\n    tag_486:\n        /* \"#utility.yul\":9394:9468   */\n      swap2\n      pop\n        /* \"#utility.yul\":9477:9570   */\n      tag_487\n        /* \"#utility.yul\":9566:9569   */\n      dup3\n        /* \"#utility.yul\":9477:9570   */\n      tag_488\n      jump\t// in\n    tag_487:\n        /* \"#utility.yul\":9595:9597   */\n      0x40\n        /* \"#utility.yul\":9590:9593   */\n      dup3\n        /* \"#utility.yul\":9586:9598   */\n      add\n        /* \"#utility.yul\":9579:9598   */\n      swap1\n      pop\n        /* \"#utility.yul\":9238:9604   */\n      swap2\n      swap1\n      pop\n      jump\t// out\n        /* \"#utility.yul\":9610:9976   */\n    tag_489:\n        /* \"#utility.yul\":9752:9755   */\n      0x00\n        /* \"#utility.yul\":9773:9840   */\n      tag_491\n        /* \"#utility.yul\":9837:9839   */\n      0x22\n        /* \"#utility.yul\":9832:9835   */\n      dup4\n        /* \"#utility.yul\":9773:9840   */\n      tag_445\n      jump\t// in\n    tag_491:\n        /* \"#utility.yul\":9766:9840   */\n      swap2\n      pop\n        /* \"#utility.yul\":9849:9942   */\n      tag_492\n        /* \"#utility.yul\":9938:9941   */\n      dup3\n        /* \"#utility.yul\":9849:9942   */\n      tag_493\n      jump\t// in\n    tag_492:\n        /* \"#utility.yul\":9967:9969   */\n      0x40\n        /* \"#utility.yul\":9962:9965   */\n      dup3\n        /* \"#utility.yul\":9958:9970   */\n      add\n        /* \"#utility.yul\":9951:9970   */\n      swap1\n      pop\n        /* \"#utility.yul\":9610:9976   */\n      swap2\n      swap1\n      pop\n      jump\t// out\n        /* \"#utility.yul\":9982:10348   */\n    tag_494:\n        /* \"#utility.yul\":10124:10127   */\n      0x00\n        /* \"#utility.yul\":10145:10212   */\n      tag_496\n        /* \"#utility.yul\":10209:10211   */\n      0x42\n        /* \"#utility.yul\":10204:10207   */\n      dup4\n        /* \"#utility.yul\":10145:10212   */\n      tag_445\n      jump\t// in\n    tag_496:\n        /* \"#utility.yul\":10138:10212   */\n      swap2\n      pop\n        /* \"#utility.yul\":10221:10314   */\n      tag_497\n        /* \"#utility.yul\":10310:10313   */\n      dup3\n        /* \"#utility.yul\":10221:10314   */\n      tag_498\n      jump\t// in\n    tag_497:\n        /* \"#utility.yul\":10339:10341   */\n      0x60\n        /* \"#utility.yul\":10334:10337   */\n      dup3\n        /* \"#utility.yul\":10330:10342   */\n      add\n        /* \"#utility.yul\":10323:10342   */\n      swap1\n      pop\n        /* \"#utility.yul\":9982:10348   */\n      swap2\n      swap1\n      pop\n      jump\t// out\n        /* \"#utility.yul\":10354:10720   */\n    tag_499:\n        /* \"#utility.yul\":10496:10499   */\n      0x00\n        /* \"#utility.yul\":10517:10584   */\n      tag_501\n        /* \"#utility.yul\":10581:10583   */\n      0x1d\n        /* \"#utility.yul\":10576:10579   */\n      dup4\n        /* \"#utility.yul\":10517:10584   */\n      tag_445\n      jump\t// in\n    tag_501:\n        /* \"#utility.yul\":10510:10584   */\n      swap2\n      pop\n        /* \"#utility.yul\":10593:10686   */\n      tag_502\n        /* \"#utility.yul\":10682:10685   */\n      dup3\n        /* \"#utility.yul\":10593:10686   */\n      tag_503\n      jump\t// in\n    tag_502:\n        /* \"#utility.yul\":10711:10713   */\n      0x20\n        /* \"#utility.yul\":10706:10709   */\n      dup3\n        /* \"#utility.yul\":10702:10714   */\n      add\n        /* \"#utility.yul\":10695:10714   */\n      swap1\n      pop\n        /* \"#utility.yul\":10354:10720   */\n      swap2\n      swap1\n      pop\n      jump\t// out\n        /* \"#utility.yul\":10726:11092   */\n    tag_504:\n        /* \"#utility.yul\":10868:10871   */\n      0x00\n        /* \"#utility.yul\":10889:10956   */\n      tag_506\n        /* \"#utility.yul\":10953:10955   */\n      0x2b\n        /* \"#utility.yul\":10948:10951   */\n      dup4\n        /* \"#utility.yul\":10889:10956   */\n      tag_445\n      jump\t// in\n    tag_506:\n        /* \"#utility.yul\":10882:10956   */\n      swap2\n      pop\n        /* \"#utility.yul\":10965:11058   */\n      tag_507\n        /* \"#utility.yul\":11054:11057   */\n      dup3\n        /* \"#utility.yul\":10965:11058   */\n      tag_508\n      jump\t// in\n    tag_507:\n        /* \"#utility.yul\":11083:11085   */\n      0x40\n        /* \"#utility.yul\":11078:11081   */\n      dup3\n        /* \"#utility.yul\":11074:11086   */\n      add\n        /* \"#utility.yul\":11067:11086   */\n      swap1\n      pop\n        /* \"#utility.yul\":10726:11092   */\n      swap2\n      swap1\n      pop\n      jump\t// out\n        /* \"#utility.yul\":11098:11464   */\n    tag_509:\n        /* \"#utility.yul\":11240:11243   */\n      0x00\n        /* \"#utility.yul\":11261:11328   */\n      tag_511\n        /* \"#utility.yul\":11325:11327   */\n      0x2a\n        /* \"#utility.yul\":11320:11323   */\n      dup4\n        /* \"#utility.yul\":11261:11328   */\n      tag_445\n      jump\t// in\n    tag_511:\n        /* \"#utility.yul\":11254:11328   */\n      swap2\n      pop\n        /* \"#utility.yul\":11337:11430   */\n      tag_512\n        /* \"#utility.yul\":11426:11429   */\n      dup3\n        /* \"#utility.yul\":11337:11430   */\n      tag_513\n      jump\t// in\n    tag_512:\n        /* \"#utility.yul\":11455:11457   */\n      0x40\n        /* \"#utility.yul\":11450:11453   */\n      dup3\n        /* \"#utility.yul\":11446:11458   */\n      add\n        /* \"#utility.yul\":11439:11458   */\n      swap1\n      pop\n        /* \"#utility.yul\":11098:11464   */\n      swap2\n      swap1\n      pop\n      jump\t// out\n        /* \"#utility.yul\":11470:11836   */\n    tag_514:\n        /* \"#utility.yul\":11612:11615   */\n      0x00\n        /* \"#utility.yul\":11633:11700   */\n      tag_516\n        /* \"#utility.yul\":11697:11699   */\n      0x4a\n        /* \"#utility.yul\":11692:11695   */\n      dup4\n        /* \"#utility.yul\":11633:11700   */\n      tag_445\n      jump\t// in\n    tag_516:\n        /* \"#utility.yul\":11626:11700   */\n      swap2\n      pop\n        /* \"#utility.yul\":11709:11802   */\n      tag_517\n        /* \"#utility.yul\":11798:11801   */\n      dup3\n        /* \"#utility.yul\":11709:11802   */\n      tag_518\n      jump\t// in\n    tag_517:\n        /* \"#utility.yul\":11827:11829   */\n      0x60\n        /* \"#utility.yul\":11822:11825   */\n      dup3\n        /* \"#utility.yul\":11818:11830   */\n      add\n        /* \"#utility.yul\":11811:11830   */\n      swap1\n      pop\n        /* \"#utility.yul\":11470:11836   */\n      swap2\n      swap1\n      pop\n      jump\t// out\n        /* \"#utility.yul\":11842:12208   */\n    tag_519:\n        /* \"#utility.yul\":11984:11987   */\n      0x00\n        /* \"#utility.yul\":12005:12072   */\n      tag_521\n        /* \"#utility.yul\":12069:12071   */\n      0x1f\n        /* \"#utility.yul\":12064:12067   */\n      dup4\n        /* \"#utility.yul\":12005:12072   */\n      tag_445\n      jump\t// in\n    tag_521:\n        /* \"#utility.yul\":11998:12072   */\n      swap2\n      pop\n        /* \"#utility.yul\":12081:12174   */\n      tag_522\n        /* \"#utility.yul\":12170:12173   */\n      dup3\n        /* \"#utility.yul\":12081:12174   */\n      tag_523\n      jump\t// in\n    tag_522:\n        /* \"#utility.yul\":12199:12201   */\n      0x20\n        /* \"#utility.yul\":12194:12197   */\n      dup3\n        /* \"#utility.yul\":12190:12202   */\n      add\n        /* \"#utility.yul\":12183:12202   */\n      swap1\n      pop\n        /* \"#utility.yul\":11842:12208   */\n      swap2\n      swap1\n      pop\n      jump\t// out\n        /* \"#utility.yul\":12296:14256   */\n    tag_524:\n        /* \"#utility.yul\":12459:12465   */\n      0x0140\n        /* \"#utility.yul\":12454:12457   */\n      dup3\n        /* \"#utility.yul\":12450:12466   */\n      add\n        /* \"#utility.yul\":12555:12559   */\n      0x00\n        /* \"#utility.yul\":12548:12553   */\n      dup3\n        /* \"#utility.yul\":12544:12560   */\n      add\n        /* \"#utility.yul\":12538:12561   */\n      mload\n        /* \"#utility.yul\":12574:12631   */\n      tag_526\n        /* \"#utility.yul\":12625:12629   */\n      0x00\n        /* \"#utility.yul\":12620:12623   */\n      dup6\n        /* \"#utility.yul\":12616:12630   */\n      add\n        /* \"#utility.yul\":12602:12614   */\n      dup3\n        /* \"#utility.yul\":12574:12631   */\n      tag_424\n      jump\t// in\n    tag_526:\n        /* \"#utility.yul\":12476:12641   */\n      pop\n        /* \"#utility.yul\":12730:12734   */\n      0x20\n        /* \"#utility.yul\":12723:12728   */\n      dup3\n        /* \"#utility.yul\":12719:12735   */\n      add\n        /* \"#utility.yul\":12713:12736   */\n      mload\n        /* \"#utility.yul\":12749:12812   */\n      tag_527\n        /* \"#utility.yul\":12806:12810   */\n      0x20\n        /* \"#utility.yul\":12801:12804   */\n      dup6\n        /* \"#utility.yul\":12797:12811   */\n      add\n        /* \"#utility.yul\":12783:12795   */\n      dup3\n        /* \"#utility.yul\":12749:12812   */\n      tag_412\n      jump\t// in\n    tag_527:\n        /* \"#utility.yul\":12651:12822   */\n      pop\n        /* \"#utility.yul\":12905:12909   */\n      0x40\n        /* \"#utility.yul\":12898:12903   */\n      dup3\n        /* \"#utility.yul\":12894:12910   */\n      add\n        /* \"#utility.yul\":12888:12911   */\n      mload\n        /* \"#utility.yul\":12924:12987   */\n      tag_528\n        /* \"#utility.yul\":12981:12985   */\n      0x40\n        /* \"#utility.yul\":12976:12979   */\n      dup6\n        /* \"#utility.yul\":12972:12986   */\n      add\n        /* \"#utility.yul\":12958:12970   */\n      dup3\n        /* \"#utility.yul\":12924:12987   */\n      tag_529\n      jump\t// in\n    tag_528:\n        /* \"#utility.yul\":12832:12997   */\n      pop\n        /* \"#utility.yul\":13080:13084   */\n      0x60\n        /* \"#utility.yul\":13073:13078   */\n      dup3\n        /* \"#utility.yul\":13069:13085   */\n      add\n        /* \"#utility.yul\":13063:13086   */\n      mload\n        /* \"#utility.yul\":13099:13162   */\n      tag_530\n        /* \"#utility.yul\":13156:13160   */\n      0x60\n        /* \"#utility.yul\":13151:13154   */\n      dup6\n        /* \"#utility.yul\":13147:13161   */\n      add\n        /* \"#utility.yul\":13133:13145   */\n      dup3\n        /* \"#utility.yul\":13099:13162   */\n      tag_529\n      jump\t// in\n    tag_530:\n        /* \"#utility.yul\":13007:13172   */\n      pop\n        /* \"#utility.yul\":13258:13262   */\n      0x80\n        /* \"#utility.yul\":13251:13256   */\n      dup3\n        /* \"#utility.yul\":13247:13263   */\n      add\n        /* \"#utility.yul\":13241:13264   */\n      mload\n        /* \"#utility.yul\":13277:13340   */\n      tag_531\n        /* \"#utility.yul\":13334:13338   */\n      0x80\n        /* \"#utility.yul\":13329:13332   */\n      dup6\n        /* \"#utility.yul\":13325:13339   */\n      add\n        /* \"#utility.yul\":13311:13323   */\n      dup3\n        /* \"#utility.yul\":13277:13340   */\n      tag_529\n      jump\t// in\n    tag_531:\n        /* \"#utility.yul\":13182:13350   */\n      pop\n        /* \"#utility.yul\":13446:13450   */\n      0xa0\n        /* \"#utility.yul\":13439:13444   */\n      dup3\n        /* \"#utility.yul\":13435:13451   */\n      add\n        /* \"#utility.yul\":13429:13452   */\n      mload\n        /* \"#utility.yul\":13465:13528   */\n      tag_532\n        /* \"#utility.yul\":13522:13526   */\n      0xa0\n        /* \"#utility.yul\":13517:13520   */\n      dup6\n        /* \"#utility.yul\":13513:13527   */\n      add\n        /* \"#utility.yul\":13499:13511   */\n      dup3\n        /* \"#utility.yul\":13465:13528   */\n      tag_529\n      jump\t// in\n    tag_532:\n        /* \"#utility.yul\":13360:13538   */\n      pop\n        /* \"#utility.yul\":13625:13629   */\n      0xc0\n        /* \"#utility.yul\":13618:13623   */\n      dup3\n        /* \"#utility.yul\":13614:13630   */\n      add\n        /* \"#utility.yul\":13608:13631   */\n      mload\n        /* \"#utility.yul\":13644:13701   */\n      tag_533\n        /* \"#utility.yul\":13695:13699   */\n      0xc0\n        /* \"#utility.yul\":13690:13693   */\n      dup6\n        /* \"#utility.yul\":13686:13700   */\n      add\n        /* \"#utility.yul\":13672:13684   */\n      dup3\n        /* \"#utility.yul\":13644:13701   */\n      tag_424\n      jump\t// in\n    tag_533:\n        /* \"#utility.yul\":13548:13711   */\n      pop\n        /* \"#utility.yul\":13800:13804   */\n      0xe0\n        /* \"#utility.yul\":13793:13798   */\n      dup3\n        /* \"#utility.yul\":13789:13805   */\n      add\n        /* \"#utility.yul\":13783:13806   */\n      mload\n        /* \"#utility.yul\":13819:13882   */\n      tag_534\n        /* \"#utility.yul\":13876:13880   */\n      0xe0\n        /* \"#utility.yul\":13871:13874   */\n      dup6\n        /* \"#utility.yul\":13867:13881   */\n      add\n        /* \"#utility.yul\":13853:13865   */\n      dup3\n        /* \"#utility.yul\":13819:13882   */\n      tag_529\n      jump\t// in\n    tag_534:\n        /* \"#utility.yul\":13721:13892   */\n      pop\n        /* \"#utility.yul\":13978:13984   */\n      0x0100\n        /* \"#utility.yul\":13971:13976   */\n      dup3\n        /* \"#utility.yul\":13967:13985   */\n      add\n        /* \"#utility.yul\":13961:13986   */\n      mload\n        /* \"#utility.yul\":13999:14064   */\n      tag_535\n        /* \"#utility.yul\":14056:14062   */\n      0x0100\n        /* \"#utility.yul\":14051:14054   */\n      dup6\n        /* \"#utility.yul\":14047:14063   */\n      add\n        /* \"#utility.yul\":14033:14045   */\n      dup3\n        /* \"#utility.yul\":13999:14064   */\n      tag_529\n      jump\t// in\n    tag_535:\n        /* \"#utility.yul\":13902:14074   */\n      pop\n        /* \"#utility.yul\":14159:14165   */\n      0x0120\n        /* \"#utility.yul\":14152:14157   */\n      dup3\n        /* \"#utility.yul\":14148:14166   */\n      add\n        /* \"#utility.yul\":14142:14167   */\n      mload\n        /* \"#utility.yul\":14180:14239   */\n      tag_536\n        /* \"#utility.yul\":14231:14237   */\n      0x0120\n        /* \"#utility.yul\":14226:14229   */\n      dup6\n        /* \"#utility.yul\":14222:14238   */\n      add\n        /* \"#utility.yul\":14208:14220   */\n      dup3\n        /* \"#utility.yul\":14180:14239   */\n      tag_424\n      jump\t// in\n    tag_536:\n        /* \"#utility.yul\":14084:14249   */\n      pop\n        /* \"#utility.yul\":12428:14256   */\n      pop\n        /* \"#utility.yul\":12296:14256   */\n      pop\n      pop\n      jump\t// out\n        /* \"#utility.yul\":14262:14370   */\n    tag_529:\n        /* \"#utility.yul\":14339:14363   */\n      tag_538\n        /* \"#utility.yul\":14357:14362   */\n      dup2\n        /* \"#utility.yul\":14339:14363   */\n      tag_539\n      jump\t// in\n    tag_538:\n        /* \"#utility.yul\":14334:14337   */\n      dup3\n        /* \"#utility.yul\":14327:14364   */\n      mstore\n        /* \"#utility.yul\":14262:14370   */\n      pop\n      pop\n      jump\t// out\n        /* \"#utility.yul\":14376:14494   */\n    tag_540:\n        /* \"#utility.yul\":14463:14487   */\n      tag_542\n        /* \"#utility.yul\":14481:14486   */\n      dup2\n        /* \"#utility.yul\":14463:14487   */\n      tag_539\n      jump\t// in\n    tag_542:\n        /* \"#utility.yul\":14458:14461   */\n      dup3\n        /* \"#utility.yul\":14451:14488   */\n      mstore\n        /* \"#utility.yul\":14376:14494   */\n      pop\n      pop\n      jump\t// out\n        /* \"#utility.yul\":14500:14657   */\n    tag_543:\n        /* \"#utility.yul\":14605:14650   */\n      tag_545\n        /* \"#utility.yul\":14625:14649   */\n      tag_546\n        /* \"#utility.yul\":14643:14648   */\n      dup3\n        /* \"#utility.yul\":14625:14649   */\n      tag_539\n      jump\t// in\n    tag_546:\n        /* \"#utility.yul\":14605:14650   */\n      tag_547\n      jump\t// in\n    tag_545:\n        /* \"#utility.yul\":14600:14603   */\n      dup3\n        /* \"#utility.yul\":14593:14651   */\n      mstore\n        /* \"#utility.yul\":14500:14657   */\n      pop\n      pop\n      jump\t// out\n        /* \"#utility.yul\":14663:15060   */\n    tag_209:\n        /* \"#utility.yul\":14803:14806   */\n      0x00\n        /* \"#utility.yul\":14818:14893   */\n      tag_549\n        /* \"#utility.yul\":14889:14892   */\n      dup3\n        /* \"#utility.yul\":14880:14886   */\n      dup6\n        /* \"#utility.yul\":14818:14893   */\n      tag_419\n      jump\t// in\n    tag_549:\n        /* \"#utility.yul\":14918:14920   */\n      0x14\n        /* \"#utility.yul\":14913:14916   */\n      dup3\n        /* \"#utility.yul\":14909:14921   */\n      add\n        /* \"#utility.yul\":14902:14921   */\n      swap2\n      pop\n        /* \"#utility.yul\":14931:15006   */\n      tag_550\n        /* \"#utility.yul\":15002:15005   */\n      dup3\n        /* \"#utility.yul\":14993:14999   */\n      dup5\n        /* \"#utility.yul\":14931:15006   */\n      tag_543\n      jump\t// in\n    tag_550:\n        /* \"#utility.yul\":15031:15033   */\n      0x20\n        /* \"#utility.yul\":15026:15029   */\n      dup3\n        /* \"#utility.yul\":15022:15034   */\n      add\n        /* \"#utility.yul\":15015:15034   */\n      swap2\n      pop\n        /* \"#utility.yul\":15051:15054   */\n      dup2\n        /* \"#utility.yul\":15044:15054   */\n      swap1\n      pop\n        /* \"#utility.yul\":14663:15060   */\n      swap4\n      swap3\n      pop\n      pop\n      pop\n      jump\t// out\n        /* \"#utility.yul\":15066:15337   */\n    tag_327:\n        /* \"#utility.yul\":15196:15199   */\n      0x00\n        /* \"#utility.yul\":15218:15311   */\n      tag_552\n        /* \"#utility.yul\":15307:15310   */\n      dup3\n        /* \"#utility.yul\":15298:15304   */\n      dup5\n        /* \"#utility.yul\":15218:15311   */\n      tag_432\n      jump\t// in\n    tag_552:\n        /* \"#utility.yul\":15211:15311   */\n      swap2\n      pop\n        /* \"#utility.yul\":15328:15331   */\n      dup2\n        /* \"#utility.yul\":15321:15331   */\n      swap1\n      pop\n        /* \"#utility.yul\":15066:15337   */\n      swap3\n      swap2\n      pop\n      pop\n      jump\t// out\n        /* \"#utility.yul\":15343:15565   */\n    tag_43:\n        /* \"#utility.yul\":15436:15440   */\n      0x00\n        /* \"#utility.yul\":15474:15476   */\n      0x20\n        /* \"#utility.yul\":15463:15472   */\n      dup3\n        /* \"#utility.yul\":15459:15477   */\n      add\n        /* \"#utility.yul\":15451:15477   */\n      swap1\n      pop\n        /* \"#utility.yul\":15487:15558   */\n      tag_554\n        /* \"#utility.yul\":15555:15556   */\n      0x00\n        /* \"#utility.yul\":15544:15553   */\n      dup4\n        /* \"#utility.yul\":15540:15557   */\n      add\n        /* \"#utility.yul\":15531:15537   */\n      dup5\n        /* \"#utility.yul\":15487:15558   */\n      tag_416\n      jump\t// in\n    tag_554:\n        /* \"#utility.yul\":15343:15565   */\n      swap3\n      swap2\n      pop\n      pop\n      jump\t// out\n        /* \"#utility.yul\":15571:15903   */\n    tag_274:\n        /* \"#utility.yul\":15692:15696   */\n      0x00\n        /* \"#utility.yul\":15730:15732   */\n      0x40\n        /* \"#utility.yul\":15719:15728   */\n      dup3\n        /* \"#utility.yul\":15715:15733   */\n      add\n        /* \"#utility.yul\":15707:15733   */\n      swap1\n      pop\n        /* \"#utility.yul\":15743:15814   */\n      tag_556\n        /* \"#utility.yul\":15811:15812   */\n      0x00\n        /* \"#utility.yul\":15800:15809   */\n      dup4\n        /* \"#utility.yul\":15796:15813   */\n      add\n        /* \"#utility.yul\":15787:15793   */\n      dup6\n        /* \"#utility.yul\":15743:15814   */\n      tag_416\n      jump\t// in\n    tag_556:\n        /* \"#utility.yul\":15824:15896   */\n      tag_557\n        /* \"#utility.yul\":15892:15894   */\n      0x20\n        /* \"#utility.yul\":15881:15890   */\n      dup4\n        /* \"#utility.yul\":15877:15895   */\n      add\n        /* \"#utility.yul\":15868:15874   */\n      dup5\n        /* \"#utility.yul\":15824:15896   */\n      tag_540\n      jump\t// in\n    tag_557:\n        /* \"#utility.yul\":15571:15903   */\n      swap4\n      swap3\n      pop\n      pop\n      pop\n      jump\t// out\n        /* \"#utility.yul\":15909:16131   */\n    tag_79:\n        /* \"#utility.yul\":16002:16006   */\n      0x00\n        /* \"#utility.yul\":16040:16042   */\n      0x20\n        /* \"#utility.yul\":16029:16038   */\n      dup3\n        /* \"#utility.yul\":16025:16043   */\n      add\n        /* \"#utility.yul\":16017:16043   */\n      swap1\n      pop\n        /* \"#utility.yul\":16053:16124   */\n      tag_559\n        /* \"#utility.yul\":16121:16122   */\n      0x00\n        /* \"#utility.yul\":16110:16119   */\n      dup4\n        /* \"#utility.yul\":16106:16123   */\n      add\n        /* \"#utility.yul\":16097:16103   */\n      dup5\n        /* \"#utility.yul\":16053:16124   */\n      tag_428\n      jump\t// in\n    tag_559:\n        /* \"#utility.yul\":15909:16131   */\n      swap3\n      swap2\n      pop\n      pop\n      jump\t// out\n        /* \"#utility.yul\":16137:16450   */\n    tag_340:\n        /* \"#utility.yul\":16250:16254   */\n      0x00\n        /* \"#utility.yul\":16288:16290   */\n      0x20\n        /* \"#utility.yul\":16277:16286   */\n      dup3\n        /* \"#utility.yul\":16273:16291   */\n      add\n        /* \"#utility.yul\":16265:16291   */\n      swap1\n      pop\n        /* \"#utility.yul\":16337:16346   */\n      dup2\n        /* \"#utility.yul\":16331:16335   */\n      dup2\n        /* \"#utility.yul\":16327:16347   */\n      sub\n        /* \"#utility.yul\":16323:16324   */\n      0x00\n        /* \"#utility.yul\":16312:16321   */\n      dup4\n        /* \"#utility.yul\":16308:16325   */\n      add\n        /* \"#utility.yul\":16301:16348   */\n      mstore\n        /* \"#utility.yul\":16365:16443   */\n      tag_561\n        /* \"#utility.yul\":16438:16442   */\n      dup2\n        /* \"#utility.yul\":16429:16435   */\n      dup5\n        /* \"#utility.yul\":16365:16443   */\n      tag_440\n      jump\t// in\n    tag_561:\n        /* \"#utility.yul\":16357:16443   */\n      swap1\n      pop\n        /* \"#utility.yul\":16137:16450   */\n      swap3\n      swap2\n      pop\n      pop\n      jump\t// out\n        /* \"#utility.yul\":16456:16875   */\n    tag_244:\n        /* \"#utility.yul\":16622:16626   */\n      0x00\n        /* \"#utility.yul\":16660:16662   */\n      0x20\n        /* \"#utility.yul\":16649:16658   */\n      dup3\n        /* \"#utility.yul\":16645:16663   */\n      add\n        /* \"#utility.yul\":16637:16663   */\n      swap1\n      pop\n        /* \"#utility.yul\":16709:16718   */\n      dup2\n        /* \"#utility.yul\":16703:16707   */\n      dup2\n        /* \"#utility.yul\":16699:16719   */\n      sub\n        /* \"#utility.yul\":16695:16696   */\n      0x00\n        /* \"#utility.yul\":16684:16693   */\n      dup4\n        /* \"#utility.yul\":16680:16697   */\n      add\n        /* \"#utility.yul\":16673:16720   */\n      mstore\n        /* \"#utility.yul\":16737:16868   */\n      tag_563\n        /* \"#utility.yul\":16863:16867   */\n      dup2\n        /* \"#utility.yul\":16737:16868   */\n      tag_449\n      jump\t// in\n    tag_563:\n        /* \"#utility.yul\":16729:16868   */\n      swap1\n      pop\n        /* \"#utility.yul\":16456:16875   */\n      swap2\n      swap1\n      pop\n      jump\t// out\n        /* \"#utility.yul\":16881:17300   */\n    tag_143:\n        /* \"#utility.yul\":17047:17051   */\n      0x00\n        /* \"#utility.yul\":17085:17087   */\n      0x20\n        /* \"#utility.yul\":17074:17083   */\n      dup3\n        /* \"#utility.yul\":17070:17088   */\n      add\n        /* \"#utility.yul\":17062:17088   */\n      swap1\n      pop\n        /* \"#utility.yul\":17134:17143   */\n      dup2\n        /* \"#utility.yul\":17128:17132   */\n      dup2\n        /* \"#utility.yul\":17124:17144   */\n      sub\n        /* \"#utility.yul\":17120:17121   */\n      0x00\n        /* \"#utility.yul\":17109:17118   */\n      dup4\n        /* \"#utility.yul\":17105:17122   */\n      add\n        /* \"#utility.yul\":17098:17145   */\n      mstore\n        /* \"#utility.yul\":17162:17293   */\n      tag_565\n        /* \"#utility.yul\":17288:17292   */\n      dup2\n        /* \"#utility.yul\":17162:17293   */\n      tag_454\n      jump\t// in\n    tag_565:\n        /* \"#utility.yul\":17154:17293   */\n      swap1\n      pop\n        /* \"#utility.yul\":16881:17300   */\n      swap2\n      swap1\n      pop\n      jump\t// out\n        /* \"#utility.yul\":17306:17725   */\n    tag_191:\n        /* \"#utility.yul\":17472:17476   */\n      0x00\n        /* \"#utility.yul\":17510:17512   */\n      0x20\n        /* \"#utility.yul\":17499:17508   */\n      dup3\n        /* \"#utility.yul\":17495:17513   */\n      add\n        /* \"#utility.yul\":17487:17513   */\n      swap1\n      pop\n        /* \"#utility.yul\":17559:17568   */\n      dup2\n        /* \"#utility.yul\":17553:17557   */\n      dup2\n        /* \"#utility.yul\":17549:17569   */\n      sub\n        /* \"#utility.yul\":17545:17546   */\n      0x00\n        /* \"#utility.yul\":17534:17543   */\n      dup4\n        /* \"#utility.yul\":17530:17547   */\n      add\n        /* \"#utility.yul\":17523:17570   */\n      mstore\n        /* \"#utility.yul\":17587:17718   */\n      tag_567\n        /* \"#utility.yul\":17713:17717   */\n      dup2\n        /* \"#utility.yul\":17587:17718   */\n      tag_459\n      jump\t// in\n    tag_567:\n        /* \"#utility.yul\":17579:17718   */\n      swap1\n      pop\n        /* \"#utility.yul\":17306:17725   */\n      swap2\n      swap1\n      pop\n      jump\t// out\n        /* \"#utility.yul\":17731:18150   */\n    tag_320:\n        /* \"#utility.yul\":17897:17901   */\n      0x00\n        /* \"#utility.yul\":17935:17937   */\n      0x20\n        /* \"#utility.yul\":17924:17933   */\n      dup3\n        /* \"#utility.yul\":17920:17938   */\n      add\n        /* \"#utility.yul\":17912:17938   */\n      swap1\n      pop\n        /* \"#utility.yul\":17984:17993   */\n      dup2\n        /* \"#utility.yul\":17978:17982   */\n      dup2\n        /* \"#utility.yul\":17974:17994   */\n      sub\n        /* \"#utility.yul\":17970:17971   */\n      0x00\n        /* \"#utility.yul\":17959:17968   */\n      dup4\n        /* \"#utility.yul\":17955:17972   */\n      add\n        /* \"#utility.yul\":17948:17995   */\n      mstore\n        /* \"#utility.yul\":18012:18143   */\n      tag_569\n        /* \"#utility.yul\":18138:18142   */\n      dup2\n        /* \"#utility.yul\":18012:18143   */\n      tag_464\n      jump\t// in\n    tag_569:\n        /* \"#utility.yul\":18004:18143   */\n      swap1\n      pop\n        /* \"#utility.yul\":17731:18150   */\n      swap2\n      swap1\n      pop\n      jump\t// out\n        /* \"#utility.yul\":18156:18575   */\n    tag_228:\n        /* \"#utility.yul\":18322:18326   */\n      0x00\n        /* \"#utility.yul\":18360:18362   */\n      0x20\n        /* \"#utility.yul\":18349:18358   */\n      dup3\n        /* \"#utility.yul\":18345:18363   */\n      add\n        /* \"#utility.yul\":18337:18363   */\n      swap1\n      pop\n        /* \"#utility.yul\":18409:18418   */\n      dup2\n        /* \"#utility.yul\":18403:18407   */\n      dup2\n        /* \"#utility.yul\":18399:18419   */\n      sub\n        /* \"#utility.yul\":18395:18396   */\n      0x00\n        /* \"#utility.yul\":18384:18393   */\n      dup4\n        /* \"#utility.yul\":18380:18397   */\n      add\n        /* \"#utility.yul\":18373:18420   */\n      mstore\n        /* \"#utility.yul\":18437:18568   */\n      tag_571\n        /* \"#utility.yul\":18563:18567   */\n      dup2\n        /* \"#utility.yul\":18437:18568   */\n      tag_469\n      jump\t// in\n    tag_571:\n        /* \"#utility.yul\":18429:18568   */\n      swap1\n      pop\n        /* \"#utility.yul\":18156:18575   */\n      swap2\n      swap1\n      pop\n      jump\t// out\n        /* \"#utility.yul\":18581:19000   */\n    tag_267:\n        /* \"#utility.yul\":18747:18751   */\n      0x00\n        /* \"#utility.yul\":18785:18787   */\n      0x20\n        /* \"#utility.yul\":18774:18783   */\n      dup3\n        /* \"#utility.yul\":18770:18788   */\n      add\n        /* \"#utility.yul\":18762:18788   */\n      swap1\n      pop\n        /* \"#utility.yul\":18834:18843   */\n      dup2\n        /* \"#utility.yul\":18828:18832   */\n      dup2\n        /* \"#utility.yul\":18824:18844   */\n      sub\n        /* \"#utility.yul\":18820:18821   */\n      0x00\n        /* \"#utility.yul\":18809:18818   */\n      dup4\n        /* \"#utility.yul\":18805:18822   */\n      add\n        /* \"#utility.yul\":18798:18845   */\n      mstore\n        /* \"#utility.yul\":18862:18993   */\n      tag_573\n        /* \"#utility.yul\":18988:18992   */\n      dup2\n        /* \"#utility.yul\":18862:18993   */\n      tag_474\n      jump\t// in\n    tag_573:\n        /* \"#utility.yul\":18854:18993   */\n      swap1\n      pop\n        /* \"#utility.yul\":18581:19000   */\n      swap2\n      swap1\n      pop\n      jump\t// out\n        /* \"#utility.yul\":19006:19425   */\n    tag_140:\n        /* \"#utility.yul\":19172:19176   */\n      0x00\n        /* \"#utility.yul\":19210:19212   */\n      0x20\n        /* \"#utility.yul\":19199:19208   */\n      dup3\n        /* \"#utility.yul\":19195:19213   */\n      add\n        /* \"#utility.yul\":19187:19213   */\n      swap1\n      pop\n        /* \"#utility.yul\":19259:19268   */\n      dup2\n        /* \"#utility.yul\":19253:19257   */\n      dup2\n        /* \"#utility.yul\":19249:19269   */\n      sub\n        /* \"#utility.yul\":19245:19246   */\n      0x00\n        /* \"#utility.yul\":19234:19243   */\n      dup4\n        /* \"#utility.yul\":19230:19247   */\n      add\n        /* \"#utility.yul\":19223:19270   */\n      mstore\n        /* \"#utility.yul\":19287:19418   */\n      tag_575\n        /* \"#utility.yul\":19413:19417   */\n      dup2\n        /* \"#utility.yul\":19287:19418   */\n      tag_479\n      jump\t// in\n    tag_575:\n        /* \"#utility.yul\":19279:19418   */\n      swap1\n      pop\n        /* \"#utility.yul\":19006:19425   */\n      swap2\n      swap1\n      pop\n      jump\t// out\n        /* \"#utility.yul\":19431:19850   */\n    tag_256:\n        /* \"#utility.yul\":19597:19601   */\n      0x00\n        /* \"#utility.yul\":19635:19637   */\n      0x20\n        /* \"#utility.yul\":19624:19633   */\n      dup3\n        /* \"#utility.yul\":19620:19638   */\n      add\n        /* \"#utility.yul\":19612:19638   */\n      swap1\n      pop\n        /* \"#utility.yul\":19684:19693   */\n      dup2\n        /* \"#utility.yul\":19678:19682   */\n      dup2\n        /* \"#utility.yul\":19674:19694   */\n      sub\n        /* \"#utility.yul\":19670:19671   */\n      0x00\n        /* \"#utility.yul\":19659:19668   */\n      dup4\n        /* \"#utility.yul\":19655:19672   */\n      add\n        /* \"#utility.yul\":19648:19695   */\n      mstore\n        /* \"#utility.yul\":19712:19843   */\n      tag_577\n        /* \"#utility.yul\":19838:19842   */\n      dup2\n        /* \"#utility.yul\":19712:19843   */\n      tag_484\n      jump\t// in\n    tag_577:\n        /* \"#utility.yul\":19704:19843   */\n      swap1\n      pop\n        /* \"#utility.yul\":19431:19850   */\n      swap2\n      swap1\n      pop\n      jump\t// out\n        /* \"#utility.yul\":19856:20275   */\n    tag_137:\n        /* \"#utility.yul\":20022:20026   */\n      0x00\n        /* \"#utility.yul\":20060:20062   */\n      0x20\n        /* \"#utility.yul\":20049:20058   */\n      dup3\n        /* \"#utility.yul\":20045:20063   */\n      add\n        /* \"#utility.yul\":20037:20063   */\n      swap1\n      pop\n        /* \"#utility.yul\":20109:20118   */\n      dup2\n        /* \"#utility.yul\":20103:20107   */\n      dup2\n        /* \"#utility.yul\":20099:20119   */\n      sub\n        /* \"#utility.yul\":20095:20096   */\n      0x00\n        /* \"#utility.yul\":20084:20093   */\n      dup4\n        /* \"#utility.yul\":20080:20097   */\n      add\n        /* \"#utility.yul\":20073:20120   */\n      mstore\n        /* \"#utility.yul\":20137:20268   */\n      tag_579\n        /* \"#utility.yul\":20263:20267   */\n      dup2\n        /* \"#utility.yul\":20137:20268   */\n      tag_489\n      jump\t// in\n    tag_579:\n        /* \"#utility.yul\":20129:20268   */\n      swap1\n      pop\n        /* \"#utility.yul\":19856:20275   */\n      swap2\n      swap1\n      pop\n      jump\t// out\n        /* \"#utility.yul\":20281:20700   */\n    tag_186:\n        /* \"#utility.yul\":20447:20451   */\n      0x00\n        /* \"#utility.yul\":20485:20487   */\n      0x20\n        /* \"#utility.yul\":20474:20483   */\n      dup3\n        /* \"#utility.yul\":20470:20488   */\n      add\n        /* \"#utility.yul\":20462:20488   */\n      swap1\n      pop\n        /* \"#utility.yul\":20534:20543   */\n      dup2\n        /* \"#utility.yul\":20528:20532   */\n      dup2\n        /* \"#utility.yul\":20524:20544   */\n      sub\n        /* \"#utility.yul\":20520:20521   */\n      0x00\n        /* \"#utility.yul\":20509:20518   */\n      dup4\n        /* \"#utility.yul\":20505:20522   */\n      add\n        /* \"#utility.yul\":20498:20545   */\n      mstore\n        /* \"#utility.yul\":20562:20693   */\n      tag_581\n        /* \"#utility.yul\":20688:20692   */\n      dup2\n        /* \"#utility.yul\":20562:20693   */\n      tag_494\n      jump\t// in\n    tag_581:\n        /* \"#utility.yul\":20554:20693   */\n      swap1\n      pop\n        /* \"#utility.yul\":20281:20700   */\n      swap2\n      swap1\n      pop\n      jump\t// out\n        /* \"#utility.yul\":20706:21125   */\n    tag_325:\n        /* \"#utility.yul\":20872:20876   */\n      0x00\n        /* \"#utility.yul\":20910:20912   */\n      0x20\n        /* \"#utility.yul\":20899:20908   */\n      dup3\n        /* \"#utility.yul\":20895:20913   */\n      add\n        /* \"#utility.yul\":20887:20913   */\n      swap1\n      pop\n        /* \"#utility.yul\":20959:20968   */\n      dup2\n        /* \"#utility.yul\":20953:20957   */\n      dup2\n        /* \"#utility.yul\":20949:20969   */\n      sub\n        /* \"#utility.yul\":20945:20946   */\n      0x00\n        /* \"#utility.yul\":20934:20943   */\n      dup4\n        /* \"#utility.yul\":20930:20947   */\n      add\n        /* \"#utility.yul\":20923:20970   */\n      mstore\n        /* \"#utility.yul\":20987:21118   */\n      tag_583\n        /* \"#utility.yul\":21113:21117   */\n      dup2\n        /* \"#utility.yul\":20987:21118   */\n      tag_499\n      jump\t// in\n    tag_583:\n        /* \"#utility.yul\":20979:21118   */\n      swap1\n      pop\n        /* \"#utility.yul\":20706:21125   */\n      swap2\n      swap1\n      pop\n      jump\t// out\n        /* \"#utility.yul\":21131:21550   */\n    tag_169:\n        /* \"#utility.yul\":21297:21301   */\n      0x00\n        /* \"#utility.yul\":21335:21337   */\n      0x20\n        /* \"#utility.yul\":21324:21333   */\n      dup3\n        /* \"#utility.yul\":21320:21338   */\n      add\n        /* \"#utility.yul\":21312:21338   */\n      swap1\n      pop\n        /* \"#utility.yul\":21384:21393   */\n      dup2\n        /* \"#utility.yul\":21378:21382   */\n      dup2\n        /* \"#utility.yul\":21374:21394   */\n      sub\n        /* \"#utility.yul\":21370:21371   */\n      0x00\n        /* \"#utility.yul\":21359:21368   */\n      dup4\n        /* \"#utility.yul\":21355:21372   */\n      add\n        /* \"#utility.yul\":21348:21395   */\n      mstore\n        /* \"#utility.yul\":21412:21543   */\n      tag_585\n        /* \"#utility.yul\":21538:21542   */\n      dup2\n        /* \"#utility.yul\":21412:21543   */\n      tag_504\n      jump\t// in\n    tag_585:\n        /* \"#utility.yul\":21404:21543   */\n      swap1\n      pop\n        /* \"#utility.yul\":21131:21550   */\n      swap2\n      swap1\n      pop\n      jump\t// out\n        /* \"#utility.yul\":21556:21975   */\n    tag_306:\n        /* \"#utility.yul\":21722:21726   */\n      0x00\n        /* \"#utility.yul\":21760:21762   */\n      0x20\n        /* \"#utility.yul\":21749:21758   */\n      dup3\n        /* \"#utility.yul\":21745:21763   */\n      add\n        /* \"#utility.yul\":21737:21763   */\n      swap1\n      pop\n        /* \"#utility.yul\":21809:21818   */\n      dup2\n        /* \"#utility.yul\":21803:21807   */\n      dup2\n        /* \"#utility.yul\":21799:21819   */\n      sub\n        /* \"#utility.yul\":21795:21796   */\n      0x00\n        /* \"#utility.yul\":21784:21793   */\n      dup4\n        /* \"#utility.yul\":21780:21797   */\n      add\n        /* \"#utility.yul\":21773:21820   */\n      mstore\n        /* \"#utility.yul\":21837:21968   */\n      tag_587\n        /* \"#utility.yul\":21963:21967   */\n      dup2\n        /* \"#utility.yul\":21837:21968   */\n      tag_509\n      jump\t// in\n    tag_587:\n        /* \"#utility.yul\":21829:21968   */\n      swap1\n      pop\n        /* \"#utility.yul\":21556:21975   */\n      swap2\n      swap1\n      pop\n      jump\t// out\n        /* \"#utility.yul\":21981:22400   */\n    tag_134:\n        /* \"#utility.yul\":22147:22151   */\n      0x00\n        /* \"#utility.yul\":22185:22187   */\n      0x20\n        /* \"#utility.yul\":22174:22183   */\n      dup3\n        /* \"#utility.yul\":22170:22188   */\n      add\n        /* \"#utility.yul\":22162:22188   */\n      swap1\n      pop\n        /* \"#utility.yul\":22234:22243   */\n      dup2\n        /* \"#utility.yul\":22228:22232   */\n      dup2\n        /* \"#utility.yul\":22224:22244   */\n      sub\n        /* \"#utility.yul\":22220:22221   */\n      0x00\n        /* \"#utility.yul\":22209:22218   */\n      dup4\n        /* \"#utility.yul\":22205:22222   */\n      add\n        /* \"#utility.yul\":22198:22245   */\n      mstore\n        /* \"#utility.yul\":22262:22393   */\n      tag_589\n        /* \"#utility.yul\":22388:22392   */\n      dup2\n        /* \"#utility.yul\":22262:22393   */\n      tag_514\n      jump\t// in\n    tag_589:\n        /* \"#utility.yul\":22254:22393   */\n      swap1\n      pop\n        /* \"#utility.yul\":21981:22400   */\n      swap2\n      swap1\n      pop\n      jump\t// out\n        /* \"#utility.yul\":22406:22825   */\n    tag_159:\n        /* \"#utility.yul\":22572:22576   */\n      0x00\n        /* \"#utility.yul\":22610:22612   */\n      0x20\n        /* \"#utility.yul\":22599:22608   */\n      dup3\n        /* \"#utility.yul\":22595:22613   */\n      add\n        /* \"#utility.yul\":22587:22613   */\n      swap1\n      pop\n        /* \"#utility.yul\":22659:22668   */\n      dup2\n        /* \"#utility.yul\":22653:22657   */\n      dup2\n        /* \"#utility.yul\":22649:22669   */\n      sub\n        /* \"#utility.yul\":22645:22646   */\n      0x00\n        /* \"#utility.yul\":22634:22643   */\n      dup4\n        /* \"#utility.yul\":22630:22647   */\n      add\n        /* \"#utility.yul\":22623:22670   */\n      mstore\n        /* \"#utility.yul\":22687:22818   */\n      tag_591\n        /* \"#utility.yul\":22813:22817   */\n      dup2\n        /* \"#utility.yul\":22687:22818   */\n      tag_519\n      jump\t// in\n    tag_591:\n        /* \"#utility.yul\":22679:22818   */\n      swap1\n      pop\n        /* \"#utility.yul\":22406:22825   */\n      swap2\n      swap1\n      pop\n      jump\t// out\n        /* \"#utility.yul\":22831:23186   */\n    tag_72:\n        /* \"#utility.yul\":22990:22994   */\n      0x00\n        /* \"#utility.yul\":23028:23031   */\n      0x0140\n        /* \"#utility.yul\":23017:23026   */\n      dup3\n        /* \"#utility.yul\":23013:23032   */\n      add\n        /* \"#utility.yul\":23005:23032   */\n      swap1\n      pop\n        /* \"#utility.yul\":23042:23179   */\n      tag_593\n        /* \"#utility.yul\":23176:23177   */\n      0x00\n        /* \"#utility.yul\":23165:23174   */\n      dup4\n        /* \"#utility.yul\":23161:23178   */\n      add\n        /* \"#utility.yul\":23152:23158   */\n      dup5\n        /* \"#utility.yul\":23042:23179   */\n      tag_524\n      jump\t// in\n    tag_593:\n        /* \"#utility.yul\":22831:23186   */\n      swap3\n      swap2\n      pop\n      pop\n      jump\t// out\n        /* \"#utility.yul\":23192:23414   */\n    tag_33:\n        /* \"#utility.yul\":23285:23289   */\n      0x00\n        /* \"#utility.yul\":23323:23325   */\n      0x20\n        /* \"#utility.yul\":23312:23321   */\n      dup3\n        /* \"#utility.yul\":23308:23326   */\n      add\n        /* \"#utility.yul\":23300:23326   */\n      swap1\n      pop\n        /* \"#utility.yul\":23336:23407   */\n      tag_595\n        /* \"#utility.yul\":23404:23405   */\n      0x00\n        /* \"#utility.yul\":23393:23402   */\n      dup4\n        /* \"#utility.yul\":23389:23406   */\n      add\n        /* \"#utility.yul\":23380:23386   */\n      dup5\n        /* \"#utility.yul\":23336:23407   */\n      tag_540\n      jump\t// in\n    tag_595:\n        /* \"#utility.yul\":23192:23414   */\n      swap3\n      swap2\n      pop\n      pop\n      jump\t// out\n        /* \"#utility.yul\":23501:23599   */\n    tag_435:\n        /* \"#utility.yul\":23552:23558   */\n      0x00\n        /* \"#utility.yul\":23586:23591   */\n      dup2\n        /* \"#utility.yul\":23580:23592   */\n      mload\n        /* \"#utility.yul\":23570:23592   */\n      swap1\n      pop\n        /* \"#utility.yul\":23501:23599   */\n      swap2\n      swap1\n      pop\n      jump\t// out\n        /* \"#utility.yul\":23605:23704   */\n    tag_443:\n        /* \"#utility.yul\":23657:23663   */\n      0x00\n        /* \"#utility.yul\":23691:23696   */\n      dup2\n        /* \"#utility.yul\":23685:23697   */\n      mload\n        /* \"#utility.yul\":23675:23697   */\n      swap1\n      pop\n        /* \"#utility.yul\":23605:23704   */\n      swap2\n      swap1\n      pop\n      jump\t// out\n        /* \"#utility.yul\":23710:23857   */\n    tag_437:\n        /* \"#utility.yul\":23811:23822   */\n      0x00\n        /* \"#utility.yul\":23848:23851   */\n      dup2\n        /* \"#utility.yul\":23833:23851   */\n      swap1\n      pop\n        /* \"#utility.yul\":23710:23857   */\n      swap3\n      swap2\n      pop\n      pop\n      jump\t// out\n        /* \"#utility.yul\":23863:24032   */\n    tag_445:\n        /* \"#utility.yul\":23947:23958   */\n      0x00\n        /* \"#utility.yul\":23981:23987   */\n      dup3\n        /* \"#utility.yul\":23976:23979   */\n      dup3\n        /* \"#utility.yul\":23969:23988   */\n      mstore\n        /* \"#utility.yul\":24021:24025   */\n      0x20\n        /* \"#utility.yul\":24016:24019   */\n      dup3\n        /* \"#utility.yul\":24012:24026   */\n      add\n        /* \"#utility.yul\":23997:24026   */\n      swap1\n      pop\n        /* \"#utility.yul\":23863:24032   */\n      swap3\n      swap2\n      pop\n      pop\n      jump\t// out\n        /* \"#utility.yul\":24038:24343   */\n    tag_270:\n        /* \"#utility.yul\":24078:24081   */\n      0x00\n        /* \"#utility.yul\":24097:24117   */\n      tag_603\n        /* \"#utility.yul\":24115:24116   */\n      dup3\n        /* \"#utility.yul\":24097:24117   */\n      tag_539\n      jump\t// in\n    tag_603:\n        /* \"#utility.yul\":24092:24117   */\n      swap2\n      pop\n        /* \"#utility.yul\":24131:24151   */\n      tag_604\n        /* \"#utility.yul\":24149:24150   */\n      dup4\n        /* \"#utility.yul\":24131:24151   */\n      tag_539\n      jump\t// in\n    tag_604:\n        /* \"#utility.yul\":24126:24151   */\n      swap3\n      pop\n        /* \"#utility.yul\":24285:24286   */\n      dup3\n        /* \"#utility.yul\":24217:24283   */\n      0xffffffffffffffffffffffffffffffffffffffffffffffffffffffffffffffff\n        /* \"#utility.yul\":24213:24287   */\n      sub\n        /* \"#utility.yul\":24210:24211   */\n      dup3\n        /* \"#utility.yul\":24207:24288   */\n      gt\n        /* \"#utility.yul\":24204:24311   */\n      iszero\n      tag_605\n      jumpi\n        /* \"#utility.yul\":24291:24309   */\n      tag_606\n      tag_607\n      jump\t// in\n    tag_606:\n        /* \"#utility.yul\":24204:24311   */\n    tag_605:\n        /* \"#utility.yul\":24335:24336   */\n      dup3\n        /* \"#utility.yul\":24332:24333   */\n      dup3\n        /* \"#utility.yul\":24328:24337   */\n      add\n        /* \"#utility.yul\":24321:24337   */\n      swap1\n      pop\n        /* \"#utility.yul\":24038:24343   */\n      swap3\n      swap2\n      pop\n      pop\n      jump\t// out\n        /* \"#utility.yul\":24349:24534   */\n    tag_310:\n        /* \"#utility.yul\":24389:24390   */\n      0x00\n        /* \"#utility.yul\":24406:24426   */\n      tag_609\n        /* \"#utility.yul\":24424:24425   */\n      dup3\n        /* \"#utility.yul\":24406:24426   */\n      tag_539\n      jump\t// in\n    tag_609:\n        /* \"#utility.yul\":24401:24426   */\n      swap2\n      pop\n        /* \"#utility.yul\":24440:24460   */\n      tag_610\n        /* \"#utility.yul\":24458:24459   */\n      dup4\n        /* \"#utility.yul\":24440:24460   */\n      tag_539\n      jump\t// in\n    tag_610:\n        /* \"#utility.yul\":24435:24460   */\n      swap3\n      pop\n        /* \"#utility.yul\":24479:24480   */\n      dup3\n        /* \"#utility.yul\":24469:24504   */\n      tag_611\n      jumpi\n        /* \"#utility.yul\":24484:24502   */\n      tag_612\n      tag_613\n      jump\t// in\n    tag_612:\n        /* \"#utility.yul\":24469:24504   */\n    tag_611:\n        /* \"#utility.yul\":24526:24527   */\n      dup3\n        /* \"#utility.yul\":24523:24524   */\n      dup3\n        /* \"#utility.yul\":24519:24528   */\n      div\n        /* \"#utility.yul\":24514:24528   */\n      swap1\n      pop\n        /* \"#utility.yul\":24349:24534   */\n      swap3\n      swap2\n      pop\n      pop\n      jump\t// out\n        /* \"#utility.yul\":24540:24888   */\n    tag_313:\n        /* \"#utility.yul\":24580:24587   */\n      0x00\n        /* \"#utility.yul\":24603:24623   */\n      tag_615\n        /* \"#utility.yul\":24621:24622   */\n      dup3\n        /* \"#utility.yul\":24603:24623   */\n      tag_539\n      jump\t// in\n    tag_615:\n        /* \"#utility.yul\":24598:24623   */\n      swap2\n      pop\n        /* \"#utility.yul\":24637:24657   */\n      tag_616\n        /* \"#utility.yul\":24655:24656   */\n      dup4\n        /* \"#utility.yul\":24637:24657   */\n      tag_539\n      jump\t// in\n    tag_616:\n        /* \"#utility.yul\":24632:24657   */\n      swap3\n      pop\n        /* \"#utility.yul\":24825:24826   */\n      dup2\n        /* \"#utility.yul\":24757:24823   */\n      0xffffffffffffffffffffffffffffffffffffffffffffffffffffffffffffffff\n        /* \"#utility.yul\":24753:24827   */\n      div\n        /* \"#utility.yul\":24750:24751   */\n      dup4\n        /* \"#utility.yul\":24747:24828   */\n      gt\n        /* \"#utility.yul\":24742:24743   */\n      dup3\n        /* \"#utility.yul\":24735:24744   */\n      iszero\n        /* \"#utility.yul\":24728:24745   */\n      iszero\n        /* \"#utility.yul\":24724:24829   */\n      and\n        /* \"#utility.yul\":24721:24852   */\n      iszero\n      tag_617\n      jumpi\n        /* \"#utility.yul\":24832:24850   */\n      tag_618\n      tag_607\n      jump\t// in\n    tag_618:\n        /* \"#utility.yul\":24721:24852   */\n    tag_617:\n        /* \"#utility.yul\":24880:24881   */\n      dup3\n        /* \"#utility.yul\":24877:24878   */\n      dup3\n        /* \"#utility.yul\":24873:24882   */\n      mul\n        /* \"#utility.yul\":24862:24882   */\n      swap1\n      pop\n        /* \"#utility.yul\":24540:24888   */\n      swap3\n      swap2\n      pop\n      pop\n      jump\t// out\n        /* \"#utility.yul\":24894:25085   */\n    tag_206:\n        /* \"#utility.yul\":24934:24938   */\n      0x00\n        /* \"#utility.yul\":24954:24974   */\n      tag_620\n        /* \"#utility.yul\":24972:24973   */\n      dup3\n        /* \"#utility.yul\":24954:24974   */\n      tag_539\n      jump\t// in\n    tag_620:\n        /* \"#utility.yul\":24949:24974   */\n      swap2\n      pop\n        /* \"#utility.yul\":24988:25008   */\n      tag_621\n        /* \"#utility.yul\":25006:25007   */\n      dup4\n        /* \"#utility.yul\":24988:25008   */\n      tag_539\n      jump\t// in\n    tag_621:\n        /* \"#utility.yul\":24983:25008   */\n      swap3\n      pop\n        /* \"#utility.yul\":25027:25028   */\n      dup3\n        /* \"#utility.yul\":25024:25025   */\n      dup3\n        /* \"#utility.yul\":25021:25029   */\n      lt\n        /* \"#utility.yul\":25018:25052   */\n      iszero\n      tag_622\n      jumpi\n        /* \"#utility.yul\":25032:25050   */\n      tag_623\n      tag_607\n      jump\t// in\n    tag_623:\n        /* \"#utility.yul\":25018:25052   */\n    tag_622:\n        /* \"#utility.yul\":25077:25078   */\n      dup3\n        /* \"#utility.yul\":25074:25075   */\n      dup3\n        /* \"#utility.yul\":25070:25079   */\n      sub\n        /* \"#utility.yul\":25062:25079   */\n      swap1\n      pop\n        /* \"#utility.yul\":24894:25085   */\n      swap3\n      swap2\n      pop\n      pop\n      jump\t// out\n        /* \"#utility.yul\":25091:25187   */\n    tag_415:\n        /* \"#utility.yul\":25128:25135   */\n      0x00\n        /* \"#utility.yul\":25157:25181   */\n      tag_625\n        /* \"#utility.yul\":25175:25180   */\n      dup3\n        /* \"#utility.yul\":25157:25181   */\n      tag_626\n      jump\t// in\n    tag_625:\n        /* \"#utility.yul\":25146:25181   */\n      swap1\n      pop\n        /* \"#utility.yul\":25091:25187   */\n      swap2\n      swap1\n      pop\n      jump\t// out\n        /* \"#utility.yul\":25193:25283   */\n    tag_427:\n        /* \"#utility.yul\":25227:25234   */\n      0x00\n        /* \"#utility.yul\":25270:25275   */\n      dup2\n        /* \"#utility.yul\":25263:25276   */\n      iszero\n        /* \"#utility.yul\":25256:25277   */\n      iszero\n        /* \"#utility.yul\":25245:25277   */\n      swap1\n      pop\n        /* \"#utility.yul\":25193:25283   */\n      swap2\n      swap1\n      pop\n      jump\t// out\n        /* \"#utility.yul\":25289:25366   */\n    tag_431:\n        /* \"#utility.yul\":25326:25333   */\n      0x00\n        /* \"#utility.yul\":25355:25360   */\n      dup2\n        /* \"#utility.yul\":25344:25360   */\n      swap1\n      pop\n        /* \"#utility.yul\":25289:25366   */\n      swap2\n      swap1\n      pop\n      jump\t// out\n        /* \"#utility.yul\":25372:25498   */\n    tag_626:\n        /* \"#utility.yul\":25409:25416   */\n      0x00\n        /* \"#utility.yul\":25449:25491   */\n      0xffffffffffffffffffffffffffffffffffffffff\n        /* \"#utility.yul\":25442:25447   */\n      dup3\n        /* \"#utility.yul\":25438:25492   */\n      and\n        /* \"#utility.yul\":25427:25492   */\n      swap1\n      pop\n        /* \"#utility.yul\":25372:25498   */\n      swap2\n      swap1\n      pop\n      jump\t// out\n        /* \"#utility.yul\":25504:25581   */\n    tag_539:\n        /* \"#utility.yul\":25541:25548   */\n      0x00\n        /* \"#utility.yul\":25570:25575   */\n      dup2\n        /* \"#utility.yul\":25559:25575   */\n      swap1\n      pop\n        /* \"#utility.yul\":25504:25581   */\n      swap2\n      swap1\n      pop\n      jump\t// out\n        /* \"#utility.yul\":25587:25894   */\n    tag_439:\n        /* \"#utility.yul\":25655:25656   */\n      0x00\n        /* \"#utility.yul\":25665:25778   */\n    tag_632:\n        /* \"#utility.yul\":25679:25685   */\n      dup4\n        /* \"#utility.yul\":25676:25677   */\n      dup2\n        /* \"#utility.yul\":25673:25686   */\n      lt\n        /* \"#utility.yul\":25665:25778   */\n      iszero\n      tag_634\n      jumpi\n        /* \"#utility.yul\":25764:25765   */\n      dup1\n        /* \"#utility.yul\":25759:25762   */\n      dup3\n        /* \"#utility.yul\":25755:25766   */\n      add\n        /* \"#utility.yul\":25749:25767   */\n      mload\n        /* \"#utility.yul\":25745:25746   */\n      dup2\n        /* \"#utility.yul\":25740:25743   */\n      dup5\n        /* \"#utility.yul\":25736:25747   */\n      add\n        /* \"#utility.yul\":25729:25768   */\n      mstore\n        /* \"#utility.yul\":25701:25703   */\n      0x20\n        /* \"#utility.yul\":25698:25699   */\n      dup2\n        /* \"#utility.yul\":25694:25704   */\n      add\n        /* \"#utility.yul\":25689:25704   */\n      swap1\n      pop\n        /* \"#utility.yul\":25665:25778   */\n      jump(tag_632)\n    tag_634:\n        /* \"#utility.yul\":25796:25802   */\n      dup4\n        /* \"#utility.yul\":25793:25794   */\n      dup2\n        /* \"#utility.yul\":25790:25803   */\n      gt\n        /* \"#utility.yul\":25787:25888   */\n      iszero\n      tag_635\n      jumpi\n        /* \"#utility.yul\":25876:25877   */\n      0x00\n        /* \"#utility.yul\":25867:25873   */\n      dup5\n        /* \"#utility.yul\":25862:25865   */\n      dup5\n        /* \"#utility.yul\":25858:25874   */\n      add\n        /* \"#utility.yul\":25851:25878   */\n      mstore\n        /* \"#utility.yul\":25787:25888   */\n    tag_635:\n        /* \"#utility.yul\":25636:25894   */\n      pop\n        /* \"#utility.yul\":25587:25894   */\n      pop\n      pop\n      pop\n      jump\t// out\n        /* \"#utility.yul\":25900:26000   */\n    tag_423:\n        /* \"#utility.yul\":25939:25946   */\n      0x00\n        /* \"#utility.yul\":25968:25994   */\n      tag_637\n        /* \"#utility.yul\":25988:25993   */\n      dup3\n        /* \"#utility.yul\":25968:25994   */\n      tag_638\n      jump\t// in\n    tag_637:\n        /* \"#utility.yul\":25957:25994   */\n      swap1\n      pop\n        /* \"#utility.yul\":25900:26000   */\n      swap2\n      swap1\n      pop\n      jump\t// out\n        /* \"#utility.yul\":26006:26100   */\n    tag_638:\n        /* \"#utility.yul\":26045:26052   */\n      0x00\n        /* \"#utility.yul\":26074:26094   */\n      tag_640\n        /* \"#utility.yul\":26088:26093   */\n      dup3\n        /* \"#utility.yul\":26074:26094   */\n      tag_641\n      jump\t// in\n    tag_640:\n        /* \"#utility.yul\":26063:26094   */\n      swap1\n      pop\n        /* \"#utility.yul\":26006:26100   */\n      swap2\n      swap1\n      pop\n      jump\t// out\n        /* \"#utility.yul\":26106:26185   */\n    tag_547:\n        /* \"#utility.yul\":26145:26152   */\n      0x00\n        /* \"#utility.yul\":26174:26179   */\n      dup2\n        /* \"#utility.yul\":26163:26179   */\n      swap1\n      pop\n        /* \"#utility.yul\":26106:26185   */\n      swap2\n      swap1\n      pop\n      jump\t// out\n        /* \"#utility.yul\":26191:26371   */\n    tag_607:\n        /* \"#utility.yul\":26239:26316   */\n      0x4e487b7100000000000000000000000000000000000000000000000000000000\n        /* \"#utility.yul\":26236:26237   */\n      0x00\n        /* \"#utility.yul\":26229:26317   */\n      mstore\n        /* \"#utility.yul\":26336:26340   */\n      0x11\n        /* \"#utility.yul\":26333:26334   */\n      0x04\n        /* \"#utility.yul\":26326:26341   */\n      mstore\n        /* \"#utility.yul\":26360:26364   */\n      0x24\n        /* \"#utility.yul\":26357:26358   */\n      0x00\n        /* \"#utility.yul\":26350:26365   */\n      revert\n        /* \"#utility.yul\":26377:26557   */\n    tag_613:\n        /* \"#utility.yul\":26425:26502   */\n      0x4e487b7100000000000000000000000000000000000000000000000000000000\n        /* \"#utility.yul\":26422:26423   */\n      0x00\n        /* \"#utility.yul\":26415:26503   */\n      mstore\n        /* \"#utility.yul\":26522:26526   */\n      0x12\n        /* \"#utility.yul\":26519:26520   */\n      0x04\n        /* \"#utility.yul\":26512:26527   */\n      mstore\n        /* \"#utility.yul\":26546:26550   */\n      0x24\n        /* \"#utility.yul\":26543:26544   */\n      0x00\n        /* \"#utility.yul\":26536:26551   */\n      revert\n        /* \"#utility.yul\":26563:26743   */\n    tag_259:\n        /* \"#utility.yul\":26611:26688   */\n      0x4e487b7100000000000000000000000000000000000000000000000000000000\n        /* \"#utility.yul\":26608:26609   */\n      0x00\n        /* \"#utility.yul\":26601:26689   */\n      mstore\n        /* \"#utility.yul\":26708:26712   */\n      0x32\n        /* \"#utility.yul\":26705:26706   */\n      0x04\n        /* \"#utility.yul\":26698:26713   */\n      mstore\n        /* \"#utility.yul\":26732:26736   */\n      0x24\n        /* \"#utility.yul\":26729:26730   */\n      0x00\n        /* \"#utility.yul\":26722:26737   */\n      revert\n        /* \"#utility.yul\":26872:26989   */\n    tag_370:\n        /* \"#utility.yul\":26981:26982   */\n      0x00\n        /* \"#utility.yul\":26978:26979   */\n      dup1\n        /* \"#utility.yul\":26971:26983   */\n      revert\n        /* \"#utility.yul\":26995:27097   */\n    tag_448:\n        /* \"#utility.yul\":27036:27042   */\n      0x00\n        /* \"#utility.yul\":27087:27089   */\n      0x1f\n        /* \"#utility.yul\":27083:27090   */\n      not\n        /* \"#utility.yul\":27078:27080   */\n      0x1f\n        /* \"#utility.yul\":27071:27076   */\n      dup4\n        /* \"#utility.yul\":27067:27081   */\n      add\n        /* \"#utility.yul\":27063:27091   */\n      and\n        /* \"#utility.yul\":27053:27091   */\n      swap1\n      pop\n        /* \"#utility.yul\":26995:27097   */\n      swap2\n      swap1\n      pop\n      jump\t// out\n        /* \"#utility.yul\":27103:27197   */\n    tag_641:\n        /* \"#utility.yul\":27136:27144   */\n      0x00\n        /* \"#utility.yul\":27184:27189   */\n      dup2\n        /* \"#utility.yul\":27180:27182   */\n      0x60\n        /* \"#utility.yul\":27176:27190   */\n      shl\n        /* \"#utility.yul\":27155:27190   */\n      swap1\n      pop\n        /* \"#utility.yul\":27103:27197   */\n      swap2\n      swap1\n      pop\n      jump\t// out\n        /* \"#utility.yul\":27203:27428   */\n    tag_453:\n        /* \"#utility.yul\":27343:27377   */\n      0x4f776e61626c653a206e6577206f776e657220697320746865207a65726f2061\n        /* \"#utility.yul\":27339:27340   */\n      0x00\n        /* \"#utility.yul\":27331:27337   */\n      dup3\n        /* \"#utility.yul\":27327:27341   */\n      add\n        /* \"#utility.yul\":27320:27378   */\n      mstore\n        /* \"#utility.yul\":27412:27420   */\n      0x6464726573730000000000000000000000000000000000000000000000000000\n        /* \"#utility.yul\":27407:27409   */\n      0x20\n        /* \"#utility.yul\":27399:27405   */\n      dup3\n        /* \"#utility.yul\":27395:27410   */\n      add\n        /* \"#utility.yul\":27388:27421   */\n      mstore\n        /* \"#utility.yul\":27203:27428   */\n      pop\n      jump\t// out\n        /* \"#utility.yul\":27434:27666   */\n    tag_458:\n        /* \"#utility.yul\":27574:27608   */\n      0x546f6b656e56657374696e673a20736c696365506572696f645365636f6e6473\n        /* \"#utility.yul\":27570:27571   */\n      0x00\n        /* \"#utility.yul\":27562:27568   */\n      dup3\n        /* \"#utility.yul\":27558:27572   */\n      add\n        /* \"#utility.yul\":27551:27609   */\n      mstore\n        /* \"#utility.yul\":27643:27658   */\n      0x206d757374206265203e3d203100000000000000000000000000000000000000\n        /* \"#utility.yul\":27638:27640   */\n      0x20\n        /* \"#utility.yul\":27630:27636   */\n      dup3\n        /* \"#utility.yul\":27626:27641   */\n      add\n        /* \"#utility.yul\":27619:27659   */\n      mstore\n        /* \"#utility.yul\":27434:27666   */\n      pop\n      jump\t// out\n        /* \"#utility.yul\":27672:27920   */\n    tag_463:\n        /* \"#utility.yul\":27812:27846   */\n      0x546f6b656e56657374696e673a2063616e6e6f742072656c6561736520746f6b\n        /* \"#utility.yul\":27808:27809   */\n      0x00\n        /* \"#utility.yul\":27800:27806   */\n      dup3\n        /* \"#utility.yul\":27796:27810   */\n      add\n        /* \"#utility.yul\":27789:27847   */\n      mstore\n        /* \"#utility.yul\":27881:27912   */\n      0x656e732c206e6f7420656e6f7567682076657374656420746f6b656e73000000\n        /* \"#utility.yul\":27876:27878   */\n      0x20\n        /* \"#utility.yul\":27868:27874   */\n      dup3\n        /* \"#utility.yul\":27864:27879   */\n      add\n        /* \"#utility.yul\":27857:27913   */\n      mstore\n        /* \"#utility.yul\":27672:27920   */\n      pop\n      jump\t// out\n        /* \"#utility.yul\":27926:28151   */\n    tag_468:\n        /* \"#utility.yul\":28066:28100   */\n      0x416464726573733a20696e73756666696369656e742062616c616e636520666f\n        /* \"#utility.yul\":28062:28063   */\n      0x00\n        /* \"#utility.yul\":28054:28060   */\n      dup3\n        /* \"#utility.yul\":28050:28064   */\n      add\n        /* \"#utility.yul\":28043:28101   */\n      mstore\n        /* \"#utility.yul\":28135:28143   */\n      0x722063616c6c0000000000000000000000000000000000000000000000000000\n        /* \"#utility.yul\":28130:28132   */\n      0x20\n        /* \"#utility.yul\":28122:28128   */\n      dup3\n        /* \"#utility.yul\":28118:28133   */\n      add\n        /* \"#utility.yul\":28111:28144   */\n      mstore\n        /* \"#utility.yul\":27926:28151   */\n      pop\n      jump\t// out\n        /* \"#utility.yul\":28157:28382   */\n    tag_473:\n        /* \"#utility.yul\":28297:28331   */\n      0x546f6b656e56657374696e673a2076657374696e67206973206e6f7420726576\n        /* \"#utility.yul\":28293:28294   */\n      0x00\n        /* \"#utility.yul\":28285:28291   */\n      dup3\n        /* \"#utility.yul\":28281:28295   */\n      add\n        /* \"#utility.yul\":28274:28332   */\n      mstore\n        /* \"#utility.yul\":28366:28374   */\n      0x6f6361626c650000000000000000000000000000000000000000000000000000\n        /* \"#utility.yul\":28361:28363   */\n      0x20\n        /* \"#utility.yul\":28353:28359   */\n      dup3\n        /* \"#utility.yul\":28349:28364   */\n      add\n        /* \"#utility.yul\":28342:28375   */\n      mstore\n        /* \"#utility.yul\":28157:28382   */\n      pop\n      jump\t// out\n        /* \"#utility.yul\":28388:28570   */\n    tag_478:\n        /* \"#utility.yul\":28528:28562   */\n      0x4f776e61626c653a2063616c6c6572206973206e6f7420746865206f776e6572\n        /* \"#utility.yul\":28524:28525   */\n      0x00\n        /* \"#utility.yul\":28516:28522   */\n      dup3\n        /* \"#utility.yul\":28512:28526   */\n      add\n        /* \"#utility.yul\":28505:28563   */\n      mstore\n        /* \"#utility.yul\":28388:28570   */\n      pop\n      jump\t// out\n        /* \"#utility.yul\":28576:28758   */\n    tag_483:\n        /* \"#utility.yul\":28716:28750   */\n      0x546f6b656e56657374696e673a20616d6f756e74206d757374206265203e2030\n        /* \"#utility.yul\":28712:28713   */\n      0x00\n        /* \"#utility.yul\":28704:28710   */\n      dup3\n        /* \"#utility.yul\":28700:28714   */\n      add\n        /* \"#utility.yul\":28693:28751   */\n      mstore\n        /* \"#utility.yul\":28576:28758   */\n      pop\n      jump\t// out\n        /* \"#utility.yul\":28764:28984   */\n    tag_488:\n        /* \"#utility.yul\":28904:28938   */\n      0x546f6b656e56657374696e673a20696e646578206f7574206f6620626f756e64\n        /* \"#utility.yul\":28900:28901   */\n      0x00\n        /* \"#utility.yul\":28892:28898   */\n      dup3\n        /* \"#utility.yul\":28888:28902   */\n      add\n        /* \"#utility.yul\":28881:28939   */\n      mstore\n        /* \"#utility.yul\":28973:28976   */\n      0x7300000000000000000000000000000000000000000000000000000000000000\n        /* \"#utility.yul\":28968:28970   */\n      0x20\n        /* \"#utility.yul\":28960:28966   */\n      dup3\n        /* \"#utility.yul\":28956:28971   */\n      add\n        /* \"#utility.yul\":28949:28977   */\n      mstore\n        /* \"#utility.yul\":28764:28984   */\n      pop\n      jump\t// out\n        /* \"#utility.yul\":28990:29211   */\n    tag_493:\n        /* \"#utility.yul\":29130:29164   */\n      0x546f6b656e56657374696e673a206475726174696f6e206d757374206265203e\n        /* \"#utility.yul\":29126:29127   */\n      0x00\n        /* \"#utility.yul\":29118:29124   */\n      dup3\n        /* \"#utility.yul\":29114:29128   */\n      add\n        /* \"#utility.yul\":29107:29165   */\n      mstore\n        /* \"#utility.yul\":29199:29203   */\n      0x2030000000000000000000000000000000000000000000000000000000000000\n        /* \"#utility.yul\":29194:29196   */\n      0x20\n        /* \"#utility.yul\":29186:29192   */\n      dup3\n        /* \"#utility.yul\":29182:29197   */\n      add\n        /* \"#utility.yul\":29175:29204   */\n      mstore\n        /* \"#utility.yul\":28990:29211   */\n      pop\n      jump\t// out\n        /* \"#utility.yul\":29217:29507   */\n    tag_498:\n        /* \"#utility.yul\":29357:29391   */\n      0x546f6b656e56657374696e673a206f6e6c792062656e65666963696172792061\n        /* \"#utility.yul\":29353:29354   */\n      0x00\n        /* \"#utility.yul\":29345:29351   */\n      dup3\n        /* \"#utility.yul\":29341:29355   */\n      add\n        /* \"#utility.yul\":29334:29392   */\n      mstore\n        /* \"#utility.yul\":29426:29460   */\n      0x6e64206f776e65722063616e2072656c656173652076657374656420746f6b65\n        /* \"#utility.yul\":29421:29423   */\n      0x20\n        /* \"#utility.yul\":29413:29419   */\n      dup3\n        /* \"#utility.yul\":29409:29424   */\n      add\n        /* \"#utility.yul\":29402:29461   */\n      mstore\n        /* \"#utility.yul\":29495:29499   */\n      0x6e73000000000000000000000000000000000000000000000000000000000000\n        /* \"#utility.yul\":29490:29492   */\n      0x40\n        /* \"#utility.yul\":29482:29488   */\n      dup3\n        /* \"#utility.yul\":29478:29493   */\n      add\n        /* \"#utility.yul\":29471:29500   */\n      mstore\n        /* \"#utility.yul\":29217:29507   */\n      pop\n      jump\t// out\n        /* \"#utility.yul\":29513:29692   */\n    tag_503:\n        /* \"#utility.yul\":29653:29684   */\n      0x416464726573733a2063616c6c20746f206e6f6e2d636f6e7472616374000000\n        /* \"#utility.yul\":29649:29650   */\n      0x00\n        /* \"#utility.yul\":29641:29647   */\n      dup3\n        /* \"#utility.yul\":29637:29651   */\n      add\n        /* \"#utility.yul\":29630:29685   */\n      mstore\n        /* \"#utility.yul\":29513:29692   */\n      pop\n      jump\t// out\n        /* \"#utility.yul\":29698:29928   */\n    tag_508:\n        /* \"#utility.yul\":29838:29872   */\n      0x546f6b656e56657374696e673a206e6f7420656e6f7567682077697468647261\n        /* \"#utility.yul\":29834:29835   */\n      0x00\n        /* \"#utility.yul\":29826:29832   */\n      dup3\n        /* \"#utility.yul\":29822:29836   */\n      add\n        /* \"#utility.yul\":29815:29873   */\n      mstore\n        /* \"#utility.yul\":29907:29920   */\n      0x7761626c652066756e6473000000000000000000000000000000000000000000\n        /* \"#utility.yul\":29902:29904   */\n      0x20\n        /* \"#utility.yul\":29894:29900   */\n      dup3\n        /* \"#utility.yul\":29890:29905   */\n      add\n        /* \"#utility.yul\":29883:29921   */\n      mstore\n        /* \"#utility.yul\":29698:29928   */\n      pop\n      jump\t// out\n        /* \"#utility.yul\":29934:30163   */\n    tag_513:\n        /* \"#utility.yul\":30074:30108   */\n      0x5361666545524332303a204552433230206f7065726174696f6e20646964206e\n        /* \"#utility.yul\":30070:30071   */\n      0x00\n        /* \"#utility.yul\":30062:30068   */\n      dup3\n        /* \"#utility.yul\":30058:30072   */\n      add\n        /* \"#utility.yul\":30051:30109   */\n      mstore\n        /* \"#utility.yul\":30143:30155   */\n      0x6f74207375636365656400000000000000000000000000000000000000000000\n        /* \"#utility.yul\":30138:30140   */\n      0x20\n        /* \"#utility.yul\":30130:30136   */\n      dup3\n        /* \"#utility.yul\":30126:30141   */\n      add\n        /* \"#utility.yul\":30119:30156   */\n      mstore\n        /* \"#utility.yul\":29934:30163   */\n      pop\n      jump\t// out\n        /* \"#utility.yul\":30169:30467   */\n    tag_518:\n        /* \"#utility.yul\":30309:30343   */\n      0x546f6b656e56657374696e673a2063616e6e6f74206372656174652076657374\n        /* \"#utility.yul\":30305:30306   */\n      0x00\n        /* \"#utility.yul\":30297:30303   */\n      dup3\n        /* \"#utility.yul\":30293:30307   */\n      add\n        /* \"#utility.yul\":30286:30344   */\n      mstore\n        /* \"#utility.yul\":30378:30412   */\n      0x696e67207363686564756c652062656361757365206e6f742073756666696369\n        /* \"#utility.yul\":30373:30375   */\n      0x20\n        /* \"#utility.yul\":30365:30371   */\n      dup3\n        /* \"#utility.yul\":30361:30376   */\n      add\n        /* \"#utility.yul\":30354:30413   */\n      mstore\n        /* \"#utility.yul\":30447:30459   */\n      0x656e7420746f6b656e7300000000000000000000000000000000000000000000\n        /* \"#utility.yul\":30442:30444   */\n      0x40\n        /* \"#utility.yul\":30434:30440   */\n      dup3\n        /* \"#utility.yul\":30430:30445   */\n      add\n        /* \"#utility.yul\":30423:30460   */\n      mstore\n        /* \"#utility.yul\":30169:30467   */\n      pop\n      jump\t// out\n        /* \"#utility.yul\":30473:30654   */\n    tag_523:\n        /* \"#utility.yul\":30613:30646   */\n      0x5265656e7472616e637947756172643a207265656e7472616e742063616c6c00\n        /* \"#utility.yul\":30609:30610   */\n      0x00\n        /* \"#utility.yul\":30601:30607   */\n      dup3\n        /* \"#utility.yul\":30597:30611   */\n      add\n        /* \"#utility.yul\":30590:30647   */\n      mstore\n        /* \"#utility.yul\":30473:30654   */\n      pop\n      jump\t// out\n        /* \"#utility.yul\":30660:30782   */\n    tag_345:\n        /* \"#utility.yul\":30733:30757   */\n      tag_667\n        /* \"#utility.yul\":30751:30756   */\n      dup2\n        /* \"#utility.yul\":30733:30757   */\n      tag_415\n      jump\t// in\n    tag_667:\n        /* \"#utility.yul\":30726:30731   */\n      dup2\n        /* \"#utility.yul\":30723:30758   */\n      eq\n        /* \"#utility.yul\":30713:30776   */\n      tag_668\n      jumpi\n        /* \"#utility.yul\":30772:30773   */\n      0x00\n        /* \"#utility.yul\":30769:30770   */\n      dup1\n        /* \"#utility.yul\":30762:30774   */\n      revert\n        /* \"#utility.yul\":30713:30776   */\n    tag_668:\n        /* \"#utility.yul\":30660:30782   */\n      pop\n      jump\t// out\n        /* \"#utility.yul\":30788:30904   */\n    tag_349:\n        /* \"#utility.yul\":30858:30879   */\n      tag_670\n        /* \"#utility.yul\":30873:30878   */\n      dup2\n        /* \"#utility.yul\":30858:30879   */\n      tag_427\n      jump\t// in\n    tag_670:\n        /* \"#utility.yul\":30851:30856   */\n      dup2\n        /* \"#utility.yul\":30848:30880   */\n      eq\n        /* \"#utility.yul\":30838:30898   */\n      tag_671\n      jumpi\n        /* \"#utility.yul\":30894:30895   */\n      0x00\n        /* \"#utility.yul\":30891:30892   */\n      dup1\n        /* \"#utility.yul\":30884:30896   */\n      revert\n        /* \"#utility.yul\":30838:30898   */\n    tag_671:\n        /* \"#utility.yul\":30788:30904   */\n      pop\n      jump\t// out\n        /* \"#utility.yul\":30910:31032   */\n    tag_356:\n        /* \"#utility.yul\":30983:31007   */\n      tag_673\n        /* \"#utility.yul\":31001:31006   */\n      dup2\n        /* \"#utility.yul\":30983:31007   */\n      tag_431\n      jump\t// in\n    tag_673:\n        /* \"#utility.yul\":30976:30981   */\n      dup2\n        /* \"#utility.yul\":30973:31008   */\n      eq\n        /* \"#utility.yul\":30963:31026   */\n      tag_674\n      jumpi\n        /* \"#utility.yul\":31022:31023   */\n      0x00\n        /* \"#utility.yul\":31019:31020   */\n      dup1\n        /* \"#utility.yul\":31012:31024   */\n      revert\n        /* \"#utility.yul\":30963:31026   */\n    tag_674:\n        /* \"#utility.yul\":30910:31032   */\n      pop\n      jump\t// out\n        /* \"#utility.yul\":31038:31160   */\n    tag_363:\n        /* \"#utility.yul\":31111:31135   */\n      tag_676\n        /* \"#utility.yul\":31129:31134   */\n      dup2\n        /* \"#utility.yul\":31111:31135   */\n      tag_539\n      jump\t// in\n    tag_676:\n        /* \"#utility.yul\":31104:31109   */\n      dup2\n        /* \"#utility.yul\":31101:31136   */\n      eq\n        /* \"#utility.yul\":31091:31154   */\n      tag_677\n      jumpi\n        /* \"#utility.yul\":31150:31151   */\n      0x00\n        /* \"#utility.yul\":31147:31148   */\n      dup1\n        /* \"#utility.yul\":31140:31152   */\n      revert\n        /* \"#utility.yul\":31091:31154   */\n    tag_677:\n        /* \"#utility.yul\":31038:31160   */\n      pop\n      jump\t// out\n\n    auxdata: 0xa2646970667358221220e7f88d51d0ee23e9516d2a07eaf58765b24534c4b3bc5801d6948f92a112f2de64736f6c63430008070033\n}\n",
				"bytecode": {
					"linkReferences": {},
					"object": "60a06040523480156200001157600080fd5b5060405162003179380380620031798339818101604052810190620000379190620001ba565b620000576200004b620000d760201b60201c565b620000df60201b60201c565b60018081905550600073ffffffffffffffffffffffffffffffffffffffff168173ffffffffffffffffffffffffffffffffffffffff1614156200009957600080fd5b8073ffffffffffffffffffffffffffffffffffffffff1660808173ffffffffffffffffffffffffffffffffffffffff1660601b81525050506200023f565b600033905090565b60008060009054906101000a900473ffffffffffffffffffffffffffffffffffffffff169050816000806101000a81548173ffffffffffffffffffffffffffffffffffffffff021916908373ffffffffffffffffffffffffffffffffffffffff1602179055508173ffffffffffffffffffffffffffffffffffffffff168173ffffffffffffffffffffffffffffffffffffffff167f8be0079c531659141344cd1fd0a4f28419497f9722a3daafe3b4186f6b6457e060405160405180910390a35050565b600081519050620001b48162000225565b92915050565b600060208284031215620001d357620001d262000220565b5b6000620001e384828501620001a3565b91505092915050565b6000620001f98262000200565b9050919050565b600073ffffffffffffffffffffffffffffffffffffffff82169050919050565b600080fd5b6200023081620001ec565b81146200023c57600080fd5b50565b60805160601c612f06620002736000396000818161095601528181610a9e01528181610e8f01526110c30152612f066000f3fe6080604052600436106101185760003560e01c80638af104da116100a0578063ea1bb3d511610064578063ea1bb3d5146103a7578063f2fde38b146103e4578063f51321d71461040d578063f7c469f01461044a578063f9079b37146104875761011f565b80638af104da146102ae5780638da5cb5b146102eb57806390be10cc146103165780639ef346b414610341578063b75c7dc61461037e5761011f565b806348deb471116100e757806348deb471146101c95780635a7bb69a146101f457806366afd8ef14610231578063715018a61461025a5780637e913dc6146102715761011f565b8063130836171461012157806317e289e91461014c57806321df0da7146101755780632e1a7d4d146101a05761011f565b3661011f57005b005b34801561012d57600080fd5b506101366104c4565b604051610143919061275a565b60405180910390f35b34801561015857600080fd5b50610173600480360381019061016e9190611f0c565b6104d1565b005b34801561018157600080fd5b5061018a610952565b60405161019791906124dd565b60405180910390f35b3480156101ac57600080fd5b506101c760048036038101906101c29190612075565b61097a565b005b3480156101d557600080fd5b506101de610aec565b6040516101eb919061275a565b60405180910390f35b34801561020057600080fd5b5061021b60048036038101906102169190611e9f565b610af6565b604051610228919061275a565b60405180910390f35b34801561023d57600080fd5b5061025860048036038101906102539190612035565b610b3f565b005b34801561026657600080fd5b5061026f610ee4565b005b34801561027d57600080fd5b5061029860048036038101906102939190611e9f565b610ef8565b6040516102a5919061273e565b60405180910390f35b3480156102ba57600080fd5b506102d560048036038101906102d09190611ecc565b61105d565b6040516102e29190612521565b60405180910390f35b3480156102f757600080fd5b50610300611090565b60405161030d91906124dd565b60405180910390f35b34801561032257600080fd5b5061032b6110b9565b604051610338919061275a565b60405180910390f35b34801561034d57600080fd5b5061036860048036038101906103639190611fdb565b61117d565b604051610375919061273e565b60405180910390f35b34801561038a57600080fd5b506103a560048036038101906103a09190611fdb565b61128e565b005b3480156103b357600080fd5b506103ce60048036038101906103c99190611fdb565b6114dc565b6040516103db919061275a565b60405180910390f35b3480156103f057600080fd5b5061040b60048036038101906104069190611e9f565b61165f565b005b34801561041957600080fd5b50610434600480360381019061042f9190611ecc565b6116e3565b604051610441919061273e565b60405180910390f35b34801561045657600080fd5b50610471600480360381019061046c9190611e9f565b611705565b60405161047e9190612521565b60405180910390f35b34801561049357600080fd5b506104ae60048036038101906104a99190612075565b611757565b6040516104bb9190612521565b60405180910390f35b6000600280549050905090565b6104d96117c8565b803073ffffffffffffffffffffffffffffffffffffffff166390be10cc6040518163ffffffff1660e01b815260040160206040518083038186803b15801561052057600080fd5b505afa158015610534573d6000803e3d6000fd5b505050506040513d601f19601f8201168201806040525081019061055891906120a2565b1015610599576040517f08c379a0000000000000000000000000000000000000000000000000000000008152600401610590906126fe565b60405180910390fd5b600084116105dc576040517f08c379a00000000000000000000000000000000000000000000000000000000081526004016105d39061265e565b60405180910390fd5b6000811161061f576040517f08c379a00000000000000000000000000000000000000000000000000000000081526004016106169061261e565b60405180910390fd5b6001831015610663576040517f08c379a000000000000000000000000000000000000000000000000000000000815260040161065a9061257e565b60405180910390fd5b60003073ffffffffffffffffffffffffffffffffffffffff1663f7c469f0896040518263ffffffff1660e01b815260040161069e91906124dd565b60206040518083038186803b1580156106b657600080fd5b505afa1580156106ca573d6000803e3d6000fd5b505050506040513d601f19601f820116820180604052508101906106ee9190612008565b90506000610705878961184690919063ffffffff16565b90506040518061014001604052806001151581526020018a73ffffffffffffffffffffffffffffffffffffffff168152602001828152602001898152602001878152602001868152602001851515815260200184815260200160008152602001600015158152506003600084815260200190815260200160002060008201518160000160006101000a81548160ff02191690831515021790555060208201518160000160016101000a81548173ffffffffffffffffffffffffffffffffffffffff021916908373ffffffffffffffffffffffffffffffffffffffff16021790555060408201518160010155606082015181600201556080820151816003015560a0820151816004015560c08201518160050160006101000a81548160ff02191690831515021790555060e0820151816006015561010082015181600701556101208201518160080160006101000a81548160ff02191690831515021790555090505061087c8360045461184690919063ffffffff16565b60048190555060028290806001815401808255809150506001900390600052602060002001600090919091909150556000600560008b73ffffffffffffffffffffffffffffffffffffffff1673ffffffffffffffffffffffffffffffffffffffff16815260200190815260200160002054905061090360018261184690919063ffffffff16565b600560008c73ffffffffffffffffffffffffffffffffffffffff1673ffffffffffffffffffffffffffffffffffffffff1681526020019081526020016000208190555050505050505050505050565b60007f0000000000000000000000000000000000000000000000000000000000000000905090565b600260015414156109c0576040517f08c379a00000000000000000000000000000000000000000000000000000000081526004016109b79061271e565b60405180910390fd5b60026001819055506109d06117c8565b803073ffffffffffffffffffffffffffffffffffffffff166390be10cc6040518163ffffffff1660e01b815260040160206040518083038186803b158015610a1757600080fd5b505afa158015610a2b573d6000803e3d6000fd5b505050506040513d601f19601f82011682018060405250810190610a4f91906120a2565b1015610a90576040517f08c379a0000000000000000000000000000000000000000000000000000000008152600401610a87906126be565b60405180910390fd5b610ae2610a9b611090565b827f000000000000000000000000000000000000000000000000000000000000000073ffffffffffffffffffffffffffffffffffffffff1661185c9092919063ffffffff16565b6001808190555050565b6000600454905090565b6000600560008373ffffffffffffffffffffffffffffffffffffffff1673ffffffffffffffffffffffffffffffffffffffff168152602001908152602001600020549050919050565b60026001541415610b85576040517f08c379a0000000000000000000000000000000000000000000000000000000008152600401610b7c9061271e565b60405180910390fd5b600260018190555081600115156003600083815260200190815260200160002060000160009054906101000a900460ff16151514610bc257600080fd5b600015156003600083815260200190815260200160002060080160009054906101000a900460ff16151514610bf657600080fd5b600060036000858152602001908152602001600020905060008160000160019054906101000a900473ffffffffffffffffffffffffffffffffffffffff1673ffffffffffffffffffffffffffffffffffffffff163373ffffffffffffffffffffffffffffffffffffffff161490506000610c6e611090565b73ffffffffffffffffffffffffffffffffffffffff163373ffffffffffffffffffffffffffffffffffffffff161490508180610ca75750805b610ce6576040517f08c379a0000000000000000000000000000000000000000000000000000000008152600401610cdd9061267e565b60405180910390fd5b6000610de084604051806101400160405290816000820160009054906101000a900460ff161515151581526020016000820160019054906101000a900473ffffffffffffffffffffffffffffffffffffffff1673ffffffffffffffffffffffffffffffffffffffff1673ffffffffffffffffffffffffffffffffffffffff168152602001600182015481526020016002820154815260200160038201548152602001600482015481526020016005820160009054906101000a900460ff1615151515815260200160068201548152602001600782015481526020016008820160009054906101000a900460ff1615151515815250506118e2565b905085811015610e25576040517f08c379a0000000000000000000000000000000000000000000000000000000008152600401610e1c9061259e565b60405180910390fd5b610e3c86856007015461184690919063ffffffff16565b846007018190555060008460000160019054906101000a900473ffffffffffffffffffffffffffffffffffffffff169050610e8287600454611a0a90919063ffffffff16565b600481905550610ed381887f000000000000000000000000000000000000000000000000000000000000000073ffffffffffffffffffffffffffffffffffffffff1661185c9092919063ffffffff16565b505050505050600180819055505050565b610eec6117c8565b610ef66000611a20565b565b610f00611d9d565b60036000610f59846001600560008873ffffffffffffffffffffffffffffffffffffffff1673ffffffffffffffffffffffffffffffffffffffff16815260200190815260200160002054610f549190612888565b61105d565b8152602001908152602001600020604051806101400160405290816000820160009054906101000a900460ff161515151581526020016000820160019054906101000a900473ffffffffffffffffffffffffffffffffffffffff1673ffffffffffffffffffffffffffffffffffffffff1673ffffffffffffffffffffffffffffffffffffffff168152602001600182015481526020016002820154815260200160038201548152602001600482015481526020016005820160009054906101000a900460ff1615151515815260200160068201548152602001600782015481526020016008820160009054906101000a900460ff1615151515815250509050919050565b6000828260405160200161107292919061249a565b60405160208183030381529060405280519060200120905092915050565b60008060009054906101000a900473ffffffffffffffffffffffffffffffffffffffff16905090565b60006111786004547f000000000000000000000000000000000000000000000000000000000000000073ffffffffffffffffffffffffffffffffffffffff166370a08231306040518263ffffffff1660e01b815260040161111a91906124dd565b60206040518083038186803b15801561113257600080fd5b505afa158015611146573d6000803e3d6000fd5b505050506040513d601f19601f8201168201806040525081019061116a91906120a2565b611a0a90919063ffffffff16565b905090565b611185611d9d565b60036000838152602001908152602001600020604051806101400160405290816000820160009054906101000a900460ff161515151581526020016000820160019054906101000a900473ffffffffffffffffffffffffffffffffffffffff1673ffffffffffffffffffffffffffffffffffffffff1673ffffffffffffffffffffffffffffffffffffffff168152602001600182015481526020016002820154815260200160038201548152602001600482015481526020016005820160009054906101000a900460ff1615151515815260200160068201548152602001600782015481526020016008820160009054906101000a900460ff1615151515815250509050919050565b6112966117c8565b80600115156003600083815260200190815260200160002060000160009054906101000a900460ff161515146112cb57600080fd5b600015156003600083815260200190815260200160002060080160009054906101000a900460ff161515146112ff57600080fd5b6000600360008481526020019081526020016000209050600115158160050160009054906101000a900460ff1615151461136e576040517f08c379a0000000000000000000000000000000000000000000000000000000008152600401611365906125de565b60405180910390fd5b600061146882604051806101400160405290816000820160009054906101000a900460ff161515151581526020016000820160019054906101000a900473ffffffffffffffffffffffffffffffffffffffff1673ffffffffffffffffffffffffffffffffffffffff1673ffffffffffffffffffffffffffffffffffffffff168152602001600182015481526020016002820154815260200160038201548152602001600482015481526020016005820160009054906101000a900460ff1615151515815260200160068201548152602001600782015481526020016008820160009054906101000a900460ff1615151515815250506118e2565b9050600081111561147e5761147d8482610b3f565b5b600061149b83600701548460060154611a0a90919063ffffffff16565b90506114b281600454611a0a90919063ffffffff16565b60048190555060018360080160006101000a81548160ff0219169083151502179055505050505050565b600081600115156003600083815260200190815260200160002060000160009054906101000a900460ff1615151461151357600080fd5b600015156003600083815260200190815260200160002060080160009054906101000a900460ff1615151461154757600080fd5b600060036000858152602001908152602001600020905061165681604051806101400160405290816000820160009054906101000a900460ff161515151581526020016000820160019054906101000a900473ffffffffffffffffffffffffffffffffffffffff1673ffffffffffffffffffffffffffffffffffffffff1673ffffffffffffffffffffffffffffffffffffffff168152602001600182015481526020016002820154815260200160038201548152602001600482015481526020016005820160009054906101000a900460ff1615151515815260200160068201548152602001600782015481526020016008820160009054906101000a900460ff1615151515815250506118e2565b92505050919050565b6116676117c8565b600073ffffffffffffffffffffffffffffffffffffffff168173ffffffffffffffffffffffffffffffffffffffff1614156116d7576040517f08c379a00000000000000000000000000000000000000000000000000000000081526004016116ce9061255e565b60405180910390fd5b6116e081611a20565b50565b6116eb611d9d565b6116fd6116f8848461105d565b61117d565b905092915050565b600061175082600560008573ffffffffffffffffffffffffffffffffffffffff1673ffffffffffffffffffffffffffffffffffffffff1681526020019081526020016000205461105d565b9050919050565b60006117616104c4565b82106117a2576040517f08c379a00000000000000000000000000000000000000000000000000000000081526004016117999061263e565b60405180910390fd5b600282815481106117b6576117b56129cd565b5b90600052602060002001549050919050565b6117d0611ae4565b73ffffffffffffffffffffffffffffffffffffffff166117ee611090565b73ffffffffffffffffffffffffffffffffffffffff1614611844576040517f08c379a000000000000000000000000000000000000000000000000000000000815260040161183b906125fe565b60405180910390fd5b565b6000818361185491906127a7565b905092915050565b6118dd8363a9059cbb60e01b848460405160240161187b9291906124f8565b604051602081830303815290604052907bffffffffffffffffffffffffffffffffffffffffffffffffffffffff19166020820180517bffffffffffffffffffffffffffffffffffffffffffffffffffffffff8381831617835250505050611aec565b505050565b6000806118ed611bb3565b9050826040015181108061190a5750600115158361012001511515145b15611919576000915050611a05565b6119348360800151846060015161184690919063ffffffff16565b811061195e576119568361010001518460e00151611a0a90919063ffffffff16565b915050611a05565b6000611977846060015183611a0a90919063ffffffff16565b905060008460a00151905060006119978284611bbb90919063ffffffff16565b905060006119ae8383611bd190919063ffffffff16565b905060006119df88608001516119d1848b60e00151611bd190919063ffffffff16565b611bbb90919063ffffffff16565b90506119f988610100015182611a0a90919063ffffffff16565b90508096505050505050505b919050565b60008183611a189190612888565b905092915050565b60008060009054906101000a900473ffffffffffffffffffffffffffffffffffffffff169050816000806101000a81548173ffffffffffffffffffffffffffffffffffffffff021916908373ffffffffffffffffffffffffffffffffffffffff1602179055508173ffffffffffffffffffffffffffffffffffffffff168173ffffffffffffffffffffffffffffffffffffffff167f8be0079c531659141344cd1fd0a4f28419497f9722a3daafe3b4186f6b6457e060405160405180910390a35050565b600033905090565b6000611b4e826040518060400160405280602081526020017f5361666545524332303a206c6f772d6c6576656c2063616c6c206661696c65648152508573ffffffffffffffffffffffffffffffffffffffff16611be79092919063ffffffff16565b9050600081511115611bae5780806020019051810190611b6e9190611fae565b611bad576040517f08c379a0000000000000000000000000000000000000000000000000000000008152600401611ba4906126de565b60405180910390fd5b5b505050565b600042905090565b60008183611bc991906127fd565b905092915050565b60008183611bdf919061282e565b905092915050565b6060611bf68484600085611bff565b90509392505050565b606082471015611c44576040517f08c379a0000000000000000000000000000000000000000000000000000000008152600401611c3b906125be565b60405180910390fd5b611c4d85611d13565b611c8c576040517f08c379a0000000000000000000000000000000000000000000000000000000008152600401611c839061269e565b60405180910390fd5b6000808673ffffffffffffffffffffffffffffffffffffffff168587604051611cb591906124c6565b60006040518083038185875af1925050503d8060008114611cf2576040519150601f19603f3d011682016040523d82523d6000602084013e611cf7565b606091505b5091509150611d07828286611d36565b92505050949350505050565b6000808273ffffffffffffffffffffffffffffffffffffffff163b119050919050565b60608315611d4657829050611d96565b600083511115611d595782518084602001fd5b816040517f08c379a0000000000000000000000000000000000000000000000000000000008152600401611d8d919061253c565b60405180910390fd5b9392505050565b604051806101400160405280600015158152602001600073ffffffffffffffffffffffffffffffffffffffff1681526020016000815260200160008152602001600081526020016000815260200160001515815260200160008152602001600081526020016000151581525090565b600081359050611e1b81612e74565b92915050565b600081359050611e3081612e8b565b92915050565b600081519050611e4581612e8b565b92915050565b600081359050611e5a81612ea2565b92915050565b600081519050611e6f81612ea2565b92915050565b600081359050611e8481612eb9565b92915050565b600081519050611e9981612eb9565b92915050565b600060208284031215611eb557611eb46129fc565b5b6000611ec384828501611e0c565b91505092915050565b60008060408385031215611ee357611ee26129fc565b5b6000611ef185828601611e0c565b9250506020611f0285828601611e75565b9150509250929050565b600080600080600080600060e0888a031215611f2b57611f2a6129fc565b5b6000611f398a828b01611e0c565b9750506020611f4a8a828b01611e75565b9650506040611f5b8a828b01611e75565b9550506060611f6c8a828b01611e75565b9450506080611f7d8a828b01611e75565b93505060a0611f8e8a828b01611e21565b92505060c0611f9f8a828b01611e75565b91505092959891949750929550565b600060208284031215611fc457611fc36129fc565b5b6000611fd284828501611e36565b91505092915050565b600060208284031215611ff157611ff06129fc565b5b6000611fff84828501611e4b565b91505092915050565b60006020828403121561201e5761201d6129fc565b5b600061202c84828501611e60565b91505092915050565b6000806040838503121561204c5761204b6129fc565b5b600061205a85828601611e4b565b925050602061206b85828601611e75565b9150509250929050565b60006020828403121561208b5761208a6129fc565b5b600061209984828501611e75565b91505092915050565b6000602082840312156120b8576120b76129fc565b5b60006120c684828501611e8a565b91505092915050565b6120d8816128bc565b82525050565b6120e7816128bc565b82525050565b6120fe6120f9826128bc565b612941565b82525050565b61210d816128ce565b82525050565b61211c816128da565b82525050565b600061212d82612775565b612137818561278b565b935061214781856020860161290e565b80840191505092915050565b600061215e82612780565b6121688185612796565b935061217881856020860161290e565b61218181612a01565b840191505092915050565b6000612199602683612796565b91506121a482612a1f565b604082019050919050565b60006121bc602d83612796565b91506121c782612a6e565b604082019050919050565b60006121df603d83612796565b91506121ea82612abd565b604082019050919050565b6000612202602683612796565b915061220d82612b0c565b604082019050919050565b6000612225602683612796565b915061223082612b5b565b604082019050919050565b6000612248602083612796565b915061225382612baa565b602082019050919050565b600061226b602083612796565b915061227682612bd3565b602082019050919050565b600061228e602183612796565b915061229982612bfc565b604082019050919050565b60006122b1602283612796565b91506122bc82612c4b565b604082019050919050565b60006122d4604283612796565b91506122df82612c9a565b606082019050919050565b60006122f7601d83612796565b915061230282612d0f565b602082019050919050565b600061231a602b83612796565b915061232582612d38565b604082019050919050565b600061233d602a83612796565b915061234882612d87565b604082019050919050565b6000612360604a83612796565b915061236b82612dd6565b606082019050919050565b6000612383601f83612796565b915061238e82612e4b565b602082019050919050565b610140820160008201516123b06000850182612104565b5060208201516123c360208501826120cf565b5060408201516123d66040850182612465565b5060608201516123e96060850182612465565b5060808201516123fc6080850182612465565b5060a082015161240f60a0850182612465565b5060c082015161242260c0850182612104565b5060e082015161243560e0850182612465565b5061010082015161244a610100850182612465565b5061012082015161245f610120850182612104565b50505050565b61246e81612904565b82525050565b61247d81612904565b82525050565b61249461248f82612904565b612965565b82525050565b60006124a682856120ed565b6014820191506124b68284612483565b6020820191508190509392505050565b60006124d28284612122565b915081905092915050565b60006020820190506124f260008301846120de565b92915050565b600060408201905061250d60008301856120de565b61251a6020830184612474565b9392505050565b60006020820190506125366000830184612113565b92915050565b600060208201905081810360008301526125568184612153565b905092915050565b600060208201905081810360008301526125778161218c565b9050919050565b60006020820190508181036000830152612597816121af565b9050919050565b600060208201905081810360008301526125b7816121d2565b9050919050565b600060208201905081810360008301526125d7816121f5565b9050919050565b600060208201905081810360008301526125f781612218565b9050919050565b600060208201905081810360008301526126178161223b565b9050919050565b600060208201905081810360008301526126378161225e565b9050919050565b6000602082019050818103600083015261265781612281565b9050919050565b60006020820190508181036000830152612677816122a4565b9050919050565b60006020820190508181036000830152612697816122c7565b9050919050565b600060208201905081810360008301526126b7816122ea565b9050919050565b600060208201905081810360008301526126d78161230d565b9050919050565b600060208201905081810360008301526126f781612330565b9050919050565b6000602082019050818103600083015261271781612353565b9050919050565b6000602082019050818103600083015261273781612376565b9050919050565b6000610140820190506127546000830184612399565b92915050565b600060208201905061276f6000830184612474565b92915050565b600081519050919050565b600081519050919050565b600081905092915050565b600082825260208201905092915050565b60006127b282612904565b91506127bd83612904565b9250827fffffffffffffffffffffffffffffffffffffffffffffffffffffffffffffffff038211156127f2576127f161296f565b5b828201905092915050565b600061280882612904565b915061281383612904565b9250826128235761282261299e565b5b828204905092915050565b600061283982612904565b915061284483612904565b9250817fffffffffffffffffffffffffffffffffffffffffffffffffffffffffffffffff048311821515161561287d5761287c61296f565b5b828202905092915050565b600061289382612904565b915061289e83612904565b9250828210156128b1576128b061296f565b5b828203905092915050565b60006128c7826128e4565b9050919050565b60008115159050919050565b6000819050919050565b600073ffffffffffffffffffffffffffffffffffffffff82169050919050565b6000819050919050565b60005b8381101561292c578082015181840152602081019050612911565b8381111561293b576000848401525b50505050565b600061294c82612953565b9050919050565b600061295e82612a12565b9050919050565b6000819050919050565b7f4e487b7100000000000000000000000000000000000000000000000000000000600052601160045260246000fd5b7f4e487b7100000000000000000000000000000000000000000000000000000000600052601260045260246000fd5b7f4e487b7100000000000000000000000000000000000000000000000000000000600052603260045260246000fd5b600080fd5b6000601f19601f8301169050919050565b60008160601b9050919050565b7f4f776e61626c653a206e6577206f776e657220697320746865207a65726f206160008201527f6464726573730000000000000000000000000000000000000000000000000000602082015250565b7f546f6b656e56657374696e673a20736c696365506572696f645365636f6e647360008201527f206d757374206265203e3d203100000000000000000000000000000000000000602082015250565b7f546f6b656e56657374696e673a2063616e6e6f742072656c6561736520746f6b60008201527f656e732c206e6f7420656e6f7567682076657374656420746f6b656e73000000602082015250565b7f416464726573733a20696e73756666696369656e742062616c616e636520666f60008201527f722063616c6c0000000000000000000000000000000000000000000000000000602082015250565b7f546f6b656e56657374696e673a2076657374696e67206973206e6f742072657660008201527f6f6361626c650000000000000000000000000000000000000000000000000000602082015250565b7f4f776e61626c653a2063616c6c6572206973206e6f7420746865206f776e6572600082015250565b7f546f6b656e56657374696e673a20616d6f756e74206d757374206265203e2030600082015250565b7f546f6b656e56657374696e673a20696e646578206f7574206f6620626f756e6460008201527f7300000000000000000000000000000000000000000000000000000000000000602082015250565b7f546f6b656e56657374696e673a206475726174696f6e206d757374206265203e60008201527f2030000000000000000000000000000000000000000000000000000000000000602082015250565b7f546f6b656e56657374696e673a206f6e6c792062656e6566696369617279206160008201527f6e64206f776e65722063616e2072656c656173652076657374656420746f6b6560208201527f6e73000000000000000000000000000000000000000000000000000000000000604082015250565b7f416464726573733a2063616c6c20746f206e6f6e2d636f6e7472616374000000600082015250565b7f546f6b656e56657374696e673a206e6f7420656e6f756768207769746864726160008201527f7761626c652066756e6473000000000000000000000000000000000000000000602082015250565b7f5361666545524332303a204552433230206f7065726174696f6e20646964206e60008201527f6f74207375636365656400000000000000000000000000000000000000000000602082015250565b7f546f6b656e56657374696e673a2063616e6e6f7420637265617465207665737460008201527f696e67207363686564756c652062656361757365206e6f74207375666669636960208201527f656e7420746f6b656e7300000000000000000000000000000000000000000000604082015250565b7f5265656e7472616e637947756172643a207265656e7472616e742063616c6c00600082015250565b612e7d816128bc565b8114612e8857600080fd5b50565b612e94816128ce565b8114612e9f57600080fd5b50565b612eab816128da565b8114612eb657600080fd5b50565b612ec281612904565b8114612ecd57600080fd5b5056fea2646970667358221220e7f88d51d0ee23e9516d2a07eaf58765b24534c4b3bc5801d6948f92a112f2de64736f6c63430008070033",
					"opcodes": "PUSH1 0xA0 PUSH1 0x40 MSTORE CALLVALUE DUP1 ISZERO PUSH3 0x11 JUMPI PUSH1 0x0 DUP1 REVERT JUMPDEST POP PUSH1 0x40 MLOAD PUSH3 0x3179 CODESIZE SUB DUP1 PUSH3 0x3179 DUP4 CODECOPY DUP2 DUP2 ADD PUSH1 0x40 MSTORE DUP2 ADD SWAP1 PUSH3 0x37 SWAP2 SWAP1 PUSH3 0x1BA JUMP JUMPDEST PUSH3 0x57 PUSH3 0x4B PUSH3 0xD7 PUSH1 0x20 SHL PUSH1 0x20 SHR JUMP JUMPDEST PUSH3 0xDF PUSH1 0x20 SHL PUSH1 0x20 SHR JUMP JUMPDEST PUSH1 0x1 DUP1 DUP2 SWAP1 SSTORE POP PUSH1 0x0 PUSH20 0xFFFFFFFFFFFFFFFFFFFFFFFFFFFFFFFFFFFFFFFF AND DUP2 PUSH20 0xFFFFFFFFFFFFFFFFFFFFFFFFFFFFFFFFFFFFFFFF AND EQ ISZERO PUSH3 0x99 JUMPI PUSH1 0x0 DUP1 REVERT JUMPDEST DUP1 PUSH20 0xFFFFFFFFFFFFFFFFFFFFFFFFFFFFFFFFFFFFFFFF AND PUSH1 0x80 DUP2 PUSH20 0xFFFFFFFFFFFFFFFFFFFFFFFFFFFFFFFFFFFFFFFF AND PUSH1 0x60 SHL DUP2 MSTORE POP POP POP PUSH3 0x23F JUMP JUMPDEST PUSH1 0x0 CALLER SWAP1 POP SWAP1 JUMP JUMPDEST PUSH1 0x0 DUP1 PUSH1 0x0 SWAP1 SLOAD SWAP1 PUSH2 0x100 EXP SWAP1 DIV PUSH20 0xFFFFFFFFFFFFFFFFFFFFFFFFFFFFFFFFFFFFFFFF AND SWAP1 POP DUP2 PUSH1 0x0 DUP1 PUSH2 0x100 EXP DUP2 SLOAD DUP2 PUSH20 0xFFFFFFFFFFFFFFFFFFFFFFFFFFFFFFFFFFFFFFFF MUL NOT AND SWAP1 DUP4 PUSH20 0xFFFFFFFFFFFFFFFFFFFFFFFFFFFFFFFFFFFFFFFF AND MUL OR SWAP1 SSTORE POP DUP2 PUSH20 0xFFFFFFFFFFFFFFFFFFFFFFFFFFFFFFFFFFFFFFFF AND DUP2 PUSH20 0xFFFFFFFFFFFFFFFFFFFFFFFFFFFFFFFFFFFFFFFF AND PUSH32 0x8BE0079C531659141344CD1FD0A4F28419497F9722A3DAAFE3B4186F6B6457E0 PUSH1 0x40 MLOAD PUSH1 0x40 MLOAD DUP1 SWAP2 SUB SWAP1 LOG3 POP POP JUMP JUMPDEST PUSH1 0x0 DUP2 MLOAD SWAP1 POP PUSH3 0x1B4 DUP2 PUSH3 0x225 JUMP JUMPDEST SWAP3 SWAP2 POP POP JUMP JUMPDEST PUSH1 0x0 PUSH1 0x20 DUP3 DUP5 SUB SLT ISZERO PUSH3 0x1D3 JUMPI PUSH3 0x1D2 PUSH3 0x220 JUMP JUMPDEST JUMPDEST PUSH1 0x0 PUSH3 0x1E3 DUP5 DUP3 DUP6 ADD PUSH3 0x1A3 JUMP JUMPDEST SWAP2 POP POP SWAP3 SWAP2 POP POP JUMP JUMPDEST PUSH1 0x0 PUSH3 0x1F9 DUP3 PUSH3 0x200 JUMP JUMPDEST SWAP1 POP SWAP2 SWAP1 POP JUMP JUMPDEST PUSH1 0x0 PUSH20 0xFFFFFFFFFFFFFFFFFFFFFFFFFFFFFFFFFFFFFFFF DUP3 AND SWAP1 POP SWAP2 SWAP1 POP JUMP JUMPDEST PUSH1 0x0 DUP1 REVERT JUMPDEST PUSH3 0x230 DUP2 PUSH3 0x1EC JUMP JUMPDEST DUP2 EQ PUSH3 0x23C JUMPI PUSH1 0x0 DUP1 REVERT JUMPDEST POP JUMP JUMPDEST PUSH1 0x80 MLOAD PUSH1 0x60 SHR PUSH2 0x2F06 PUSH3 0x273 PUSH1 0x0 CODECOPY PUSH1 0x0 DUP2 DUP2 PUSH2 0x956 ADD MSTORE DUP2 DUP2 PUSH2 0xA9E ADD MSTORE DUP2 DUP2 PUSH2 0xE8F ADD MSTORE PUSH2 0x10C3 ADD MSTORE PUSH2 0x2F06 PUSH1 0x0 RETURN INVALID PUSH1 0x80 PUSH1 0x40 MSTORE PUSH1 0x4 CALLDATASIZE LT PUSH2 0x118 JUMPI PUSH1 0x0 CALLDATALOAD PUSH1 0xE0 SHR DUP1 PUSH4 0x8AF104DA GT PUSH2 0xA0 JUMPI DUP1 PUSH4 0xEA1BB3D5 GT PUSH2 0x64 JUMPI DUP1 PUSH4 0xEA1BB3D5 EQ PUSH2 0x3A7 JUMPI DUP1 PUSH4 0xF2FDE38B EQ PUSH2 0x3E4 JUMPI DUP1 PUSH4 0xF51321D7 EQ PUSH2 0x40D JUMPI DUP1 PUSH4 0xF7C469F0 EQ PUSH2 0x44A JUMPI DUP1 PUSH4 0xF9079B37 EQ PUSH2 0x487 JUMPI PUSH2 0x11F JUMP JUMPDEST DUP1 PUSH4 0x8AF104DA EQ PUSH2 0x2AE JUMPI DUP1 PUSH4 0x8DA5CB5B EQ PUSH2 0x2EB JUMPI DUP1 PUSH4 0x90BE10CC EQ PUSH2 0x316 JUMPI DUP1 PUSH4 0x9EF346B4 EQ PUSH2 0x341 JUMPI DUP1 PUSH4 0xB75C7DC6 EQ PUSH2 0x37E JUMPI PUSH2 0x11F JUMP JUMPDEST DUP1 PUSH4 0x48DEB471 GT PUSH2 0xE7 JUMPI DUP1 PUSH4 0x48DEB471 EQ PUSH2 0x1C9 JUMPI DUP1 PUSH4 0x5A7BB69A EQ PUSH2 0x1F4 JUMPI DUP1 PUSH4 0x66AFD8EF EQ PUSH2 0x231 JUMPI DUP1 PUSH4 0x715018A6 EQ PUSH2 0x25A JUMPI DUP1 PUSH4 0x7E913DC6 EQ PUSH2 0x271 JUMPI PUSH2 0x11F JUMP JUMPDEST DUP1 PUSH4 0x13083617 EQ PUSH2 0x121 JUMPI DUP1 PUSH4 0x17E289E9 EQ PUSH2 0x14C JUMPI DUP1 PUSH4 0x21DF0DA7 EQ PUSH2 0x175 JUMPI DUP1 PUSH4 0x2E1A7D4D EQ PUSH2 0x1A0 JUMPI PUSH2 0x11F JUMP JUMPDEST CALLDATASIZE PUSH2 0x11F JUMPI STOP JUMPDEST STOP JUMPDEST CALLVALUE DUP1 ISZERO PUSH2 0x12D JUMPI PUSH1 0x0 DUP1 REVERT JUMPDEST POP PUSH2 0x136 PUSH2 0x4C4 JUMP JUMPDEST PUSH1 0x40 MLOAD PUSH2 0x143 SWAP2 SWAP1 PUSH2 0x275A JUMP JUMPDEST PUSH1 0x40 MLOAD DUP1 SWAP2 SUB SWAP1 RETURN JUMPDEST CALLVALUE DUP1 ISZERO PUSH2 0x158 JUMPI PUSH1 0x0 DUP1 REVERT JUMPDEST POP PUSH2 0x173 PUSH1 0x4 DUP1 CALLDATASIZE SUB DUP2 ADD SWAP1 PUSH2 0x16E SWAP2 SWAP1 PUSH2 0x1F0C JUMP JUMPDEST PUSH2 0x4D1 JUMP JUMPDEST STOP JUMPDEST CALLVALUE DUP1 ISZERO PUSH2 0x181 JUMPI PUSH1 0x0 DUP1 REVERT JUMPDEST POP PUSH2 0x18A PUSH2 0x952 JUMP JUMPDEST PUSH1 0x40 MLOAD PUSH2 0x197 SWAP2 SWAP1 PUSH2 0x24DD JUMP JUMPDEST PUSH1 0x40 MLOAD DUP1 SWAP2 SUB SWAP1 RETURN JUMPDEST CALLVALUE DUP1 ISZERO PUSH2 0x1AC JUMPI PUSH1 0x0 DUP1 REVERT JUMPDEST POP PUSH2 0x1C7 PUSH1 0x4 DUP1 CALLDATASIZE SUB DUP2 ADD SWAP1 PUSH2 0x1C2 SWAP2 SWAP1 PUSH2 0x2075 JUMP JUMPDEST PUSH2 0x97A JUMP JUMPDEST STOP JUMPDEST CALLVALUE DUP1 ISZERO PUSH2 0x1D5 JUMPI PUSH1 0x0 DUP1 REVERT JUMPDEST POP PUSH2 0x1DE PUSH2 0xAEC JUMP JUMPDEST PUSH1 0x40 MLOAD PUSH2 0x1EB SWAP2 SWAP1 PUSH2 0x275A JUMP JUMPDEST PUSH1 0x40 MLOAD DUP1 SWAP2 SUB SWAP1 RETURN JUMPDEST CALLVALUE DUP1 ISZERO PUSH2 0x200 JUMPI PUSH1 0x0 DUP1 REVERT JUMPDEST POP PUSH2 0x21B PUSH1 0x4 DUP1 CALLDATASIZE SUB DUP2 ADD SWAP1 PUSH2 0x216 SWAP2 SWAP1 PUSH2 0x1E9F JUMP JUMPDEST PUSH2 0xAF6 JUMP JUMPDEST PUSH1 0x40 MLOAD PUSH2 0x228 SWAP2 SWAP1 PUSH2 0x275A JUMP JUMPDEST PUSH1 0x40 MLOAD DUP1 SWAP2 SUB SWAP1 RETURN JUMPDEST CALLVALUE DUP1 ISZERO PUSH2 0x23D JUMPI PUSH1 0x0 DUP1 REVERT JUMPDEST POP PUSH2 0x258 PUSH1 0x4 DUP1 CALLDATASIZE SUB DUP2 ADD SWAP1 PUSH2 0x253 SWAP2 SWAP1 PUSH2 0x2035 JUMP JUMPDEST PUSH2 0xB3F JUMP JUMPDEST STOP JUMPDEST CALLVALUE DUP1 ISZERO PUSH2 0x266 JUMPI PUSH1 0x0 DUP1 REVERT JUMPDEST POP PUSH2 0x26F PUSH2 0xEE4 JUMP JUMPDEST STOP JUMPDEST CALLVALUE DUP1 ISZERO PUSH2 0x27D JUMPI PUSH1 0x0 DUP1 REVERT JUMPDEST POP PUSH2 0x298 PUSH1 0x4 DUP1 CALLDATASIZE SUB DUP2 ADD SWAP1 PUSH2 0x293 SWAP2 SWAP1 PUSH2 0x1E9F JUMP JUMPDEST PUSH2 0xEF8 JUMP JUMPDEST PUSH1 0x40 MLOAD PUSH2 0x2A5 SWAP2 SWAP1 PUSH2 0x273E JUMP JUMPDEST PUSH1 0x40 MLOAD DUP1 SWAP2 SUB SWAP1 RETURN JUMPDEST CALLVALUE DUP1 ISZERO PUSH2 0x2BA JUMPI PUSH1 0x0 DUP1 REVERT JUMPDEST POP PUSH2 0x2D5 PUSH1 0x4 DUP1 CALLDATASIZE SUB DUP2 ADD SWAP1 PUSH2 0x2D0 SWAP2 SWAP1 PUSH2 0x1ECC JUMP JUMPDEST PUSH2 0x105D JUMP JUMPDEST PUSH1 0x40 MLOAD PUSH2 0x2E2 SWAP2 SWAP1 PUSH2 0x2521 JUMP JUMPDEST PUSH1 0x40 MLOAD DUP1 SWAP2 SUB SWAP1 RETURN JUMPDEST CALLVALUE DUP1 ISZERO PUSH2 0x2F7 JUMPI PUSH1 0x0 DUP1 REVERT JUMPDEST POP PUSH2 0x300 PUSH2 0x1090 JUMP JUMPDEST PUSH1 0x40 MLOAD PUSH2 0x30D SWAP2 SWAP1 PUSH2 0x24DD JUMP JUMPDEST PUSH1 0x40 MLOAD DUP1 SWAP2 SUB SWAP1 RETURN JUMPDEST CALLVALUE DUP1 ISZERO PUSH2 0x322 JUMPI PUSH1 0x0 DUP1 REVERT JUMPDEST POP PUSH2 0x32B PUSH2 0x10B9 JUMP JUMPDEST PUSH1 0x40 MLOAD PUSH2 0x338 SWAP2 SWAP1 PUSH2 0x275A JUMP JUMPDEST PUSH1 0x40 MLOAD DUP1 SWAP2 SUB SWAP1 RETURN JUMPDEST CALLVALUE DUP1 ISZERO PUSH2 0x34D JUMPI PUSH1 0x0 DUP1 REVERT JUMPDEST POP PUSH2 0x368 PUSH1 0x4 DUP1 CALLDATASIZE SUB DUP2 ADD SWAP1 PUSH2 0x363 SWAP2 SWAP1 PUSH2 0x1FDB JUMP JUMPDEST PUSH2 0x117D JUMP JUMPDEST PUSH1 0x40 MLOAD PUSH2 0x375 SWAP2 SWAP1 PUSH2 0x273E JUMP JUMPDEST PUSH1 0x40 MLOAD DUP1 SWAP2 SUB SWAP1 RETURN JUMPDEST CALLVALUE DUP1 ISZERO PUSH2 0x38A JUMPI PUSH1 0x0 DUP1 REVERT JUMPDEST POP PUSH2 0x3A5 PUSH1 0x4 DUP1 CALLDATASIZE SUB DUP2 ADD SWAP1 PUSH2 0x3A0 SWAP2 SWAP1 PUSH2 0x1FDB JUMP JUMPDEST PUSH2 0x128E JUMP JUMPDEST STOP JUMPDEST CALLVALUE DUP1 ISZERO PUSH2 0x3B3 JUMPI PUSH1 0x0 DUP1 REVERT JUMPDEST POP PUSH2 0x3CE PUSH1 0x4 DUP1 CALLDATASIZE SUB DUP2 ADD SWAP1 PUSH2 0x3C9 SWAP2 SWAP1 PUSH2 0x1FDB JUMP JUMPDEST PUSH2 0x14DC JUMP JUMPDEST PUSH1 0x40 MLOAD PUSH2 0x3DB SWAP2 SWAP1 PUSH2 0x275A JUMP JUMPDEST PUSH1 0x40 MLOAD DUP1 SWAP2 SUB SWAP1 RETURN JUMPDEST CALLVALUE DUP1 ISZERO PUSH2 0x3F0 JUMPI PUSH1 0x0 DUP1 REVERT JUMPDEST POP PUSH2 0x40B PUSH1 0x4 DUP1 CALLDATASIZE SUB DUP2 ADD SWAP1 PUSH2 0x406 SWAP2 SWAP1 PUSH2 0x1E9F JUMP JUMPDEST PUSH2 0x165F JUMP JUMPDEST STOP JUMPDEST CALLVALUE DUP1 ISZERO PUSH2 0x419 JUMPI PUSH1 0x0 DUP1 REVERT JUMPDEST POP PUSH2 0x434 PUSH1 0x4 DUP1 CALLDATASIZE SUB DUP2 ADD SWAP1 PUSH2 0x42F SWAP2 SWAP1 PUSH2 0x1ECC JUMP JUMPDEST PUSH2 0x16E3 JUMP JUMPDEST PUSH1 0x40 MLOAD PUSH2 0x441 SWAP2 SWAP1 PUSH2 0x273E JUMP JUMPDEST PUSH1 0x40 MLOAD DUP1 SWAP2 SUB SWAP1 RETURN JUMPDEST CALLVALUE DUP1 ISZERO PUSH2 0x456 JUMPI PUSH1 0x0 DUP1 REVERT JUMPDEST POP PUSH2 0x471 PUSH1 0x4 DUP1 CALLDATASIZE SUB DUP2 ADD SWAP1 PUSH2 0x46C SWAP2 SWAP1 PUSH2 0x1E9F JUMP JUMPDEST PUSH2 0x1705 JUMP JUMPDEST PUSH1 0x40 MLOAD PUSH2 0x47E SWAP2 SWAP1 PUSH2 0x2521 JUMP JUMPDEST PUSH1 0x40 MLOAD DUP1 SWAP2 SUB SWAP1 RETURN JUMPDEST CALLVALUE DUP1 ISZERO PUSH2 0x493 JUMPI PUSH1 0x0 DUP1 REVERT JUMPDEST POP PUSH2 0x4AE PUSH1 0x4 DUP1 CALLDATASIZE SUB DUP2 ADD SWAP1 PUSH2 0x4A9 SWAP2 SWAP1 PUSH2 0x2075 JUMP JUMPDEST PUSH2 0x1757 JUMP JUMPDEST PUSH1 0x40 MLOAD PUSH2 0x4BB SWAP2 SWAP1 PUSH2 0x2521 JUMP JUMPDEST PUSH1 0x40 MLOAD DUP1 SWAP2 SUB SWAP1 RETURN JUMPDEST PUSH1 0x0 PUSH1 0x2 DUP1 SLOAD SWAP1 POP SWAP1 POP SWAP1 JUMP JUMPDEST PUSH2 0x4D9 PUSH2 0x17C8 JUMP JUMPDEST DUP1 ADDRESS PUSH20 0xFFFFFFFFFFFFFFFFFFFFFFFFFFFFFFFFFFFFFFFF AND PUSH4 0x90BE10CC PUSH1 0x40 MLOAD DUP2 PUSH4 0xFFFFFFFF AND PUSH1 0xE0 SHL DUP2 MSTORE PUSH1 0x4 ADD PUSH1 0x20 PUSH1 0x40 MLOAD DUP1 DUP4 SUB DUP2 DUP7 DUP1 EXTCODESIZE ISZERO DUP1 ISZERO PUSH2 0x520 JUMPI PUSH1 0x0 DUP1 REVERT JUMPDEST POP GAS STATICCALL ISZERO DUP1 ISZERO PUSH2 0x534 JUMPI RETURNDATASIZE PUSH1 0x0 DUP1 RETURNDATACOPY RETURNDATASIZE PUSH1 0x0 REVERT JUMPDEST POP POP POP POP PUSH1 0x40 MLOAD RETURNDATASIZE PUSH1 0x1F NOT PUSH1 0x1F DUP3 ADD AND DUP3 ADD DUP1 PUSH1 0x40 MSTORE POP DUP2 ADD SWAP1 PUSH2 0x558 SWAP2 SWAP1 PUSH2 0x20A2 JUMP JUMPDEST LT ISZERO PUSH2 0x599 JUMPI PUSH1 0x40 MLOAD PUSH32 0x8C379A000000000000000000000000000000000000000000000000000000000 DUP2 MSTORE PUSH1 0x4 ADD PUSH2 0x590 SWAP1 PUSH2 0x26FE JUMP JUMPDEST PUSH1 0x40 MLOAD DUP1 SWAP2 SUB SWAP1 REVERT JUMPDEST PUSH1 0x0 DUP5 GT PUSH2 0x5DC JUMPI PUSH1 0x40 MLOAD PUSH32 0x8C379A000000000000000000000000000000000000000000000000000000000 DUP2 MSTORE PUSH1 0x4 ADD PUSH2 0x5D3 SWAP1 PUSH2 0x265E JUMP JUMPDEST PUSH1 0x40 MLOAD DUP1 SWAP2 SUB SWAP1 REVERT JUMPDEST PUSH1 0x0 DUP2 GT PUSH2 0x61F JUMPI PUSH1 0x40 MLOAD PUSH32 0x8C379A000000000000000000000000000000000000000000000000000000000 DUP2 MSTORE PUSH1 0x4 ADD PUSH2 0x616 SWAP1 PUSH2 0x261E JUMP JUMPDEST PUSH1 0x40 MLOAD DUP1 SWAP2 SUB SWAP1 REVERT JUMPDEST PUSH1 0x1 DUP4 LT ISZERO PUSH2 0x663 JUMPI PUSH1 0x40 MLOAD PUSH32 0x8C379A000000000000000000000000000000000000000000000000000000000 DUP2 MSTORE PUSH1 0x4 ADD PUSH2 0x65A SWAP1 PUSH2 0x257E JUMP JUMPDEST PUSH1 0x40 MLOAD DUP1 SWAP2 SUB SWAP1 REVERT JUMPDEST PUSH1 0x0 ADDRESS PUSH20 0xFFFFFFFFFFFFFFFFFFFFFFFFFFFFFFFFFFFFFFFF AND PUSH4 0xF7C469F0 DUP10 PUSH1 0x40 MLOAD DUP3 PUSH4 0xFFFFFFFF AND PUSH1 0xE0 SHL DUP2 MSTORE PUSH1 0x4 ADD PUSH2 0x69E SWAP2 SWAP1 PUSH2 0x24DD JUMP JUMPDEST PUSH1 0x20 PUSH1 0x40 MLOAD DUP1 DUP4 SUB DUP2 DUP7 DUP1 EXTCODESIZE ISZERO DUP1 ISZERO PUSH2 0x6B6 JUMPI PUSH1 0x0 DUP1 REVERT JUMPDEST POP GAS STATICCALL ISZERO DUP1 ISZERO PUSH2 0x6CA JUMPI RETURNDATASIZE PUSH1 0x0 DUP1 RETURNDATACOPY RETURNDATASIZE PUSH1 0x0 REVERT JUMPDEST POP POP POP POP PUSH1 0x40 MLOAD RETURNDATASIZE PUSH1 0x1F NOT PUSH1 0x1F DUP3 ADD AND DUP3 ADD DUP1 PUSH1 0x40 MSTORE POP DUP2 ADD SWAP1 PUSH2 0x6EE SWAP2 SWAP1 PUSH2 0x2008 JUMP JUMPDEST SWAP1 POP PUSH1 0x0 PUSH2 0x705 DUP8 DUP10 PUSH2 0x1846 SWAP1 SWAP2 SWAP1 PUSH4 0xFFFFFFFF AND JUMP JUMPDEST SWAP1 POP PUSH1 0x40 MLOAD DUP1 PUSH2 0x140 ADD PUSH1 0x40 MSTORE DUP1 PUSH1 0x1 ISZERO ISZERO DUP2 MSTORE PUSH1 0x20 ADD DUP11 PUSH20 0xFFFFFFFFFFFFFFFFFFFFFFFFFFFFFFFFFFFFFFFF AND DUP2 MSTORE PUSH1 0x20 ADD DUP3 DUP2 MSTORE PUSH1 0x20 ADD DUP10 DUP2 MSTORE PUSH1 0x20 ADD DUP8 DUP2 MSTORE PUSH1 0x20 ADD DUP7 DUP2 MSTORE PUSH1 0x20 ADD DUP6 ISZERO ISZERO DUP2 MSTORE PUSH1 0x20 ADD DUP5 DUP2 MSTORE PUSH1 0x20 ADD PUSH1 0x0 DUP2 MSTORE PUSH1 0x20 ADD PUSH1 0x0 ISZERO ISZERO DUP2 MSTORE POP PUSH1 0x3 PUSH1 0x0 DUP5 DUP2 MSTORE PUSH1 0x20 ADD SWAP1 DUP2 MSTORE PUSH1 0x20 ADD PUSH1 0x0 KECCAK256 PUSH1 0x0 DUP3 ADD MLOAD DUP2 PUSH1 0x0 ADD PUSH1 0x0 PUSH2 0x100 EXP DUP2 SLOAD DUP2 PUSH1 0xFF MUL NOT AND SWAP1 DUP4 ISZERO ISZERO MUL OR SWAP1 SSTORE POP PUSH1 0x20 DUP3 ADD MLOAD DUP2 PUSH1 0x0 ADD PUSH1 0x1 PUSH2 0x100 EXP DUP2 SLOAD DUP2 PUSH20 0xFFFFFFFFFFFFFFFFFFFFFFFFFFFFFFFFFFFFFFFF MUL NOT AND SWAP1 DUP4 PUSH20 0xFFFFFFFFFFFFFFFFFFFFFFFFFFFFFFFFFFFFFFFF AND MUL OR SWAP1 SSTORE POP PUSH1 0x40 DUP3 ADD MLOAD DUP2 PUSH1 0x1 ADD SSTORE PUSH1 0x60 DUP3 ADD MLOAD DUP2 PUSH1 0x2 ADD SSTORE PUSH1 0x80 DUP3 ADD MLOAD DUP2 PUSH1 0x3 ADD SSTORE PUSH1 0xA0 DUP3 ADD MLOAD DUP2 PUSH1 0x4 ADD SSTORE PUSH1 0xC0 DUP3 ADD MLOAD DUP2 PUSH1 0x5 ADD PUSH1 0x0 PUSH2 0x100 EXP DUP2 SLOAD DUP2 PUSH1 0xFF MUL NOT AND SWAP1 DUP4 ISZERO ISZERO MUL OR SWAP1 SSTORE POP PUSH1 0xE0 DUP3 ADD MLOAD DUP2 PUSH1 0x6 ADD SSTORE PUSH2 0x100 DUP3 ADD MLOAD DUP2 PUSH1 0x7 ADD SSTORE PUSH2 0x120 DUP3 ADD MLOAD DUP2 PUSH1 0x8 ADD PUSH1 0x0 PUSH2 0x100 EXP DUP2 SLOAD DUP2 PUSH1 0xFF MUL NOT AND SWAP1 DUP4 ISZERO ISZERO MUL OR SWAP1 SSTORE POP SWAP1 POP POP PUSH2 0x87C DUP4 PUSH1 0x4 SLOAD PUSH2 0x1846 SWAP1 SWAP2 SWAP1 PUSH4 0xFFFFFFFF AND JUMP JUMPDEST PUSH1 0x4 DUP2 SWAP1 SSTORE POP PUSH1 0x2 DUP3 SWAP1 DUP1 PUSH1 0x1 DUP2 SLOAD ADD DUP1 DUP3 SSTORE DUP1 SWAP2 POP POP PUSH1 0x1 SWAP1 SUB SWAP1 PUSH1 0x0 MSTORE PUSH1 0x20 PUSH1 0x0 KECCAK256 ADD PUSH1 0x0 SWAP1 SWAP2 SWAP1 SWAP2 SWAP1 SWAP2 POP SSTORE PUSH1 0x0 PUSH1 0x5 PUSH1 0x0 DUP12 PUSH20 0xFFFFFFFFFFFFFFFFFFFFFFFFFFFFFFFFFFFFFFFF AND PUSH20 0xFFFFFFFFFFFFFFFFFFFFFFFFFFFFFFFFFFFFFFFF AND DUP2 MSTORE PUSH1 0x20 ADD SWAP1 DUP2 MSTORE PUSH1 0x20 ADD PUSH1 0x0 KECCAK256 SLOAD SWAP1 POP PUSH2 0x903 PUSH1 0x1 DUP3 PUSH2 0x1846 SWAP1 SWAP2 SWAP1 PUSH4 0xFFFFFFFF AND JUMP JUMPDEST PUSH1 0x5 PUSH1 0x0 DUP13 PUSH20 0xFFFFFFFFFFFFFFFFFFFFFFFFFFFFFFFFFFFFFFFF AND PUSH20 0xFFFFFFFFFFFFFFFFFFFFFFFFFFFFFFFFFFFFFFFF AND DUP2 MSTORE PUSH1 0x20 ADD SWAP1 DUP2 MSTORE PUSH1 0x20 ADD PUSH1 0x0 KECCAK256 DUP2 SWAP1 SSTORE POP POP POP POP POP POP POP POP POP POP POP JUMP JUMPDEST PUSH1 0x0 PUSH32 0x0 SWAP1 POP SWAP1 JUMP JUMPDEST PUSH1 0x2 PUSH1 0x1 SLOAD EQ ISZERO PUSH2 0x9C0 JUMPI PUSH1 0x40 MLOAD PUSH32 0x8C379A000000000000000000000000000000000000000000000000000000000 DUP2 MSTORE PUSH1 0x4 ADD PUSH2 0x9B7 SWAP1 PUSH2 0x271E JUMP JUMPDEST PUSH1 0x40 MLOAD DUP1 SWAP2 SUB SWAP1 REVERT JUMPDEST PUSH1 0x2 PUSH1 0x1 DUP2 SWAP1 SSTORE POP PUSH2 0x9D0 PUSH2 0x17C8 JUMP JUMPDEST DUP1 ADDRESS PUSH20 0xFFFFFFFFFFFFFFFFFFFFFFFFFFFFFFFFFFFFFFFF AND PUSH4 0x90BE10CC PUSH1 0x40 MLOAD DUP2 PUSH4 0xFFFFFFFF AND PUSH1 0xE0 SHL DUP2 MSTORE PUSH1 0x4 ADD PUSH1 0x20 PUSH1 0x40 MLOAD DUP1 DUP4 SUB DUP2 DUP7 DUP1 EXTCODESIZE ISZERO DUP1 ISZERO PUSH2 0xA17 JUMPI PUSH1 0x0 DUP1 REVERT JUMPDEST POP GAS STATICCALL ISZERO DUP1 ISZERO PUSH2 0xA2B JUMPI RETURNDATASIZE PUSH1 0x0 DUP1 RETURNDATACOPY RETURNDATASIZE PUSH1 0x0 REVERT JUMPDEST POP POP POP POP PUSH1 0x40 MLOAD RETURNDATASIZE PUSH1 0x1F NOT PUSH1 0x1F DUP3 ADD AND DUP3 ADD DUP1 PUSH1 0x40 MSTORE POP DUP2 ADD SWAP1 PUSH2 0xA4F SWAP2 SWAP1 PUSH2 0x20A2 JUMP JUMPDEST LT ISZERO PUSH2 0xA90 JUMPI PUSH1 0x40 MLOAD PUSH32 0x8C379A000000000000000000000000000000000000000000000000000000000 DUP2 MSTORE PUSH1 0x4 ADD PUSH2 0xA87 SWAP1 PUSH2 0x26BE JUMP JUMPDEST PUSH1 0x40 MLOAD DUP1 SWAP2 SUB SWAP1 REVERT JUMPDEST PUSH2 0xAE2 PUSH2 0xA9B PUSH2 0x1090 JUMP JUMPDEST DUP3 PUSH32 0x0 PUSH20 0xFFFFFFFFFFFFFFFFFFFFFFFFFFFFFFFFFFFFFFFF AND PUSH2 0x185C SWAP1 SWAP3 SWAP2 SWAP1 PUSH4 0xFFFFFFFF AND JUMP JUMPDEST PUSH1 0x1 DUP1 DUP2 SWAP1 SSTORE POP POP JUMP JUMPDEST PUSH1 0x0 PUSH1 0x4 SLOAD SWAP1 POP SWAP1 JUMP JUMPDEST PUSH1 0x0 PUSH1 0x5 PUSH1 0x0 DUP4 PUSH20 0xFFFFFFFFFFFFFFFFFFFFFFFFFFFFFFFFFFFFFFFF AND PUSH20 0xFFFFFFFFFFFFFFFFFFFFFFFFFFFFFFFFFFFFFFFF AND DUP2 MSTORE PUSH1 0x20 ADD SWAP1 DUP2 MSTORE PUSH1 0x20 ADD PUSH1 0x0 KECCAK256 SLOAD SWAP1 POP SWAP2 SWAP1 POP JUMP JUMPDEST PUSH1 0x2 PUSH1 0x1 SLOAD EQ ISZERO PUSH2 0xB85 JUMPI PUSH1 0x40 MLOAD PUSH32 0x8C379A000000000000000000000000000000000000000000000000000000000 DUP2 MSTORE PUSH1 0x4 ADD PUSH2 0xB7C SWAP1 PUSH2 0x271E JUMP JUMPDEST PUSH1 0x40 MLOAD DUP1 SWAP2 SUB SWAP1 REVERT JUMPDEST PUSH1 0x2 PUSH1 0x1 DUP2 SWAP1 SSTORE POP DUP2 PUSH1 0x1 ISZERO ISZERO PUSH1 0x3 PUSH1 0x0 DUP4 DUP2 MSTORE PUSH1 0x20 ADD SWAP1 DUP2 MSTORE PUSH1 0x20 ADD PUSH1 0x0 KECCAK256 PUSH1 0x0 ADD PUSH1 0x0 SWAP1 SLOAD SWAP1 PUSH2 0x100 EXP SWAP1 DIV PUSH1 0xFF AND ISZERO ISZERO EQ PUSH2 0xBC2 JUMPI PUSH1 0x0 DUP1 REVERT JUMPDEST PUSH1 0x0 ISZERO ISZERO PUSH1 0x3 PUSH1 0x0 DUP4 DUP2 MSTORE PUSH1 0x20 ADD SWAP1 DUP2 MSTORE PUSH1 0x20 ADD PUSH1 0x0 KECCAK256 PUSH1 0x8 ADD PUSH1 0x0 SWAP1 SLOAD SWAP1 PUSH2 0x100 EXP SWAP1 DIV PUSH1 0xFF AND ISZERO ISZERO EQ PUSH2 0xBF6 JUMPI PUSH1 0x0 DUP1 REVERT JUMPDEST PUSH1 0x0 PUSH1 0x3 PUSH1 0x0 DUP6 DUP2 MSTORE PUSH1 0x20 ADD SWAP1 DUP2 MSTORE PUSH1 0x20 ADD PUSH1 0x0 KECCAK256 SWAP1 POP PUSH1 0x0 DUP2 PUSH1 0x0 ADD PUSH1 0x1 SWAP1 SLOAD SWAP1 PUSH2 0x100 EXP SWAP1 DIV PUSH20 0xFFFFFFFFFFFFFFFFFFFFFFFFFFFFFFFFFFFFFFFF AND PUSH20 0xFFFFFFFFFFFFFFFFFFFFFFFFFFFFFFFFFFFFFFFF AND CALLER PUSH20 0xFFFFFFFFFFFFFFFFFFFFFFFFFFFFFFFFFFFFFFFF AND EQ SWAP1 POP PUSH1 0x0 PUSH2 0xC6E PUSH2 0x1090 JUMP JUMPDEST PUSH20 0xFFFFFFFFFFFFFFFFFFFFFFFFFFFFFFFFFFFFFFFF AND CALLER PUSH20 0xFFFFFFFFFFFFFFFFFFFFFFFFFFFFFFFFFFFFFFFF AND EQ SWAP1 POP DUP2 DUP1 PUSH2 0xCA7 JUMPI POP DUP1 JUMPDEST PUSH2 0xCE6 JUMPI PUSH1 0x40 MLOAD PUSH32 0x8C379A000000000000000000000000000000000000000000000000000000000 DUP2 MSTORE PUSH1 0x4 ADD PUSH2 0xCDD SWAP1 PUSH2 0x267E JUMP JUMPDEST PUSH1 0x40 MLOAD DUP1 SWAP2 SUB SWAP1 REVERT JUMPDEST PUSH1 0x0 PUSH2 0xDE0 DUP5 PUSH1 0x40 MLOAD DUP1 PUSH2 0x140 ADD PUSH1 0x40 MSTORE SWAP1 DUP2 PUSH1 0x0 DUP3 ADD PUSH1 0x0 SWAP1 SLOAD SWAP1 PUSH2 0x100 EXP SWAP1 DIV PUSH1 0xFF AND ISZERO ISZERO ISZERO ISZERO DUP2 MSTORE PUSH1 0x20 ADD PUSH1 0x0 DUP3 ADD PUSH1 0x1 SWAP1 SLOAD SWAP1 PUSH2 0x100 EXP SWAP1 DIV PUSH20 0xFFFFFFFFFFFFFFFFFFFFFFFFFFFFFFFFFFFFFFFF AND PUSH20 0xFFFFFFFFFFFFFFFFFFFFFFFFFFFFFFFFFFFFFFFF AND PUSH20 0xFFFFFFFFFFFFFFFFFFFFFFFFFFFFFFFFFFFFFFFF AND DUP2 MSTORE PUSH1 0x20 ADD PUSH1 0x1 DUP3 ADD SLOAD DUP2 MSTORE PUSH1 0x20 ADD PUSH1 0x2 DUP3 ADD SLOAD DUP2 MSTORE PUSH1 0x20 ADD PUSH1 0x3 DUP3 ADD SLOAD DUP2 MSTORE PUSH1 0x20 ADD PUSH1 0x4 DUP3 ADD SLOAD DUP2 MSTORE PUSH1 0x20 ADD PUSH1 0x5 DUP3 ADD PUSH1 0x0 SWAP1 SLOAD SWAP1 PUSH2 0x100 EXP SWAP1 DIV PUSH1 0xFF AND ISZERO ISZERO ISZERO ISZERO DUP2 MSTORE PUSH1 0x20 ADD PUSH1 0x6 DUP3 ADD SLOAD DUP2 MSTORE PUSH1 0x20 ADD PUSH1 0x7 DUP3 ADD SLOAD DUP2 MSTORE PUSH1 0x20 ADD PUSH1 0x8 DUP3 ADD PUSH1 0x0 SWAP1 SLOAD SWAP1 PUSH2 0x100 EXP SWAP1 DIV PUSH1 0xFF AND ISZERO ISZERO ISZERO ISZERO DUP2 MSTORE POP POP PUSH2 0x18E2 JUMP JUMPDEST SWAP1 POP DUP6 DUP2 LT ISZERO PUSH2 0xE25 JUMPI PUSH1 0x40 MLOAD PUSH32 0x8C379A000000000000000000000000000000000000000000000000000000000 DUP2 MSTORE PUSH1 0x4 ADD PUSH2 0xE1C SWAP1 PUSH2 0x259E JUMP JUMPDEST PUSH1 0x40 MLOAD DUP1 SWAP2 SUB SWAP1 REVERT JUMPDEST PUSH2 0xE3C DUP7 DUP6 PUSH1 0x7 ADD SLOAD PUSH2 0x1846 SWAP1 SWAP2 SWAP1 PUSH4 0xFFFFFFFF AND JUMP JUMPDEST DUP5 PUSH1 0x7 ADD DUP2 SWAP1 SSTORE POP PUSH1 0x0 DUP5 PUSH1 0x0 ADD PUSH1 0x1 SWAP1 SLOAD SWAP1 PUSH2 0x100 EXP SWAP1 DIV PUSH20 0xFFFFFFFFFFFFFFFFFFFFFFFFFFFFFFFFFFFFFFFF AND SWAP1 POP PUSH2 0xE82 DUP8 PUSH1 0x4 SLOAD PUSH2 0x1A0A SWAP1 SWAP2 SWAP1 PUSH4 0xFFFFFFFF AND JUMP JUMPDEST PUSH1 0x4 DUP2 SWAP1 SSTORE POP PUSH2 0xED3 DUP2 DUP9 PUSH32 0x0 PUSH20 0xFFFFFFFFFFFFFFFFFFFFFFFFFFFFFFFFFFFFFFFF AND PUSH2 0x185C SWAP1 SWAP3 SWAP2 SWAP1 PUSH4 0xFFFFFFFF AND JUMP JUMPDEST POP POP POP POP POP POP PUSH1 0x1 DUP1 DUP2 SWAP1 SSTORE POP POP POP JUMP JUMPDEST PUSH2 0xEEC PUSH2 0x17C8 JUMP JUMPDEST PUSH2 0xEF6 PUSH1 0x0 PUSH2 0x1A20 JUMP JUMPDEST JUMP JUMPDEST PUSH2 0xF00 PUSH2 0x1D9D JUMP JUMPDEST PUSH1 0x3 PUSH1 0x0 PUSH2 0xF59 DUP5 PUSH1 0x1 PUSH1 0x5 PUSH1 0x0 DUP9 PUSH20 0xFFFFFFFFFFFFFFFFFFFFFFFFFFFFFFFFFFFFFFFF AND PUSH20 0xFFFFFFFFFFFFFFFFFFFFFFFFFFFFFFFFFFFFFFFF AND DUP2 MSTORE PUSH1 0x20 ADD SWAP1 DUP2 MSTORE PUSH1 0x20 ADD PUSH1 0x0 KECCAK256 SLOAD PUSH2 0xF54 SWAP2 SWAP1 PUSH2 0x2888 JUMP JUMPDEST PUSH2 0x105D JUMP JUMPDEST DUP2 MSTORE PUSH1 0x20 ADD SWAP1 DUP2 MSTORE PUSH1 0x20 ADD PUSH1 0x0 KECCAK256 PUSH1 0x40 MLOAD DUP1 PUSH2 0x140 ADD PUSH1 0x40 MSTORE SWAP1 DUP2 PUSH1 0x0 DUP3 ADD PUSH1 0x0 SWAP1 SLOAD SWAP1 PUSH2 0x100 EXP SWAP1 DIV PUSH1 0xFF AND ISZERO ISZERO ISZERO ISZERO DUP2 MSTORE PUSH1 0x20 ADD PUSH1 0x0 DUP3 ADD PUSH1 0x1 SWAP1 SLOAD SWAP1 PUSH2 0x100 EXP SWAP1 DIV PUSH20 0xFFFFFFFFFFFFFFFFFFFFFFFFFFFFFFFFFFFFFFFF AND PUSH20 0xFFFFFFFFFFFFFFFFFFFFFFFFFFFFFFFFFFFFFFFF AND PUSH20 0xFFFFFFFFFFFFFFFFFFFFFFFFFFFFFFFFFFFFFFFF AND DUP2 MSTORE PUSH1 0x20 ADD PUSH1 0x1 DUP3 ADD SLOAD DUP2 MSTORE PUSH1 0x20 ADD PUSH1 0x2 DUP3 ADD SLOAD DUP2 MSTORE PUSH1 0x20 ADD PUSH1 0x3 DUP3 ADD SLOAD DUP2 MSTORE PUSH1 0x20 ADD PUSH1 0x4 DUP3 ADD SLOAD DUP2 MSTORE PUSH1 0x20 ADD PUSH1 0x5 DUP3 ADD PUSH1 0x0 SWAP1 SLOAD SWAP1 PUSH2 0x100 EXP SWAP1 DIV PUSH1 0xFF AND ISZERO ISZERO ISZERO ISZERO DUP2 MSTORE PUSH1 0x20 ADD PUSH1 0x6 DUP3 ADD SLOAD DUP2 MSTORE PUSH1 0x20 ADD PUSH1 0x7 DUP3 ADD SLOAD DUP2 MSTORE PUSH1 0x20 ADD PUSH1 0x8 DUP3 ADD PUSH1 0x0 SWAP1 SLOAD SWAP1 PUSH2 0x100 EXP SWAP1 DIV PUSH1 0xFF AND ISZERO ISZERO ISZERO ISZERO DUP2 MSTORE POP POP SWAP1 POP SWAP2 SWAP1 POP JUMP JUMPDEST PUSH1 0x0 DUP3 DUP3 PUSH1 0x40 MLOAD PUSH1 0x20 ADD PUSH2 0x1072 SWAP3 SWAP2 SWAP1 PUSH2 0x249A JUMP JUMPDEST PUSH1 0x40 MLOAD PUSH1 0x20 DUP2 DUP4 SUB SUB DUP2 MSTORE SWAP1 PUSH1 0x40 MSTORE DUP1 MLOAD SWAP1 PUSH1 0x20 ADD KECCAK256 SWAP1 POP SWAP3 SWAP2 POP POP JUMP JUMPDEST PUSH1 0x0 DUP1 PUSH1 0x0 SWAP1 SLOAD SWAP1 PUSH2 0x100 EXP SWAP1 DIV PUSH20 0xFFFFFFFFFFFFFFFFFFFFFFFFFFFFFFFFFFFFFFFF AND SWAP1 POP SWAP1 JUMP JUMPDEST PUSH1 0x0 PUSH2 0x1178 PUSH1 0x4 SLOAD PUSH32 0x0 PUSH20 0xFFFFFFFFFFFFFFFFFFFFFFFFFFFFFFFFFFFFFFFF AND PUSH4 0x70A08231 ADDRESS PUSH1 0x40 MLOAD DUP3 PUSH4 0xFFFFFFFF AND PUSH1 0xE0 SHL DUP2 MSTORE PUSH1 0x4 ADD PUSH2 0x111A SWAP2 SWAP1 PUSH2 0x24DD JUMP JUMPDEST PUSH1 0x20 PUSH1 0x40 MLOAD DUP1 DUP4 SUB DUP2 DUP7 DUP1 EXTCODESIZE ISZERO DUP1 ISZERO PUSH2 0x1132 JUMPI PUSH1 0x0 DUP1 REVERT JUMPDEST POP GAS STATICCALL ISZERO DUP1 ISZERO PUSH2 0x1146 JUMPI RETURNDATASIZE PUSH1 0x0 DUP1 RETURNDATACOPY RETURNDATASIZE PUSH1 0x0 REVERT JUMPDEST POP POP POP POP PUSH1 0x40 MLOAD RETURNDATASIZE PUSH1 0x1F NOT PUSH1 0x1F DUP3 ADD AND DUP3 ADD DUP1 PUSH1 0x40 MSTORE POP DUP2 ADD SWAP1 PUSH2 0x116A SWAP2 SWAP1 PUSH2 0x20A2 JUMP JUMPDEST PUSH2 0x1A0A SWAP1 SWAP2 SWAP1 PUSH4 0xFFFFFFFF AND JUMP JUMPDEST SWAP1 POP SWAP1 JUMP JUMPDEST PUSH2 0x1185 PUSH2 0x1D9D JUMP JUMPDEST PUSH1 0x3 PUSH1 0x0 DUP4 DUP2 MSTORE PUSH1 0x20 ADD SWAP1 DUP2 MSTORE PUSH1 0x20 ADD PUSH1 0x0 KECCAK256 PUSH1 0x40 MLOAD DUP1 PUSH2 0x140 ADD PUSH1 0x40 MSTORE SWAP1 DUP2 PUSH1 0x0 DUP3 ADD PUSH1 0x0 SWAP1 SLOAD SWAP1 PUSH2 0x100 EXP SWAP1 DIV PUSH1 0xFF AND ISZERO ISZERO ISZERO ISZERO DUP2 MSTORE PUSH1 0x20 ADD PUSH1 0x0 DUP3 ADD PUSH1 0x1 SWAP1 SLOAD SWAP1 PUSH2 0x100 EXP SWAP1 DIV PUSH20 0xFFFFFFFFFFFFFFFFFFFFFFFFFFFFFFFFFFFFFFFF AND PUSH20 0xFFFFFFFFFFFFFFFFFFFFFFFFFFFFFFFFFFFFFFFF AND PUSH20 0xFFFFFFFFFFFFFFFFFFFFFFFFFFFFFFFFFFFFFFFF AND DUP2 MSTORE PUSH1 0x20 ADD PUSH1 0x1 DUP3 ADD SLOAD DUP2 MSTORE PUSH1 0x20 ADD PUSH1 0x2 DUP3 ADD SLOAD DUP2 MSTORE PUSH1 0x20 ADD PUSH1 0x3 DUP3 ADD SLOAD DUP2 MSTORE PUSH1 0x20 ADD PUSH1 0x4 DUP3 ADD SLOAD DUP2 MSTORE PUSH1 0x20 ADD PUSH1 0x5 DUP3 ADD PUSH1 0x0 SWAP1 SLOAD SWAP1 PUSH2 0x100 EXP SWAP1 DIV PUSH1 0xFF AND ISZERO ISZERO ISZERO ISZERO DUP2 MSTORE PUSH1 0x20 ADD PUSH1 0x6 DUP3 ADD SLOAD DUP2 MSTORE PUSH1 0x20 ADD PUSH1 0x7 DUP3 ADD SLOAD DUP2 MSTORE PUSH1 0x20 ADD PUSH1 0x8 DUP3 ADD PUSH1 0x0 SWAP1 SLOAD SWAP1 PUSH2 0x100 EXP SWAP1 DIV PUSH1 0xFF AND ISZERO ISZERO ISZERO ISZERO DUP2 MSTORE POP POP SWAP1 POP SWAP2 SWAP1 POP JUMP JUMPDEST PUSH2 0x1296 PUSH2 0x17C8 JUMP JUMPDEST DUP1 PUSH1 0x1 ISZERO ISZERO PUSH1 0x3 PUSH1 0x0 DUP4 DUP2 MSTORE PUSH1 0x20 ADD SWAP1 DUP2 MSTORE PUSH1 0x20 ADD PUSH1 0x0 KECCAK256 PUSH1 0x0 ADD PUSH1 0x0 SWAP1 SLOAD SWAP1 PUSH2 0x100 EXP SWAP1 DIV PUSH1 0xFF AND ISZERO ISZERO EQ PUSH2 0x12CB JUMPI PUSH1 0x0 DUP1 REVERT JUMPDEST PUSH1 0x0 ISZERO ISZERO PUSH1 0x3 PUSH1 0x0 DUP4 DUP2 MSTORE PUSH1 0x20 ADD SWAP1 DUP2 MSTORE PUSH1 0x20 ADD PUSH1 0x0 KECCAK256 PUSH1 0x8 ADD PUSH1 0x0 SWAP1 SLOAD SWAP1 PUSH2 0x100 EXP SWAP1 DIV PUSH1 0xFF AND ISZERO ISZERO EQ PUSH2 0x12FF JUMPI PUSH1 0x0 DUP1 REVERT JUMPDEST PUSH1 0x0 PUSH1 0x3 PUSH1 0x0 DUP5 DUP2 MSTORE PUSH1 0x20 ADD SWAP1 DUP2 MSTORE PUSH1 0x20 ADD PUSH1 0x0 KECCAK256 SWAP1 POP PUSH1 0x1 ISZERO ISZERO DUP2 PUSH1 0x5 ADD PUSH1 0x0 SWAP1 SLOAD SWAP1 PUSH2 0x100 EXP SWAP1 DIV PUSH1 0xFF AND ISZERO ISZERO EQ PUSH2 0x136E JUMPI PUSH1 0x40 MLOAD PUSH32 0x8C379A000000000000000000000000000000000000000000000000000000000 DUP2 MSTORE PUSH1 0x4 ADD PUSH2 0x1365 SWAP1 PUSH2 0x25DE JUMP JUMPDEST PUSH1 0x40 MLOAD DUP1 SWAP2 SUB SWAP1 REVERT JUMPDEST PUSH1 0x0 PUSH2 0x1468 DUP3 PUSH1 0x40 MLOAD DUP1 PUSH2 0x140 ADD PUSH1 0x40 MSTORE SWAP1 DUP2 PUSH1 0x0 DUP3 ADD PUSH1 0x0 SWAP1 SLOAD SWAP1 PUSH2 0x100 EXP SWAP1 DIV PUSH1 0xFF AND ISZERO ISZERO ISZERO ISZERO DUP2 MSTORE PUSH1 0x20 ADD PUSH1 0x0 DUP3 ADD PUSH1 0x1 SWAP1 SLOAD SWAP1 PUSH2 0x100 EXP SWAP1 DIV PUSH20 0xFFFFFFFFFFFFFFFFFFFFFFFFFFFFFFFFFFFFFFFF AND PUSH20 0xFFFFFFFFFFFFFFFFFFFFFFFFFFFFFFFFFFFFFFFF AND PUSH20 0xFFFFFFFFFFFFFFFFFFFFFFFFFFFFFFFFFFFFFFFF AND DUP2 MSTORE PUSH1 0x20 ADD PUSH1 0x1 DUP3 ADD SLOAD DUP2 MSTORE PUSH1 0x20 ADD PUSH1 0x2 DUP3 ADD SLOAD DUP2 MSTORE PUSH1 0x20 ADD PUSH1 0x3 DUP3 ADD SLOAD DUP2 MSTORE PUSH1 0x20 ADD PUSH1 0x4 DUP3 ADD SLOAD DUP2 MSTORE PUSH1 0x20 ADD PUSH1 0x5 DUP3 ADD PUSH1 0x0 SWAP1 SLOAD SWAP1 PUSH2 0x100 EXP SWAP1 DIV PUSH1 0xFF AND ISZERO ISZERO ISZERO ISZERO DUP2 MSTORE PUSH1 0x20 ADD PUSH1 0x6 DUP3 ADD SLOAD DUP2 MSTORE PUSH1 0x20 ADD PUSH1 0x7 DUP3 ADD SLOAD DUP2 MSTORE PUSH1 0x20 ADD PUSH1 0x8 DUP3 ADD PUSH1 0x0 SWAP1 SLOAD SWAP1 PUSH2 0x100 EXP SWAP1 DIV PUSH1 0xFF AND ISZERO ISZERO ISZERO ISZERO DUP2 MSTORE POP POP PUSH2 0x18E2 JUMP JUMPDEST SWAP1 POP PUSH1 0x0 DUP2 GT ISZERO PUSH2 0x147E JUMPI PUSH2 0x147D DUP5 DUP3 PUSH2 0xB3F JUMP JUMPDEST JUMPDEST PUSH1 0x0 PUSH2 0x149B DUP4 PUSH1 0x7 ADD SLOAD DUP5 PUSH1 0x6 ADD SLOAD PUSH2 0x1A0A SWAP1 SWAP2 SWAP1 PUSH4 0xFFFFFFFF AND JUMP JUMPDEST SWAP1 POP PUSH2 0x14B2 DUP2 PUSH1 0x4 SLOAD PUSH2 0x1A0A SWAP1 SWAP2 SWAP1 PUSH4 0xFFFFFFFF AND JUMP JUMPDEST PUSH1 0x4 DUP2 SWAP1 SSTORE POP PUSH1 0x1 DUP4 PUSH1 0x8 ADD PUSH1 0x0 PUSH2 0x100 EXP DUP2 SLOAD DUP2 PUSH1 0xFF MUL NOT AND SWAP1 DUP4 ISZERO ISZERO MUL OR SWAP1 SSTORE POP POP POP POP POP POP JUMP JUMPDEST PUSH1 0x0 DUP2 PUSH1 0x1 ISZERO ISZERO PUSH1 0x3 PUSH1 0x0 DUP4 DUP2 MSTORE PUSH1 0x20 ADD SWAP1 DUP2 MSTORE PUSH1 0x20 ADD PUSH1 0x0 KECCAK256 PUSH1 0x0 ADD PUSH1 0x0 SWAP1 SLOAD SWAP1 PUSH2 0x100 EXP SWAP1 DIV PUSH1 0xFF AND ISZERO ISZERO EQ PUSH2 0x1513 JUMPI PUSH1 0x0 DUP1 REVERT JUMPDEST PUSH1 0x0 ISZERO ISZERO PUSH1 0x3 PUSH1 0x0 DUP4 DUP2 MSTORE PUSH1 0x20 ADD SWAP1 DUP2 MSTORE PUSH1 0x20 ADD PUSH1 0x0 KECCAK256 PUSH1 0x8 ADD PUSH1 0x0 SWAP1 SLOAD SWAP1 PUSH2 0x100 EXP SWAP1 DIV PUSH1 0xFF AND ISZERO ISZERO EQ PUSH2 0x1547 JUMPI PUSH1 0x0 DUP1 REVERT JUMPDEST PUSH1 0x0 PUSH1 0x3 PUSH1 0x0 DUP6 DUP2 MSTORE PUSH1 0x20 ADD SWAP1 DUP2 MSTORE PUSH1 0x20 ADD PUSH1 0x0 KECCAK256 SWAP1 POP PUSH2 0x1656 DUP2 PUSH1 0x40 MLOAD DUP1 PUSH2 0x140 ADD PUSH1 0x40 MSTORE SWAP1 DUP2 PUSH1 0x0 DUP3 ADD PUSH1 0x0 SWAP1 SLOAD SWAP1 PUSH2 0x100 EXP SWAP1 DIV PUSH1 0xFF AND ISZERO ISZERO ISZERO ISZERO DUP2 MSTORE PUSH1 0x20 ADD PUSH1 0x0 DUP3 ADD PUSH1 0x1 SWAP1 SLOAD SWAP1 PUSH2 0x100 EXP SWAP1 DIV PUSH20 0xFFFFFFFFFFFFFFFFFFFFFFFFFFFFFFFFFFFFFFFF AND PUSH20 0xFFFFFFFFFFFFFFFFFFFFFFFFFFFFFFFFFFFFFFFF AND PUSH20 0xFFFFFFFFFFFFFFFFFFFFFFFFFFFFFFFFFFFFFFFF AND DUP2 MSTORE PUSH1 0x20 ADD PUSH1 0x1 DUP3 ADD SLOAD DUP2 MSTORE PUSH1 0x20 ADD PUSH1 0x2 DUP3 ADD SLOAD DUP2 MSTORE PUSH1 0x20 ADD PUSH1 0x3 DUP3 ADD SLOAD DUP2 MSTORE PUSH1 0x20 ADD PUSH1 0x4 DUP3 ADD SLOAD DUP2 MSTORE PUSH1 0x20 ADD PUSH1 0x5 DUP3 ADD PUSH1 0x0 SWAP1 SLOAD SWAP1 PUSH2 0x100 EXP SWAP1 DIV PUSH1 0xFF AND ISZERO ISZERO ISZERO ISZERO DUP2 MSTORE PUSH1 0x20 ADD PUSH1 0x6 DUP3 ADD SLOAD DUP2 MSTORE PUSH1 0x20 ADD PUSH1 0x7 DUP3 ADD SLOAD DUP2 MSTORE PUSH1 0x20 ADD PUSH1 0x8 DUP3 ADD PUSH1 0x0 SWAP1 SLOAD SWAP1 PUSH2 0x100 EXP SWAP1 DIV PUSH1 0xFF AND ISZERO ISZERO ISZERO ISZERO DUP2 MSTORE POP POP PUSH2 0x18E2 JUMP JUMPDEST SWAP3 POP POP POP SWAP2 SWAP1 POP JUMP JUMPDEST PUSH2 0x1667 PUSH2 0x17C8 JUMP JUMPDEST PUSH1 0x0 PUSH20 0xFFFFFFFFFFFFFFFFFFFFFFFFFFFFFFFFFFFFFFFF AND DUP2 PUSH20 0xFFFFFFFFFFFFFFFFFFFFFFFFFFFFFFFFFFFFFFFF AND EQ ISZERO PUSH2 0x16D7 JUMPI PUSH1 0x40 MLOAD PUSH32 0x8C379A000000000000000000000000000000000000000000000000000000000 DUP2 MSTORE PUSH1 0x4 ADD PUSH2 0x16CE SWAP1 PUSH2 0x255E JUMP JUMPDEST PUSH1 0x40 MLOAD DUP1 SWAP2 SUB SWAP1 REVERT JUMPDEST PUSH2 0x16E0 DUP2 PUSH2 0x1A20 JUMP JUMPDEST POP JUMP JUMPDEST PUSH2 0x16EB PUSH2 0x1D9D JUMP JUMPDEST PUSH2 0x16FD PUSH2 0x16F8 DUP5 DUP5 PUSH2 0x105D JUMP JUMPDEST PUSH2 0x117D JUMP JUMPDEST SWAP1 POP SWAP3 SWAP2 POP POP JUMP JUMPDEST PUSH1 0x0 PUSH2 0x1750 DUP3 PUSH1 0x5 PUSH1 0x0 DUP6 PUSH20 0xFFFFFFFFFFFFFFFFFFFFFFFFFFFFFFFFFFFFFFFF AND PUSH20 0xFFFFFFFFFFFFFFFFFFFFFFFFFFFFFFFFFFFFFFFF AND DUP2 MSTORE PUSH1 0x20 ADD SWAP1 DUP2 MSTORE PUSH1 0x20 ADD PUSH1 0x0 KECCAK256 SLOAD PUSH2 0x105D JUMP JUMPDEST SWAP1 POP SWAP2 SWAP1 POP JUMP JUMPDEST PUSH1 0x0 PUSH2 0x1761 PUSH2 0x4C4 JUMP JUMPDEST DUP3 LT PUSH2 0x17A2 JUMPI PUSH1 0x40 MLOAD PUSH32 0x8C379A000000000000000000000000000000000000000000000000000000000 DUP2 MSTORE PUSH1 0x4 ADD PUSH2 0x1799 SWAP1 PUSH2 0x263E JUMP JUMPDEST PUSH1 0x40 MLOAD DUP1 SWAP2 SUB SWAP1 REVERT JUMPDEST PUSH1 0x2 DUP3 DUP2 SLOAD DUP2 LT PUSH2 0x17B6 JUMPI PUSH2 0x17B5 PUSH2 0x29CD JUMP JUMPDEST JUMPDEST SWAP1 PUSH1 0x0 MSTORE PUSH1 0x20 PUSH1 0x0 KECCAK256 ADD SLOAD SWAP1 POP SWAP2 SWAP1 POP JUMP JUMPDEST PUSH2 0x17D0 PUSH2 0x1AE4 JUMP JUMPDEST PUSH20 0xFFFFFFFFFFFFFFFFFFFFFFFFFFFFFFFFFFFFFFFF AND PUSH2 0x17EE PUSH2 0x1090 JUMP JUMPDEST PUSH20 0xFFFFFFFFFFFFFFFFFFFFFFFFFFFFFFFFFFFFFFFF AND EQ PUSH2 0x1844 JUMPI PUSH1 0x40 MLOAD PUSH32 0x8C379A000000000000000000000000000000000000000000000000000000000 DUP2 MSTORE PUSH1 0x4 ADD PUSH2 0x183B SWAP1 PUSH2 0x25FE JUMP JUMPDEST PUSH1 0x40 MLOAD DUP1 SWAP2 SUB SWAP1 REVERT JUMPDEST JUMP JUMPDEST PUSH1 0x0 DUP2 DUP4 PUSH2 0x1854 SWAP2 SWAP1 PUSH2 0x27A7 JUMP JUMPDEST SWAP1 POP SWAP3 SWAP2 POP POP JUMP JUMPDEST PUSH2 0x18DD DUP4 PUSH4 0xA9059CBB PUSH1 0xE0 SHL DUP5 DUP5 PUSH1 0x40 MLOAD PUSH1 0x24 ADD PUSH2 0x187B SWAP3 SWAP2 SWAP1 PUSH2 0x24F8 JUMP JUMPDEST PUSH1 0x40 MLOAD PUSH1 0x20 DUP2 DUP4 SUB SUB DUP2 MSTORE SWAP1 PUSH1 0x40 MSTORE SWAP1 PUSH28 0xFFFFFFFFFFFFFFFFFFFFFFFFFFFFFFFFFFFFFFFFFFFFFFFFFFFFFFFF NOT AND PUSH1 0x20 DUP3 ADD DUP1 MLOAD PUSH28 0xFFFFFFFFFFFFFFFFFFFFFFFFFFFFFFFFFFFFFFFFFFFFFFFFFFFFFFFF DUP4 DUP2 DUP4 AND OR DUP4 MSTORE POP POP POP POP PUSH2 0x1AEC JUMP JUMPDEST POP POP POP JUMP JUMPDEST PUSH1 0x0 DUP1 PUSH2 0x18ED PUSH2 0x1BB3 JUMP JUMPDEST SWAP1 POP DUP3 PUSH1 0x40 ADD MLOAD DUP2 LT DUP1 PUSH2 0x190A JUMPI POP PUSH1 0x1 ISZERO ISZERO DUP4 PUSH2 0x120 ADD MLOAD ISZERO ISZERO EQ JUMPDEST ISZERO PUSH2 0x1919 JUMPI PUSH1 0x0 SWAP2 POP POP PUSH2 0x1A05 JUMP JUMPDEST PUSH2 0x1934 DUP4 PUSH1 0x80 ADD MLOAD DUP5 PUSH1 0x60 ADD MLOAD PUSH2 0x1846 SWAP1 SWAP2 SWAP1 PUSH4 0xFFFFFFFF AND JUMP JUMPDEST DUP2 LT PUSH2 0x195E JUMPI PUSH2 0x1956 DUP4 PUSH2 0x100 ADD MLOAD DUP5 PUSH1 0xE0 ADD MLOAD PUSH2 0x1A0A SWAP1 SWAP2 SWAP1 PUSH4 0xFFFFFFFF AND JUMP JUMPDEST SWAP2 POP POP PUSH2 0x1A05 JUMP JUMPDEST PUSH1 0x0 PUSH2 0x1977 DUP5 PUSH1 0x60 ADD MLOAD DUP4 PUSH2 0x1A0A SWAP1 SWAP2 SWAP1 PUSH4 0xFFFFFFFF AND JUMP JUMPDEST SWAP1 POP PUSH1 0x0 DUP5 PUSH1 0xA0 ADD MLOAD SWAP1 POP PUSH1 0x0 PUSH2 0x1997 DUP3 DUP5 PUSH2 0x1BBB SWAP1 SWAP2 SWAP1 PUSH4 0xFFFFFFFF AND JUMP JUMPDEST SWAP1 POP PUSH1 0x0 PUSH2 0x19AE DUP4 DUP4 PUSH2 0x1BD1 SWAP1 SWAP2 SWAP1 PUSH4 0xFFFFFFFF AND JUMP JUMPDEST SWAP1 POP PUSH1 0x0 PUSH2 0x19DF DUP9 PUSH1 0x80 ADD MLOAD PUSH2 0x19D1 DUP5 DUP12 PUSH1 0xE0 ADD MLOAD PUSH2 0x1BD1 SWAP1 SWAP2 SWAP1 PUSH4 0xFFFFFFFF AND JUMP JUMPDEST PUSH2 0x1BBB SWAP1 SWAP2 SWAP1 PUSH4 0xFFFFFFFF AND JUMP JUMPDEST SWAP1 POP PUSH2 0x19F9 DUP9 PUSH2 0x100 ADD MLOAD DUP3 PUSH2 0x1A0A SWAP1 SWAP2 SWAP1 PUSH4 0xFFFFFFFF AND JUMP JUMPDEST SWAP1 POP DUP1 SWAP7 POP POP POP POP POP POP POP JUMPDEST SWAP2 SWAP1 POP JUMP JUMPDEST PUSH1 0x0 DUP2 DUP4 PUSH2 0x1A18 SWAP2 SWAP1 PUSH2 0x2888 JUMP JUMPDEST SWAP1 POP SWAP3 SWAP2 POP POP JUMP JUMPDEST PUSH1 0x0 DUP1 PUSH1 0x0 SWAP1 SLOAD SWAP1 PUSH2 0x100 EXP SWAP1 DIV PUSH20 0xFFFFFFFFFFFFFFFFFFFFFFFFFFFFFFFFFFFFFFFF AND SWAP1 POP DUP2 PUSH1 0x0 DUP1 PUSH2 0x100 EXP DUP2 SLOAD DUP2 PUSH20 0xFFFFFFFFFFFFFFFFFFFFFFFFFFFFFFFFFFFFFFFF MUL NOT AND SWAP1 DUP4 PUSH20 0xFFFFFFFFFFFFFFFFFFFFFFFFFFFFFFFFFFFFFFFF AND MUL OR SWAP1 SSTORE POP DUP2 PUSH20 0xFFFFFFFFFFFFFFFFFFFFFFFFFFFFFFFFFFFFFFFF AND DUP2 PUSH20 0xFFFFFFFFFFFFFFFFFFFFFFFFFFFFFFFFFFFFFFFF AND PUSH32 0x8BE0079C531659141344CD1FD0A4F28419497F9722A3DAAFE3B4186F6B6457E0 PUSH1 0x40 MLOAD PUSH1 0x40 MLOAD DUP1 SWAP2 SUB SWAP1 LOG3 POP POP JUMP JUMPDEST PUSH1 0x0 CALLER SWAP1 POP SWAP1 JUMP JUMPDEST PUSH1 0x0 PUSH2 0x1B4E DUP3 PUSH1 0x40 MLOAD DUP1 PUSH1 0x40 ADD PUSH1 0x40 MSTORE DUP1 PUSH1 0x20 DUP2 MSTORE PUSH1 0x20 ADD PUSH32 0x5361666545524332303A206C6F772D6C6576656C2063616C6C206661696C6564 DUP2 MSTORE POP DUP6 PUSH20 0xFFFFFFFFFFFFFFFFFFFFFFFFFFFFFFFFFFFFFFFF AND PUSH2 0x1BE7 SWAP1 SWAP3 SWAP2 SWAP1 PUSH4 0xFFFFFFFF AND JUMP JUMPDEST SWAP1 POP PUSH1 0x0 DUP2 MLOAD GT ISZERO PUSH2 0x1BAE JUMPI DUP1 DUP1 PUSH1 0x20 ADD SWAP1 MLOAD DUP2 ADD SWAP1 PUSH2 0x1B6E SWAP2 SWAP1 PUSH2 0x1FAE JUMP JUMPDEST PUSH2 0x1BAD JUMPI PUSH1 0x40 MLOAD PUSH32 0x8C379A000000000000000000000000000000000000000000000000000000000 DUP2 MSTORE PUSH1 0x4 ADD PUSH2 0x1BA4 SWAP1 PUSH2 0x26DE JUMP JUMPDEST PUSH1 0x40 MLOAD DUP1 SWAP2 SUB SWAP1 REVERT JUMPDEST JUMPDEST POP POP POP JUMP JUMPDEST PUSH1 0x0 TIMESTAMP SWAP1 POP SWAP1 JUMP JUMPDEST PUSH1 0x0 DUP2 DUP4 PUSH2 0x1BC9 SWAP2 SWAP1 PUSH2 0x27FD JUMP JUMPDEST SWAP1 POP SWAP3 SWAP2 POP POP JUMP JUMPDEST PUSH1 0x0 DUP2 DUP4 PUSH2 0x1BDF SWAP2 SWAP1 PUSH2 0x282E JUMP JUMPDEST SWAP1 POP SWAP3 SWAP2 POP POP JUMP JUMPDEST PUSH1 0x60 PUSH2 0x1BF6 DUP5 DUP5 PUSH1 0x0 DUP6 PUSH2 0x1BFF JUMP JUMPDEST SWAP1 POP SWAP4 SWAP3 POP POP POP JUMP JUMPDEST PUSH1 0x60 DUP3 SELFBALANCE LT ISZERO PUSH2 0x1C44 JUMPI PUSH1 0x40 MLOAD PUSH32 0x8C379A000000000000000000000000000000000000000000000000000000000 DUP2 MSTORE PUSH1 0x4 ADD PUSH2 0x1C3B SWAP1 PUSH2 0x25BE JUMP JUMPDEST PUSH1 0x40 MLOAD DUP1 SWAP2 SUB SWAP1 REVERT JUMPDEST PUSH2 0x1C4D DUP6 PUSH2 0x1D13 JUMP JUMPDEST PUSH2 0x1C8C JUMPI PUSH1 0x40 MLOAD PUSH32 0x8C379A000000000000000000000000000000000000000000000000000000000 DUP2 MSTORE PUSH1 0x4 ADD PUSH2 0x1C83 SWAP1 PUSH2 0x269E JUMP JUMPDEST PUSH1 0x40 MLOAD DUP1 SWAP2 SUB SWAP1 REVERT JUMPDEST PUSH1 0x0 DUP1 DUP7 PUSH20 0xFFFFFFFFFFFFFFFFFFFFFFFFFFFFFFFFFFFFFFFF AND DUP6 DUP8 PUSH1 0x40 MLOAD PUSH2 0x1CB5 SWAP2 SWAP1 PUSH2 0x24C6 JUMP JUMPDEST PUSH1 0x0 PUSH1 0x40 MLOAD DUP1 DUP4 SUB DUP2 DUP6 DUP8 GAS CALL SWAP3 POP POP POP RETURNDATASIZE DUP1 PUSH1 0x0 DUP2 EQ PUSH2 0x1CF2 JUMPI PUSH1 0x40 MLOAD SWAP2 POP PUSH1 0x1F NOT PUSH1 0x3F RETURNDATASIZE ADD AND DUP3 ADD PUSH1 0x40 MSTORE RETURNDATASIZE DUP3 MSTORE RETURNDATASIZE PUSH1 0x0 PUSH1 0x20 DUP5 ADD RETURNDATACOPY PUSH2 0x1CF7 JUMP JUMPDEST PUSH1 0x60 SWAP2 POP JUMPDEST POP SWAP2 POP SWAP2 POP PUSH2 0x1D07 DUP3 DUP3 DUP7 PUSH2 0x1D36 JUMP JUMPDEST SWAP3 POP POP POP SWAP5 SWAP4 POP POP POP POP JUMP JUMPDEST PUSH1 0x0 DUP1 DUP3 PUSH20 0xFFFFFFFFFFFFFFFFFFFFFFFFFFFFFFFFFFFFFFFF AND EXTCODESIZE GT SWAP1 POP SWAP2 SWAP1 POP JUMP JUMPDEST PUSH1 0x60 DUP4 ISZERO PUSH2 0x1D46 JUMPI DUP3 SWAP1 POP PUSH2 0x1D96 JUMP JUMPDEST PUSH1 0x0 DUP4 MLOAD GT ISZERO PUSH2 0x1D59 JUMPI DUP3 MLOAD DUP1 DUP5 PUSH1 0x20 ADD REVERT JUMPDEST DUP2 PUSH1 0x40 MLOAD PUSH32 0x8C379A000000000000000000000000000000000000000000000000000000000 DUP2 MSTORE PUSH1 0x4 ADD PUSH2 0x1D8D SWAP2 SWAP1 PUSH2 0x253C JUMP JUMPDEST PUSH1 0x40 MLOAD DUP1 SWAP2 SUB SWAP1 REVERT JUMPDEST SWAP4 SWAP3 POP POP POP JUMP JUMPDEST PUSH1 0x40 MLOAD DUP1 PUSH2 0x140 ADD PUSH1 0x40 MSTORE DUP1 PUSH1 0x0 ISZERO ISZERO DUP2 MSTORE PUSH1 0x20 ADD PUSH1 0x0 PUSH20 0xFFFFFFFFFFFFFFFFFFFFFFFFFFFFFFFFFFFFFFFF AND DUP2 MSTORE PUSH1 0x20 ADD PUSH1 0x0 DUP2 MSTORE PUSH1 0x20 ADD PUSH1 0x0 DUP2 MSTORE PUSH1 0x20 ADD PUSH1 0x0 DUP2 MSTORE PUSH1 0x20 ADD PUSH1 0x0 DUP2 MSTORE PUSH1 0x20 ADD PUSH1 0x0 ISZERO ISZERO DUP2 MSTORE PUSH1 0x20 ADD PUSH1 0x0 DUP2 MSTORE PUSH1 0x20 ADD PUSH1 0x0 DUP2 MSTORE PUSH1 0x20 ADD PUSH1 0x0 ISZERO ISZERO DUP2 MSTORE POP SWAP1 JUMP JUMPDEST PUSH1 0x0 DUP2 CALLDATALOAD SWAP1 POP PUSH2 0x1E1B DUP2 PUSH2 0x2E74 JUMP JUMPDEST SWAP3 SWAP2 POP POP JUMP JUMPDEST PUSH1 0x0 DUP2 CALLDATALOAD SWAP1 POP PUSH2 0x1E30 DUP2 PUSH2 0x2E8B JUMP JUMPDEST SWAP3 SWAP2 POP POP JUMP JUMPDEST PUSH1 0x0 DUP2 MLOAD SWAP1 POP PUSH2 0x1E45 DUP2 PUSH2 0x2E8B JUMP JUMPDEST SWAP3 SWAP2 POP POP JUMP JUMPDEST PUSH1 0x0 DUP2 CALLDATALOAD SWAP1 POP PUSH2 0x1E5A DUP2 PUSH2 0x2EA2 JUMP JUMPDEST SWAP3 SWAP2 POP POP JUMP JUMPDEST PUSH1 0x0 DUP2 MLOAD SWAP1 POP PUSH2 0x1E6F DUP2 PUSH2 0x2EA2 JUMP JUMPDEST SWAP3 SWAP2 POP POP JUMP JUMPDEST PUSH1 0x0 DUP2 CALLDATALOAD SWAP1 POP PUSH2 0x1E84 DUP2 PUSH2 0x2EB9 JUMP JUMPDEST SWAP3 SWAP2 POP POP JUMP JUMPDEST PUSH1 0x0 DUP2 MLOAD SWAP1 POP PUSH2 0x1E99 DUP2 PUSH2 0x2EB9 JUMP JUMPDEST SWAP3 SWAP2 POP POP JUMP JUMPDEST PUSH1 0x0 PUSH1 0x20 DUP3 DUP5 SUB SLT ISZERO PUSH2 0x1EB5 JUMPI PUSH2 0x1EB4 PUSH2 0x29FC JUMP JUMPDEST JUMPDEST PUSH1 0x0 PUSH2 0x1EC3 DUP5 DUP3 DUP6 ADD PUSH2 0x1E0C JUMP JUMPDEST SWAP2 POP POP SWAP3 SWAP2 POP POP JUMP JUMPDEST PUSH1 0x0 DUP1 PUSH1 0x40 DUP4 DUP6 SUB SLT ISZERO PUSH2 0x1EE3 JUMPI PUSH2 0x1EE2 PUSH2 0x29FC JUMP JUMPDEST JUMPDEST PUSH1 0x0 PUSH2 0x1EF1 DUP6 DUP3 DUP7 ADD PUSH2 0x1E0C JUMP JUMPDEST SWAP3 POP POP PUSH1 0x20 PUSH2 0x1F02 DUP6 DUP3 DUP7 ADD PUSH2 0x1E75 JUMP JUMPDEST SWAP2 POP POP SWAP3 POP SWAP3 SWAP1 POP JUMP JUMPDEST PUSH1 0x0 DUP1 PUSH1 0x0 DUP1 PUSH1 0x0 DUP1 PUSH1 0x0 PUSH1 0xE0 DUP9 DUP11 SUB SLT ISZERO PUSH2 0x1F2B JUMPI PUSH2 0x1F2A PUSH2 0x29FC JUMP JUMPDEST JUMPDEST PUSH1 0x0 PUSH2 0x1F39 DUP11 DUP3 DUP12 ADD PUSH2 0x1E0C JUMP JUMPDEST SWAP8 POP POP PUSH1 0x20 PUSH2 0x1F4A DUP11 DUP3 DUP12 ADD PUSH2 0x1E75 JUMP JUMPDEST SWAP7 POP POP PUSH1 0x40 PUSH2 0x1F5B DUP11 DUP3 DUP12 ADD PUSH2 0x1E75 JUMP JUMPDEST SWAP6 POP POP PUSH1 0x60 PUSH2 0x1F6C DUP11 DUP3 DUP12 ADD PUSH2 0x1E75 JUMP JUMPDEST SWAP5 POP POP PUSH1 0x80 PUSH2 0x1F7D DUP11 DUP3 DUP12 ADD PUSH2 0x1E75 JUMP JUMPDEST SWAP4 POP POP PUSH1 0xA0 PUSH2 0x1F8E DUP11 DUP3 DUP12 ADD PUSH2 0x1E21 JUMP JUMPDEST SWAP3 POP POP PUSH1 0xC0 PUSH2 0x1F9F DUP11 DUP3 DUP12 ADD PUSH2 0x1E75 JUMP JUMPDEST SWAP2 POP POP SWAP3 SWAP6 SWAP9 SWAP2 SWAP5 SWAP8 POP SWAP3 SWAP6 POP JUMP JUMPDEST PUSH1 0x0 PUSH1 0x20 DUP3 DUP5 SUB SLT ISZERO PUSH2 0x1FC4 JUMPI PUSH2 0x1FC3 PUSH2 0x29FC JUMP JUMPDEST JUMPDEST PUSH1 0x0 PUSH2 0x1FD2 DUP5 DUP3 DUP6 ADD PUSH2 0x1E36 JUMP JUMPDEST SWAP2 POP POP SWAP3 SWAP2 POP POP JUMP JUMPDEST PUSH1 0x0 PUSH1 0x20 DUP3 DUP5 SUB SLT ISZERO PUSH2 0x1FF1 JUMPI PUSH2 0x1FF0 PUSH2 0x29FC JUMP JUMPDEST JUMPDEST PUSH1 0x0 PUSH2 0x1FFF DUP5 DUP3 DUP6 ADD PUSH2 0x1E4B JUMP JUMPDEST SWAP2 POP POP SWAP3 SWAP2 POP POP JUMP JUMPDEST PUSH1 0x0 PUSH1 0x20 DUP3 DUP5 SUB SLT ISZERO PUSH2 0x201E JUMPI PUSH2 0x201D PUSH2 0x29FC JUMP JUMPDEST JUMPDEST PUSH1 0x0 PUSH2 0x202C DUP5 DUP3 DUP6 ADD PUSH2 0x1E60 JUMP JUMPDEST SWAP2 POP POP SWAP3 SWAP2 POP POP JUMP JUMPDEST PUSH1 0x0 DUP1 PUSH1 0x40 DUP4 DUP6 SUB SLT ISZERO PUSH2 0x204C JUMPI PUSH2 0x204B PUSH2 0x29FC JUMP JUMPDEST JUMPDEST PUSH1 0x0 PUSH2 0x205A DUP6 DUP3 DUP7 ADD PUSH2 0x1E4B JUMP JUMPDEST SWAP3 POP POP PUSH1 0x20 PUSH2 0x206B DUP6 DUP3 DUP7 ADD PUSH2 0x1E75 JUMP JUMPDEST SWAP2 POP POP SWAP3 POP SWAP3 SWAP1 POP JUMP JUMPDEST PUSH1 0x0 PUSH1 0x20 DUP3 DUP5 SUB SLT ISZERO PUSH2 0x208B JUMPI PUSH2 0x208A PUSH2 0x29FC JUMP JUMPDEST JUMPDEST PUSH1 0x0 PUSH2 0x2099 DUP5 DUP3 DUP6 ADD PUSH2 0x1E75 JUMP JUMPDEST SWAP2 POP POP SWAP3 SWAP2 POP POP JUMP JUMPDEST PUSH1 0x0 PUSH1 0x20 DUP3 DUP5 SUB SLT ISZERO PUSH2 0x20B8 JUMPI PUSH2 0x20B7 PUSH2 0x29FC JUMP JUMPDEST JUMPDEST PUSH1 0x0 PUSH2 0x20C6 DUP5 DUP3 DUP6 ADD PUSH2 0x1E8A JUMP JUMPDEST SWAP2 POP POP SWAP3 SWAP2 POP POP JUMP JUMPDEST PUSH2 0x20D8 DUP2 PUSH2 0x28BC JUMP JUMPDEST DUP3 MSTORE POP POP JUMP JUMPDEST PUSH2 0x20E7 DUP2 PUSH2 0x28BC JUMP JUMPDEST DUP3 MSTORE POP POP JUMP JUMPDEST PUSH2 0x20FE PUSH2 0x20F9 DUP3 PUSH2 0x28BC JUMP JUMPDEST PUSH2 0x2941 JUMP JUMPDEST DUP3 MSTORE POP POP JUMP JUMPDEST PUSH2 0x210D DUP2 PUSH2 0x28CE JUMP JUMPDEST DUP3 MSTORE POP POP JUMP JUMPDEST PUSH2 0x211C DUP2 PUSH2 0x28DA JUMP JUMPDEST DUP3 MSTORE POP POP JUMP JUMPDEST PUSH1 0x0 PUSH2 0x212D DUP3 PUSH2 0x2775 JUMP JUMPDEST PUSH2 0x2137 DUP2 DUP6 PUSH2 0x278B JUMP JUMPDEST SWAP4 POP PUSH2 0x2147 DUP2 DUP6 PUSH1 0x20 DUP7 ADD PUSH2 0x290E JUMP JUMPDEST DUP1 DUP5 ADD SWAP2 POP POP SWAP3 SWAP2 POP POP JUMP JUMPDEST PUSH1 0x0 PUSH2 0x215E DUP3 PUSH2 0x2780 JUMP JUMPDEST PUSH2 0x2168 DUP2 DUP6 PUSH2 0x2796 JUMP JUMPDEST SWAP4 POP PUSH2 0x2178 DUP2 DUP6 PUSH1 0x20 DUP7 ADD PUSH2 0x290E JUMP JUMPDEST PUSH2 0x2181 DUP2 PUSH2 0x2A01 JUMP JUMPDEST DUP5 ADD SWAP2 POP POP SWAP3 SWAP2 POP POP JUMP JUMPDEST PUSH1 0x0 PUSH2 0x2199 PUSH1 0x26 DUP4 PUSH2 0x2796 JUMP JUMPDEST SWAP2 POP PUSH2 0x21A4 DUP3 PUSH2 0x2A1F JUMP JUMPDEST PUSH1 0x40 DUP3 ADD SWAP1 POP SWAP2 SWAP1 POP JUMP JUMPDEST PUSH1 0x0 PUSH2 0x21BC PUSH1 0x2D DUP4 PUSH2 0x2796 JUMP JUMPDEST SWAP2 POP PUSH2 0x21C7 DUP3 PUSH2 0x2A6E JUMP JUMPDEST PUSH1 0x40 DUP3 ADD SWAP1 POP SWAP2 SWAP1 POP JUMP JUMPDEST PUSH1 0x0 PUSH2 0x21DF PUSH1 0x3D DUP4 PUSH2 0x2796 JUMP JUMPDEST SWAP2 POP PUSH2 0x21EA DUP3 PUSH2 0x2ABD JUMP JUMPDEST PUSH1 0x40 DUP3 ADD SWAP1 POP SWAP2 SWAP1 POP JUMP JUMPDEST PUSH1 0x0 PUSH2 0x2202 PUSH1 0x26 DUP4 PUSH2 0x2796 JUMP JUMPDEST SWAP2 POP PUSH2 0x220D DUP3 PUSH2 0x2B0C JUMP JUMPDEST PUSH1 0x40 DUP3 ADD SWAP1 POP SWAP2 SWAP1 POP JUMP JUMPDEST PUSH1 0x0 PUSH2 0x2225 PUSH1 0x26 DUP4 PUSH2 0x2796 JUMP JUMPDEST SWAP2 POP PUSH2 0x2230 DUP3 PUSH2 0x2B5B JUMP JUMPDEST PUSH1 0x40 DUP3 ADD SWAP1 POP SWAP2 SWAP1 POP JUMP JUMPDEST PUSH1 0x0 PUSH2 0x2248 PUSH1 0x20 DUP4 PUSH2 0x2796 JUMP JUMPDEST SWAP2 POP PUSH2 0x2253 DUP3 PUSH2 0x2BAA JUMP JUMPDEST PUSH1 0x20 DUP3 ADD SWAP1 POP SWAP2 SWAP1 POP JUMP JUMPDEST PUSH1 0x0 PUSH2 0x226B PUSH1 0x20 DUP4 PUSH2 0x2796 JUMP JUMPDEST SWAP2 POP PUSH2 0x2276 DUP3 PUSH2 0x2BD3 JUMP JUMPDEST PUSH1 0x20 DUP3 ADD SWAP1 POP SWAP2 SWAP1 POP JUMP JUMPDEST PUSH1 0x0 PUSH2 0x228E PUSH1 0x21 DUP4 PUSH2 0x2796 JUMP JUMPDEST SWAP2 POP PUSH2 0x2299 DUP3 PUSH2 0x2BFC JUMP JUMPDEST PUSH1 0x40 DUP3 ADD SWAP1 POP SWAP2 SWAP1 POP JUMP JUMPDEST PUSH1 0x0 PUSH2 0x22B1 PUSH1 0x22 DUP4 PUSH2 0x2796 JUMP JUMPDEST SWAP2 POP PUSH2 0x22BC DUP3 PUSH2 0x2C4B JUMP JUMPDEST PUSH1 0x40 DUP3 ADD SWAP1 POP SWAP2 SWAP1 POP JUMP JUMPDEST PUSH1 0x0 PUSH2 0x22D4 PUSH1 0x42 DUP4 PUSH2 0x2796 JUMP JUMPDEST SWAP2 POP PUSH2 0x22DF DUP3 PUSH2 0x2C9A JUMP JUMPDEST PUSH1 0x60 DUP3 ADD SWAP1 POP SWAP2 SWAP1 POP JUMP JUMPDEST PUSH1 0x0 PUSH2 0x22F7 PUSH1 0x1D DUP4 PUSH2 0x2796 JUMP JUMPDEST SWAP2 POP PUSH2 0x2302 DUP3 PUSH2 0x2D0F JUMP JUMPDEST PUSH1 0x20 DUP3 ADD SWAP1 POP SWAP2 SWAP1 POP JUMP JUMPDEST PUSH1 0x0 PUSH2 0x231A PUSH1 0x2B DUP4 PUSH2 0x2796 JUMP JUMPDEST SWAP2 POP PUSH2 0x2325 DUP3 PUSH2 0x2D38 JUMP JUMPDEST PUSH1 0x40 DUP3 ADD SWAP1 POP SWAP2 SWAP1 POP JUMP JUMPDEST PUSH1 0x0 PUSH2 0x233D PUSH1 0x2A DUP4 PUSH2 0x2796 JUMP JUMPDEST SWAP2 POP PUSH2 0x2348 DUP3 PUSH2 0x2D87 JUMP JUMPDEST PUSH1 0x40 DUP3 ADD SWAP1 POP SWAP2 SWAP1 POP JUMP JUMPDEST PUSH1 0x0 PUSH2 0x2360 PUSH1 0x4A DUP4 PUSH2 0x2796 JUMP JUMPDEST SWAP2 POP PUSH2 0x236B DUP3 PUSH2 0x2DD6 JUMP JUMPDEST PUSH1 0x60 DUP3 ADD SWAP1 POP SWAP2 SWAP1 POP JUMP JUMPDEST PUSH1 0x0 PUSH2 0x2383 PUSH1 0x1F DUP4 PUSH2 0x2796 JUMP JUMPDEST SWAP2 POP PUSH2 0x238E DUP3 PUSH2 0x2E4B JUMP JUMPDEST PUSH1 0x20 DUP3 ADD SWAP1 POP SWAP2 SWAP1 POP JUMP JUMPDEST PUSH2 0x140 DUP3 ADD PUSH1 0x0 DUP3 ADD MLOAD PUSH2 0x23B0 PUSH1 0x0 DUP6 ADD DUP3 PUSH2 0x2104 JUMP JUMPDEST POP PUSH1 0x20 DUP3 ADD MLOAD PUSH2 0x23C3 PUSH1 0x20 DUP6 ADD DUP3 PUSH2 0x20CF JUMP JUMPDEST POP PUSH1 0x40 DUP3 ADD MLOAD PUSH2 0x23D6 PUSH1 0x40 DUP6 ADD DUP3 PUSH2 0x2465 JUMP JUMPDEST POP PUSH1 0x60 DUP3 ADD MLOAD PUSH2 0x23E9 PUSH1 0x60 DUP6 ADD DUP3 PUSH2 0x2465 JUMP JUMPDEST POP PUSH1 0x80 DUP3 ADD MLOAD PUSH2 0x23FC PUSH1 0x80 DUP6 ADD DUP3 PUSH2 0x2465 JUMP JUMPDEST POP PUSH1 0xA0 DUP3 ADD MLOAD PUSH2 0x240F PUSH1 0xA0 DUP6 ADD DUP3 PUSH2 0x2465 JUMP JUMPDEST POP PUSH1 0xC0 DUP3 ADD MLOAD PUSH2 0x2422 PUSH1 0xC0 DUP6 ADD DUP3 PUSH2 0x2104 JUMP JUMPDEST POP PUSH1 0xE0 DUP3 ADD MLOAD PUSH2 0x2435 PUSH1 0xE0 DUP6 ADD DUP3 PUSH2 0x2465 JUMP JUMPDEST POP PUSH2 0x100 DUP3 ADD MLOAD PUSH2 0x244A PUSH2 0x100 DUP6 ADD DUP3 PUSH2 0x2465 JUMP JUMPDEST POP PUSH2 0x120 DUP3 ADD MLOAD PUSH2 0x245F PUSH2 0x120 DUP6 ADD DUP3 PUSH2 0x2104 JUMP JUMPDEST POP POP POP POP JUMP JUMPDEST PUSH2 0x246E DUP2 PUSH2 0x2904 JUMP JUMPDEST DUP3 MSTORE POP POP JUMP JUMPDEST PUSH2 0x247D DUP2 PUSH2 0x2904 JUMP JUMPDEST DUP3 MSTORE POP POP JUMP JUMPDEST PUSH2 0x2494 PUSH2 0x248F DUP3 PUSH2 0x2904 JUMP JUMPDEST PUSH2 0x2965 JUMP JUMPDEST DUP3 MSTORE POP POP JUMP JUMPDEST PUSH1 0x0 PUSH2 0x24A6 DUP3 DUP6 PUSH2 0x20ED JUMP JUMPDEST PUSH1 0x14 DUP3 ADD SWAP2 POP PUSH2 0x24B6 DUP3 DUP5 PUSH2 0x2483 JUMP JUMPDEST PUSH1 0x20 DUP3 ADD SWAP2 POP DUP2 SWAP1 POP SWAP4 SWAP3 POP POP POP JUMP JUMPDEST PUSH1 0x0 PUSH2 0x24D2 DUP3 DUP5 PUSH2 0x2122 JUMP JUMPDEST SWAP2 POP DUP2 SWAP1 POP SWAP3 SWAP2 POP POP JUMP JUMPDEST PUSH1 0x0 PUSH1 0x20 DUP3 ADD SWAP1 POP PUSH2 0x24F2 PUSH1 0x0 DUP4 ADD DUP5 PUSH2 0x20DE JUMP JUMPDEST SWAP3 SWAP2 POP POP JUMP JUMPDEST PUSH1 0x0 PUSH1 0x40 DUP3 ADD SWAP1 POP PUSH2 0x250D PUSH1 0x0 DUP4 ADD DUP6 PUSH2 0x20DE JUMP JUMPDEST PUSH2 0x251A PUSH1 0x20 DUP4 ADD DUP5 PUSH2 0x2474 JUMP JUMPDEST SWAP4 SWAP3 POP POP POP JUMP JUMPDEST PUSH1 0x0 PUSH1 0x20 DUP3 ADD SWAP1 POP PUSH2 0x2536 PUSH1 0x0 DUP4 ADD DUP5 PUSH2 0x2113 JUMP JUMPDEST SWAP3 SWAP2 POP POP JUMP JUMPDEST PUSH1 0x0 PUSH1 0x20 DUP3 ADD SWAP1 POP DUP2 DUP2 SUB PUSH1 0x0 DUP4 ADD MSTORE PUSH2 0x2556 DUP2 DUP5 PUSH2 0x2153 JUMP JUMPDEST SWAP1 POP SWAP3 SWAP2 POP POP JUMP JUMPDEST PUSH1 0x0 PUSH1 0x20 DUP3 ADD SWAP1 POP DUP2 DUP2 SUB PUSH1 0x0 DUP4 ADD MSTORE PUSH2 0x2577 DUP2 PUSH2 0x218C JUMP JUMPDEST SWAP1 POP SWAP2 SWAP1 POP JUMP JUMPDEST PUSH1 0x0 PUSH1 0x20 DUP3 ADD SWAP1 POP DUP2 DUP2 SUB PUSH1 0x0 DUP4 ADD MSTORE PUSH2 0x2597 DUP2 PUSH2 0x21AF JUMP JUMPDEST SWAP1 POP SWAP2 SWAP1 POP JUMP JUMPDEST PUSH1 0x0 PUSH1 0x20 DUP3 ADD SWAP1 POP DUP2 DUP2 SUB PUSH1 0x0 DUP4 ADD MSTORE PUSH2 0x25B7 DUP2 PUSH2 0x21D2 JUMP JUMPDEST SWAP1 POP SWAP2 SWAP1 POP JUMP JUMPDEST PUSH1 0x0 PUSH1 0x20 DUP3 ADD SWAP1 POP DUP2 DUP2 SUB PUSH1 0x0 DUP4 ADD MSTORE PUSH2 0x25D7 DUP2 PUSH2 0x21F5 JUMP JUMPDEST SWAP1 POP SWAP2 SWAP1 POP JUMP JUMPDEST PUSH1 0x0 PUSH1 0x20 DUP3 ADD SWAP1 POP DUP2 DUP2 SUB PUSH1 0x0 DUP4 ADD MSTORE PUSH2 0x25F7 DUP2 PUSH2 0x2218 JUMP JUMPDEST SWAP1 POP SWAP2 SWAP1 POP JUMP JUMPDEST PUSH1 0x0 PUSH1 0x20 DUP3 ADD SWAP1 POP DUP2 DUP2 SUB PUSH1 0x0 DUP4 ADD MSTORE PUSH2 0x2617 DUP2 PUSH2 0x223B JUMP JUMPDEST SWAP1 POP SWAP2 SWAP1 POP JUMP JUMPDEST PUSH1 0x0 PUSH1 0x20 DUP3 ADD SWAP1 POP DUP2 DUP2 SUB PUSH1 0x0 DUP4 ADD MSTORE PUSH2 0x2637 DUP2 PUSH2 0x225E JUMP JUMPDEST SWAP1 POP SWAP2 SWAP1 POP JUMP JUMPDEST PUSH1 0x0 PUSH1 0x20 DUP3 ADD SWAP1 POP DUP2 DUP2 SUB PUSH1 0x0 DUP4 ADD MSTORE PUSH2 0x2657 DUP2 PUSH2 0x2281 JUMP JUMPDEST SWAP1 POP SWAP2 SWAP1 POP JUMP JUMPDEST PUSH1 0x0 PUSH1 0x20 DUP3 ADD SWAP1 POP DUP2 DUP2 SUB PUSH1 0x0 DUP4 ADD MSTORE PUSH2 0x2677 DUP2 PUSH2 0x22A4 JUMP JUMPDEST SWAP1 POP SWAP2 SWAP1 POP JUMP JUMPDEST PUSH1 0x0 PUSH1 0x20 DUP3 ADD SWAP1 POP DUP2 DUP2 SUB PUSH1 0x0 DUP4 ADD MSTORE PUSH2 0x2697 DUP2 PUSH2 0x22C7 JUMP JUMPDEST SWAP1 POP SWAP2 SWAP1 POP JUMP JUMPDEST PUSH1 0x0 PUSH1 0x20 DUP3 ADD SWAP1 POP DUP2 DUP2 SUB PUSH1 0x0 DUP4 ADD MSTORE PUSH2 0x26B7 DUP2 PUSH2 0x22EA JUMP JUMPDEST SWAP1 POP SWAP2 SWAP1 POP JUMP JUMPDEST PUSH1 0x0 PUSH1 0x20 DUP3 ADD SWAP1 POP DUP2 DUP2 SUB PUSH1 0x0 DUP4 ADD MSTORE PUSH2 0x26D7 DUP2 PUSH2 0x230D JUMP JUMPDEST SWAP1 POP SWAP2 SWAP1 POP JUMP JUMPDEST PUSH1 0x0 PUSH1 0x20 DUP3 ADD SWAP1 POP DUP2 DUP2 SUB PUSH1 0x0 DUP4 ADD MSTORE PUSH2 0x26F7 DUP2 PUSH2 0x2330 JUMP JUMPDEST SWAP1 POP SWAP2 SWAP1 POP JUMP JUMPDEST PUSH1 0x0 PUSH1 0x20 DUP3 ADD SWAP1 POP DUP2 DUP2 SUB PUSH1 0x0 DUP4 ADD MSTORE PUSH2 0x2717 DUP2 PUSH2 0x2353 JUMP JUMPDEST SWAP1 POP SWAP2 SWAP1 POP JUMP JUMPDEST PUSH1 0x0 PUSH1 0x20 DUP3 ADD SWAP1 POP DUP2 DUP2 SUB PUSH1 0x0 DUP4 ADD MSTORE PUSH2 0x2737 DUP2 PUSH2 0x2376 JUMP JUMPDEST SWAP1 POP SWAP2 SWAP1 POP JUMP JUMPDEST PUSH1 0x0 PUSH2 0x140 DUP3 ADD SWAP1 POP PUSH2 0x2754 PUSH1 0x0 DUP4 ADD DUP5 PUSH2 0x2399 JUMP JUMPDEST SWAP3 SWAP2 POP POP JUMP JUMPDEST PUSH1 0x0 PUSH1 0x20 DUP3 ADD SWAP1 POP PUSH2 0x276F PUSH1 0x0 DUP4 ADD DUP5 PUSH2 0x2474 JUMP JUMPDEST SWAP3 SWAP2 POP POP JUMP JUMPDEST PUSH1 0x0 DUP2 MLOAD SWAP1 POP SWAP2 SWAP1 POP JUMP JUMPDEST PUSH1 0x0 DUP2 MLOAD SWAP1 POP SWAP2 SWAP1 POP JUMP JUMPDEST PUSH1 0x0 DUP2 SWAP1 POP SWAP3 SWAP2 POP POP JUMP JUMPDEST PUSH1 0x0 DUP3 DUP3 MSTORE PUSH1 0x20 DUP3 ADD SWAP1 POP SWAP3 SWAP2 POP POP JUMP JUMPDEST PUSH1 0x0 PUSH2 0x27B2 DUP3 PUSH2 0x2904 JUMP JUMPDEST SWAP2 POP PUSH2 0x27BD DUP4 PUSH2 0x2904 JUMP JUMPDEST SWAP3 POP DUP3 PUSH32 0xFFFFFFFFFFFFFFFFFFFFFFFFFFFFFFFFFFFFFFFFFFFFFFFFFFFFFFFFFFFFFFFF SUB DUP3 GT ISZERO PUSH2 0x27F2 JUMPI PUSH2 0x27F1 PUSH2 0x296F JUMP JUMPDEST JUMPDEST DUP3 DUP3 ADD SWAP1 POP SWAP3 SWAP2 POP POP JUMP JUMPDEST PUSH1 0x0 PUSH2 0x2808 DUP3 PUSH2 0x2904 JUMP JUMPDEST SWAP2 POP PUSH2 0x2813 DUP4 PUSH2 0x2904 JUMP JUMPDEST SWAP3 POP DUP3 PUSH2 0x2823 JUMPI PUSH2 0x2822 PUSH2 0x299E JUMP JUMPDEST JUMPDEST DUP3 DUP3 DIV SWAP1 POP SWAP3 SWAP2 POP POP JUMP JUMPDEST PUSH1 0x0 PUSH2 0x2839 DUP3 PUSH2 0x2904 JUMP JUMPDEST SWAP2 POP PUSH2 0x2844 DUP4 PUSH2 0x2904 JUMP JUMPDEST SWAP3 POP DUP2 PUSH32 0xFFFFFFFFFFFFFFFFFFFFFFFFFFFFFFFFFFFFFFFFFFFFFFFFFFFFFFFFFFFFFFFF DIV DUP4 GT DUP3 ISZERO ISZERO AND ISZERO PUSH2 0x287D JUMPI PUSH2 0x287C PUSH2 0x296F JUMP JUMPDEST JUMPDEST DUP3 DUP3 MUL SWAP1 POP SWAP3 SWAP2 POP POP JUMP JUMPDEST PUSH1 0x0 PUSH2 0x2893 DUP3 PUSH2 0x2904 JUMP JUMPDEST SWAP2 POP PUSH2 0x289E DUP4 PUSH2 0x2904 JUMP JUMPDEST SWAP3 POP DUP3 DUP3 LT ISZERO PUSH2 0x28B1 JUMPI PUSH2 0x28B0 PUSH2 0x296F JUMP JUMPDEST JUMPDEST DUP3 DUP3 SUB SWAP1 POP SWAP3 SWAP2 POP POP JUMP JUMPDEST PUSH1 0x0 PUSH2 0x28C7 DUP3 PUSH2 0x28E4 JUMP JUMPDEST SWAP1 POP SWAP2 SWAP1 POP JUMP JUMPDEST PUSH1 0x0 DUP2 ISZERO ISZERO SWAP1 POP SWAP2 SWAP1 POP JUMP JUMPDEST PUSH1 0x0 DUP2 SWAP1 POP SWAP2 SWAP1 POP JUMP JUMPDEST PUSH1 0x0 PUSH20 0xFFFFFFFFFFFFFFFFFFFFFFFFFFFFFFFFFFFFFFFF DUP3 AND SWAP1 POP SWAP2 SWAP1 POP JUMP JUMPDEST PUSH1 0x0 DUP2 SWAP1 POP SWAP2 SWAP1 POP JUMP JUMPDEST PUSH1 0x0 JUMPDEST DUP4 DUP2 LT ISZERO PUSH2 0x292C JUMPI DUP1 DUP3 ADD MLOAD DUP2 DUP5 ADD MSTORE PUSH1 0x20 DUP2 ADD SWAP1 POP PUSH2 0x2911 JUMP JUMPDEST DUP4 DUP2 GT ISZERO PUSH2 0x293B JUMPI PUSH1 0x0 DUP5 DUP5 ADD MSTORE JUMPDEST POP POP POP POP JUMP JUMPDEST PUSH1 0x0 PUSH2 0x294C DUP3 PUSH2 0x2953 JUMP JUMPDEST SWAP1 POP SWAP2 SWAP1 POP JUMP JUMPDEST PUSH1 0x0 PUSH2 0x295E DUP3 PUSH2 0x2A12 JUMP JUMPDEST SWAP1 POP SWAP2 SWAP1 POP JUMP JUMPDEST PUSH1 0x0 DUP2 SWAP1 POP SWAP2 SWAP1 POP JUMP JUMPDEST PUSH32 0x4E487B7100000000000000000000000000000000000000000000000000000000 PUSH1 0x0 MSTORE PUSH1 0x11 PUSH1 0x4 MSTORE PUSH1 0x24 PUSH1 0x0 REVERT JUMPDEST PUSH32 0x4E487B7100000000000000000000000000000000000000000000000000000000 PUSH1 0x0 MSTORE PUSH1 0x12 PUSH1 0x4 MSTORE PUSH1 0x24 PUSH1 0x0 REVERT JUMPDEST PUSH32 0x4E487B7100000000000000000000000000000000000000000000000000000000 PUSH1 0x0 MSTORE PUSH1 0x32 PUSH1 0x4 MSTORE PUSH1 0x24 PUSH1 0x0 REVERT JUMPDEST PUSH1 0x0 DUP1 REVERT JUMPDEST PUSH1 0x0 PUSH1 0x1F NOT PUSH1 0x1F DUP4 ADD AND SWAP1 POP SWAP2 SWAP1 POP JUMP JUMPDEST PUSH1 0x0 DUP2 PUSH1 0x60 SHL SWAP1 POP SWAP2 SWAP1 POP JUMP JUMPDEST PUSH32 0x4F776E61626C653A206E6577206F776E657220697320746865207A65726F2061 PUSH1 0x0 DUP3 ADD MSTORE PUSH32 0x6464726573730000000000000000000000000000000000000000000000000000 PUSH1 0x20 DUP3 ADD MSTORE POP JUMP JUMPDEST PUSH32 0x546F6B656E56657374696E673A20736C696365506572696F645365636F6E6473 PUSH1 0x0 DUP3 ADD MSTORE PUSH32 0x206D757374206265203E3D203100000000000000000000000000000000000000 PUSH1 0x20 DUP3 ADD MSTORE POP JUMP JUMPDEST PUSH32 0x546F6B656E56657374696E673A2063616E6E6F742072656C6561736520746F6B PUSH1 0x0 DUP3 ADD MSTORE PUSH32 0x656E732C206E6F7420656E6F7567682076657374656420746F6B656E73000000 PUSH1 0x20 DUP3 ADD MSTORE POP JUMP JUMPDEST PUSH32 0x416464726573733A20696E73756666696369656E742062616C616E636520666F PUSH1 0x0 DUP3 ADD MSTORE PUSH32 0x722063616C6C0000000000000000000000000000000000000000000000000000 PUSH1 0x20 DUP3 ADD MSTORE POP JUMP JUMPDEST PUSH32 0x546F6B656E56657374696E673A2076657374696E67206973206E6F7420726576 PUSH1 0x0 DUP3 ADD MSTORE PUSH32 0x6F6361626C650000000000000000000000000000000000000000000000000000 PUSH1 0x20 DUP3 ADD MSTORE POP JUMP JUMPDEST PUSH32 0x4F776E61626C653A2063616C6C6572206973206E6F7420746865206F776E6572 PUSH1 0x0 DUP3 ADD MSTORE POP JUMP JUMPDEST PUSH32 0x546F6B656E56657374696E673A20616D6F756E74206D757374206265203E2030 PUSH1 0x0 DUP3 ADD MSTORE POP JUMP JUMPDEST PUSH32 0x546F6B656E56657374696E673A20696E646578206F7574206F6620626F756E64 PUSH1 0x0 DUP3 ADD MSTORE PUSH32 0x7300000000000000000000000000000000000000000000000000000000000000 PUSH1 0x20 DUP3 ADD MSTORE POP JUMP JUMPDEST PUSH32 0x546F6B656E56657374696E673A206475726174696F6E206D757374206265203E PUSH1 0x0 DUP3 ADD MSTORE PUSH32 0x2030000000000000000000000000000000000000000000000000000000000000 PUSH1 0x20 DUP3 ADD MSTORE POP JUMP JUMPDEST PUSH32 0x546F6B656E56657374696E673A206F6E6C792062656E65666963696172792061 PUSH1 0x0 DUP3 ADD MSTORE PUSH32 0x6E64206F776E65722063616E2072656C656173652076657374656420746F6B65 PUSH1 0x20 DUP3 ADD MSTORE PUSH32 0x6E73000000000000000000000000000000000000000000000000000000000000 PUSH1 0x40 DUP3 ADD MSTORE POP JUMP JUMPDEST PUSH32 0x416464726573733A2063616C6C20746F206E6F6E2D636F6E7472616374000000 PUSH1 0x0 DUP3 ADD MSTORE POP JUMP JUMPDEST PUSH32 0x546F6B656E56657374696E673A206E6F7420656E6F7567682077697468647261 PUSH1 0x0 DUP3 ADD MSTORE PUSH32 0x7761626C652066756E6473000000000000000000000000000000000000000000 PUSH1 0x20 DUP3 ADD MSTORE POP JUMP JUMPDEST PUSH32 0x5361666545524332303A204552433230206F7065726174696F6E20646964206E PUSH1 0x0 DUP3 ADD MSTORE PUSH32 0x6F74207375636365656400000000000000000000000000000000000000000000 PUSH1 0x20 DUP3 ADD MSTORE POP JUMP JUMPDEST PUSH32 0x546F6B656E56657374696E673A2063616E6E6F74206372656174652076657374 PUSH1 0x0 DUP3 ADD MSTORE PUSH32 0x696E67207363686564756C652062656361757365206E6F742073756666696369 PUSH1 0x20 DUP3 ADD MSTORE PUSH32 0x656E7420746F6B656E7300000000000000000000000000000000000000000000 PUSH1 0x40 DUP3 ADD MSTORE POP JUMP JUMPDEST PUSH32 0x5265656E7472616E637947756172643A207265656E7472616E742063616C6C00 PUSH1 0x0 DUP3 ADD MSTORE POP JUMP JUMPDEST PUSH2 0x2E7D DUP2 PUSH2 0x28BC JUMP JUMPDEST DUP2 EQ PUSH2 0x2E88 JUMPI PUSH1 0x0 DUP1 REVERT JUMPDEST POP JUMP JUMPDEST PUSH2 0x2E94 DUP2 PUSH2 0x28CE JUMP JUMPDEST DUP2 EQ PUSH2 0x2E9F JUMPI PUSH1 0x0 DUP1 REVERT JUMPDEST POP JUMP JUMPDEST PUSH2 0x2EAB DUP2 PUSH2 0x28DA JUMP JUMPDEST DUP2 EQ PUSH2 0x2EB6 JUMPI PUSH1 0x0 DUP1 REVERT JUMPDEST POP JUMP JUMPDEST PUSH2 0x2EC2 DUP2 PUSH2 0x2904 JUMP JUMPDEST DUP2 EQ PUSH2 0x2ECD JUMPI PUSH1 0x0 DUP1 REVERT JUMPDEST POP JUMP INVALID LOG2 PUSH5 0x6970667358 0x22 SLT KECCAK256 0xE7 0xF8 DUP14 MLOAD 0xD0 0xEE 0x23 0xE9 MLOAD PUSH14 0x2A07EAF58765B24534C4B3BC5801 0xD6 SWAP5 DUP16 SWAP3 LOG1 SLT CALLCODE 0xDE PUSH5 0x736F6C6343 STOP ADDMOD SMOD STOP CALLER "
				},
				"gasEstimates": {
					"creation": {
						"codeDepositCost": "2407600",
						"executionCost": "infinite",
						"totalCost": "infinite"
					},
					"external": {
						"": "197",
						"computeNextVestingScheduleIdForHolder(address)": "infinite",
						"computeReleasableAmount(bytes32)": "infinite",
						"computeVestingScheduleIdForAddressAndIndex(address,uint256)": "infinite",
						"createVestingSchedule(address,uint256,uint256,uint256,uint256,bool,uint256)": "infinite",
						"getLastVestingScheduleForHolder(address)": "infinite",
						"getToken()": "infinite",
						"getVestingIdAtIndex(uint256)": "7158",
						"getVestingSchedule(bytes32)": "infinite",
						"getVestingScheduleByAddressAndIndex(address,uint256)": "infinite",
						"getVestingSchedulesCount()": "2469",
						"getVestingSchedulesCountByBeneficiary(address)": "2886",
						"getVestingSchedulesTotalAmount()": "2460",
						"getWithdrawableAmount()": "infinite",
						"owner()": "2567",
						"release(bytes32,uint256)": "infinite",
						"renounceOwnership()": "30487",
						"revoke(bytes32)": "infinite",
						"transferOwnership(address)": "30791",
						"withdraw(uint256)": "infinite"
					},
					"internal": {
						"_computeReleasableAmount(struct TokenVesting.VestingSchedule memory)": "infinite",
						"getCurrentTime()": "22"
					}
				},
				"methodIdentifiers": {
					"computeNextVestingScheduleIdForHolder(address)": "f7c469f0",
					"computeReleasableAmount(bytes32)": "ea1bb3d5",
					"computeVestingScheduleIdForAddressAndIndex(address,uint256)": "8af104da",
					"createVestingSchedule(address,uint256,uint256,uint256,uint256,bool,uint256)": "17e289e9",
					"getLastVestingScheduleForHolder(address)": "7e913dc6",
					"getToken()": "21df0da7",
					"getVestingIdAtIndex(uint256)": "f9079b37",
					"getVestingSchedule(bytes32)": "9ef346b4",
					"getVestingScheduleByAddressAndIndex(address,uint256)": "f51321d7",
					"getVestingSchedulesCount()": "13083617",
					"getVestingSchedulesCountByBeneficiary(address)": "5a7bb69a",
					"getVestingSchedulesTotalAmount()": "48deb471",
					"getWithdrawableAmount()": "90be10cc",
					"owner()": "8da5cb5b",
					"release(bytes32,uint256)": "66afd8ef",
					"renounceOwnership()": "715018a6",
					"revoke(bytes32)": "b75c7dc6",
					"transferOwnership(address)": "f2fde38b",
					"withdraw(uint256)": "2e1a7d4d"
				}
			},
			"storageLayout": {
				"storage": [
					{
						"astId": 7,
						"contract": "VestingContract.sol:TokenVesting",
						"label": "_owner",
						"offset": 0,
						"slot": "0",
						"type": "t_address"
					},
					{
						"astId": 123,
						"contract": "VestingContract.sol:TokenVesting",
						"label": "_status",
						"offset": 0,
						"slot": "1",
						"type": "t_uint256"
					},
					{
						"astId": 1727,
						"contract": "VestingContract.sol:TokenVesting",
						"label": "vestingSchedulesIds",
						"offset": 0,
						"slot": "2",
						"type": "t_array(t_bytes32)dyn_storage"
					},
					{
						"astId": 1732,
						"contract": "VestingContract.sol:TokenVesting",
						"label": "vestingSchedules",
						"offset": 0,
						"slot": "3",
						"type": "t_mapping(t_bytes32,t_struct(VestingSchedule)1721_storage)"
					},
					{
						"astId": 1734,
						"contract": "VestingContract.sol:TokenVesting",
						"label": "vestingSchedulesTotalAmount",
						"offset": 0,
						"slot": "4",
						"type": "t_uint256"
					},
					{
						"astId": 1738,
						"contract": "VestingContract.sol:TokenVesting",
						"label": "holdersVestingCount",
						"offset": 0,
						"slot": "5",
						"type": "t_mapping(t_address,t_uint256)"
					}
				],
				"types": {
					"t_address": {
						"encoding": "inplace",
						"label": "address",
						"numberOfBytes": "20"
					},
					"t_array(t_bytes32)dyn_storage": {
						"base": "t_bytes32",
						"encoding": "dynamic_array",
						"label": "bytes32[]",
						"numberOfBytes": "32"
					},
					"t_bool": {
						"encoding": "inplace",
						"label": "bool",
						"numberOfBytes": "1"
					},
					"t_bytes32": {
						"encoding": "inplace",
						"label": "bytes32",
						"numberOfBytes": "32"
					},
					"t_mapping(t_address,t_uint256)": {
						"encoding": "mapping",
						"key": "t_address",
						"label": "mapping(address => uint256)",
						"numberOfBytes": "32",
						"value": "t_uint256"
					},
					"t_mapping(t_bytes32,t_struct(VestingSchedule)1721_storage)": {
						"encoding": "mapping",
						"key": "t_bytes32",
						"label": "mapping(bytes32 => struct TokenVesting.VestingSchedule)",
						"numberOfBytes": "32",
						"value": "t_struct(VestingSchedule)1721_storage"
					},
					"t_struct(VestingSchedule)1721_storage": {
						"encoding": "inplace",
						"label": "struct TokenVesting.VestingSchedule",
						"members": [
							{
								"astId": 1702,
								"contract": "VestingContract.sol:TokenVesting",
								"label": "initialized",
								"offset": 0,
								"slot": "0",
								"type": "t_bool"
							},
							{
								"astId": 1704,
								"contract": "VestingContract.sol:TokenVesting",
								"label": "beneficiary",
								"offset": 1,
								"slot": "0",
								"type": "t_address"
							},
							{
								"astId": 1706,
								"contract": "VestingContract.sol:TokenVesting",
								"label": "cliff",
								"offset": 0,
								"slot": "1",
								"type": "t_uint256"
							},
							{
								"astId": 1708,
								"contract": "VestingContract.sol:TokenVesting",
								"label": "start",
								"offset": 0,
								"slot": "2",
								"type": "t_uint256"
							},
							{
								"astId": 1710,
								"contract": "VestingContract.sol:TokenVesting",
								"label": "duration",
								"offset": 0,
								"slot": "3",
								"type": "t_uint256"
							},
							{
								"astId": 1712,
								"contract": "VestingContract.sol:TokenVesting",
								"label": "slicePeriodSeconds",
								"offset": 0,
								"slot": "4",
								"type": "t_uint256"
							},
							{
								"astId": 1714,
								"contract": "VestingContract.sol:TokenVesting",
								"label": "revocable",
								"offset": 0,
								"slot": "5",
								"type": "t_bool"
							},
							{
								"astId": 1716,
								"contract": "VestingContract.sol:TokenVesting",
								"label": "amountTotal",
								"offset": 0,
								"slot": "6",
								"type": "t_uint256"
							},
							{
								"astId": 1718,
								"contract": "VestingContract.sol:TokenVesting",
								"label": "released",
								"offset": 0,
								"slot": "7",
								"type": "t_uint256"
							},
							{
								"astId": 1720,
								"contract": "VestingContract.sol:TokenVesting",
								"label": "revoked",
								"offset": 0,
								"slot": "8",
								"type": "t_bool"
							}
						],
						"numberOfBytes": "288"
					},
					"t_uint256": {
						"encoding": "inplace",
						"label": "uint256",
						"numberOfBytes": "32"
					}
				}
			},
			"userdoc": {
				"kind": "user",
				"methods": {
					"computeReleasableAmount(bytes32)": {
						"notice": "Computes the vested amount of tokens for the given vesting schedule identifier."
					},
					"createVestingSchedule(address,uint256,uint256,uint256,uint256,bool,uint256)": {
						"notice": "Creates a new vesting schedule for a beneficiary."
					},
					"getVestingSchedule(bytes32)": {
						"notice": "Returns the vesting schedule information for a given identifier."
					},
					"getVestingScheduleByAddressAndIndex(address,uint256)": {
						"notice": "Returns the vesting schedule information for a given holder and index."
					},
					"getVestingSchedulesTotalAmount()": {
						"notice": "Returns the total amount of vesting schedules."
					},
					"release(bytes32,uint256)": {
						"notice": "Release vested amount of tokens."
					},
					"revoke(bytes32)": {
						"notice": "Revokes the vesting schedule for given identifier."
					},
					"withdraw(uint256)": {
						"notice": "Withdraw the specified amount if possible."
					}
				},
				"version": 1
			}
		}
	}
}