{
  "contractName": "VestingContract",
  "abi": [
    {
      "inputs": [
        {
          "internalType": "address",
          "name": "token_",
          "type": "address"
        }
      ],
      "stateMutability": "nonpayable",
      "type": "constructor"
    },
    {
      "anonymous": false,
      "inputs": [
        {
          "indexed": true,
          "internalType": "address",
          "name": "previousOwner",
          "type": "address"
        },
        {
          "indexed": true,
          "internalType": "address",
          "name": "newOwner",
          "type": "address"
        }
      ],
      "name": "OwnershipTransferred",
      "type": "event"
    },
    {
      "anonymous": false,
      "inputs": [
        {
          "indexed": false,
          "internalType": "uint256",
          "name": "amount",
          "type": "uint256"
        }
      ],
      "name": "Released",
      "type": "event"
    },
    {
      "anonymous": false,
      "inputs": [],
      "name": "Revoked",
      "type": "event"
    },
    {
      "inputs": [],
      "name": "beneficiary",
      "outputs": [
        {
          "internalType": "address",
          "name": "",
          "type": "address"
        }
      ],
      "stateMutability": "view",
      "type": "function"
    },
    {
      "inputs": [],
      "name": "cliff",
      "outputs": [
        {
          "internalType": "uint256",
          "name": "",
          "type": "uint256"
        }
      ],
      "stateMutability": "view",
      "type": "function"
    },
    {
      "inputs": [],
      "name": "duration",
      "outputs": [
        {
          "internalType": "uint256",
          "name": "",
          "type": "uint256"
        }
      ],
      "stateMutability": "view",
      "type": "function"
    },
    {
      "inputs": [],
      "name": "owner",
      "outputs": [
        {
          "internalType": "address",
          "name": "",
          "type": "address"
        }
      ],
      "stateMutability": "view",
      "type": "function"
    },
    {
      "inputs": [],
      "name": "released",
      "outputs": [
        {
          "internalType": "uint256",
          "name": "",
          "type": "uint256"
        }
      ],
      "stateMutability": "view",
      "type": "function"
    },
    {
      "inputs": [],
      "name": "renounceOwnership",
      "outputs": [],
      "stateMutability": "nonpayable",
      "type": "function"
    },
    {
      "inputs": [],
      "name": "revocable",
      "outputs": [
        {
          "internalType": "bool",
          "name": "",
          "type": "bool"
        }
      ],
      "stateMutability": "view",
      "type": "function"
    },
    {
      "inputs": [],
      "name": "revoked",
      "outputs": [
        {
          "internalType": "bool",
          "name": "",
          "type": "bool"
        }
      ],
      "stateMutability": "view",
      "type": "function"
    },
    {
      "inputs": [],
      "name": "start",
      "outputs": [
        {
          "internalType": "uint256",
          "name": "",
          "type": "uint256"
        }
      ],
      "stateMutability": "view",
      "type": "function"
    },
    {
      "inputs": [
        {
          "internalType": "address",
          "name": "newOwner",
          "type": "address"
        }
      ],
      "name": "transferOwnership",
      "outputs": [],
      "stateMutability": "nonpayable",
      "type": "function"
    },
    {
      "inputs": [
        {
          "internalType": "address",
          "name": "_beneficiary",
          "type": "address"
        },
        {
          "internalType": "uint256",
          "name": "_start",
          "type": "uint256"
        },
        {
          "internalType": "uint256",
          "name": "_cliff",
          "type": "uint256"
        },
        {
          "internalType": "uint256",
          "name": "_duration",
          "type": "uint256"
        },
        {
          "internalType": "bool",
          "name": "_revocable",
          "type": "bool"
        }
      ],
      "name": "createtokenVesting",
      "outputs": [],
      "stateMutability": "nonpayable",
      "type": "function"
    },
    {
      "inputs": [],
      "name": "release",
      "outputs": [],
      "stateMutability": "nonpayable",
      "type": "function"
    },
    {
      "inputs": [],
      "name": "revoke",
      "outputs": [],
      "stateMutability": "nonpayable",
      "type": "function"
    },
    {
      "inputs": [],
      "name": "releasableAmount",
      "outputs": [
        {
          "internalType": "uint256",
          "name": "",
          "type": "uint256"
        }
      ],
      "stateMutability": "view",
      "type": "function"
    },
    {
      "inputs": [],
      "name": "vestedAmount",
      "outputs": [
        {
          "internalType": "uint256",
          "name": "",
          "type": "uint256"
        }
      ],
      "stateMutability": "view",
      "type": "function"
    }
  ],
  "bytecode": "0x60a060405234801561001057600080fd5b50604051610ce0380380610ce083398101604081905261002f916100b0565b61003833610060565b600180556001600160a01b03811661004f57600080fd5b6001600160a01b03166080526100e0565b600080546001600160a01b038381166001600160a01b0319831681178455604051919092169283917f8be0079c531659141344cd1fd0a4f28419497f9722a3daafe3b4186f6b6457e09190a35050565b6000602082840312156100c257600080fd5b81516001600160a01b03811681146100d957600080fd5b9392505050565b608051610bd061011060003960008181610209015281816103c00152818161045e01526105370152610bd06000f3fe608060405234801561001057600080fd5b50600436106100f55760003560e01c80637c0b2b7411610097578063961325211161006657806396132521146101ba578063b6549f75146101c3578063be9a6555146101cb578063f2fde38b146101d457600080fd5b80637c0b2b741461018157806386d1a69f14610194578063872a78101461019c5780638da5cb5b146101a957600080fd5b806344b1231f116100d357806344b1231f1461014a5780635b9400811461015257806363d256ce1461015a578063715018a61461017757600080fd5b80630fb5a6b4146100fa57806313d033c01461011657806338af3eed1461011f575b600080fd5b61010360055481565b6040519081526020015b60405180910390f35b61010360035481565b600254610132906001600160a01b031681565b6040516001600160a01b03909116815260200161010d565b6101036101e7565b6101036102fe565b6008546101679060ff1681565b604051901515815260200161010d565b61017f610319565b005b61017f61018f366004610a0d565b61032d565b61017f610391565b6006546101679060ff1681565b6000546001600160a01b0316610132565b61010360075481565b61017f61041f565b61010360045481565b61017f6101e2366004610a61565b6105d6565b6040516370a0823160e01b815230600482015260009081906001600160a01b037f000000000000000000000000000000000000000000000000000000000000000016906370a0823190602401602060405180830381865afa158015610250573d6000803e3d6000fd5b505050506040513d601f19601f820116820180604052508101906102749190610a7c565b9050600061028d6007548361065490919063ffffffff16565b90506003544210156102a25760009250505090565b6005546004546102b191610654565b421015806102c1575060085460ff165b156102cc5792915050565b6102f76005546102f16102ea6004544261066990919063ffffffff16565b8490610675565b90610681565b9250505090565b600061031460075461030e6101e7565b90610669565b905090565b61032161068d565b61032b60006106e7565b565b6001600160a01b03851661034057600080fd5b8183111561034d57600080fd5b600280546001600160a01b0319166001600160a01b0387161790556006805460ff191682151517905560058290556103858484610654565b60035550505060045550565b600061039b6102fe565b9050600081116103aa57600080fd5b60078190556002546103e9906001600160a01b037f00000000000000000000000000000000000000000000000000000000000000008116911683610737565b6040518181527ffb81f9b30d73d830c3544b34d827c08142579ee75710b490bab0b3995468c5659060200160405180910390a150565b61042761068d565b60065460ff1661043657600080fd5b60085460ff161561044657600080fd5b6040516370a0823160e01b81523060048201526000907f00000000000000000000000000000000000000000000000000000000000000006001600160a01b0316906370a0823190602401602060405180830381865afa1580156104ad573d6000803e3d6000fd5b505050506040513d601f19601f820116820180604052508101906104d19190610a7c565b905060006104dd6102fe565b905060006104eb8383610669565b6008805460ff191660011790559050600061050e6000546001600160a01b031690565b60405163a9059cbb60e01b81526001600160a01b038083166004830152602482018590529192507f00000000000000000000000000000000000000000000000000000000000000009091169063a9059cbb906044016020604051808303816000875af1158015610582573d6000803e3d6000fd5b505050506040513d601f19601f820116820180604052508101906105a69190610a95565b506040517f44825a4b2df8acb19ce4e1afba9aa850c8b65cdb7942e2078f27d0b0960efee690600090a150505050565b6105de61068d565b6001600160a01b0381166106485760405162461bcd60e51b815260206004820152602660248201527f4f776e61626c653a206e6577206f776e657220697320746865207a65726f206160448201526564647265737360d01b60648201526084015b60405180910390fd5b610651816106e7565b50565b60006106608284610ac8565b90505b92915050565b60006106608284610adb565b60006106608284610aee565b60006106608284610b05565b6000546001600160a01b0316331461032b5760405162461bcd60e51b815260206004820181905260248201527f4f776e61626c653a2063616c6c6572206973206e6f7420746865206f776e6572604482015260640161063f565b600080546001600160a01b038381166001600160a01b0319831681178455604051919092169283917f8be0079c531659141344cd1fd0a4f28419497f9722a3daafe3b4186f6b6457e09190a35050565b604080516001600160a01b038416602482015260448082018490528251808303909101815260649091019091526020810180516001600160e01b031663a9059cbb60e01b17905261078990849061078e565b505050565b60006107e3826040518060400160405280602081526020017f5361666545524332303a206c6f772d6c6576656c2063616c6c206661696c6564815250856001600160a01b03166108609092919063ffffffff16565b80519091501561078957808060200190518101906108019190610a95565b6107895760405162461bcd60e51b815260206004820152602a60248201527f5361666545524332303a204552433230206f7065726174696f6e20646964206e6044820152691bdd081cdd58d8d9595960b21b606482015260840161063f565b606061086f8484600085610879565b90505b9392505050565b6060824710156108da5760405162461bcd60e51b815260206004820152602660248201527f416464726573733a20696e73756666696369656e742062616c616e636520666f6044820152651c8818d85b1b60d21b606482015260840161063f565b6001600160a01b0385163b6109315760405162461bcd60e51b815260206004820152601d60248201527f416464726573733a2063616c6c20746f206e6f6e2d636f6e7472616374000000604482015260640161063f565b600080866001600160a01b0316858760405161094d9190610b4b565b60006040518083038185875af1925050503d806000811461098a576040519150601f19603f3d011682016040523d82523d6000602084013e61098f565b606091505b509150915061099f8282866109aa565b979650505050505050565b606083156109b9575081610872565b8251156109c95782518084602001fd5b8160405162461bcd60e51b815260040161063f9190610b67565b80356001600160a01b03811681146109fa57600080fd5b919050565b801515811461065157600080fd5b600080600080600060a08688031215610a2557600080fd5b610a2e866109e3565b94506020860135935060408601359250606086013591506080860135610a53816109ff565b809150509295509295909350565b600060208284031215610a7357600080fd5b610660826109e3565b600060208284031215610a8e57600080fd5b5051919050565b600060208284031215610aa757600080fd5b8151610872816109ff565b634e487b7160e01b600052601160045260246000fd5b8082018082111561066357610663610ab2565b8181038181111561066357610663610ab2565b808202811582820484141761066357610663610ab2565b600082610b2257634e487b7160e01b600052601260045260246000fd5b500490565b60005b83811015610b42578181015183820152602001610b2a565b50506000910152565b60008251610b5d818460208701610b27565b9190910192915050565b6020815260008251806020840152610b86816040850160208701610b27565b601f01601f1916919091016040019291505056fea264697066735822122068cdff8e214c7209671c8a4ee648a6f923318bab51c49fdd57b8dce0df66d53164736f6c63430008110033",
  "immutableReferences": {
    "2399": [
      {
        "length": 32,
        "start": 521
      },
      {
        "length": 32,
        "start": 960
      },
      {
        "length": 32,
        "start": 1118
      },
      {
        "length": 32,
        "start": 1335
      }
    ]
  },
  "source": "// SPDX-License-Identifier: MIT\r\npragma solidity ^0.8.4;\r\n\r\nimport \"@openzeppelin/contracts/token/ERC20/IERC20.sol\";\r\nimport \"@openzeppelin/contracts/token/ERC20/utils/SafeERC20.sol\";\r\nimport \"@openzeppelin/contracts/security/ReentrancyGuard.sol\";\r\nimport \"@openzeppelin/contracts/access/Ownable.sol\";\r\nimport \"@openzeppelin/contracts/utils/math/Math.sol\";\r\nimport \"@openzeppelin/contracts/utils/math/SafeMath.sol\";\r\n/**\r\n * @title _tokenVesting\r\n * @dev A _token holder contract that can release its _token balance gradually like a\r\n * typical vesting scheme, with a cliff and vesting period. Optionally revocable by the\r\n * owner.\r\n */\r\ncontract VestingContract is Ownable, ReentrancyGuard {\r\n using SafeMath for uint256;\r\n using SafeERC20 for IERC20;\r\n\r\n\r\n  event Released(uint256 amount);\r\n  event Revoked();\r\n\r\n  // beneficiary of _tokens after they are released\r\n  address public beneficiary;\r\n\r\n  uint256 public cliff;\r\n  uint256 public start;\r\n  uint256 public duration;\r\n   \r\n\r\n  bool public revocable;\r\n  uint256 public released;\r\n  bool public revoked;\r\n\r\n//   mapping (address => uint256) public released;\r\n//   mapping (address => bool) public revoked;\r\n\r\n IERC20 immutable private _token;\r\n\r\n constructor(address token_){\r\n    require(token_ != address(0x0));\r\n    _token = IERC20(token_);\r\n }\r\n\r\n  /**\r\n   * @dev Creates a vesting contract that vests its balance of any ERC20 _token to the\r\n   * _beneficiary, gradually in a linear fashion until _start + _duration. By then all\r\n   * of the balance will have vested.\r\n   * @param _beneficiary address of the beneficiary to whom vested _tokens are transferred\r\n   * @param _cliff duration in seconds of the cliff in which _tokens will begin to vest\r\n   * @param _duration duration in seconds of the period in which the _tokens will vest\r\n   * @param _revocable whether the vesting is revocable or not\r\n   */\r\n  function createtokenVesting(address _beneficiary, uint256 _start, uint256 _cliff, uint256 _duration, bool _revocable) public{\r\n    require(_beneficiary != address(0));\r\n    require(_cliff <= _duration);\r\n\r\n    beneficiary = _beneficiary;\r\n    revocable = _revocable;\r\n    duration = _duration;\r\n    cliff = _start.add(_cliff);\r\n    start = _start;\r\n  }\r\n\r\n\r\n  function release() public {\r\n    uint256 unreleased = releasableAmount();\r\n\r\n    require(unreleased > 0);\r\n\r\n    released = unreleased;\r\n\r\n    _token.safeTransfer(beneficiary, unreleased);\r\n\r\n    emit Released(unreleased);\r\n  }\r\n\r\n\r\n  function revoke() public onlyOwner {\r\n    require(revocable);\r\n    require(!revoked);\r\n\r\n    uint256 balance = _token.balanceOf(address(this));\r\n\r\n    uint256 unreleased = releasableAmount();\r\n    uint256 refund = balance.sub(unreleased);\r\n\r\n    revoked = true;\r\n    \r\n    address contractOwner = owner();\r\n    _token.transfer(contractOwner, refund);\r\n\r\n    emit Revoked();\r\n  }\r\n\r\n\r\n  function releasableAmount() public view returns (uint256) {\r\n    return vestedAmount().sub(released);\r\n  }\r\n\r\n \r\n  function vestedAmount() public view returns (uint256) {\r\n    uint256 currentBalance = _token.balanceOf(address(this));\r\n    uint256 totalBalance = currentBalance.add(released);\r\n\r\n    if (block.timestamp < cliff) {\r\n      return 0;\r\n    } else if (block.timestamp >= start.add(duration) || revoked) {\r\n      return totalBalance;\r\n    } else {\r\n      return totalBalance.mul(block.timestamp.sub(start)).div(duration);\r\n    }\r\n  }\r\n}",
  "sourcePath": "D:\\work\\eth\\vesting_contracts\\contracts\\VestingContract.sol",
  "compiler": {
    "name": "solc",
    "version": "0.8.17+commit.8df45f5f.Emscripten.clang"
  },
  "schemaVersion": "3.4.4",
  "updatedAt": "2022-10-19T20:40:47.525Z",
  "devdoc": {
    "details": "A _token holder contract that can release its _token balance gradually like a typical vesting scheme, with a cliff and vesting period. Optionally revocable by the owner.",
    "kind": "dev",
    "methods": {
      "createtokenVesting(address,uint256,uint256,uint256,bool)": {
        "details": "Creates a vesting contract that vests its balance of any ERC20 _token to the _beneficiary, gradually in a linear fashion until _start + _duration. By then all of the balance will have vested.",
        "params": {
          "_beneficiary": "address of the beneficiary to whom vested _tokens are transferred",
          "_cliff": "duration in seconds of the cliff in which _tokens will begin to vest",
          "_duration": "duration in seconds of the period in which the _tokens will vest",
          "_revocable": "whether the vesting is revocable or not"
        }
      },
      "owner()": {
        "details": "Returns the address of the current owner."
      },
      "renounceOwnership()": {
        "details": "Leaves the contract without owner. It will not be possible to call `onlyOwner` functions anymore. Can only be called by the current owner. NOTE: Renouncing ownership will leave the contract without an owner, thereby removing any functionality that is only available to the owner."
      },
      "transferOwnership(address)": {
        "details": "Transfers ownership of the contract to a new account (`newOwner`). Can only be called by the current owner."
      }
    },
    "title": "_tokenVesting",
    "version": 1
  },
  "userdoc": {
    "kind": "user",
    "methods": {},
    "version": 1
  }
}